:020000040000FA
:1000000000008C313A2CFF348A012000911C4028DA
:10001000031022000D0D2000AE002E08031D122833
:100020001030AE0021008E0120008D0120002E082E
:10003000103A031928282E08203A03192D282E08D3
:10004000403A031932282E08803A031937283B28F2
:100050002100310820008E003B28210032082000BA
:100060008E003B282100330820008E003B28210011
:10007000340820008E0020002E0820008D009110F2
:10008000090020008B130D082000C40021000E0879
:100090002000C50020008D01D83021008E00031003
:1000A0002000490D2000C600C70120008E1F5A28DD
:1000B0002000C70A20004608C8004708C6004804B8
:1000C0002000C9000310490D2000C600C701200010
:1000D0000E1E6C282000C70A20004608C8004708EA
:1000E000C60048042000C9000310490D2000C600C6
:1000F000C70120000E1F7E282000C70A20004608E6
:10010000C8004708C60048042000C9000310490D74
:100110002000C600C70120008E1D90282000C70ABD
:1001200020004608C8004708C60048042000C9004F
:100130002000440820008D002000450821008E008A
:1001400020008B1720004A08031DCA030A30200034
:100150004B020318112D00308A00B2304B070318F0
:100160008A0A8200BC28E328112D0F292A29602938
:10017000BB29422A382BAF2B8830200049052000AC
:10018000C400083A031DCB2864302000CA000130A7
:100190002000CB00132D2230200049052000C40090
:1001A000023A031DD72803302000CB00132D443022
:1001B000200049052000C400403A031D132D0430DF
:1001C0002000CB00132D003020004A04031D042919
:1001D0007F308C31132480312000C5007708C400A3
:1001E0004504003003190130C600C400C501C41B1A
:1001F000C5034408F6004508F7007F308B31E4233F
:1002000081312000CB01132D8830200049052000CA
:10021000C400883A0319132D2000CB01132D74302C
:100220008C31132481312000C5007708C4000130CF
:10023000F6004408F70045088B310B23813122304A
:10024000200049052000C400223A0319132D200084
:10025000CB01132D21003416063020004C02031868
:100260004B2919302100B100DD302100B2002000FF
:100270004C08913E2000C4000D300318013EC5001B
:100280004408F6004508F70080308D314325813160
:100290002100B300592920004C08063A031D5929B2
:1002A00061302100B10009302100B200C9302100C5
:1002B000B300C8302000CA0005302000CB00132D49
:1002C000003020004A0403196D29883020004905B8
:1002D0002000C400803A031D70292000CB01132D9B
:1002E0002230200049052000C400203A031D8C293B
:1002F00020004C08063A031D80292000C4018429EF
:1003000020004C0A2000C400200044082000CC003B
:1003100004302000CB00132D1130200049052000AF
:10032000C400103A031DAD2920004C080030031909
:1003300001302000C40044080319A1290630C4007C
:10034000A52920004C032000C40020004408200000
:10035000CC0004302000CB00132D44302000490590
:100360002000C400403A031D132D2000CD010630AB
:100370002000CB00132D21003416063020004C0243
:100380000318E82920004D1CCC2985302100B1003C
:10039000D1302100B200D22961302100B1001930E2
:1003A0002100B200031020004D0C2000C400913E3B
:1003B000C4000D300318013EC5004408F60045088E
:1003C000F70080308D31432581312100B3003B2A75
:1003D00020004C08063A031D3B2AFF302100B300E1
:1003E000083020004D0203183B2A01308A00FC30FF
:1003F0004D0703188A0A8200042A0B2A122A192A96
:10040000202A272A2E2A352AD1302100B100A130F6
:100410002100B2003B2AC9302100B100CD302100BB
:10042000B2003B2A61302100B10019302100B20036
:100430003B2A61302100B100C9302100B2003B2AC3
:1004400085302100B100D1302100B2003B2ACD30EF
:100450002100B10085302100B2003B2AD1302100BB
:10046000B10085302100B2003B2ADD302100B1000F
:10047000D5302100B200C8302000CA00073020006B
:10048000CB00132D003020004A04031D4A2A20000F
:10049000CB01132D8830200049052000C400803A8C
:1004A000031D562A04302000CB00132D22302000DB
:1004B00049052000C400203A031DAD2A0630200063
:1004C0004C0203187D2A123020004D022000C40186
:1004D000031C44144408003003190130C5004508CA
:1004E0000319742AC401782A20004D0A2000C40090
:1004F000200044082000CD00A92A073020004D022A
:100500002000C401031C44144408003003190130C6
:10051000C500450803198E2AC401922A20004D0AFD
:100520002000C400200044082000CD00033A031D31
:10053000A92A79308C31132482312000C500770834
:10054000C400C60006304602031CA92A053020005C
:10055000CD0006302000CB00132D113020004905BE
:100560002000C400103A031DFC2A063020004C0273
:100570000318D02A20004D08003003190130200054
:10058000C40044080319C72A1230C400CB2A200033
:100590004D032000C400200044082000CD00F82AAC
:1005A00020004D080030031901302000C400440829
:1005B0000319DD2A0730C400E12A20004D03200082
:1005C000C400200044082000CD00043A031DF82A8E
:1005D00079308C31132482312000C5007708C400A3
:1005E000C60006304602031CF82A02302000CD0067
:1005F00006302000CB00132D443020004905200098
:10060000C400403A031D132D1330F70020004C089E
:100610008D31722583312000C40020004D08200058
:10062000C40744088C31132483312000CF0077089D
:10063000CE001330F70020004C088D317225833135
:100640002000C40020004D082000C4074408F60024
:1006500020004E08F7004F0825252000CF0077081E
:10066000CE00C8302000CA0008302000CB00132D77
:10067000063020004C020318542B20004D1C4A2B3E
:100680000030F60020004E08F7004F088B310B2396
:100690008331A82B0130F60020004E08F7004F08E8
:1006A0008B310B238331A82B20004C08063A031D05
:1006B000A82B033020004D020318682B0130F600F0
:1006C00020004E08F7004F088B310B238331A82BF5
:1006D000073020004D020318772B0030F600200071
:1006E0004E08F7004F088B310B238331A82B2000D5
:1006F0004E08063A031D8A2B4F08003A031D8A2B29
:10070000C9302100B100D1302100B200FF302100FA
:10071000B300A82B19302100B100DD302100B20058
:100720000F3020004E052000C400C5014408913E52
:10073000C40045080318450F0D3EC5004408F600E7
:100740004508F70080308D31432583312100B30007
:10075000C8302000CA0009302000CB00132D003023
:1007600020004A04031DB72B2000CB01132D883035
:10077000200049052000C400803A031DC32B063029
:100780002000CB00132D2230200049052000C4009A
:10079000203A0319CF2B4408223A031D282C2000AD
:1007A0004F08803E7D3E031DD72BE8304E022000CF
:1007B000C401031C44144408003003190130C5006F
:1007C0004508031DED2B20004F08803E843E031D8D
:1007D000EB2B18304E020318F92B0A3020004E077D
:1007E0002000C400C501C50D20004F082000C5072A
:1007F000042C013020004E072000C400C501C50DA7
:1008000020004F082000C507200044082000CE002B
:10081000200045082000CF001330F70020004C08CE
:100820008D31722584312000C40020004D08200045
:10083000C4074408F60020004E08F7004F0825259D
:100840002000CF007708CE0008302000CB00132D09
:100850001130200049052000C400103A0319342C3F
:100860004408113A031D942C20004F08803E7D3E21
:10087000031D3C2CE9304E020318512C20004F0878
:10088000803E843E031D462C19304E022000C401D8
:10089000C40D4408003003190130C5004508031990
:1008A000612CF63020004E072000C400FF30C50048
:1008B00020004F0803184F0A0319602C2000C507B9
:1008C000702CFF3020004E072000C400FF30C50010
:1008D00020004F0803184F0A0319702C2000C50789
:1008E000200044082000CE00200045082000CF0052
:1008F0001330F70020004C088D3172258431200020
:10090000C40020004D082000C4074408F600200061
:100910004E08F7004F0825252000CF007708CE00AD
:1009200008302000CB00132D443020004905200062
:10093000C400403A031D132D20004C08063A031D45
:10094000F62C20004D08073A031DF62C0030F60067
:100950000030F70075308B31E42384310030F6002D
:100960000030F70076308B31E423843120004F08CB
:10097000803E803E031DBE2C06304E020318F62C2E
:1009800020004E082000C4001330F70044088D31C9
:10099000722584312000C5008C311324843120005D
:1009A000C5007708C400F6004508F70074308B31A5
:1009B000E423843120004E082000C4001330F700E7
:1009C00044088D31722584312000C500450AC400D9
:1009D0008C31132484312000C5007708C4004504FD
:1009E000031DF62C06302000CE00CF011330F70097
:1009F00020004C088D31722584312000C400200075
:100A00004D082000C40720004E08F6004F08F700EC
:100A1000200044088B31E423853106302000CB00D0
:100A2000132D2000CB0120004B08003003190130AA
:100A30002000C400C500450C0318202D2000991388
:100A4000031C242D2000991708002000BD00770802
:100A5000BC007608BE0072303E02BF01031C3F148A
:100A60003F0803198D2D3E1C5D2D3D08803E7D3EC7
:100A7000031D3C2DE8303C02031C422D2000C00128
:100A8000C101572D03142000BD1F0310031C4D2D61
:100A9000E730C2000330C300522D20003C08C200E2
:100AA0003D08C30020004208C0004308C1002000E8
:100AB0004008BC004108BD00F62E20003D08803EE5
:100AC0007B3E031D652D79303C02031C6D2D70307B
:100AD0002000C000FE30C100872D20003D08803E70
:100AE000823E031D752D70303C0203187D2D783039
:100AF0002000C2000530C300822D20003C08C20047
:100B00003D08C30020004208C0004308C100200087
:100B10004008BC004108BD00F62E003020003F0414
:100B2000031DF62E7A303E020318F62E8E30BE07D5
:100B300005308A009F303E0703188A0A8200A72DDD
:100B4000CF2DFE2D2E2E562E7F2EA72ECF2E2000FF
:100B50003D08803E803E031DAF2D1A303C02031C31
:100B6000B52D2000BE01BF01C92D03142000BD1FFB
:100B70000310031CBF2D1930C000C101C42D20007B
:100B80003C08C0003D08C10020004008BE004108EC
:100B9000BF0020003E08BC003F08BD00F62E20002C
:100BA0003D08803E803E031DD72D1A303C02031CB9
:100BB000DF2DE7302000BE00FF30BF00F82D200001
:100BC0003D08803E813E031DE72DE7303C020318BF
:100BD000EE2D19302000C000C101F32D20003C088B
:100BE000C0003D08C10020004008BE004108BF0011
:100BF00020003E08BC003F08BD00F62E20003D0846
:100C0000803E7B3E031D062E79303C02031C0E2ED7
:100C100070302000BE00FE30BF00282E20003D08AE
:100C2000803E823E031D162E70303C0203181E2E9D
:100C300078302000C0000530C100232E20003C0881
:100C4000C0003D08C10020004008BE004108BF00B0
:100C500020003E08BC003F08BD00F62E20003D08E5
:100C6000803E803E031D362E09303C02031C3C2E84
:100C70002000BE01BF01502E03142000BD1F031031
:100C8000031C462E0830C000C1014B2E20003C083A
:100C9000C0003D08C10020004008BE004108BF0060
:100CA00020003E08BC003F08BD00F62E20003D0895
:100CB000803E7D3E031D5E2EE8303C02031C642E08
:100CC0002000BE01BF01792E03142000BD1F0310B8
:100CD000031C6F2EE730C0000330C100742E2000CB
:100CE0003C08C0003D08C10020004008BE0041088B
:100CF000BF0020003E08BC003F08BD00F62E2000CB
:100D00003D08803E803E031D872E3D303C02031C83
:100D10008D2E2000BE01BF01A12E03142000BD1F97
:100D20000310031C972E3C30C000C1019C2E2000F4
:100D30003C08C0003D08C10020004008BE0041083A
:100D4000BF0020003E08BC003F08BD00F62E20007A
:100D50003D08803E803E031DAF2E05303C02031C43
:100D6000B52E2000BE01BF01C92E03142000BD1FF7
:100D70000310031CBF2E0430C000C101C42E20008C
:100D80003C08C0003D08C10020004008BE004108EA
:100D9000BF0020003E08BC003F08BD00F62E20002A
:100DA0003D08803E803E031DD72E07303C02031CC9
:100DB000DD2E2000BE01BF01F12E03142000BD1F57
:100DC0000310031CE72E0630C000C101EC2E2000EA
:100DD0003C08C0003D08C10020004008BE0041089A
:100DE000BF0020003E08BC003F08BD0020003C08BA
:100DF000F7003D0808002100A1007708A000760850
:100E0000A3007508A2000314A11F0310031C572F91
:100E10000314A31F0310031C322F2009A40021096F
:100E2000A500A40A0319A50A2408A6002508A700FE
:100E30002209A4002309A500A40A0319A50A24086D
:100E4000A800F5002508A900F6002608F7002708E5
:100E50008C31BA2487312100A5007708A400F7005F
:100E60002508982F21002009A4002109A500A40A23
:100E70000319A50A2408A6002508A7002208A40033
:100E8000F5002308A500F6002608F70027088C3196
:100E9000BA2487312100A5007708A400A409A50978
:100EA000A40A0319A50A2408F7002508982F03149B
:100EB0002100A31F0310031C812F2008A400210878
:100EC000A5002209A6002309A700A60A0319A70A5C
:100ED0002608A800F5002708A900F6002408F70056
:100EE00025088C31BA2487312100A5007708A40099
:100EF000A409A509A40A0319A50A2408F7002508CE
:100F0000982F21002008A4002108A5002208A00095
:100F1000F5002308A100F6002408F70025088C310D
:100F2000BA2487312100A1007708A000F70021082A
:100F300008002000DD007708DC007608DF00750877
:100F4000DE00E001E1010830E20020005C08E3007F
:100F50005D08E400631CB22F5E08E0075F08031819
:100F60005F0FE10720005C08E3005D08E40000304B
:100F7000E41BFF30E600E500641CCB2FE3016008B2
:100F8000E5006108E60000306507E0005E08E40067
:100F90000318640FE10720005C08E3005D08E4002B
:100FA0000310640CDD00630CDC000310DE0DDF0DAC
:100FB0006208E3006303E2006208031DA52F6008D6
:100FC000F700610808000334003403340034B434FB
:100FD000003401340034F7340734AF3400340234C1
:100FE0000034F9340734B5340034013400340034AB
:040FF0000034003495
:101000002000AF01B00161212000931C5E29210066
:101010001C082000B100B2013108B400B301210066
:101020001B082000B100B2013108B3043208B40437
:1010300033082100AF07200034080318340A0319CD
:1010400023282100B00721009D14803141208831E0
:101050002000AF0A0319B00A2F080F39031D5C29BD
:101060007F3013242000B2007708B1003204031946
:101070004D2921002F0E0F39AF00300EB000F0398E
:10108000AF04B006F030B019B0042000B101B201D5
:10109000B3011F3021002F052000B400B501330833
:1010A000B600B7013708803EB8003508803E3802E8
:1010B000031D5C2834083602031CA02821002F0ED3
:1010C0000F392000B4002100300E2000B500F039A7
:1010D000B404B506F030B519B5040310B51B0314FC
:1010E000B50CB40C1F30B405B5013408F500350853
:1010F000F6000230F7000030873199278831200050
:10110000B5007708B400033EB40035080318350F66
:101110000D3EB5003408F6003508F70080308D31FB
:10112000552588312000B7007708B600B40037088D
:10113000B5003408B10735080318350FB207E428A5
:1011400021002F0E0F392000B4002100300E2000A6
:10115000B500F039B404B506F030B519B504031084
:10116000B51B0314B50CB40C1F30B405B50134081D
:10117000B600360AB4000230F70034088D3172250B
:1011800088312000B600B701B61BB7033608033E0E
:10119000B4000D30B80037080318370FB80734080B
:1011A000F6003808F70080308D3155258831200051
:1011B000B7007708B600B4003708B8003408B107A4
:1011C00038080318380FB2072000B30A2030330262
:1011D000031C4928310E0F39B300320EB400F03928
:1011E000B304B4060310B40CB30C73301324200002
:1011F000B2007708B10033072100AF0020003408A7
:101200002100B000200032080318320A03190A290D
:101210002100B007793013242000B2007708B10014
:10122000B3000630330203183929210034082000A6
:10123000B100BF3031052100B40020002F08B100FB
:101240003008B200B301B4013108603A031D3E29F1
:101250003208EA3A031D3E293308003A031D3E29AD
:101260003408003A031D3E296C222000AF01B00172
:101270003E29210034172000AF01B0018821200051
:10128000991F49290130F60021002F08F700300886
:101290000B232100AF01B0015C29FF302100B30016
:1012A000FF302100B200FF302100B100FF302100EB
:1012B000B40020000C128C1220009310640004284B
:1012C00008006A30210099000E308C0020008C014B
:1012D00021008D0120008D0121008E0123000C15BD
:1012E00021009D151E169E171D149D1423008E01AE
:1012F000053020009C00FA309B00210091147630CC
:1013000028009700FA309600C03020008B000800BB
:10131000743013242000A8007708A70020003908A3
:101320003A040319A229FF3039072000A900FF3031
:10133000AA0020003A0803183A0A0319A12920003C
:10134000AA07A5292000A901AA0120002908200038
:10135000B90020002A082000BA0020003B08031929
:10136000B5293B032000A900B7292000A9012000CE
:1013700029082000BB0022000C1EEE2921003408A1
:101380002000A9007F3029052100B400B4152000F9
:101390002808803EAB0021003008803E20002B0250
:1013A000031DD62921002F0820002702031C6B2AC9
:1013B000773013242000AA007708A900F5002A0836
:1013C000F6003C30F7000030873199278931200042
:1013D000BA007708B90020000C126B2A22008C1E7C
:1013E0001B2A210034082000A900F730290521001C
:1013F000B400B41721003008803E2000AB0028085C
:10140000803E2B02031D072A270821002F02031C00
:101410006B2A783013242000AA007708A900AB00BB
:101420003C30F7002B088D3172258A312000BB003B
:1014300020008C126B2A723013242000AA00770837
:10144000A9002707AB002808AC002A0803182A0FB8
:10145000AC072C08803EAD0021003008803E200003
:101460002D02031D372A21002F0820002B0203180C
:10147000462A200039083A040319432A8030210003
:10148000B406B4156B2A20000C166B2A200029081C
:10149000A7022A08031C2A0FA80221003008803E58
:1014A0002000AD002808803E2D02031D5A2A27087F
:1014B00021002F020318682A20003B080319652A1F
:1014C00008302100B406B4176B2A20008C166B2A52
:1014D00088302100B4040800793013242000A800CB
:1014E0007708A700A9000630290203180A2B7530D7
:1014F00013242000A8007708A700AA0009302A02B8
:10150000031C852A0830A700882A20002A08A70083
:1015100020002708AA00763013242000A8007708AE
:10152000A700A70A0319A80A1330F70029088D316C
:1015300072258A312000AB000230F7002A088D3175
:1015400072258A312000A9002B07A900A90A2908C1
:1015500013242000AC007708A9002C082802031DE2
:10156000B32A29082702031C032B2000AA0AA7017B
:10157000A8012A08093A0319D12A0230F7002A08DB
:101580008D3172258A312000A9002B07A900290A74
:10159000AC0013242000AD007708AC002D04031D1F
:1015A000ED2A0230F70020002A088D3172258A3199
:1015B0002000AC00AB072B0813242000AC007708F8
:1015C000AB00F6002C08F7007430E4230630F60078
:1015D0000030F7007930E4230A2B20002A08AB0002
:1015E000AC012B08F6002C08F7007530E42320002E
:1015F000290813242000AA007708A900F6002A0869
:10160000F7007430E42320002708F6002808F700CC
:101610007630E42308002000A0007708A1007608B7
:10162000A2000314A01F0310031C252B2100340863
:101630002000A300EF3023052100B4002000A10901
:10164000A009A10A0319A00A272B210034162000A3
:101650002008803E7D3E031D2F2BE8302102031C15
:10166000412B0A30F5000030F60020002108F70079
:1016700020088631FB268B312000A0007708A100CE
:10168000A20120002008803E803E031D492B6430CB
:101690002102031C7B2B20002108A3002008A400AA
:1016A000A60120002408803E803E031D592B643093
:1016B0002302031C622B9C302000A307031CA403FD
:1016C000A60A512B20002308A1002408A0000F30F7
:1016D000A6052608913EA6000D300318013EA30082
:1016E0002608F6002308F70080308D3143258B3122
:1016F0002100B1007E2BFF302100B1002000200826
:10170000803E803E031D862B0A3021020318912B58
:1017100020002208031D912B21003108FF3A0319F4
:10172000CD2B20002108A3002008A400A601200042
:101730002408803E803E031D9F2B0A302302031C99
:10174000A82BF6302000A307031CA403A60A972B9E
:1017500020002308A1002408A0002608913EA6002E
:101760000D300318013EA3002608F6002308F700F9
:1017700080308D3143258B312000A40022080319CD
:10178000C42BFE30A200C72BFF302000A200200097
:10179000220824052100B200D02BFF302100B20026
:1017A00020002108913EA10020080318200F0D3EC3
:1017B000A0002108F6002008F70080308D31432575
:1017C0008B312100B30008002000A0007708A100A1
:1017D0007608A2000310200DA30020002308230098
:1017E000910020002208230093001513951315156E
:1017F00020008B13553023009600AA3096009514D4
:1018000020008B132300151123009518042C2000B1
:10181000121220002108A200A1012308A000A30A9F
:10182000201CED2B08002000A000A101A201031044
:10183000200DA30020002308230091001513951309
:10184000151413082000A000A4012008A600A5017B
:101850002208A000A40120082504A10024082604D1
:10186000A2002308A000A30A201C1A2C2108F700BC
:1018700022080800E330F6000730F70080308D3191
:1018800055258C312000D1007708D000E530D200FA
:101890000730D30020005008D4005108D500FF3095
:1018A000D007031CD103540855040319B72C043086
:1018B0005207D400D501D50D5308D5075408F600BA
:1018C0005508F70080308D3155258C312000D70028
:1018D0007708D6005208F6005308F70080308D31A3
:1018E00055258C312000D900D5007708D800D400C8
:1018F00002305207D400D501D50D5308D50754083E
:10190000F6005508F70080308D3155258C312000C8
:10191000D500DB007708D400DA0020005608DA0092
:101920005708DB00FF30D607031CD7035A085B04B7
:101930000319B12C5808F6005908F70080308D3192
:1019400043258C312000DA005408840055088500B6
:101950005A088000D80A0319D90AD40A0319D50AEB
:101960008D2C06302000D2070318D30A4A2C883168
:10197000002808002000E8007708E7007608EA0061
:101980007508E900EB01EC010130ED00EE0169089A
:101990006A04031DCF2CFF30F700FF30022D20001A
:1019A00069086A08EF00EF1BDC2C0310E90DEA0D53
:1019B0000310ED0DEE0DCF2C20006D086E04031901
:1019C000FE2C6A086802031DE72C69086702031CE5
:1019D000F62C20006D08EB076E0803186E0FEC075D
:1019E0006908E7026A08031C6A0FE8020310200076
:1019F000EA0CE90C0310EE0CED0CDC2C20006B085B
:101A0000F7006C080800003400342A34FE349B349C
:101A1000FE34EF34FE343234FF346834FF3498340B
:101A2000FF34C334FF34EA34FF3410340034333429
:101A30000034553400347734003497340034B934EA
:101A40000034D9340034FA3400341B3401343E34C9
:101A500001346234013487340134AF340134D93471
:101A60000134073402343834023470340234B03470
:101A70000234FB34023459340334CF3403347E341B
:101A8000043478340534003A03194A2D803A031996
:101A9000502D00347608840077088500000808007F
:101AA00077088A00760882000800003A03195D2D45
:101AB000803A0319652DF701003476088400770811
:101AC00085001200F700000808008D315025F50050
:101AD000F60FF703F70A8D315025F4007508F7006B
:101AE000740808002100AA007708AB00AC01083098
:101AF000AD0021002A1C7E2D2B08AC0721002A08EE
:101B0000AE0003102E0CAA0003102B0DAE00AB008C
:101B10002D08AE002E03AD002D08031D792D2C08D5
:101B200008000334B7340D342534B1346134413402
:101B30003734013421340534C134CD34853409348B
:021B4000593416
:020000040001F9
:02000E00DC0F05
:02001000FF3AB5
:10E00000A034003418340034AA34003418340034F6
:10E01000B434003418340034BE34003418340034BE
:10E02000C834003490340034FA34003430340034CE
:10E030002834003400340034003400340034003418
:10E04000003400340034003400340034A034003490
:10E0500018340034AA34003418340034B434003492
:10E0600018340034BE34003418340034C83400345A
:10E0700090340034FA34003430340034283400341E
:10E0800000340034003400340034003400340034F0
:10E090000034003400340034A03400341834003428
:10E0A000AA34003418340034B43400341834003442
:10E0B000BE34003418340034C83400349034003492
:10E0C000FA3400343034003428340034003400345E
:10E0D00000340034003400340034003400340034A0
:10E0E00000340034A034003418340034AA3400342E
:10E0F00018340034B434003418340034BE340034DE
:10E1000018340034C834003490340034FA34003405
:10E110003034003428340034003400340034003407
:10E12000003400340034003400340034003400344F
:10E13000A034003418340034AA34003418340034C5
:10E14000B434003418340034BE340034183400348D
:10E15000C834003490340034FA340034303400349D
:10E1600028340034003400340034003400340034E7
:10E17000003400340034003400340034A03400345F
:10E1800018340034AA34003418340034B434003461
:10E1900018340034BE34003418340034C834003429
:10E1A00090340034FA3400343034003428340034ED
:10E1B00000340034003400340034003400340034BF
:10E1C00000340034003400340534003400340034AA
:10E1D000C834003400340034003400340F340034C8
:08E1E00002340034063400345F
:00000001FF
