:020000040000FA
:1000000000008731742FFF348A012000911C4128A1
:10001000031022000D0D2000BF003F08031D122811
:100020001030BF0021008E0122008D0120003F080A
:10003000103A031928283F08203A03192D283F08B1
:10004000403A031932283F08803A031937283B28E1
:100050002100450822008E003B282100460822008E
:100060008E003B282100470822008E003B282100FB
:10007000480822008E0020003F0822008D0020004A
:100080009110090020008B1322000D082000E500CC
:1000900021000E082000E60022008D01D83021004A
:1000A0008E0003102100500D2000E700E801200021
:1000B0008E1F5C282000E80A20006708E900680815
:1000C000E70069042100D0000310500D2000E70074
:1000D000E80120000E1E6E282000E80A20006708B4
:1000E000E9006808E70069042100D0000310500D02
:1000F0002000E700E80120000E1F80282000E80A09
:1001000020006708E9006808E70069042100D000C2
:100110000310500D2000E700E80120008E1D9228FA
:100120002000E80A20006708E9006808E700690481
:100130002100D0002000650822008D002000660804
:1001400021008E0020008B1721004F08031DCF03D4
:100150000D3021004C0203182C2E00308A00B430E0
:100160004C0703188A0A8200C1282B2913297229F7
:100170008D29DD29012A252A5B2ABF2A4B2B412CF8
:10018000B82C8830210050052000E500083A031DF6
:10019000D0281B302100CF0001302100CC002E2EB2
:1001A00000302100500403192E2E7F308D318C2514
:1001B00080312000E6007708E500660403192E2E42
:1001C0003330210050052000E500033A031DEC28E0
:1001D00002302100CC002E2E2230210050052000BC
:1001E000E500023A031DF82803302100CC002E2E32
:1001F0001130210050052000E500013A031D0729B8
:100200000D302100CF0004302100CC002E2E4430D0
:10021000210050052000E500403A031D2E2E073036
:100220002100CC002E2E0030F6006930F70000309F
:100230008C3170248131210045102100C8164815E9
:100240003330210050052000E500333A03192E2EEB
:100250002100CC012E2E003021004F04031D672900
:100260007F308D318C2581312000E7007708E50053
:10027000E8006808003003190130E500E900EA01F0
:10028000E91BEA036908F6006A08F7007F308D3140
:100290004F2581312000680803196329FF302100B0
:1002A000C700FF302100C600FF302100C500FF302D
:1002B0002100C80022000C100C128C12280017110B
:1002C00020009310642901002100CC012E2E8830DB
:1002D000210050052000E500883A03192E2E210048
:1002E000CC012E2E74308D318C2581312000E80018
:1002F0007708E5000130F6006508F70068088C31E2
:10030000702481312230210050052000E500223A7E
:1003100003192E2E2100CC012E2E2100C8164815BF
:100320007A308D318C2581312000E8007708E50096
:10033000E900063069020318C92919302100C500F7
:10034000DD302100C6007A308D318C2581312000CE
:10035000E8007708E500E9000F306905E500183E80
:10036000E5000F300318013EE9006508F600690852
:10037000F70080308E31CA2681312100C70021006C
:100380004F08031DD2291130CF0005302100CC00C9
:10039000D229C9302100C500D1302100C600FF306C
:1003A0002100C7001130210050052000E500113A5E
:1003B00003192E2E2100CC012E2E75308D318C2567
:1003C00081312000E9007708E5000030F60065087B
:1003D000F70069088C317024813121004F08031D1A
:1003E000F6290D30CF0006302100CC00113021005D
:1003F00050052000E500113A03192E2E2100CC01F2
:100400002E2E76308D318C2582312000E900770840
:10041000E5000030F6006508F70069088C317024AB
:10042000823121004F08031D1A2A0D30CF000430FD
:100430002100CC001130210050052000E500113AC8
:1004400003192E2E2100CC012E2E21004816C8168D
:100450004815063021004D020318482A19302100A2
:10046000C500DD302100C60021004D08183E2000E7
:10047000E5000F300318013EE9006508F600690841
:10048000F70080308E31CA2682312100C700542AFD
:1004900006302100CD0061302100C5000930210067
:1004A000C600C9302100C7006E302100CF000830DF
:1004B0002100CC002E2E003021004F040319682AA1
:1004C0008830210050052000E500803A031D6B2A8A
:1004D0002100CC012E2E2230210050052000E50005
:1004E000203A031D902A063021004D022000E5012C
:1004F000031C65146508003003190130E900690820
:100500000319842AE501882A21004D0A2000E5000C
:10051000200065082100CD0007302100CC002E2EE0
:100520001130210050052000E500103A031DB12ACA
:1005300021004D080030031901302000E500650856
:100540000319A52A0630E500A92A21004D03200041
:10055000E500200065082100CD0007302100CC0017
:100560002E2E4430210050052000E500403A031DA6
:100570002E2E2100CE0109302100CC002E2E21008C
:100580004816C8164815063021004D020318EE2AF9
:1005900021004E1CD22A85302100C500D130210017
:1005A000C600D82A61302100C50019302100C600DC
:1005B000031021004E0C2000E500183EE5000F302E
:1005C0000318013EE9006508F6006908F70080306D
:1005D0008E31CA2682312100C700442BFF30210012
:1005E000C700093021004E020318442B02308A0054
:1005F000FD304E0703188A0A8200062B0D2B142BA0
:100600001B2B222B292B302B372B3E2BD1302100BB
:10061000C500A1302100C600442BC9302100C5000F
:10062000CD302100C600442B61302100C5001930B7
:100630002100C600442B61302100C500C9302100D3
:10064000C600442B85302100C500D1302100C600F2
:10065000442BCD302100C50085302100C600442B3D
:10066000D1302100C50085302100C600442BDD308B
:100670002100C50019302100C600442BDD302100C7
:10068000C500D5302100C6006E302100CF000A30F1
:100690002100CC002E2E003021004F04031D532BCF
:1006A0002100CC012E2E8830210050052000E500CD
:1006B000803A031D5F2B07302100CC002E2E223004
:1006C000210050052000E500203A031DB62B06301E
:1006D00021004D020318862B123021004E0220000B
:1006E000E501031C65146508003003190130E900B9
:1006F000690803197D2BE501812B21004E0A20009A
:10070000E500200065082100CE00B22B0830210052
:100710004E022000E501031C651465080030031932
:100720000130E90069080319972BE5019B2B210093
:100730004E0A2000E500200065082100CE00033AA3
:10074000031DB22B7A308D318C2583312000E900D6
:100750007708E500EA0006306A02031CB22B053078
:100760002100CE0009302100CC002E2E11302100B6
:1007700050052000E500103A031D052C063021002D
:100780004D020318D92B21004E0800300319013007
:100790002000E50065080319D02B1230E500D42BAA
:1007A00021004E032000E500200065082100CE0056
:1007B000012C21004E080030031901302000E50013
:1007C00065080319E62B0830E500EA2B21004E03EB
:1007D0002000E500200065082100CE00043A031D3A
:1007E000012C7A308D318C2583312000E900770887
:1007F000E500EA0006306A02031C012C02302100E9
:10080000CE0009302100CC002E2E443021005005AE
:100810002000E500403A031D2E2E1330F700210082
:100820004D088E31F92684312000E50021004E0864
:100830002000E50765088D318C2584312000EC000F
:100840007708EB001330F70021004D088E31F926B0
:1008500084312000E50021004E082000E5076508EE
:10086000F60020006B08F7006C0840262000EC0022
:100870007708EB006E302100CF000B302100CC0058
:100880002E2E063021004D0203185D2C21004E1C37
:10089000532C0030F60020006B08F7006C088C31F8
:1008A00070248431B12C0130F60020006B08F70071
:1008B0006C088C3170248431B12C21004D08063A2B
:1008C000031DB12C033021004E020318712C01309E
:1008D000F60020006B08F7006C088C31702484311E
:1008E000B12C083021004E020318802C0030F60095
:1008F00020006B08F7006C088C3170248431B12C17
:1009000020006B08063A031D932C6C08003A031D67
:10091000932CC9302100C500D1302100C600FF3022
:100920002100C700B12C19302100C500DD302100A5
:10093000C6000F3020006B052000E500E9016508C6
:10094000183EE50069080318690F0F3EE9006508C5
:10095000F6006908F70080308E31CA268431210004
:10096000C7006E302100CF000C302100CC002E2EAD
:10097000003021004F04031DC02C2100CC012E2E7D
:100980008830210050052000E500803A031DCC2C62
:1009900009302100CC002E2E2230210050052000ED
:1009A000E500203A0319D82C6508223A031D382D9A
:1009B00020006C08803E7D3E031DE02CE8306B0279
:1009C0002000E501031C651465080030031901309F
:1009D000E9006908031DF62C20006C08803E843E67
:1009E000031DF42C18306B020318022D0A3020006E
:1009F0006B072000E500E901E90D20006C082000EC
:100A0000E9070D2D013020006B072000E500E9010A
:100A1000E90D20006C082000E9072000650820008F
:100A2000EB00200069082000EC001330F7002100E3
:100A30004D088E31F92685312000E50021004E0851
:100A40002000E5076508F60020006B08F7006C0839
:100A500040262000EC007708EB001F3028001D0224
:100A6000031C342DF8309D070B302100CC002E2EB6
:100A70001130210050052000E500103A0319442DE3
:100A80006508113A031DAB2D20006C08803E7D3EA9
:100A9000031D4C2DE9306B020318612D20006C08FA
:100AA000803E843E031D562D19306B022000E50167
:100AB000E50D6508003003190130E90069080319E4
:100AC000712DF63020006B072000E500FF30E900B3
:100AD00020006C0803186C0A0319702D2000E90728
:100AE000802DFF3020006B072000E500FF30E9007B
:100AF00020006C0803186C0A0319802D2000E907F8
:100B0000200065082000EB00200069082000EC00B0
:100B10001330F70021004D088E31F9268531200071
:100B2000E50021004E082000E5076508F6002000DA
:100B30006B08F7006C0840262000EC007708EB00FB
:100B40001F3028001D02031CA72DF8309D070B3015
:100B50002100CC002E2E4430210050052000E5005D
:100B6000403A031D282E21004D08063A031D0D2E84
:100B700021004E08083A031D0D2E0030F60000300B
:100B8000F70075308D314F2585310030F60000308B
:100B9000F70076308D314F25853120006C08803E7E
:100BA000803E031DD52D06306B0203180D2E20004C
:100BB0006B082000E5001330F70065088E31F92638
:100BC00085312000E9008D318C2585312000E90038
:100BD0007708E500F6006908F70074308D314F257D
:100BE000853120006B082000E5001330F700650810
:100BF0008E31F92685312000E900690AE5008D3142
:100C00008C2586312000E9007708E5006904031D82
:100C10000D2E06302000EB00EC011330F700210010
:100C20004D088E31F92686312000E50021004E085E
:100C30002000E50720006B08F6006C08F700200094
:100C400065088D314F25863109302100CC002E2ECC
:100C5000FA3028009D002E2E2100CC0121004C08E6
:100C60000030031901302000E500E900690C031889
:100C70003B2E20009913031C3F2E200099170800DB
:100C80002000E2007708E1007608E300723063029A
:100C9000E401031C641464080319732E631C612EA1
:100CA000E730F3000330F4000030F5000030F600C8
:100CB0006108F700620834272000E2007708E100AD
:100CC0002F2FC430F3000930F4007030F500FE30EF
:100CD000F60020006108F700620834272000E200D7
:100CE0007708E1002F2F003020006404031D2F2F10
:100CF0007B30630203182F2F8E30E30706308A0003
:100D00008530630703188A0A82008E2EA02EB22E29
:100D1000C42ED62EE82EFA2E0C2F1E2F3230F300C2
:100D20000030F4000030F5000030F60020006108CB
:100D3000F700620834272000E2007708E1002F2F37
:100D40003230F3000030F400CE30F500FF30F60012
:100D500020006108F700620834272000E2007708CD
:100D6000E1002F2FC430F3000930F4007030F5009B
:100D7000FE30F60020006108F700620834272000EA
:100D8000E2007708E1002F2F0830F3000030F40074
:100D90000030F5000030F60020006108F70062081E
:100DA00034272000E2007708E1002F2FE730F3001E
:100DB0000330F4000030F5000030F6002000610838
:100DC000F700620834272000E2007708E1002F2FA7
:100DD0003C30F3000030F4000030F5000030F60045
:100DE00020006108F700620834272000E20077083D
:100DF000E1002F2F3C30F3000030F4000030F5000C
:100E00000030F60020006108F70062083427200057
:100E1000E2007708E1002F2F0130F3000030F400EA
:100E20000030F5000030F60020006108F70062088D
:100E300034272000E2007708E1002F2F0630F3006E
:100E40000030F4000030F5000030F60020006108AA
:100E5000F700620834272000E2007708E100200054
:100E60006108F700620808002000D9007708D80060
:100E70007608DB007508DA007408DD007308DC0012
:100E80005D08803EDE005908803E5E02031D4A2F49
:100E900058085C020318522F20005A08DE005B0835
:100EA000DF006F2F20005908803EE0005B08803E85
:100EB0006002031D5D2F5A0858020318652F200099
:100EC0005C08DA005D08DB006A2F20005808DA00B1
:100ED0005908DB0020005A08DE005B08DF00200014
:100EE0005E08F7005F0808004630F6000E30F70095
:100EF00080308E31DC2687312100A1007708A000E8
:100F00004830A2000E30A30021002008A4002108D0
:100F1000A500FF30A007031CA10324082504031922
:100F2000F12F04302207A400A501A50D2308A50771
:100F30002408F6002508F70080308E31DC26873142
:100F40002100A7007708A6002208F6002308F70072
:100F500080308E31DC2687312100A900A50077087A
:100F6000A800A40002302207A400A501A50D2308B3
:100F7000A5072408F6002508F70080308E31DC260E
:100F800087312100A500AB007708A400AA0021004A
:100F90002608AA002708AB00FF30A607031CA703FA
:100FA0002A082B040319EB2F2808F6002908F7005C
:100FB00080308E31CA2687312100AA00240884009F
:100FC000250885002A088000A80A0319A90AA40A8E
:100FD0000319A50AC72F06302100A2070318A30A88
:100FE000842F883100280800003400341E34023475
:0E0FF000023400340034003400340034003485
:101000002000C001C1016A30210099000E308C001F
:1010100022008C0121008D0122008D0121008E0112
:1010200023000C1521009D151E169E171D149D14DE
:1010300023008E01053020009C00FA309B00210027
:1010400091147230280097007F308C252000A70073
:101050007708A900A800280C0318302828001711C9
:10106000031C342828001715FA3028009600373062
:101070009E00FA309D00C03020008B0021009D189A
:101080003E281C082000C200C3014208C500C4015C
:1010900021001B082000C200C3014208C404430809
:1010A000C504450EF039C300440EC2000F39C30415
:1010B000C2060310C20DC30D0310C20DC30D2000E4
:1010C000931D672880314220883120009311200031
:1010D000931C6D2C2000C00A0319C10A420E0F395F
:1010E000C400430EC500F039C404C5060310C50C86
:1010F000C40C0310C50CC40C44084202C4004508CB
:10110000031C450A4302C50021001C082000C6003C
:10111000C7014608C900C80121001B082000C600FD
:10112000C7014608C8044708C9044808C60049085A
:10113000C70046084407C2004508C3004708031813
:10114000470FC30721009D1420004208C400430834
:10115000C500C601C7014708803E803E031DBA286E
:1011600000304602031DBA28F8304502031DBA2894
:10117000003044022000C801031C48144808003015
:1011800003190130C4004408031DD9280830430264
:10119000031DCC28003042022000C401C40D4408C5
:1011A000003003190130C8004808031DD928C401C4
:1011B000DC2801302000C40020004408C800480C8E
:1011C0000318E42822000C10031CE82822000C1449
:1011D000200040080F39031D6B2C2030C400C801CB
:1011E000C901CA010310430CCB00CC010310CC0C85
:1011F000CB0C0310CC0CCB0C1F30CB05CC014B0817
:10120000F5004C08F6000230F70000308D31B325B0
:1012100089312000CE007708CD008A3ECD004E08EF
:1012200003184E0F0E3ECE00420E0F39CF00430E74
:10123000D000F039CF04D0060310D00CCF0C3F30D3
:10124000CF05D001D10120005108D200D3015008B0
:101250005302031D2D294F085202031C532920005D
:101260004D08F6004E08F70080308E31DC268931BB
:101270002000D3007708D200D4005308D5000030F6
:10128000D51BFF30D700D6005408C40755080318F3
:10129000550FC80756080318560FC90757080318F3
:1012A000570FCA078B2920004B08D200D20A023000
:1012B000F70052088E31F92689312000D300D4017D
:1012C00053088A3ED2000E30D50054080318540F3C
:1012D000D5075208F6005508F70080308E31DC261D
:1012E00089312000D4007708D300D2005408D500FB
:1012F0000030D51BFF30D700D6005208C407550870
:101300000318550FC80756080318560FC907570882
:101310000318570FCA072000D10A40305102031C9E
:101320002329440E0F39CB00480ECC00F039CB04F2
:10133000CC06490ECD00F039CC04CD064A0ECE00C5
:10134000F039CD04CE06F030CE19CE040310CE1BFA
:101350000314CE0CCD0CCC0CCB0C0310CE1B031401
:10136000CE0CCD0CCC0CCB0C4B082000ED0020009B
:101370004C082000EE0073308C252000C800770850
:10138000C40020006D082000C90020006E08200065
:10139000CA00440849072000ED0020004A08200048
:1013A000EE00200048080318480A0319D929200034
:1013B000EE0722000C1CEC2911302100C500CB30B7
:1013C0002100C600FF302100C700FF302100C80007
:1013D00022000C128C12682C7A308C252000C80058
:1013E0007708C400C900063049020318602B2100A9
:1013F000481320004008C4004108C800C901CA01C0
:101400004A08803E803E031D0F2A00304902031D1A
:101410000F2AEA304802031D0F2A60304402031CE1
:10142000652B7A308C252000AD007708AC00AE002B
:1014300006302E0203185C2B75308C252000AD0081
:101440007708AC00AF0009302F02031C2A2A0830AD
:10145000AC002D2A20002F08AC0020002C08AF0083
:1014600076308C252000AD007708AC00AC0A03195B
:10147000AD0A1330F7002E088E31F9268A3120008C
:10148000B0000230F7002F088E31F9268A31200093
:10149000AE003007AE002E0AB1008C252000B3004C
:1014A0007708B20033082D02031D582A32082C0297
:1014B000031CA92A2000AF0AAC01AD012F08093A8C
:1014C0000319762A0230F7002F088E31F9268A3167
:1014D0002000B2003007B200320AB3008C25200091
:1014E000B4007708B3003404031D922A0230F700D9
:1014F00020002F088E31F9268A312000B3003007F2
:10150000B3008C252000B4007708B300F60034083F
:10151000F70074304F250630F6000030F7007A30BF
:101520004F255C2B20002F08B300B4013308F600D0
:101530003408F70075304F25200032088C25200034
:10154000B3007708B200F6003308F70074304F2577
:10155000552B79308C252000B3007708B200330476
:101560000319552B31088C252000B2007708B100F3
:101570002E088C252000B3007708AE00AF0A023099
:10158000F7002F088E31F9268A312000B400B00709
:1015900030088C252000B0007708AF002D0EF03900
:1015A000B5002C0EB4000F39B504B4060310B40D09
:1015B000B50D0310B40DB50D2030B600B701B8015C
:1015C000B901BA01200032083502031DE92A3108A9
:1015D0003402031C0A2B20003108B4023208031C19
:1015E000320FB5022F08BB003008BC000030BC1B16
:1015F000FF30BE00BD003B08B6073C0803183C0F97
:10160000B7073D0803183D0FB8073E0803183E0F03
:10161000B907222B20002E08BB003308BC00003085
:10162000BC1BFF30BE00BD003B08B6073C080318DA
:101630003C0FB7073D0803183D0FB8073E080318D5
:101640003E0FB9072000BA0A40303A02031CE22AD2
:10165000360E0F39B600370EB700F039B604B706AC
:10166000380EB800F039B704B806390EB900F039B1
:10167000B804B906F030B919B9040310B91B031442
:10168000B90CB80CB70CB60C0310B91B0314B90C89
:10169000B80CB70CB60C3608AE003708AF002E08F1
:1016A000F6002F08F70074304F2520002C08F600B4
:1016B0002D08F70076304F252000C001C101652BB1
:1016C000210048172000C001C10174308C25200082
:1016D000A7007708A9002100C9034908031D7A2B38
:1016E0001E30C90021004A08031DCA0321004B080F
:1016F000031DCB032000A80122000C1E812B20001B
:10170000A80A20002808003003190130AB00A80007
:10171000280C03188D2B2100C813031C912B2100CA
:10172000C8172000A80122008C1E982B2000A80AB0
:1017300020002808003003190130AB00A800280C55
:101740000318A42B2100C811031CA82B2100C815C5
:1017500022000C1EBC2B20002708803EAA0020007F
:101760006E08803E20002A02031DBA2B20006D085F
:10177000200029020318CE2B22008C1EE82B20000B
:101780006E08803E2000AA002708803E2A02031D22
:10179000CC2B290820006D02031CE82B77308C2508
:1017A0002000AB007708A800AA0003102A0D210032
:1017B000CA0078308C252000AB007708A800AA006A
:1017C00003102A0D2100CB0022000C128C125E2C7B
:1017D00022000C1A5E2C8C1A5E2C72308C25200094
:1017E000AB007708A8002907AA002708AD002B083E
:1017F00003182B0FAD072D08803EAC0020006E08AB
:10180000803E20002C02031D092C20006D082000C2
:101810002A0203182A2C21004A080319272C200029
:10182000AA012100C81F162C2000AA0A210049087D
:1018300001392000AD00AC00AA062A0C0318222CA6
:101840002100C813031C262C2100C8175E2C22007F
:101850000C165E2C20002808A9022B08031C2B0F55
:10186000A70220006E08803E2000AE002708803EC0
:101870002E02031D3E2C290820006D0203185E2C49
:1018800021004B0803195C2C2000A9012100C81D70
:101890004B2C2000A90A2100490801392000A7008B
:1018A000A800A906290C0318572C2100C811031CF5
:1018B0005B2C2100C8155E2C22008C162000991F7D
:1018C000682C0130F60020006D08F7006E087024C7
:1018D0002000ED01EE012000931064005F28080055
:1018E0002000A0007708A1007608A2000314A01F22
:1018F0000310031C842C210048122000A109A00918
:10190000A10A0319A00A862C2100481600302000E5
:10191000220403198E2C2100C8124815200020082B
:10192000803E7D3E031D962CE8302102031CAC2C2A
:1019300020002108A3002008A4000A30F500003090
:10194000F6002308F70024088D31FD258C31200096
:10195000A0007708A100A20120002008803E803E60
:10196000031DB42C64302102031CE62C2000210846
:10197000A3002008A400A60120002408803E803E89
:10198000031DC42C64302302031CCD2C9C3020008A
:10199000A307031CA403A60ABC2C20002308A10053
:1019A0002408A0000F30A6052608183EA6000F3018
:1019B0000318013EA3002608F6002308F700803034
:1019C0008E31CA268C312100C500E92CFF30210060
:1019D000C50020002008803E803E031DF12C0A3007
:1019E00021020318FC2C20002208031DFC2C2100DE
:1019F0004508FF3A0319382D20002108A3002008CC
:101A0000A400A60120002408803E803E031D0A2D6C
:101A10000A302302031C132DF6302000A307031CF9
:101A2000A403A60A022D20002308A1002408A00078
:101A30002608183EA6000F300318013EA300260812
:101A4000F6002308F70080308E31CA268D31200041
:101A5000A400220803192F2DFE30A200322DFF30E2
:101A60002000A2002000220824052100C6003B2DF2
:101A7000FF302100C60020002108183EA1002008E8
:101A80000318200F0F3EA0002108F6002008F700E1
:101A900080308E31CA268D312100C7000800200019
:101AA000A7007708A9007608A80027088C25200041
:101AB000AB007708AA002806031D622D2B08290613
:101AC00003198B2D03102000270DAA0020002A08DF
:101AD000230091002000280823009300151395137C
:101AE000151520008B13553023009600AA30960060
:101AF000951420008B1723001511230095187D2DB8
:101B00002000121220002908A800A9012A08A70015
:101B1000AA0A271C662D08002000A000A101A2012E
:101B20000310200DA30020002308230091001513AB
:101B30009513151413082000A000A4012008A60086
:101B4000A5012208A000A40120082504A100240862
:101B50002604A2002308A000A30A201C932D21081C
:101B6000F700220808002100AD007708AC007608D5
:101B7000AF007508AE00B001B1010830B20021001D
:101B80002C08B3002D08B400331CCC2D2E08B00750
:101B90002F0803182F0FB10721002C08B3002D08C0
:101BA000B4000030B41BFF30B600B500341CE52D86
:101BB000B3013008B5003108B60000303507B00079
:101BC0002E08B4000318340FB10721002C08B3000D
:101BD0002D08B4000310340CAD00330CAC0003101E
:101BE000AE0DAF0D3208B3003303B2003208031D4F
:101BF000BF2D3008F700310808002100B800770831
:101C0000B7007608BA007508B900BB01BC01013005
:101C1000BD00BE0139083A04031D122EFF30F70043
:101C2000FF30452E210039083A08BF00BF1B1F2E88
:101C30000310B90DBA0D0310BD0DBE0D122E2100FB
:101C40003D083E040319412E3A083802031D2A2E8E
:101C500039083702031C392E21003D08BB073E0816
:101C600003183E0FBC073908B7023A08031C3A0FA5
:101C7000B80203102100BA0CB90C0310BE0CBD0C45
:101C80001F2E21003B08F7003C0808000B340034ED
:101C900003340034C834003401340034F4340734DD
:101CA0006D34003402340034F6340734C93400345F
:101CB00001340034F7340734CA34003401340034BA
:101CC000F8340734CB34003401340034F9340734A9
:101CD000CC34003401340034FA340734CD340034C9
:101CE00001340034FB340734CE3400340134003482
:101CF000FC340734CF34003401340034FD3407346D
:101D0000D034003401340034FE340734D13400348C
:101D10000134003400340034F234FD34BE34FE3477
:101D20005534FF34CD34FF342F3400348434003440
:101D3000D2340034183401345C3401349C3401341E
:101D4000D934013416340234503402348D34023420
:101D5000C7340234023403343D3403347C34033456
:101D6000BE3403340034043448340434933404342B
:101D7000E53404343F340534A334053416340634D2
:101D80009D340634463407341B3408345634093441
:101D900018340B34003A0319D12E803A0319D72E88
:101DA000003476088400770885000008080077086A
:101DB0008A00760882000800003A0319E42E803A6F
:101DC0000319EC2EF70100347608840077088500AB
:101DD0001200F700000808008E31D726F500F60F34
:101DE000F703F70A8E31D726F4007508F700740858
:101DF00008002100C0007708C100C2010830C300FC
:101E00002100401C052F4108C20721004008C400E2
:101E10000310440CC0000310410DC400C10043086E
:101E2000C4004403C3004308031D002F42080800F8
:101E30000334B7340D342534B1346134413437348C
:101E4000013421340534C134CD3485340934593456
:020000040001F9
:02000E00DC0F05
:02001000FF3AB5
:00000001FF
