:020000040000FA
:1000000000008D31C22DFF348A012000911C41284F
:10001000031022000D0D2000BF003F08031D122811
:100020001030BF0021008E0122008D0120003F080A
:10003000103A031928283F08203A03192D283F08B1
:10004000403A031932283F08803A031937283B28E1
:100050002100490822008E003B2821004A08220086
:100060008E003B2821004B0822008E003B282100F7
:100070004C0822008E0020003F0822008D00200046
:100080009110090020008B1322000D082000E500CC
:1000900021000E082000E60022008D01D83021004A
:1000A0008E0003102100510D2000E700E801200020
:1000B0008E1F5C282000E80A20006708E900680815
:1000C000E70069042100D1000310510D2000E70072
:1000D000E80120000E1E6E282000E80A20006708B4
:1000E000E9006808E70069042100D1000310510D00
:1000F0002000E700E80120000E1F80282000E80A09
:1001000020006708E9006808E70069042100D100C1
:100110000310510D2000E700E80120008E1D9228F9
:100120002000E80A20006708E9006808E700690481
:100130002100D1002000650822008D002000660803
:1001400021008E0020008B1721005008031DD003D2
:100150000D3021004D0203185C2E00308A00B430AF
:100160004D0703188A0A8200C1282B2913297229F6
:100170008D29DD29012A252A5B2ABF2A4B2B412CF8
:10018000B82C8830210051052000E500083A031DF5
:10019000D0281B302100D00001302100CD005E2E80
:1001A00000302100510403195E2E7F308D319B25D4
:1001B00080312000E6007708E500660403195E2E12
:1001C0003330210051052000E500033A031DEC28DF
:1001D00002302100CD005E2E22302100510520008A
:1001E000E500023A031DF82803302100CD005E2E01
:1001F0001130210051052000E500013A031D0729B7
:100200000D302100D00004302100CD005E2E44309E
:10021000210051052000E500403A031D5E2E073005
:100220002100CD005E2E0030F6006930F70000306E
:100230008C317F248131210049102100CC164C15CE
:100240003330210051052000E500333A03195E2EBA
:100250002100CD015E2E003021005004031D6729CE
:100260007F308D319B2581312000E7007708E50044
:10027000E8006808003003190130E500E900EA01F0
:10028000E91BEA036908F6006A08F7007F308D3140
:100290005E2581312000680803196329FF302100A1
:1002A000CB00FF302100CA00FF302100C900FF3021
:1002B0002100CC0022000C100C128C122800171107
:1002C00020009310642901002100CD015E2E8830AA
:1002D000210051052000E500883A03195E2E210017
:1002E000CD015E2E74308D319B2581312000E800D8
:1002F0007708E5000130F6006508F70068088C31E2
:100300007F2481312230210051052000E500223A6E
:1003100003195E2E2100CD015E2E2100CC164C1556
:100320007A308D319B2581312000E8007708E50087
:10033000E900063069020318C92919302100C900F3
:10034000DD302100CA007A308D319B2581312000BB
:10035000E8007708E500E9000F306905E500EE3EAA
:10036000E50007300318013EE9006508F60069085A
:10037000F70080308F31092781312100CB00210027
:100380005008031DD2291130D00005302100CD00C6
:10039000D229C9302100C900D1302100CA00FF3064
:1003A0002100CB001130210051052000E500113A59
:1003B00003195E2E2100CD015E2E75308D319B25F7
:1003C00081312000E9007708E5000030F60065087B
:1003D000F70069088C317F24813121005008031D0A
:1003E000F6290D30D00006302100CD00113021005B
:1003F00051052000E500113A03195E2E2100CD01C0
:100400005E2E76308D319B2582312000E900770801
:10041000E5000030F6006508F70069088C317F249C
:10042000823121005008031D1A2A0D30D0000430FB
:100430002100CD001130210051052000E500113AC6
:1004400003195E2E2100CD015E2E21004C16CC1624
:100450004C15063021004E020318482A193021009D
:10046000C900DD302100CA0021004E08EE3E200008
:10047000E50007300318013EE9006508F600690849
:10048000F70080308F31092782312100CB00542AB8
:1004900006302100CE0061302100C9000930210062
:1004A000CA00C9302100CB006E302100D0000830D6
:1004B0002100CD005E2E0030210050040319682A6F
:1004C0008830210051052000E500803A031D6B2A89
:1004D0002100CD015E2E2230210051052000E500D3
:1004E000203A031D902A063021004E022000E5012B
:1004F000031C65146508003003190130E900690820
:100500000319842AE501882A21004E0A2000E5000B
:10051000200065082100CE0007302100CD005E2EAE
:100520001130210051052000E500103A031DB12AC9
:1005300021004E080030031901302000E500650855
:100540000319A52A0630E500A92A21004E03200040
:10055000E500200065082100CE0007302100CD0015
:100560005E2E4430210051052000E500403A031D75
:100570005E2E2100CF0109302100CD005E2E21002A
:100580004C16CC164C15063021004E020318EE2AEC
:1005900021004F1CD22A85302100C900D130210012
:1005A000CA00D82A61302100C90019302100CA00D0
:1005B000031021004F0C2000E500EE3EE50007305F
:1005C0000318013EE9006508F6006908F70080306D
:1005D0008F31092782312100CB00442BFF302100CD
:1005E000CB00093021004F020318442B02308A004F
:1005F000FD304F0703188A0A8200062B0D2B142B9F
:100600001B2B222B292B302B372B3E2BD1302100BB
:10061000C900A1302100CA00442BC9302100C90003
:10062000CD302100CA00442B61302100C9001930AF
:100630002100CA00442B61302100C900C9302100CB
:10064000CA00442B85302100C900D1302100CA00E6
:10065000442BCD302100C90085302100CA00442B35
:10066000D1302100C90085302100CA00442BDD3083
:100670002100C90019302100CA00442BDD302100BF
:10068000C900D5302100CA006E302100D0000A30E8
:100690002100CD005E2E003021005004031D532B9D
:1006A0002100CD015E2E8830210051052000E5009B
:1006B000803A031D5F2B07302100CD005E2E2230D3
:1006C000210051052000E500203A031DB62B06301D
:1006D00021004E020318862B123021004F02200009
:1006E000E501031C65146508003003190130E900B9
:1006F000690803197D2BE501812B21004F0A200099
:10070000E500200065082100CF00B22B0830210051
:100710004F022000E501031C651465080030031931
:100720000130E90069080319972BE5019B2B210093
:100730004F0A2000E500200065082100CF00033AA1
:10074000031DB22B7A308D319B2583312000E900C7
:100750007708E500EA0006306A02031CB22B053078
:100760002100CF0009302100CD005E2E1130210084
:1007700051052000E500103A031D052C063021002C
:100780004E020318D92B21004F0800300319013005
:100790002000E50065080319D02B1230E500D42BAA
:1007A00021004F032000E500200065082100CF0054
:1007B000012C21004F080030031901302000E50012
:1007C00065080319E62B0830E500EA2B21004F03EA
:1007D0002000E500200065082100CF00043A031D39
:1007E000012C7A308D319B2583312000E900770878
:1007F000E500EA0006306A02031C012C02302100E9
:10080000CF0009302100CD005E2E4430210051057B
:100810002000E500403A031D5E2E1330F700210052
:100820004E088F31382784312000E50021004F0821
:100830002000E50765088D319B2584312000EC0000
:100840007708EB001330F70021004E088F3138276E
:1008500084312000E50021004F082000E5076508ED
:10086000F60020006B08F7006C0870262000EC00F2
:100870007708EB006E302100D0000B302100CD0056
:100880005E2E063021004E0203185D2C21004F1C05
:10089000532C0030F60020006B08F7006C088C31F8
:1008A0007F248431B12C0130F60020006B08F70062
:1008B0006C088C317F248431B12C21004E08063A1B
:1008C000031DB12C033021004F020318712C01309D
:1008D000F60020006B08F7006C088C317F2484310F
:1008E000B12C083021004F020318802C0030F60094
:1008F00020006B08F7006C088C317F248431B12C08
:1009000020006B08063A031D932C6C08003A031D67
:10091000932CC9302100C900D1302100CA00FF301A
:100920002100CB00B12C19302100C900DD3021009D
:10093000CA000F3020006B052000E500E9016508C2
:10094000EE3EE50069080318690F073EE9006508F7
:10095000F6006908F70080308F31092784312100C3
:10096000CB006E302100D0000C302100CD005E2E77
:10097000003021005004031DC02C2100CD015E2E4B
:100980008830210051052000E500803A031DCC2C61
:1009900009302100CD005E2E2230210051052000BB
:1009A000E500203A0319D82C6508223A031D502D82
:1009B00020006C08803E7D3E031DE02CE8306B0279
:1009C0002000E501031C651465080030031901309F
:1009D000E9006908031DF62C20006C08803E843E67
:1009E000031DF42C18306B020318022D0A3020006E
:1009F0006B072000E500E901E90D20006C082000EC
:100A0000E9070D2D013020006B072000E500E9010A
:100A1000E90D20006C082000E9072000650820008F
:100A2000EB00200069082000EC001330F7002100E3
:100A30004E088F31382785312000E50021004F080E
:100A40002000E5076508F60020006B08F7006C0839
:100A500070262000EC007708EB001F3028001D02F4
:100A6000031C4C2D03101D0C2000E5000310280072
:100A70001D0C2000E9000310E90C6908E5070310CC
:100A800028001D0C2000E9000310E90C0310E90CFC
:100A90006908650728009D000B302100CD005E2EFF
:100AA0001130210051052000E500103A03195C2D9A
:100AB0006508113A031DDB2D20006C08803E7D3E49
:100AC000031D642DE9306B020318792D20006C089A
:100AD000803E843E031D6E2D19306B022000E5011F
:100AE000E50D6508003003190130E90069080319B4
:100AF000892DF63020006B072000E500FF30E9006B
:100B000020006C0803186C0A0319882D2000E907DF
:100B1000982DFF3020006B072000E500FF30E90032
:100B200020006C0803186C0A0319982D2000E907AF
:100B3000200065082000EB00200069082000EC0080
:100B40001330F70021004E088F31382785312000FF
:100B5000E50021004F082000E5076508F6002000A9
:100B60006B08F7006C0870262000EC007708EB009B
:100B70001F3028001D02031CD72D03101D0C200060
:100B8000E500031028001D0C2000E9000310E90C0B
:100B90006908E507031028001D0C2000E900031078
:100BA000E90C0310E90C6908650728009D000B306B
:100BB0002100CD005E2E4430210051052000E500CB
:100BC000403A031D582E21004E08063A031D3D2EC3
:100BD00021004F08083A031D3D2E0030F60000307A
:100BE000F70075308D315E2585310030F60000301C
:100BF000F70076308D315E25853120006C08803E0F
:100C0000803E031D052E06306B0203183D2E20008A
:100C10006B082000E5001330F70065088F31382796
:100C200086312000E9008D319B2586312000E900C6
:100C30007708E500F6006908F70074308D315E250D
:100C4000863120006B082000E5001330F7006508AE
:100C50008F31382786312000E900690AE5008D319F
:100C60009B2586312000E9007708E5006904031D13
:100C70003D2E06302000EB00EC011330F700210080
:100C80004E088F31382786312000E50021004F08BB
:100C90002000E50720006B08F6006C08F700200034
:100CA00065088D315E25863109302100CD005E2E2C
:100CB000FA3028009D005E2E2100CD0121004D0854
:100CC0000030031901302000E500E900690C031829
:100CD0006B2E20009913031C6F2E2000991708001B
:100CE0002000E2007708E1007608E300723063023A
:100CF000E401031C641464080319A32E631C912EE1
:100D0000E730F3000330F4000030F5000030F60067
:100D10006108F700620864272000E2007708E1001C
:100D20005F2F7830F3000530F4007030F500FE30AE
:100D3000F60020006108F700620864272000E20046
:100D40007708E1005F2F003020006404031D5F2F4F
:100D50007B30630203185F2F8E30E30706308A0072
:100D6000B530630703188A0A8200BE2ED02EE22E09
:100D7000F42E062F182F2A2F3C2F4E2F1930F30058
:100D80000030F4000030F5000030F600200061086B
:100D9000F700620864272000E2007708E1005F2F77
:100DA0001930F3000030F400E730F500FF30F600B2
:100DB00020006108F700620864272000E20077083D
:100DC000E1005F2F7830F3000530F4007030F5005B
:100DD000FE30F60020006108F7006208642720005A
:100DE000E2007708E1005F2F0830F3000030F400E4
:100DF0000030F5000030F60020006108F7006208BE
:100E000064272000E2007708E1005F2FE730F3005D
:100E10000330F4000030F5000030F60020006108D7
:100E2000F700620864272000E2007708E1005F2FE6
:100E30003C30F3000030F4000030F5000030F600E4
:100E400020006108F700620864272000E2007708AC
:100E5000E1005F2F3C30F3000030F4000030F5007B
:100E60000030F60020006108F700620864272000C7
:100E7000E2007708E1005F2F0130F3000030F4005A
:100E80000030F5000030F60020006108F70062082D
:100E900064272000E2007708E1005F2F0630F300AE
:100EA0000030F4000030F5000030F600200061084A
:100EB000F700620864272000E2007708E1002000C4
:100EC0006108F700620808002000D9007708D80000
:100ED0007608DB007508DA007408DD007308DC00B2
:100EE0005D08803EDE005908803E5E02031D7A2FB9
:100EF00058085C020318822F20005A08DE005B08A5
:100F0000DF009F2F20005908803EE0005B08803EF4
:100F10006002031D8D2F5A0858020318952F2000D8
:100F20005C08DA005D08DB009A2F20005808DA0020
:100F30005908DB0020005A08DE005B08DF002000B3
:100F40005E08F7005F0808002100AD007708AC00DC
:100F50007608AF007508AE00B001B1010830B200EC
:100F600021002C08B3002D08B400331CBD2F2E081F
:100F7000B0072F0803182F0FB10721002C08B3006A
:100F80002D08B4000030B41BFF30B600B500341C8F
:100F9000D62FB3013008B5003108B6000030350750
:100FA000B0002E08B4000318340FB10721002C083C
:100FB000B3002D08B4000310340CAD00330CAC00AA
:100FC0000310AE0DAF0D3208B3003303B200320888
:100FD000031DB02F3008F700310808000334B73480
:100FE0000D342534B1346134413437340134213483
:100FF0000534C134CD3485340934593400340034D7
:101000002000C001C1016A30210099000E308C001F
:1010100022008C0121008D0122008D0121008E0112
:1010200023000C1521009D151E169E171D149D14DE
:1010300023008E01053020009C00FA309B00210027
:1010400091147230280097007F309B252000A70064
:101050007708A900A800280C0318302828001711C9
:10106000031C342828001715FA3028009600373062
:101070009E00FA309D00C03020008B0021009D189A
:101080003E281C082000C200C3014208C500C4015C
:1010900021001B082000C200C3014208C404430809
:1010A000C504450EF039C300440EC2000F39C30415
:1010B000C2060310C20DC30D0310C20DC30D2000E4
:1010C000931D672880314220883120009311200031
:1010D000931C7C2C2000C00A0319C10A420E0F3950
:1010E000C400430EC500F039C404C5060310C50C86
:1010F000C40C0310C50CC40C44084202C4004508CB
:10110000031C450A4302C50021001C082000C6003C
:10111000C7014608C900C80121001B082000C600FD
:10112000C7014608C8044708C9044808C60049085A
:10113000C70046084407C2004508C3004708031813
:10114000470FC30721009D1420004208C400430834
:10115000C500C601C7014708803E803E031DBA286E
:1011600000304602031DBA28F8304502031DBA2894
:10117000003044022000C801031C48144808003015
:1011800003190130C4004408031DD9280830430264
:10119000031DCC28003042022000C401C40D4408C5
:1011A000003003190130C8004808031DD928C401C4
:1011B000DC2801302000C40020004408C800480C8E
:1011C0000318E42822000C10031CE82822000C1449
:1011D000200040080F39031D7A2C2030C400C801BC
:1011E000C901CA010310430CCB00CC010310CC0C85
:1011F000CB0C0310CC0CCB0C1F30CB05CC014B0817
:10120000F5004C08F6000230F70000308731A427C3
:1012100089312000CE007708CD008B3ECD004E08EE
:1012200003184E0F0E3ECE00420E0F39CF00430E74
:10123000D000F039CF04D0060310D00CCF0C3F30D3
:10124000CF05D001D10120005108D200D3015008B0
:101250005302031D2D294F085202031C532920005D
:101260004D08F6004E08F70080308F311B2789317A
:101270002000D3007708D200D4005308D5000030F6
:10128000D51BFF30D700D6005408C40755080318F3
:10129000550FC80756080318560FC90757080318F3
:1012A000570FCA078B2920004B08D200D20A023000
:1012B000F70052088F31382789312000D300D4013C
:1012C00053088B3ED2000E30D50054080318540F3B
:1012D000D5075208F6005508F70080308F311B27DC
:1012E00089312000D4007708D300D2005408D500FB
:1012F0000030D51BFF30D700D6005208C407550870
:101300000318550FC80756080318560FC907570882
:101310000318570FCA072000D10A40305102031C9E
:101320002329440E0F39CB00480ECC00F039CB04F2
:10133000CC06490ECD00F039CC04CD064A0ECE00C5
:10134000F039CD04CE06F030CE19CE040310CE1BFA
:101350000314CE0CCD0CCC0CCB0C0310CE1B031401
:10136000CE0CCD0CCC0CCB0C4B082000ED0020009B
:101370004C082000EE0073309B252000C800770841
:10138000C40020006D082000C90020006E08200065
:10139000CA00440849072000ED0020004A08200048
:1013A000EE00200048080318480A0319D929200034
:1013B000EE0722000C1CEC2911302100C900CB30B3
:1013C0002100CA00FF302100CB00FF302100CC00FB
:1013D00022000C128C12772C7A309B252000C8003A
:1013E0007708C400C900063049020318602B2100A9
:1013F0004C1320004008C4004108C800C901CA01BC
:101400004A08803E803E031D0F2A00304902031D1A
:101410000F2AEA304802031D0F2A60304402031CE1
:10142000652B7A309B252000AD007708AC00AE001C
:1014300006302E0203185C2B75309B252000AD0072
:101440007708AC00AF0009302F02031C2A2A0830AD
:10145000AC002D2A20002F08AC0020002C08AF0083
:1014600076309B252000AD007708AC00AC0A03194C
:10147000AD0A1330F7002E088F3138278A3120004B
:10148000B0000230F7002F088F3138278A31200052
:10149000AE003007AE002E0AB1009B252000B3003D
:1014A0007708B20033082D02031D582A32082C0297
:1014B000031CA92A2000AF0AAC01AD012F08093A8C
:1014C0000319762A0230F7002F088F3138278A3126
:1014D0002000B2003007B200320AB3009B25200082
:1014E000B4007708B3003404031D922A0230F700D9
:1014F00020002F088F3138278A312000B3003007B1
:10150000B3009B252000B4007708B300F600340830
:10151000F70074305E250630F6000030F7007A30B0
:101520005E255C2B20002F08B300B4013308F600C1
:101530003408F70075305E25200032089B25200016
:10154000B3007708B200F6003308F70074305E2568
:10155000552B79309B252000B3007708B200330467
:101560000319552B31089B252000B2007708B100E4
:101570002E089B252000B3007708AE00AF0A02308A
:10158000F7002F088F3138278A312000B400B007C8
:1015900030089B252000B0007708AF002D0EF039F1
:1015A000B5002C0EB4000F39B504B4060310B40D09
:1015B000B50D0310B40DB50D2030B600B701B8015C
:1015C000B901BA01200032083502031DE92A3108A9
:1015D0003402031C0A2B20003108B4023208031C19
:1015E000320FB5022F08BB003008BC000030BC1B16
:1015F000FF30BE00BD003B08B6073C0803183C0F97
:10160000B7073D0803183D0FB8073E0803183E0F03
:10161000B907222B20002E08BB003308BC00003085
:10162000BC1BFF30BE00BD003B08B6073C080318DA
:101630003C0FB7073D0803183D0FB8073E080318D5
:101640003E0FB9072000BA0A40303A02031CE22AD2
:10165000360E0F39B600370EB700F039B604B706AC
:10166000380EB800F039B704B806390EB900F039B1
:10167000B804B906F030B919B9040310B91B031442
:10168000B90CB80CB70CB60C0310B91B0314B90C89
:10169000B80CB70CB60C3608AE003708AF002E08F1
:1016A000F6002F08F70074305E2520002C08F600A5
:1016B0002D08F70076305E252000C001C101652BA2
:1016C00021004C172000C001C10174309B2520006F
:1016D000A7007708A9002100450846040319742BC8
:1016E000FF30C507031CC60321004708480403193F
:1016F0007D2BFF30C707031CC8032000A801220070
:101700000C1E842B2000A80A200028080030031992
:101710000130AB00A800280C0318902B2100CC133B
:10172000031C942B2100CC172000A80122008C1E42
:101730009B2B2000A80A2000280800300319013044
:10174000AB00A800280C0318A72B2100CC11031C08
:10175000AB2B2100CC1522000C1EBF2B200027082C
:10176000803EAA0020006E08803E20002A02031D51
:10177000BD2B20006D08200029020318D12B220068
:101780008C1EF52B20006E08803E2000AA00270842
:10179000803E2A02031DCF2B290820006D02031C66
:1017A000F52B77309B252000AB007708A800AA0016
:1017B0003C30F7002A088F3138278B312100C500D3
:1017C000C60178309B252000AB007708A800AA004E
:1017D0003C30F7002A088F3138278B312100C700B1
:1017E000C80122000C128C126D2C22000C1A6D2CD8
:1017F0008C1A6D2C72309B252000AB007708A80056
:101800002907AA002708AD002B0803182B0FAD07E6
:101810002D08803EAC0020006E08803E20002C0287
:10182000031D162C20006D0820002A020318382CF6
:101830002100450846040319352C2000AA01210087
:10184000CC1F242C2000AA0A2100450801392000C1
:10185000AD00AC00AA062A0C0318302C2100CC13D2
:10186000031C342C2100CC176D2C22000C166D2C7F
:1018700020002808A9022B08031C2B0FA702200018
:101880006E08803E2000AE002708803E2E02031D19
:101890004C2C290820006D0203186D2C21004708EC
:1018A000480403196B2C2000A9012100CC1D5A2CDF
:1018B0002000A90A2100470801392000A700A8003C
:1018C000A906290C0318662C2100CC11031C6A2CD4
:1018D0002100CC156D2C22008C162000991F772C2E
:1018E0000130F60020006D08F7006E087F2420000C
:1018F000ED01EE012000931064005F280800200035
:10190000A0007708A1007608A2000314A01F03100E
:10191000031C932C21004C122000A109A009A10A4C
:101920000319A00A952C21004C1600302000220437
:1019300003199D2C2100CC124C1120002008803E60
:101940007D3E031DA52CE8302102031CBB2C20008A
:101950002108A3002008A4000A30F5000030F6009A
:101960002308F70024088E3142268C312000A00085
:101970007708A100A20120002008803E803E031DC0
:10198000C32C64302102031CF52C20002108A30085
:101990002008A400A60120002408803E803E031DEC
:1019A000D32C64302302031CDC2C9C302000A307C2
:1019B000031CA403A60ACB2C20002308A1002408A2
:1019C000A0000F30A6052608EE3EA600073003183B
:1019D000013EA3002608F6002308F70080308F316F
:1019E00009278C312100C900F82CFF302100C900E3
:1019F00020002008803E803E031D002D0A30210279
:101A000003180B2D20002208031D0B2D210049086F
:101A1000FF3A0319472D20002108A3002008A40045
:101A2000A60120002408803E803E031D192D0A30A7
:101A30002302031C222DF6302000A307031CA4035D
:101A4000A60A112D20002308A1002408A0002608C2
:101A5000EE3EA60007300318013EA3002608F6005C
:101A60002308F70080308F3109278D312000A40032
:101A7000220803193E2DFE30A200412DFF30200028
:101A8000A2002000220824052100CA004A2DFF30B0
:101A90002100CA0020002108EE3EA1002008031802
:101AA000200F073EA0002108F6002008F700803034
:101AB0008F3109278D312100CB0008002000A700BD
:101AC0007708A9007608A80027089B252000AB000E
:101AD0007708AA002806031D712D2B082906031973
:101AE0009A2D03102000270DAA0020002A082300A9
:101AF0009100200028082300930015139513151555
:101B000020008B13553023009600AA3096009514C0
:101B100020008B1723001511230095188C2D200011
:101B2000121220002908A800A9012A08A700AA0A61
:101B3000271C752D08002000A000A101A2010310A0
:101B4000200DA300200023082300910015139513F6
:101B5000151413082000A000A4012008A600A50168
:101B60002208A000A40120082504A10024082604BE
:101B7000A2002308A000A30A201CA22D2108F70020
:101B800022080800CB30F6000E30F70080308F318D
:101B90001B278D312100A1007708A000CD30A200C5
:101BA0000E30A30021002008A4002108A500FF306A
:101BB000A007031CA1032408250403193F2E0430A9
:101BC0002207A400A501A50D2308A5072408F600F7
:101BD0002508F70080308F311B278D312100A700A9
:101BE0007708A6002208F6002308F70080308F311E
:101BF0001B278D312100A900A5007708A800A400AB
:101C000002302207A400A501A50D2308A50724087A
:101C1000F6002508F70080308F311B278E31210018
:101C2000A500AB007708A400AA0021002608AA009E
:101C30002708AB00FF30A607031CA7032A082B04C4
:101C40000319392E2808F6002908F70080308F3153
:101C500009278E312100AA00240884002508850068
:101C60002A088000A80A0319A90AA40A0319A50AC8
:101C7000152E06302100A2070318A30AD22D8831A1
:101C8000002808002100B8007708B7007608BA00DD
:101C90007508B900BB01BC010130BD00BE013908A7
:101CA0003A04031D572EFF30F700FF308A2E210023
:101CB00039083A08BF00BF1B642E0310B90DBA0DD6
:101CC0000310BD0DBE0D572E21003D083E04031923
:101CD000862E3A083802031D6F2E39083702031C7E
:101CE0007E2E21003D08BB073E0803183E0FBC07AF
:101CF0003908B7023A08031C3A0FB8020310210052
:101D0000BA0CB90C0310BE0CBD0C642E21003B08AC
:101D1000F7003C080800003400342A34FE349B34B9
:101D2000FE34EF34FE343234FF346834FF349834F8
:101D3000FF34C334FF34EA34FF3410340034333416
:101D40000034553400347734003497340034B934D7
:101D50000034D9340034FA3400341B3401343E34B6
:101D600001346234013487340134AF340134D9345E
:101D70000134073402343834023470340234B0345D
:101D80000234FB34023459340334CF3403347E3408
:101D90000434783405340A34003403340034CC3449
:101DA000003401340034FE3407346D34003402341E
:101DB000003457340F34C5340034023400345934FD
:101DC0000F34C7340034023400345B340F34CD3464
:101DD0000034013400345C340F34CE340034013428
:101DE00000345D340F34CF340034013400345E34B9
:101DF0000F34D0340034013400345F340F34D13424
:101E000000340134003460340F34D23400340134EF
:101E10000034003A0319102F803A0319162F0034AA
:101E200076088400770885000008080077088A0093
:101E3000760882000800003A0319232F803A03191C
:101E40002B2FF701003476088400770885001200F4
:101E5000F700000808008F311627F500F60FF7038A
:101E6000F70A8F311627F4007508F7007408080088
:101E70002100C0007708C100C2010830C300210062
:101E8000401C442F4108C20721004008C400031031
:101E9000440CC0000310410DC400C1004308C4003D
:101EA0004403C3004308031D3F2F420808003C348D
:101EB00000343C3400340034003400340034003446
:021EC0000034EC
:020000040001F9
:02000E00DC0F05
:02001000FF3AB5
:00000001FF
