:020000040000FA
:1000000000008731652FFF348A012000911C4028B1
:10001000031022000D0D2000AE002E08031D122833
:100020001030AE0021008E0120008D0120002E082E
:10003000103A031928282E08203A03192D282E08D3
:10004000403A031932282E08803A031937283B28F2
:100050002100310820008E003B28210032082000BA
:100060008E003B282100330820008E003B28210011
:10007000340820008E0020002E0820008D009110F2
:10008000090020008B130D082000C40021000E0879
:100090002000C50020008D01D83021008E00031003
:1000A0002000490D2000C600C70120008E1F5A28DD
:1000B0002000C70A20004608C8004708C6004804B8
:1000C0002000C9000310490D2000C600C701200010
:1000D0000E1E6C282000C70A20004608C8004708EA
:1000E000C60048042000C9000310490D2000C600C6
:1000F000C70120000E1F7E282000C70A20004608E6
:10010000C8004708C60048042000C9000310490D74
:100110002000C600C70120008E1D90282000C70ABD
:1001200020004608C8004708C60048042000C9004F
:100130002000440820008D002000450821008E008A
:1001400020008B1720004A08031DCA030A30200034
:100150004B020318DD2C00308A00B2304B07031825
:100160008A0A8200BC28D728DD2CF328F6282C29FF
:1001700087290E2A042B7B2B88302000490520007C
:10018000C400883A031DCB2864302000CA00013027
:100190002000CB00DF2C4430200049052000C400A3
:1001A000043A031DDF2C04302000CB00DF2C00308C
:1001B00020004A04031DE82888302000490520005B
:1001C000C400083A031DE82803302000CB00DF2CD0
:1001D0008830200049052000C400883A0319DF2C2C
:1001E0002000CB01DF2C2000CB01DF2C21003416B6
:1001F000063020004C020318172919302100B100E5
:10020000DD302100B20020004C08423E2000C40036
:100210000D300318013EC5004408F6004508F700FC
:1002200080308C31F42481312100B3002529200055
:100230004C08063A031D252961302100B100093020
:100240002100B200C9302100B300C8302000CA002C
:1002500005302000CB00DF2C003020004A040319B9
:1002600039298830200049052000C400083A031DC0
:100270003C292000CB01DF2C223020004905200042
:10028000C400023A031D582920004C08063A031DF9
:100290004C292000C401502920004C0A2000C40031
:1002A000200044082000CC0004302000CB00DF2CCC
:1002B0001130200049052000C400013A031D7929AE
:1002C00020004C080030031901302000C40044080D
:1002D00003196D290630C400712920004C03200049
:1002E000C400200044082000CC0004302000CB00D3
:1002F000DF2C4430200049052000C400043A031DCF
:10030000DF2C2000CD0106302000CB00DF2C2100A7
:100310003416063020004C020318B42920004D1C6E
:10032000982985302100B100D1302100B2009E29EA
:1003300061302100B10019302100B200031020000B
:100340004D0C2000C400423EC4000D300318013E95
:10035000C5004408F6004508F70080308C31F424CD
:1003600081312100B300072A20004C08063A031D02
:10037000072AFF302100B300083020004D02031887
:10038000072A01308A00C8304D0703188A0A820004
:10039000D029D729DE29E529EC29F329FA29012AD0
:1003A000D1302100B100A1302100B200072AC930AC
:1003B0002100B100CD302100B200072A61302100B8
:1003C000B10019302100B200072A61302100B100CC
:1003D000C9302100B200072A85302100B100D13098
:1003E0002100B200072ACD302100B1008530210064
:1003F000B200072AD1302100B10085302100B200BF
:10040000072ADD302100B100D5302100B200C8300C
:100410002000CA0007302000CB00DF2C0030200075
:100420004A04031D162A2000CB01DF2C883020004F
:1004300049052000C400083A031D222A0430200088
:10044000CB00DF2C2230200049052000C400023AF6
:10045000031D792A063020004C020318492A123065
:1004600020004D022000C401031C44144408003045
:1004700003190130C50045080319402AC401442A64
:1004800020004D0A2000C400200044082000CD00B8
:10049000752A073020004D022000C401031C4414BB
:1004A0004408003003190130C500450803195A2AD1
:1004B000C4015E2A20004D0A2000C4002000440828
:1004C0002000CD00033A031D752A79308B31FA23C1
:1004D00082312000C5007708C400C60006304602FD
:1004E000031C752A05302000CD0006302000CB000B
:1004F000DF2C1130200049052000C400013A031D03
:10050000C82A063020004C0203189C2A20004D08FF
:100510000030031901302000C40044080319932A55
:100520001230C400972A20004D032000C400200090
:1005300044082000CD00C42A20004D0800300319D3
:1005400001302000C40044080319A92A0730C40060
:10055000AD2A20004D032000C400200044082000E4
:10056000CD00043A031DC42A79308B31FA2382313D
:100570002000C5007708C400C60006304602031CF0
:10058000C42A02302000CD0006302000CB00DF2C32
:100590004430200049052000C400043A031DDF2C2C
:1005A0001330F70020004C088D31232582312000C4
:1005B000C40020004D082000C40744088B31FA23F2
:1005C00082312000CF007708CE001330F7002000E2
:1005D0004C088D31232582312000C40020004D08B5
:1005E0002000C4074408F60020004E08F7004F081A
:1005F000F1242000CF007708CE00C8302000CA00C8
:1006000008302000CB00DF2C063020004C020318FD
:10061000202B20004D1C162B0030F60020004E0829
:10062000F7004F088A31F2228331742B0130F60033
:1006300020004E08F7004F088A31F2228331742BD4
:1006400020004C08063A031D742B033020004D0295
:100650000318342B0130F60020004E08F7004F0835
:100660008A31F2228331742B073020004D020318A7
:10067000432B0030F60020004E08F7004F088A3167
:10068000F2228331742B20004E08063A031D562BAC
:100690004F08003A031D562BC9302100B100D1305C
:1006A0002100B200FF302100B300742B193021006B
:1006B000B100DD302100B2000F3020004E052000D7
:1006C000C400C5014408423EC40045080318450F54
:1006D0000D3EC5004408F6004508F70080308C3117
:1006E000F42483312100B300C8302000CA0009304F
:1006F0002000CB00DF2C003020004A04031D832B98
:100700002000CB01DF2C8830200049052000C400E8
:10071000083A031D8F2B06302000CB00DF2C22303F
:10072000200049052000C400023A03199B2B44080D
:10073000223A031DF42B20004F08803E7D3E031D0E
:10074000A32BE8304E022000C401031C44144408CB
:10075000003003190130C5004508031DB92B2000E6
:100760004F08803E843E031DB72B18304E020318FD
:10077000C52B0A3020004E072000C400C501C50D5E
:1007800020004F082000C507D02B013020004E0765
:100790002000C400C501C50D20004F082000C5077A
:1007A000200044082000CE00200045082000CF0093
:1007B0001330F70020004C088D31232583312000B1
:1007C000C40020004D082000C4074408F6002000A3
:1007D0004E08F7004F08F1242000CF007708CE0024
:1007E00008302000CB00DF2C11302000490520000C
:1007F000C400013A0319002C4408113A031D602C6F
:1008000020004F08803E7D3E031D082CE9304E023B
:1008100003181D2C20004F08803E843E031D122C1F
:1008200019304E022000C401C40D440800300319E1
:100830000130C500450803192D2CF63020004E0765
:100840002000C400FF30C50020004F0803184F0AE5
:1008500003192C2C2000C5073C2CFF3020004E072C
:100860002000C400FF30C50020004F0803184F0AC5
:1008700003193C2C2000C507200044082000CE00AE
:10088000200045082000CF001330F70020004C085E
:100890008D31232584312000C40020004D08200024
:1008A000C4074408F60020004E08F7004F08F12462
:1008B0002000CF007708CE0008302000CB00DF2CCE
:1008C0004430200049052000C400043A031DDF2CF9
:1008D00020004C08063A031DC22C20004D08073AA0
:1008E000031DC22C0030F6000030F70075308B314C
:1008F000CB2384310030F6000030F70076308B31A6
:10090000CB23843120004F08803E803E031D8A2C7B
:1009100006304E020318C22C20004E082000C400EE
:100920001330F70044088D31232584312000C500A1
:100930008B31FA2384312000C5007708C400F6000B
:100940004508F70074308B31CB23843120004E08EA
:100950002000C4001330F70044088D312325843172
:100960002000C500450AC4008B31FA2384312000E1
:10097000C5007708C4004504031DC22C06302000C2
:10098000CE00CF011330F70020004C088D31232515
:1009900084312000C40020004D082000C40720003E
:1009A0004E08F6004F08F700200044088B31CB2397
:1009B000843106302000CB00DF2C2000CB0120004A
:1009C0004B080030031901302000C400C500450C5D
:1009D0000318EC2C20009913031CF02C200099170D
:1009E00008002000BD007708BC007608BE00723009
:1009F0003E02BF01031C3F143F080319592D3E1C42
:100A0000292D3D08803E7D3E031D082DE8303C0227
:100A1000031C0E2D2000C001C101232D0314200052
:100A2000BD1F0310031C192DE730C2000330C300A3
:100A30001E2D20003C08C2003D08C30020004208D3
:100A4000C0004308C10020004008BC004108BD00B0
:100A5000C22E20003D08803E7B3E031D312D7930A3
:100A60003C02031C392D70302000C000FE30C10054
:100A7000532D20003D08803E823E031D412D7030E5
:100A80003C020318492D78302000C2000530C30015
:100A90004E2D20003C08C2003D08C3002000420843
:100AA000C0004308C10020004008BC004108BD0050
:100AB000C22E003020003F04031DC22E7A303E02B9
:100AC0000318C22E8E30BE0705308A006B303E07F9
:100AD00003188A0A8200732D9B2DCA2DFA2D222E0F
:100AE0004B2E732E9B2E20003D08803E803E031D22
:100AF0007B2D1A303C02031C812D2000BE01BF015A
:100B0000952D03142000BD1F0310031C8B2D1930DD
:100B1000C000C101902D20003C08C0003D08C1006C
:100B200020004008BE004108BF0020003E08BC0075
:100B30003F08BD00C22E20003D08803E803E031DC0
:100B4000A32D1A303C02031CAB2DE7302000BE0061
:100B5000FF30BF00C42D20003D08803E813E031DB4
:100B6000B32DE7303C020318BA2D19302000C00025
:100B7000C101BF2D20003C08C0003D08C10020007D
:100B80004008BE004108BF0020003E08BC003F08EE
:100B9000BD00C22E20003D08803E7B3E031DD22DAD
:100BA00079303C02031CDA2D70302000BE00FE308C
:100BB000BF00F42D20003D08803E823E031DE22D43
:100BC00070303C020318EA2D78302000C000053058
:100BD000C100EF2D20003C08C0003D08C1002000EE
:100BE0004008BE004108BF0020003E08BC003F088E
:100BF000BD00C22E20003D08803E803E031D022E17
:100C000009303C02031C082E2000BE01BF011C2E2F
:100C100003142000BD1F0310031C122E0830C00057
:100C2000C101172E20003C08C0003D08C100200073
:100C30004008BE004108BF0020003E08BC003F083D
:100C4000BD00C22E20003D08803E7D3E031D2A2EA1
:100C5000E8303C02031C302E2000BE01BF01452EAF
:100C600003142000BD1F0310031C3B2EE730C000FF
:100C70000330C100402E20003C08C0003D08C100E8
:100C800020004008BE004108BF0020003E08BC0014
:100C90003F08BD00C22E20003D08803E803E031D5F
:100CA000532E3D303C02031C592E2000BE01BF01D3
:100CB0006D2E03142000BD1F0310031C632E3C3057
:100CC000C000C101682E20003C08C0003D08C100E2
:100CD00020004008BE004108BF0020003E08BC00C4
:100CE0003F08BD00C22E20003D08803E803E031D0F
:100CF0007B2E05303C02031C812E2000BE01BF016B
:100D0000952E03142000BD1F0310031C8B2E0430EE
:100D1000C000C101902E20003C08C0003D08C10069
:100D200020004008BE004108BF0020003E08BC0073
:100D30003F08BD00C22E20003D08803E803E031DBE
:100D4000A32E07303C02031CA92E2000BE01BF01C8
:100D5000BD2E03142000BD1F0310031CB32E06304C
:100D6000C000C101B82E20003C08C0003D08C100F1
:100D700020004008BE004108BF0020003E08BC0023
:100D80003F08BD0020003C08F7003D080800210096
:100D9000A1007708A0007608A3007508A20003143C
:100DA000A11F0310031C232F0314A31F0310031CF4
:100DB000FE2E2009A4002109A500A40A0319A50AF2
:100DC0002408A6002508A7002209A4002309A500DD
:100DD000A40A0319A50A2408A800F5002508A900FB
:100DE000F6002608F70027088C316B248631210095
:100DF000A5007708A400F7002508642F210020092A
:100E0000A4002109A500A40A0319A50A2408A60024
:100E10002508A7002208A400F5002308A500F60075
:100E20002608F70027088C316B2487312100A500A4
:100E30007708A400A409A509A40A0319A50A24088F
:100E4000F7002508642F03142100A31F0310031CBF
:100E50004D2F2008A4002108A5002209A60023097F
:100E6000A700A60A0319A70A2608A800F500270864
:100E7000A900F6002408F70025088C316B2487317F
:100E80002100A5007708A400A409A509A40A031954
:100E9000A50A2408F7002508642F21002008A400D3
:100EA0002108A5002208A000F5002308A100F600F3
:100EB0002408F70025088C316B2487312100A1001C
:100EC0007708A000F70021080800E530F600073099
:100ED000F70080308D31062587312000D10077085A
:100EE000D000E730D2000730D30020005008D400F3
:100EF0005108D500FF30D007031CD1035408550416
:100F00000319E22F04305207D400D501D50D530840
:100F1000D5075408F6005508F70080308D310625B6
:100F200087312000D7007708D6005208F600530812
:100F3000F70080308D31062587312000D900D5009B
:100F40007708D800D40002305207D400D501D50D5F
:100F50005308D5075408F6005508F70080308D3146
:100F6000062587312000D500DB007708D400DA00A1
:100F700020005608DA005708DB00FF30D607031CB4
:100F8000D7035A085B040319DC2F5808F6005908E8
:100F9000F70080308C31F42487312000DA005408C7
:100FA0008400550885005A088000D80A0319D90A18
:100FB000D40A0319D50AB82F06302000D207031827
:100FC000D30A752F88310028080003340034033415
:100FD0000034B434003401340034F9340734AF340D
:100FE000003402340034FB340734B53400340134A7
:080FF000003400340034003429
:101000002000AF01B00148212000931C4529210098
:101010001C082000B100B2013108B400B301210066
:101020001B082000B100B2013108B3043208B40437
:1010300033082100AF07200034080318340A0319CD
:1010400023282100B00721009D14803141208831E0
:101050002000AF0A0319B00A2F080F39031D4329D6
:1010600021002F0E0F39AF00300EB000F039AF0461
:10107000B006F030B019B0042000B101B201B301E4
:101080001F3021002F052000B400B5013308B60041
:10109000B7013708803EB8003508803E3802031D8E
:1010A000532834083602031C972821002F0E0F39CD
:1010B0002000B4002100300E2000B500F039B40447
:1010C000B506F030B519B5040310B51B0314B50C03
:1010D000B40C1F30B405B5013408F5003508F6002E
:1010E0000230F70000308C31212488312000B50017
:1010F0007708B400B43EB40035080318350F0C3E31
:10110000B5003408F6003508F70080308D3106252B
:1011100088312000B7007708B600B4003708B50062
:101120003408B10735080318350FB207DB28210052
:101130002F0E0F392000B4002100300E2000B50022
:10114000F039B404B506F030B519B5040310B51B79
:101150000314B50CB40C1F30B405B5013408B60047
:10116000360AB4000230F70034088D312325883167
:101170002000B600B701B61BB7033608B43EB40072
:101180000C30B80037080318370FB8073408F600DA
:101190003808F70080308D31062588312000B700EF
:1011A0007708B600B4003708B8003408B10738082B
:1011B0000318380FB2072000B30A20303302031C93
:1011C0004028310E0F39B300320EB400F039B304A9
:1011D000B4060310B40CB30C7330FA232000B20031
:1011E0007708B10033072100AF0020003408210048
:1011F000B000200032080318320A03190129210027
:10120000B0077930FA232000B2007708B100B300AC
:101210000630330203183029210034082000B100C1
:10122000BF3031052100B40020002F08B100300884
:10123000B200B301B4013108603A031D3529320808
:10124000EA3A031D35293308003A031D35293408CD
:10125000003A031D352953222000AF01B001352982
:10126000210034172000AF01B0016F212000991F29
:1012700040290130F60021002F08F7003008F22243
:101280002100AF01B0012000931064000428080081
:101290006A30210099000E308C0020008C01210062
:1012A0008D0120008D0121008E0123000C152100ED
:1012B0009D151E169E171D149D1423008E010530CA
:1012C00020009C00FA309B00210091147630280009
:1012D0009700FA309600C03020008B000800743070
:1012E000FA232000A8007708A700200039083A0454
:1012F00003198929FF3039072000A900FF30AA000F
:1013000020003A0803183A0A031988292000AA077E
:101310008C292000A901AA01200029082000B90079
:1013200020002A082000BA0020003B0803199C294D
:101330003B032000A9009E292000A90120002908C4
:101340002000BB0022000C1ED529210034082000FB
:10135000A9007F3029052100B400B4152000280819
:10136000803EAB0021003008803E20002B02031D90
:10137000BD2921002F0820002702031C522A7730A4
:10138000FA232000AA007708A900F5002A08F60031
:101390003C30F70000308C31212489312000BA0024
:1013A0007708B90020000C12522A22008C1E022A53
:1013B000210034082000A900F73029052100B400DD
:1013C000B41721003008803E2000AB002808803E82
:1013D0002B02031DEE29270821002F02031C522A8D
:1013E0007830FA232000AA007708A900AB003C302F
:1013F000F7002B088D31232589312000BB00200008
:101400008C12522A7230FA232000AA007708A90011
:101410002707AB002808AC002A0803182A0FAC07DE
:101420002C08803EAD0021003008803E20002D02B7
:10143000031D1E2A21002F0820002B0203182D2A2D
:10144000200039083A0403192A2A80302100B40602
:10145000B415522A20000C16522A20002908A7028F
:101460002A08031C2A0FA80221003008803E200011
:10147000AD002808803E2D02031D412A27082100C7
:101480002F0203184F2A20003B0803194C2A08306A
:101490002100B406B417522A20008C16522A883034
:1014A0002100B40408007930FA232000A80077084E
:1014B000A700A900063029020318F12A7530FA2383
:1014C0002000A8007708A700AA0009302A02031C00
:1014D0006C2A0830A7006F2A20002A08A7002000E5
:1014E0002708AA007630FA232000A8007708A70072
:1014F000A70A0319A80A1330F70029088D312325FC
:101500008A312000AB000230F7002A088D312325F4
:101510008A312000A9002B07A900A90A2908FA236B
:101520002000AC007708A9002C082802031D9A2A85
:1015300029082702031CEA2A2000AA0AA701A801F9
:101540002A08093A0319B82A0230F7002A088D310F
:1015500023258A312000A9002B07A900290AAC0005
:10156000FA232000AD007708AC002D04031DD42A17
:101570000230F70020002A088D3123258A3120000F
:10158000AC00AB072B08FA232000AC007708AB00B7
:10159000F6002C08F7007430CB230630F60000303C
:1015A000F7007930CB23F12A20002A08AB00AC01E8
:1015B0002B08F6002C08F7007530CB2320002908F3
:1015C000FA232000AA007708A900F6002A08F700ED
:1015D0007430CB2320002708F6002808F700763067
:1015E000CB2308002000A0007708A1007608A20005
:1015F0000314A01F0310031C0C2B2100340820002F
:10160000A300EF3023052100B4002000A109A009A8
:10161000A10A0319A00A0E2B21003416200020086D
:10162000803E7D3E031D162BE8302102031C282B33
:101630000A30F5000030F60020002108F7002008ED
:101640008631C7268B312000A0007708A100A201B7
:1016500020002008803E803E031D302B6430210294
:10166000031C622B20002108A3002008A400A6016F
:1016700020002408803E803E031D402B643023025E
:10168000031C492B9C302000A307031CA403A60ABB
:10169000382B20002308A1002408A0000F30A60545
:1016A0002608423EA6000D300318013EA30026087E
:1016B000F6002308F70080308C31F4248B312100B0
:1016C000B100652BFF302100B10020002008803ED2
:1016D000803E031D6D2B0A3021020318782B200059
:1016E0002208031D782B21003108FF3A0319B42B7F
:1016F00020002108A3002008A400A601200024083F
:10170000803E803E031D862B0A302302031C8F2B54
:10171000F6302000A307031CA403A60A7E2B20009A
:101720002308A1002408A0002608423EA6000D3090
:101730000318013EA3002608F6002308F7008030B6
:101740008C31F4248B312000A40022080319AB2B28
:10175000FE30A200AE2BFF302000A20020002208A5
:1017600024052100B200B72BFF302100B200200079
:101770002108423EA10020080318200F0D3EA000C2
:101780002108F6002008F70080308C31F4248B31DA
:101790002100B30008002000A0007708A10076080F
:1017A000A2000310200DA3002000230823009100B5
:1017B000200022082300930015139513151520000F
:1017C0008B13553023009600AA3096009514200004
:1017D0008B132300151123009518EB2B20001212F8
:1017E00020002108A200A1012308A000A30A201CB8
:1017F000D42B08002000A000A101A2010310200D9D
:10180000A30020002308230091001513951315143D
:1018100013082000A000A4012008A600A5012208AA
:10182000A000A40120082504A10024082604A20089
:101830002308A000A30A201C012C2108F70022087D
:1018400008002000DD007708DC007608DF0075085E
:10185000DE00E001E1010830E20020005C08E30066
:101860005D08E400631C3A2C5E08E0075F0803187B
:101870005F0FE10720005C08E3005D08E400003032
:10188000E41BFF30E600E500641C532CE301600814
:10189000E5006108E60000306507E0005E08E4004E
:1018A0000318640FE10720005C08E3005D08E40012
:1018B0000310640CDD00630CDC000310DE0DDF0D93
:1018C0006208E3006303E2006208031D2D2C600838
:1018D000F700610808002000E8007708E7007608B4
:1018E000EA007508E900EB01EC010130ED00EE01C2
:1018F00069086A04031D802CFF30F700FF30B32C09
:10190000200069086A08EF00EF1B8D2C0310E90D19
:10191000EA0D0310ED0DEE0D802C20006D086E0415
:101920000319AF2C6A086802031D982C6908670226
:10193000031CA72C20006D08EB076E0803186E0F20
:10194000EC076908E7026A08031C6A0FE802031043
:101950002000EA0CE90C0310EE0CED0C8D2C20009D
:101960006B08F7006C080800003400342A34FE3499
:101970009B34FE34EF34FE343234FF346834FF34A9
:101980009834FF34C334FF34EA34FF341034003465
:101990003334003455340034773400349734003411
:1019A000B9340034D9340034FA3400341B340134EF
:1019B0003E3401346234013487340134AF340134AD
:1019C000D9340134073402343834023470340234E8
:1019D000B0340234FB34023459340334CF3403348A
:1019E0007E34043478340534003A0319FB2C803AF1
:1019F0000319012D0034760884007708850000085B
:101A0000080077088A00760882000800003A031967
:101A10000E2D803A0319162DF70100347608840044
:101A2000770885001200F700000808008D310125B5
:101A3000F500F60FF703F70A8D310125F40075085C
:101A4000F700740808002100AA007708AB00AC0179
:101A50000830AD0021002A1C2F2D2B08AC072100D7
:101A60002A08AE0003102E0CAA0003102B0DAE00A6
:101A7000AB002D08AE002E03AD002D08031D2A2D4E
:101A80002C0808000334B7340D342534B1346134E4
:101A900041343734013421340534C134CD348534F4
:041AA0000934593478
:020000040001F9
:02000E00DC0F05
:02001000FF3AB5
:10E00000A034003418340034AA34003418340034F6
:10E01000B434003418340034BE34003418340034BE
:10E02000C834003490340034FA34003430340034CE
:10E030002834003400340034003400340034003418
:10E04000003400340034003400340034A034003490
:10E0500018340034AA34003418340034B434003492
:10E0600018340034BE34003418340034C83400345A
:10E0700090340034FA34003430340034283400341E
:10E0800000340034003400340034003400340034F0
:10E090000034003400340034A03400341834003428
:10E0A000AA34003418340034B43400341834003442
:10E0B000BE34003418340034C83400349034003492
:10E0C000FA3400343034003428340034003400345E
:10E0D00000340034003400340034003400340034A0
:10E0E00000340034A034003418340034AA3400342E
:10E0F00018340034B434003418340034BE340034DE
:10E1000018340034C834003490340034FA34003405
:10E110003034003428340034003400340034003407
:10E12000003400340034003400340034003400344F
:10E13000A034003418340034AA34003418340034C5
:10E14000B434003418340034BE340034183400348D
:10E15000C834003490340034FA340034303400349D
:10E1600028340034003400340034003400340034E7
:10E17000003400340034003400340034A03400345F
:10E1800018340034AA34003418340034B434003461
:10E1900018340034BE34003418340034C834003429
:10E1A00090340034FA3400343034003428340034ED
:10E1B00000340034003400340034003400340034BF
:10E1C00000340034003400340534003400340034AA
:10E1D000C834003400340034003400340F340034C8
:08E1E00002340034063400345F
:00000001FF
