:020000040000FA
:1000000000008531F02DFF348A012700931C23283E
:1000100020008B11270091102100350803191728A3
:100020002100B41F172821008C1022008C140A30E4
:100030002100B60005302000950021009512200017
:100040008B162700930120000B1D422821009516D6
:1000500020008B1221008C1422008C100310210030
:10006000B40D2100B70A21003508031D3C282000EB
:100070008C1C3C282100341427009301911420008B
:100080008B150B112000911C8A28031022000D0DE6
:100090002000BC003C08031D4F281030BC0021008C
:1000A0008E0122008D0120003C08103A03196528BA
:1000B0003C08203A03196A283C08403A03196F2883
:1000C0003C08803A0319742878282100300822005F
:1000D0008E0078282100310822008E007828210027
:1000E000320822008E0078282100330822008E007A
:1000F00020003C0822008D002100360803198228C8
:10010000B60388282100B8012100B7012100B501FC
:1001100020009110090020008B1322000D08200000
:10012000E00021000E082000E10022008D01D830FF
:1001300021008E00031021003D0D2000E200E301AC
:1001400020008E1FA5282000E30A20006208E4009A
:100150006308E20064042100BD0003103D0D20008F
:10016000E200E30120000E1EB7282000E30A200071
:100170006208E4006308E20064042100BD0003108B
:100180003D0D2000E200E30120000E1FC9282000E1
:10019000E30A20006208E4006308E200640421002E
:1001A000BD0003103D0D2000E200E30120008E1D84
:1001B000DB282000E30A20006208E4006308E20074
:1001C00064042100BD002000600822008D00200092
:1001D000610821008E0020008B1721003C08031DC0
:1001E000BC030D30210039020318E22C80308A0054
:1001F000FD30390703188A0A82000A2974295C290C
:10020000B829D329F9291D2A412A4D2A912A2A2BB6
:10021000CD2B162C883021003D052000E000083A47
:10022000031D19291B302100BC0001302100B90039
:10023000E42C003021003D040319E42C7F308F3181
:10024000B12781312000E1007708E0006104031943
:10025000E42C333021003D052000E000033A031D6B
:10026000352902302100B900E42C223021003D055F
:100270002000E000023A031D412903302100B900AB
:10028000E42C113021003D052000E000013A031D5F
:1002900050290D302100BC0004302100B900E42CAD
:1002A000443021003D052000E000403A031DE42CCD
:1002B00007302100B900E42C0030F6006C30F70064
:1002C00000308E3132268131210030102100B316EA
:1002D0003315333021003D052000E000333A031987
:1002E000E42C2100B901E42C003021003C04031D62
:1002F000AD297F308F31B12781312000E2007708AE
:10030000E000E3006308003003190130E000E4007E
:10031000E501E41BE5036408F6006508F7007F309B
:100320008F3174278131200063080319A02922002E
:100330000C100C128C122800171120009310AA29FF
:100340003C302100AE00AF013C302100AC00AD01DB
:10035000280017152100B901E42C883021003D0543
:100360002000E000883A0319E42C2100B901E42CB4
:1003700077308F31B12781312000E3007708E0002A
:100380000130F6006008F70063088E3132268131B3
:10039000223021003D052000E000223A0319E42C20
:1003A0002100B901E42C7E308F31B127813120004A
:1003B000E3007708E000E4000030F7006408F6246A
:1003C0000630200064020318EE2921003C08031DBA
:1003D000EE291130BC0005302100B9001130210098
:1003E0003D052000E000113A0319E42C2100B90179
:1003F000E42C78308F31B12781312000E300770879
:10040000E0000030F6006008F70063088E31322605
:10041000823121003C08031D122A0D30BC00063039
:100420002100B900113021003D052000E000113A03
:100430000319E42C2100B901E42C79308F31B12764
:1004400082312000E3007708E0000030F600600809
:10045000F70063088E313226823121003C08031DEB
:10046000362A0D30BC0004302100B90011302100C3
:100470003D052000E000113A0319E42C2100B901E8
:10048000E42C0130F70021003A08F6246E302100F8
:10049000BC0008302100B900E42C003021003C04ED
:1004A00003195A2A883021003D052000E000803AD7
:1004B000031D5D2A2100B901E42C223021003D05F5
:1004C0002000E000203A031D6F2A2100BA0A0730FD
:1004D0003A020318BA0107302100B900E42C1130A8
:1004E00021003D052000E000103A031D832A210071
:1004F000BA0307303A02031C7F2A0630BA000730DD
:100500002100B900E42C443021003D052000E0002A
:10051000403A031DE42C2100BB0109302100B90041
:10052000E42C21003316B3163315063021003A02AD
:100530000318C22A21003B1CA42A85302100B000E8
:10054000D1302100B100AA2A61302100B000193059
:100550002100B100031021003B0C2000E000963E7A
:10056000E00087300318013EE3006008F6006308EE
:10057000F70080308731672782312000E4002100B6
:10058000B200232B0730F70021003B088F31D8271A
:1005900082312000E000E3016008CC3EE000630807
:1005A0000318630F863EE3006008F6006308F70057
:1005B00080308731672782312000E4002100B000BD
:1005C0000730F70021003B088F31D8278231200007
:1005D000E000E3016008CC3EE00063080318630F0D
:1005E000863EE300E00A0319E30A6008F6006308A8
:1005F000F70080308731672782312000E400210036
:10060000B1000730F70021003B088F31D827833134
:100610002000E000E3016008CC3EE000630803181E
:10062000630F863EE3000230E0070318E30A600828
:10063000F6006308F7008030873167278331200098
:10064000E4002100B2006E302100BC000A3021001D
:10065000B900E42C003021003C04031D322B2100A2
:10066000B901E42C883021003D052000E000803AEB
:10067000031D3E2B07302100B900E42C223021005D
:100680003D052000E000203A031D5F2B2100BB0A3E
:10069000063021003A020318542B133021003B028C
:1006A000031C5B2BBB015B2B0D3021003B02031CA9
:1006B0007D2BBB017D2B09302100B900E42C1130CA
:1006C00021003D052000E000103A031D9D2B210074
:1006D000BB03063021003A020318762B13302100A9
:1006E0003B02031C992B1230BB00992B0D302100CB
:1006F0003B02031C7D2B0C30BB007E308F31B127B9
:1007000083312000E3007708E000E4000630640253
:10071000031C992B21003B08063A031D922BBB0AB0
:10072000BB0A992B21003B08073A031D992BFE3089
:10073000BB0709302100B900E42C443021003D05FD
:100740002000E000403A031DE42C1330F7002100A4
:100750003A088F31D82783312000E00021003B0880
:100760002000E00760088F31B12783312000E700C7
:100770007708E60020006008F60020006608F70011
:10078000670836252000E7007708E6006E30210074
:10079000BC000B302100B900E42C063021003A02E5
:1007A0000318E92B21003B1CDF2B0030F600200052
:1007B0006608F70067088E31322683310F2C01302E
:1007C000F60020006608F70067088E313226833174
:1007D0000F2C063021003B020318F82B0130F600E5
:1007E00020006608F70067088E31322683310F2C0F
:1007F0000C3021003B020318072C0030F6002000CB
:100800006608F70067088E31322684310F2C2000ED
:1008100066082000E0000030F7006008F6246E3023
:100820002100BC000C302100B900E42C1330F7008B
:1008300021003A088F31D82784312000E0002100C0
:100840003B082000E00721003C08031D2A2C210062
:10085000B901E42C883021003D052000E300803AF6
:10086000031D362C09302100B900E42C2100BD1EE7
:100870004C2C2000E60A0319E70A6708803E7D3EFB
:10088000031D442CE9306602031C622C0930200051
:10089000E6070318E70A622C21003D1E792CFF3081
:1008A0002000E607031CE7036708803E7D3E031D2A
:1008B0005B2CE9306602031C622CF7302000E6074F
:1008C000031CE70320006008F60020006608F7001C
:1008D000670836252000E7007708E6001F3028006B
:1008E0001D02031C752CF8309D070B302100B90048
:1008F000E42C443021003D052000E300403A031D74
:10090000DE2C21003A08063A031DD02C21003B08BA
:100910000C3A031DD02C0030F6000030F700783080
:100920008F31742784310030F6000030F7007930C1
:100930008F317427843120006708803E803E031D7C
:10094000A32C063066020318D02C20006608200075
:10095000E3001330F70063088F31D827843120007B
:10096000E4008F31B12784312000E5007708E300EF
:10097000F6006508F70077308F3174278431200046
:10098000E40A64088F31B12784312000E40077083D
:10099000E3006404031DD02C06302000E600E701CC
:1009A00020006608F6006708F700200060088F3115
:1009B0007427843109302100B900E42CFA30280072
:1009C0009D00E42C2100B9012100390800300319F1
:1009D00001302000E000E300630C0318F12C20003C
:1009E0009913031CF52C2000991708002000D20051
:1009F0007708D10021003316B3163315B31406302F
:100A00002000520203181D2D19302100B000DD30E6
:100A10002100B10020005208963ED2008730031812
:100A2000013ED4005208F6005408F70080308731A8
:100A3000672785312100B200352D00302000510498
:100A400003192C2D61302100B00009302100B100C4
:100A5000C9302100B200352DC9302100B000D1309D
:100A60002100B100FF302100B20008002000D900B1
:100A70007708D8007608DA0072305A020318702D11
:100A80005A08DB00133020005B02031C4A2DED30B6
:100A9000DB07422D20005B1C5E2DE730F3000330A6
:100AA000F4000030F5000030F6005808F70059084F
:100AB000BC252000D9007708D800B72D7830F30086
:100AC0000530F4007030F500FE30F60020005808C4
:100AD000F7005908BC252000D9007708D800B72DA9
:100AE0008E302000DA070730F7005A088F31D827F8
:100AF00085312000DB00DC015B08CC3EDA0086306B
:100B0000DD005C0803185C0FDD0703305A07DB00CB
:100B1000DC01DC0D5D08DC075B08F6005C08F70013
:100B200080308731792785312000DF007708DE00AB
:100B30000530DA070318DD0A5A08F6005D08F700E9
:100B400080308731792785312000DC007708DB0091
:100B5000F3005C08F4005E08F5005F08F600580832
:100B6000F7005908BC252000D9007708D8002000DC
:100B70005808F700590808002000D2007708D10073
:100B80007608D4007508D3007408D6007308D50021
:100B90005608803ED7005208803E5702031DD22DD2
:100BA000510855020318D92D20005308F7005408A6
:100BB000EF2D20005208803ED7005408803E570297
:100BC000031DE42D530851020318EB2D2000550896
:100BD000F7005608EF2D20005108F70052080800D2
:100BE0007030F6008630F700803087317927853104
:100BF0002100A1007708A0007230A2008630A30077
:100C000021002008A4002108A500FF30A007031C34
:100C1000A1032408250403196D2E04302207A40023
:100C2000A501A50D2308A5072408F6002508F7004F
:100C300080308731792786312100A7007708A60008
:100C40002208F6002308F7008030873179278631A3
:100C50002100A900A5007708A800A40002302207FF
:100C6000A400A501A50D2308A5072408F600250862
:100C7000F70080308731792786312100A500AB004D
:100C80007708A400AA0021002608AA002708AB00C4
:100C9000FF30A607031CA7032A082B040319672E9D
:100CA0002808F6002908F700803087316727863149
:100CB0002100AA0024088400250885002A08800055
:100CC000A80A0319A90AA40A0319A50A432E063083
:100CD0002100A2070318A30A002E8831002808006B
:100CE0000F34003403340034B3340034013400349E
:100CF000F7340F346D34003402340034FD340F34D3
:100D0000B434003401340034FE340F34B5340034CC
:100D100001340034FF340F34B6340034013400346D
:100D2000A0340734B734003401340034A13407341C
:100D3000B834003401340034F9340F34AC340034A6
:100D400002340034FB340F34AE3400340234003447
:100D5000A2340734B934003401340034A3340734E6
:100D6000BA34003401340034A4340734BB340034C2
:100D700001340034A5340734BC3400340134003469
:100D8000A6340734BD34003401340034A7340734AA
:100D9000BE34003401340034D134A134FF34003483
:100DA000003432340034D134A1340D3400340034F2
:100DB000FA340034C934CD34FF34CE34FF34323405
:100DC0000034C934CD340D34CE34FF3432340034E1
:100DD00061341134FF347034FE34903401346134A2
:100DE0001934FF347034FE34783405346134C93436
:100DF000FF3400340034083400348534D134FF34F7
:100E000000340034E7340334CD348534FF34003407
:100E100000343C340034D1348534FF3400340034A1
:100E20003C340034DD341934FF34003400340134F0
:100E300000341934C1340D3400340034013400342A
:100E4000DD34D534FF34003400340634003400344B
:100E500000341A34FE349D34FE34F234FE3433341C
:100E6000FF346934FF349834FF34C334FF34EB3437
:100E7000FF341034003433340034553400347734C4
:100E8000003498340034B8340034D9340034FA349F
:100E900000341C3401343E3401346234013487346C
:100EA0000134AF340134D9340134073402343934D5
:100EB000023470340234B0340234FB340234583417
:100EC0000334D134033482340434CA340534003A50
:100ED00003196E2F803A0319742F003476088400AA
:100EE000770885000008080077088A0076088200E5
:100EF0000800003A0319812F803A0319892FF7015E
:100F0000003476088400770885001200F700000896
:100F1000080087317427F500F60FF703F70A8731C9
:100F20007427F4007508F700740808000334B73418
:100F30000D342534B1346134413437340134213433
:100F40000034003400340034003400340034003401
:101000002000C001C101FF30C2007F30C3006A3040
:10101000210099000E308C0022008C0121008D01EE
:1010200022008D0121008E01043023008C0021005C
:101030001E169E1723008E01053020009C00FA30FA
:101040009B00210091147230280097007F30B12757
:101050002000A7007708A900A800280C0318322850
:1010600028001711031C362828001715FA3028000D
:10107000960037309E00FA309D00C83020008B006B
:101080000230270091009201093021009D002000CC
:101090008B13083021003702031C65292100340816
:1010A0002000C4002100B70120008B172000440855
:1010B0002000AC002000CC062100B501210038083A
:1010C000031DB22820002C082000CD0020002C0891
:1010D0002000CC002000CE0120004D08203A03194A
:1010E00075284D08E03A031D792801302100B80029
:1010F0004F2920002C08013A031D8A2820006D0882
:101100002000CF0020006E082000D0000530210014
:10111000B8004F2920002C08023A031D9E28AD017B
:1011200022000C1E95282000AD0A20002D0820006A
:10113000CF00D00105302100B8004F2920002C0835
:10114000033A031D4F29AD0122008C1EA92820005F
:10115000AD0A20002D082000CF00D001053021006D
:10116000B8004F2921003808013A031DCF2820007C
:101170002C082000CE0020004D08E03A031DC428B2
:1011800002302100B8004F2920004E08B12720006E
:10119000D0007708CF0005302100B8004F2921008A
:1011A0003808023A0319D8283808033A031DEC28F6
:1011B00020004F082000BD00AD012C08BE00BF017B
:1011C0003E082D042000CF0020003F083D042000F1
:1011D000D0002100B80A4F2921003808043A031D25
:1011E000112920004C08031D082920004F08200069
:1011F000AC00200050082000AD002C08F6002D089F
:10120000F70020004E0874279A302100B4000B2903
:1012100066302100B40001302100B5002100B80182
:101220004F2921003808063A031D212920004F08C4
:101230002100B40001302100B50007302100B800C2
:101240004F2921003808073A031D422920004E0883
:1012500020004D062000AC00200050082000AD000A
:10126000BD012D08BE00AC0620004F082000AD00D7
:101270002C062100B40001302100B5000830210007
:10128000B8004F2921003808083A031D4F299A3029
:101290002100B40001302100B5002100B801210077
:1012A0003808053A031958293808063A031D6529F4
:1012B000200050082000AC00AD012C082100B40033
:1012C00001302100B5002100B80A20008B17931DC2
:1012D0007C2980318B208931280017197A29FF3029
:1012E0002100B30003302100B00059302100B200CA
:1012F0002100B100200093112000931C2F2E20000C
:10130000C00A0319C10A401CCB294208F700430850
:101310002000A0007708A10021009D1421009D1845
:101320008E291D102000210E0F39A200200EA300CF
:10133000F039A204A3060310A30CA20C0310A30C03
:10134000A20C2208A1022308031C230FA0022100E3
:101350001C082000A200A3012208A400A60121006D
:101360001B082000A200A3012208A6042308A4044D
:101370002608A2002408A3002208A10723080318B6
:10138000230FA0072108F7002008C3007708C20038
:10139000093021009D00200040080F39031D2D2E2B
:1013A0004208F70043082000A0007708A100203081
:1013B000A200A301A401A601210E0F39A500200E51
:1013C000A700F039A504A7060310A70CA50C3F3011
:1013D000A505A7012508A9000310200CA500A70159
:1013E0000310A70CA50C0310A70CA50C1F30250596
:1013F000A100A0012108A500250AA1000230F700E4
:1014000021088F31D8278A312000A000A7012008A9
:10141000273EA0008730A10027080318270FA10747
:101420000230F70025088F31D8278A312000A70025
:10143000A8012708273EA7008730A5002808031821
:10144000280FA507A801200029082802031C4B2A01
:101450002708F6002508F7008030873179278A3180
:101460002000AB007708AA00AC002B08AD000030CC
:10147000AD1BFF30BD00BE002C08A2072D080318CD
:101480002D0FA3073E0803183E0FA4073D080318BD
:101490003D0FA6076E2A20002008F6002108F7005D
:1014A0008030873179278A312000AB007708AA0085
:1014B000AC002B08AD000030AD1BFF30BD00BE00FE
:1014C0002C08A2072D0803182D0FA3073E080318A8
:1014D0003E0FA4073D0803183D0FA6072000A80AE9
:1014E00040302802031C232A220E0F39A100230EAC
:1014F000A000F039A104A006240EA500F039A00434
:10150000A506260EA700F039A504A706F030A719F6
:10151000A7040310A71B0314A70CA50CA00CA10C77
:101520000310A71B0314A70CA50CA00CA10C2108E9
:10153000A2002008A3002208F7002308C5007708AE
:10154000C4007430B1272000C7007708C6004408E3
:10155000C8004508C900460848072000ED002000E3
:1015600049082000EE00200047080318470A031925
:10157000BB2A2000EE0720004308C400C50100304C
:101580004502031DC52AF83044022000C601031C91
:1015900046144608003003190130C7004708031DF0
:1015A000E42A00304502031DD72A093044022000F6
:1015B000C601C60D4608003003190130C4004408B6
:1015C000031DE42AC401E72A01302000C4002000E2
:1015D0004408C600460C0318EF2A22000C10031C16
:1015E000F32A22000C1422000C1C0D2B11302100B8
:1015F000B000CB302100B100FF302100B20021004B
:10160000B30022000C128C123C302100AE00AF015E
:101610003C302100AC00AD012D2E7E30B1272000E2
:10162000C6007708C400C700063047020318452CDF
:101630002100331320004008C4004108C600C70140
:10164000C8014808803E803E031D302B0030470211
:10165000031D302BEA304602031D302B603044025C
:10166000031C4A2C7E30B1272000AC007708AD0067
:10167000BD0006303D020318412C7830B127200010
:10168000AC007708AD00BE007930B1272000AC0077
:101690007708AD00AD0A0319AC0A09303E02031CFD
:1016A000532B0830BE001330F70020003D088F3167
:1016B000D8278B312000BF0003103E0DBD003F072F
:1016C000BD003D0ABF00B1272000AE007708BF0073
:1016D00002303D07AF00B1272000B0007708AF000F
:1016E0002E082C02031D762B3F082D02031CA42B71
:1016F00020002F08F6003008F7007730742720000C
:101700003E08083A03198F2B03303D07B100B1277B
:101710002000B2007708B1003204031D962B06307A
:10172000F6000030F7007E307427412C2000AD0118
:10173000AC01BE0A3E08B100B2013108F600320821
:10174000F700783074273A2C7C30B1272000B100A4
:101750007708BE00310403193A2C3D08B127200058
:10176000BE007708BD002C0EF039B2002D0EB1007E
:101770000F39B204B1060310B10DB20D0310B10D53
:10178000B20D2030B300B401B501B601B70120009D
:101790002E083202031DCE2B3F083102031CEF2B13
:1017A00020003F08B1022E08031C2E0FB2022F08A2
:1017B000B8003008B9000030B91BFF30BB00BA00D8
:1017C0003808B30739080318390FB4073A08031863
:1017D0003A0FB5073B0803183B0FB607072C20004C
:1017E0003D08B8003E08B9000030B91BFF30BB000F
:1017F000BA003808B30739080318390FB4073A0894
:1018000003183A0FB5073B0803183B0FB607200033
:10181000B70A40303702031CC72B330E0F39B30011
:10182000340EB400F039B304B406350EB500F03907
:10183000B404B506360EB600F039B504B606F0307D
:10184000B619B6040310B61B0314B60CB50CB40CD1
:10185000B30C0310B61B0314B60CB50CB40CB30CCC
:101860003308BD003408BE003D08F6003E08F7000E
:101870007730742720002D08F6002C08F700793007
:1018800074272000C001C1014A2C21003317200019
:10189000C001C1017630B1272000C6007708C4001E
:1018A00046040319BA2C7730B1272000C800770806
:1018B000C70020006D082000C90020006E0820002D
:1018C000CA0047084902C7004808031C480A4A02E0
:1018D000C8000314C81F0310031C732CC709C809D0
:1018E000C70A0319C80A03142000C61F0310031CEB
:1018F0009C2CC409C609C40A0319C60A4608803EBE
:10190000CB004808803E4B02031D882C4708440248
:101910002000C901031C4914490800300319013093
:10192000CA00C900490C0318972C22000C10031C94
:101930009B2C22000C14BA2C20004808803ECB00BF
:101940004608803E4B02031DA72C44084702200096
:10195000C901031C49144908003003190130C400AF
:10196000C900490C0318B62C22000C10031CBA2C19
:1019700022000C147730B1272000A7007708A900B7
:1019800021002C082D040319C92CFF30AC07031CBF
:10199000AD0321002E082F040319D22CFF30AE070F
:1019A000031CAF032000A80122000C1ED92C20002C
:1019B000A80A20002808003003190130AB00A80055
:1019C000280C0318E52C2100B313031CE92C21007B
:1019D000B3172000A80122008C1EF02C2000A80ABA
:1019E00020002808003003190130AB00A800280CA3
:1019F0000318FC2C2100B311031C002D2100B3158A
:101A000022000C1E142D20002708803EAA00200072
:101A10006E08803E20002A02031D122D20006D0852
:101A2000200029020318262D22008C1E842D200060
:101A30006E08803E2000AA002708803E2A02031D6F
:101A4000242D290820006D02031C842D7A30B12733
:101A50002000AB007708A8002B0EF0392100AD0064
:101A60002000280E2100AC000F39AD04AC06031095
:101A7000AC0DAD0D0310AC0DAD0D2C0E0F392000CB
:101A8000A80021002D0E2000AB00F039A804AB0601
:101A900028082100AC0220002B08031C2B0A031984
:101AA000532D2100AD027B30B1272000AB00770819
:101AB000A8002B0EF0392100AF002000280E2100D5
:101AC000AE000F39AF04AE060310AE0DAF0D03101C
:101AD000AE0DAF0D2E0E0F392000A80021002F0EE5
:101AE0002000AB00F039A804AB0628082100AE02A4
:101AF00020002B08031C2B0A0319802D2100AF02A4
:101B000022000C128C12FC2D22000C1AFC2D8C1AB7
:101B1000FC2D7230B1272000AB007708A800290700
:101B2000AA002708AC002B0803182B0FAC072C08C1
:101B3000803EAD0020006E08803E20002D02031D77
:101B4000A52D20006D0820002A020318C72D2100B2
:101B50002C082D040319C42D2000AA012100B31F55
:101B6000B32D2000AA0A21002C0801392000AC0066
:101B7000AD00AA062A0C0318BF2D2100B313031CC5
:101B8000C32D2100B317FC2D22000C16FC2D2000C4
:101B90002808A9022B08031C2B0FA70220006E089F
:101BA000803E2000BD002708803E3D02031DDB2D46
:101BB000290820006D020318FC2D21002E082F0497
:101BC0000319FA2D2000A9012100B31DE92D2000E1
:101BD000A90A21002E0801392000A700A800A906A3
:101BE000290C0318F52D2100B311031CF92D210038
:101BF000B315FC2D22008C162000991F2D2E2200DB
:101C00000C1C0F2E23001D1F0F2E61302100B00071
:101C100011302100B100FF302100B200162E01303A
:101C2000F60020006D08F7006E0832262000C4017F
:101C300023001D1F1D2E2000C40A20004408003070
:101C400003190130C700C400440C0318292E2300D7
:101C50001D13031C2D2E23001D172000931064005C
:101C6000472808002000A9007708A8007608AB00E4
:101C70000314A91F0310031C462E21003312200059
:101C8000A809A909A80A0319A90A482E2100331690
:101C9000003020002B040319502E2100B312331101
:101CA00020002908803E7D3E031D582EE830280282
:101CB000031C682E20002808AA002908AC002A0866
:101CC000F7002C080B272000A9007708A800AB011B
:101CD00020002908803E803E031D702E64302802BB
:101CE000031CA42E20002808AA002908AC00AD017E
:101CF00020002C08803E803E031D802E64302A0286
:101D0000031C892E9C302000AA07031CAC03AD0ADB
:101D1000782E20002A08A8002C08A9000F30AD0555
:101D20002D08963EAD0087300318013EAA002D080D
:101D3000F6002A08F7008030873167278E312000AF
:101D4000AC002100B000A72EFF302100B000200021
:101D50002908803E803E031DAF2E0A30280203185A
:101D6000BC2E20002B08031DBC2E210030082000B3
:101D7000AA00FF3A0319F22E20002808AA00290819
:101D8000AC00AD0120002C08803E803E031DCA2E11
:101D90000A302A02031CD32EF6302000AA07031CA7
:101DA000AC03AD0AC22E20002A08A8002C08A90006
:101DB0002D08963EAD0087300318013EAA002D087D
:101DC000F6002A08F7008030873167278E3120001F
:101DD000AC002100B10020002B080319F52E2100D2
:101DE0003110F52EFF302100B10020002808AB0093
:101DF000963EA80087300318013EA9002808F60087
:101E00002908F7008030873167278F312000AB0029
:101E10002100B20008002000A0007708A1000310F4
:101E2000200CA200210CA3000310200CA400210C04
:101E3000A6000310A40CA60C2608A3072408031868
:101E4000240FA207230E0F39A600220EA400F0399A
:101E5000A604A4062608A30724080318240FA20733
:101E60002208A600A4012608A30724080318240FAB
:101E7000A2070310A20CA30C0310A20CA30C0310C6
:101E8000A20CA30C0310230DA600220DA400031026
:101E9000A60DA40D0310A60DA40D0310230DA5007F
:101EA000220DA7002508A60727080318270FA40757
:101EB0002608A1022408031C240FA0020630A10753
:101EC0000318A00A210E0F39A600200EA400F03935
:101ED000A604A4062608A30724080318240FA207B3
:101EE0002308F700220808002000A7007708A900AF
:101EF0007608A8002708B1272000AB007708AA00C1
:101F00002806031D872F2B0829060319B02F03105D
:101F10002000270DAA0020002A082300910020009D
:101F200028082300930015139513151520008B1313
:101F3000553023009600AA309600951420008B1788
:101F40002300151123009518A22F20001212200043
:101F50002908A800A9012A08A700AA0A271C8B2F74
:101F600008002000A000A101A2010310200DA30081
:101F7000200023082300910015139513151413084E
:101F80002000A000A4012008A600A5012208A000AE
:101F9000A40120082504A10024082604A200230887
:101FA000A000A30A201CB82F2108F700220808006F
:101FB0002000E8007708E900EA010830EB00200083
:101FC000681CE42F6908EA0720006808EC00031089
:101FD0006C0CE8000310690DEC00E9006B08EC00E4
:101FE0006C03EB006B08031DDF2F6A080800003448
:101FF00000343C3400343C340034003400340034C9
:020000040001F9
:02000E00D40F0D
:02001000FF3AB5
:00000001FF
