:020000040000FA
:1000000000008D319E2DFF348A012000911C46286E
:10001000031022000D0D2000BD003D08031D122815
:100020001030BD0021008E0122008D0120003D080E
:10003000103A031928283D08203A03192D283D08B5
:10004000403A031932283D08803A031937283B28E3
:1000500021002F0822008E003B28210030082200BA
:100060008E003B282100310822008E003B28210011
:10007000350822008E0020003D0822008D0000304F
:1000800021003904031DB90320009110090020004C
:10009000BE01BF01C0018030C1000522093021002E
:1000A0009D002000931D67288831002080312800A2
:1000B00017196528FF302100B50003302100AF007B
:1000C00059302100B1002100B00020009311003010
:1000D00021003904031D75281C30BE272000C300F1
:1000E0007708C2002100B90056252000931CF8288B
:1000F0002000BE0A0319BF0A3E1C89284008F700E9
:100100004108C7212000C1007708C0000930210044
:100110009D0020003E080F39031DF6284008F70017
:100120004108FB202000C3007708C2001930BE2719
:100130002000C5007708C4004208C6004308C70075
:10014000440846072100A500200047082100A6001A
:10015000200045080318450A0319B0282100A60706
:10016000312234252000991FE9282200131ECE28B1
:1001700020003E1ECE28210032082000C2002100AF
:10018000AF00210033082000C2002100B000210090
:1001900034082000C2002100B100E9282200111E0D
:1001A000E22821003708093A0319DA283708013A0A
:1001B000031DE2280030F60021002D08F7002E086C
:1001C0003B26E9280130F60021002508F700260823
:1001D0003B26033020003F02031DF028E8303E029A
:1001E000031CF62808302000BE00BF012000931039
:1001F0006400512808002000A0007708A1002030EA
:10020000A200A301A401A601210E0F39A500200E12
:10021000AC00F039A504AC060310AC0CA50C3F30C3
:10022000A505AC012508AE000310200CA500AC010B
:100230000310AC0CA50C0310AC0CA50C1F3025054D
:10024000A100A0012108A500250AA1000230F700A5
:1002500021088E31E92681312000A000AC01200860
:100260007A3EA0008E30A1002C0803182C0FA107A5
:100270000230F70025088E31E92681312000AC00DC
:10028000AD012C087A3EAC008E30A5002D08031875
:100290002D0FA507AD0120002E082D02031C732988
:1002A0002C08F6002508F70080308E31CC268131ED
:1002B0002000AF007708B000B1002F08B200003076
:1002C000B21BFF30B300B4003108A2073208031894
:1002D000320FA30734080318340FA4073308031898
:1002E000330FA607962920002008F6002108F70002
:1002F00080308E31CC2681312000AF007708B000ED
:10030000B1002F08B2000030B21BFF30B300B400C0
:100310003108A20732080318320FA3073408031864
:10032000340FA40733080318330FA6072000AD0AC3
:1003300040302D02031C4B29220E0F39A100230E41
:10034000A000F039A104A006240EA500F039A004F5
:10035000A506260EAC00F039A504AC06F030AC19A9
:10036000AC040310AC1B0314AC0CA50CA00CA10C2A
:100370000310AC1B0314AC0CA50CA00CA10C2108A1
:10038000A2002008A3002208F7002308080020008C
:10039000A0007708A10021009D1421009D18CD29FF
:1003A0001D102000210E0F39A200200EA300F039ED
:1003B000A204A3060310A30CA20C0310A30CA20C0E
:1003C0002208A1022308031C230FA00221001C08FD
:1003D0002000A200A3012208A400A60121001B08FE
:1003E0002000A200A3012208A6042308A4042608D2
:1003F000A2002408A3002208A10723080318230F42
:10040000A0072108F700200808006A3021009900A1
:100410000C308C0022008C0124008C1021008D01F6
:1004200022008D0121008E01043023008C00210068
:100430001E169E1723008E01053020009C00FA3006
:100440009B00210091147230280097001715FA3094
:10045000960037309E00FA309D00C03020008B009F
:1004600008002200111D372A2100B701332D220078
:10047000911C3B2A332D21002D082E0403194D2AEF
:1004800020004A08031D4B2A3C30CA00FF302100DF
:10049000AD07031CAE032000CA030A302100370257
:1004A0000318332D82308A005930370703188A0A1F
:1004B0008200632A972AAC2A112B3C2BA02BF82B05
:1004C000212C652C8E2C2200111E702A0030BE2794
:1004D0002100AE007708AD0001302100B700332DB8
:1004E0002200931C802A1F30BE272100A800770815
:1004F000A7001D30BE272100AC007708AB00862A7C
:100500001D30BE272100AA007708A9001E30BE2793
:100510002000AC007708AE00AD002D0C0318922A25
:1005200022001110031C962A22001114332D2100E1
:10053000A901AA0122009310111021002D082E04F8
:10054000031D332D2030BE272100AE007708AD00FB
:1005500002302100B700332D0130BE272100A80052
:100560007708A7000230BE272100AA007708A9005B
:100570001B30BE272000AC007708AE000139AD006B
:10058000AE002E0C0318C62A22001110031CCA2A22
:100590002200111421002608803E2000AF00210017
:1005A0002808803E20002F02031DDA2A2100270898
:1005B00021002502031C092B220093140F30BE27B3
:1005C0002100AC007708AB001A30BE272000AD0038
:1005D0007708AE000139B000AE002E0C0318F22AE5
:1005E00022001312031CF62A220013166130210088
:1005F000B200C9302100B300FF302100B400203028
:10060000BE272100AE007708AD0003302100B700FF
:10061000332D21002D082E04031D332D220011152A
:10062000332D2200131A342B1A30BE272000B000BD
:100630007708AE000239031D0130B100AE002E0C68
:100640000318242B22009110031C282B2200911444
:100650002100B8012030BE272100AE007708AD0090
:1006600004302100B700332D21002D082E04031D76
:10067000332D22001115332D03102100380D2000D9
:10068000AE000330AE072E08BE272100A800770871
:10069000A7000230BE272100AA007708A900220087
:1006A00093101B30BE272000B1007708AE0002393E
:1006B000031D0130B200AE002E0C0318612B220086
:1006C0001110031C652B2200111421002608803E06
:1006D0002000AF0021002808803E20002F02031DCB
:1006E000752B21002708210025020318872B0310F2
:1006F0002100380D2000AE000430AE072E08BE27C2
:100700002000B2007708AE003204031D982B0310BE
:100710002100380D2000AE000430AE072E08BE27A1
:100720002100AE007708AD0005302100B700332D61
:1007300021002D082E04031D332D22001115332D09
:10074000220093140F30BE272100AC007708AB00C5
:100750001B30BE272000B2007708AE000439031D0D
:100760000130B300AE002E0C0318B82B220011107C
:10077000031CBC2B2200111421002D082E04031D84
:10078000332D2100B80A063038020318D12B20304F
:10079000BE272100AE007708AD0004302100B7006D
:1007A000332D1A30BE272000B3007708AE0004397D
:1007B000031D0130B400AE002E0C0318E12B220003
:1007C0001312031CE52B22001316C1302100B200C6
:1007D00083302100B300FF302100B4002030BE2759
:1007E0002100AE007708AD0006302100B700332DA0
:1007F0002200131A192C1A30BE272000B4007708E3
:10080000AE000839031D0130B500AE002E0C0318F0
:100810000B2C22009110031C0F2C2200911420306D
:10082000BE272100AE007708AD0007302100B700D9
:10083000332D21002D082E04031D332D2200111508
:10084000332D220093101B30BE272000B5007708FF
:10085000AE000839031D0130B600AE002E0C03189F
:10086000332C22001110031C372C220011140230EB
:10087000BE272100AA007708A9001030BE2720005B
:10088000B6007708AE00210025082000B70021003F
:1008900026082000AF0036082F02031D512C2E0819
:1008A0003702031C5D2C1230BE272100AE007708F2
:1008B000AD0008302100B700332D21002D082E0493
:1008C000031D332D22001115332D1130BE272100B9
:1008D000AA007708A9001B30BE272000B6007708C1
:1008E000AE001039031D0130B700AE002E0C031806
:1008F0007B2C22001110031C7F2C220011142100DC
:100900002D082E04031D332D1430BE272100AE0008
:100910007708AD0009302100B700332D22001110F7
:100920001330BE272100AA007708A9002000AE01DD
:10093000B701153020003707AF00BE272000B800F0
:100940007708AF0021002D06031D002D2000380878
:1009500021002E06031D002D3A3020004A02031C00
:10096000002D1A30BE272000B8007708AF002E08EF
:10097000B900BA010430B9070318BA0A3808BC0034
:100980002F08BB003908B91BCF2C003C0319D62C0B
:100990002000BC0CBB0C013E031CC82CD62C031041
:1009A0002000BB0DBC0D013E031CD02C20003B08D9
:1009B0000139AF00BB003B0C0318E02C22001312DE
:1009C000031CE42C22001316D1302100B200853024
:1009D0002100B30020002E0AAF00E53EAF008730B3
:1009E0000318013EB9002F08F6003908F7008030DF
:1009F0008E31BA2684312000BA002100B400082DBF
:100A00002000B70A3708AE0004303702031C992CC7
:100A100021002D082E04031D332D2100A901AA0158
:100A20002200931011151A30BE272000B700770856
:100A3000AE0037080139AF00AE002E0C0318222D8E
:100A400022001312031C262D220013164B30210006
:100A5000B200D1302100B300FF302100B4002200E9
:100A600011122100B70108002200931C552D21000E
:100A70002608803E2000A00021002808803E20009B
:100A80002002031D472D21002708210025020318FD
:100A9000522D21002B082100A90021002C08210043
:100AA000AA00552D2100A901AA010800210036083D
:100AB000031D732D6430B60003142100AA1F031018
:100AC000031C6D2D29082000A00020092000C8006B
:100AD000C80A01302000C900732D21002908200018
:100AE000C8002000C9012100B60322000C1021001B
:100AF000B5142200131E8E2D4C302100360220002A
:100B0000A001A00D2008A100210C0318892D2200AE
:100B10000C10031C8D2D22000C14A22D2200911C00
:100B2000A22D1119A22D2100360801392000A000A4
:100B3000A100210C03189E2D2100B510031CA22D2D
:100B40002100B51422009118A72D111DAF2D2200F0
:100B50008C120C1221008C1022008C100C2E200004
:100B60004808210036022000A001031C20142100A7
:100B700036082000A100A2016430A1070318A20AD0
:100B8000200048082000A300A4012208803EA600FF
:100B90002408803E2602031DCF2D230821022000B9
:100BA000A601031C2614200049080319EC2D20007F
:100BB000260C0318DD2D22008C12031CE12D2200CF
:100BC0008C162000200C0318E72D22000C12031CA9
:100BD000EB2D22000C16002E2000200C0318F22D05
:100BE00022008C12031CF62D22008C162000260CED
:100BF0000318FC2D22000C12031C002E22000C16E0
:100C00002200111C082E21008C1422008C100C2EA6
:100C100021008C1022008C102000A00122008C1ECC
:100C2000132E2000A00A20002008003003190130F4
:100C3000A100A000200C03181F2E2100B511031CD9
:100C4000232E2100B5152000A00122000C1E2A2E03
:100C50002000A00A20002008003003190130A10064
:100C6000A000200C0318362E2100B513031C3A2EC9
:100C70002100B51708002000AE007708AD00760807
:100C8000AF000314AE1F0310031C4F2E21003512BA
:100C90002000AD09AE09AD0A0319AE0A512E21009C
:100CA000351620002F08013A031D5A2E2100B512D7
:100CB00035115D2E2100B516351520002E08803E19
:100CC0007D3E031D652EE8302D02031C752E20008D
:100CD0002D08B0002E08B1003008F70031081827A1
:100CE0002000AE007708AD00AF0120002E08803E46
:100CF000803E031D7D2E64302D02031CB12E20008A
:100D00002D08B0002E08B100B20120003108803E4D
:100D1000803E031D8D2E64303002031C962E9C30C5
:100D20002000B007031CB103B20A852E2000300852
:100D3000AD003108AE000F30B2053208E53EB2001A
:100D400087300318013EB0003208F6003008F70083
:100D500080308E31BA2686312000B1002100AF00EC
:100D6000B42EFF302100AF0020002E08803E803ED0
:100D7000031DBC2E0A302D020318C92E20002F0897
:100D8000031DC92E21002F082000B000FF3A0319CF
:100D9000FF2E20002D08B0002E08B100B201200067
:100DA0003108803E803E031DD72E0A303002031CDE
:100DB000E02EF6302000B007031CB103B20ACF2E9C
:100DC00020003008AD003108AE003208E53EB20028
:100DD00087300318013EB0003208F6003008F700F3
:100DE00080308E31BA2686312000B1002100B0005B
:100DF00020002F080319022F21003010022FFF308E
:100E00002100B00020002D08AF00E53EAD00873086
:100E10000318013EAE002D08F6002E08F7008030C2
:100E20008E31BA2687312000AF002100B1000800C2
:100E30002000A0007708A1000310200CA200210CC4
:100E4000A3000310200CA400210CA6000310A40C86
:100E5000A60C2608A30724080318240FA207230EB4
:100E60000F39A600220EA400F039A604A406260815
:100E7000A30724080318240FA2072208A600A40130
:100E80002608A30724080318240FA2070310A20CA6
:100E9000A30C0310A20CA30C0310A20CA30C0310B0
:100EA000230DA600220DA4000310A60DA40D03100F
:100EB000A60DA40D0310230DA500220DAC002508DE
:100EC000A6072C0803182C0FA4072608A102240843
:100ED000031C240FA0020630A1070318A00A210E4C
:100EE0000F39A600200EA400F039A604A406260897
:100EF000A30724080318240FA2072308F7002208D9
:100F000008002000A7007708A9007608A800270895
:100F1000BE272000AB007708AA002806031D942FE7
:100F20002B0829060319BD2F03102000270DAA0046
:100F300020002A08230091002000280823009300A5
:100F400015139513151520008B13553023009600AB
:100F5000AA309600951420008B172300151123004A
:100F60009518AF2F2000121220002908A800A9010F
:100F70002A08A700AA0A271C982F08002000A00012
:100F8000A101A2010310200DA300200023082300CB
:100F9000910015139513151413082000A000A40147
:100FA0002008A600A5012208A000A401200825040D
:100FB000A10024082604A2002308A000A30A201CE4
:100FC000C52F2108F700220808000334B7340D3478
:100FD0002534B134613441343734013421340034A0
:100FE0000034003400340034003400340034003461
:100FF0000034003400340034003400340034003451
:1010000020008B1322000D082000DC0021000E08B8
:101010002000DD0022008D01D83021008E00031059
:1010200021003D0D2000DE00DF0120008E1F1A2868
:101030002000DF0A20005E08E0005F08DE00600498
:101040002100BD0003103D0D2000DE00DF01200067
:101050000E1E2C282000DF0A20005E08E0005F083A
:10106000DE0060042100BD0003103D0D2000DE0005
:10107000DF0120000E1F3E282000DF0A20005E084E
:10108000E0005F08DE0060042100BD0003103D0D9C
:101090002000DE00DF0120008E1D50282000DF0A26
:1010A00020005E08E0005F08DE0060042100BD0053
:1010B00020005C0822008D0020005D0821008E00C9
:1010C00020008B1721003C08031DBC0309302100C0
:1010D0003A020318062D88308A0072303A07031846
:1010E0008A0A82007B28DC28F4283429132A302A33
:1010F0009A2A082B9C2B2200131E8A2821003D08C7
:101100000F39031D8A283D08F03903198A28220067
:101110001312082D883021003D052000DC00803AA4
:10112000031DA928DC012200911C98282000DC0A5C
:1011300020005C08003003190130DD00DC005C0C8D
:101140000318A42822009110031CA828220091143F
:10115000082D333021003D052000DC00033A031D3B
:10116000B52801302100BA00082D223021003D05AC
:101170002000DC00023A031DC12802302100BA0021
:10118000082D113021003D052000DC00013A031D2F
:10119000D0280D302100BC0003302100BA00082DFA
:1011A000443021003D052000DC00403A031D082D9D
:1011B00005302100BA00082D0030F6006D30F70030
:1011C000003086313B26883121002F102100B516D2
:1011D0003515333021003D052000DC00333A03197A
:1011E000082D2100BA01082D2200111D032903300A
:1011F0002100AF0059302100B0002100B100FF30C4
:101200002100B50029292200911C13291930210041
:10121000AF0061302100B00049302100B100FF3043
:101220002100B50029292200931C20290130F60055
:1012300021002708F700280886313B268931292913
:101240000030F60021002908F7002A0886313B26E5
:101250008931223021003D052000DC00223A0319AB
:10126000082D2100BA01082D2200111D4329033049
:101270002100AF0059302100B0002100B100FF3043
:101280002100B500F1292200111ED729FF302100CD
:10129000B1002100B50021003708013A031D57298C
:1012A00061302100AF0085302100B000F12921001C
:1012B0003708023A031D632961302100AF00C930AD
:1012C0002100B000F12921003708043A031D8B29C1
:1012D00019302100AF0083302100B0002100380810
:1012E0002000DC00DD01DC0A0319DD0A5C08E53EB4
:1012F000DC005D0803185D0F873EDD005C08F6002A
:101300005D08F70080308E31BA2689312000DE007A
:101310002100B100F12921003708053A031DB32946
:10132000FF302100AF0019302100B0002100380843
:101330002000DC00DD01DC0A0319DD0A5C08E53E63
:10134000DC005D0803185D0F873EDD005C08F600D9
:101350005D08F70080308E31BA2689312000DE002A
:101360002100B100F12921003708073A031DBF29E8
:10137000C1302100AF0083302100B000F1292100ED
:101380003708083A031DCB2991302100AF00C13046
:101390002100B000F12921003708093A031DF12985
:1013A000C1302100AF00FF302100B000F129220040
:1013B000931CE6294B302100AF00C9302100B0005A
:1013C000FF302100B1002100B500F1294B30210090
:1013D000AF0003302100B000FF302100B100210038
:1013E000B500003021003C04031D082A1430BC0065
:1013F00021003708013A0319052A3708053A03196D
:10140000052A08303702031C082A04302100BA00DC
:10141000113021003D052000DC00113A0319082D90
:101420002100BA01082D0030F60021002D08F70038
:101430002E0886313B268A3121003C08031D252ACF
:101440001430BC0003302100BA00113021003D05EA
:101450002000DC00113A0319082D2100BA01082DE3
:1014600021003B082000D70021003516B5163515A0
:10147000B51421302000570203188A2A0430F700DF
:1014800057088E31E9268A312000D800D901580842
:101490001A3ED7008D30DA0059080318590FDA07C1
:1014A0005708F6005A08F70080308E31BA268A3184
:1014B0002000DB002100AF00200058081A3ED800B1
:1014C00059080318590F8D3ED90001305807D7002D
:1014D000DA01DA0D5908DA075708F6005A08F7005A
:1014E00080308E31BA268A312000DB002100B00026
:1014F00002302000D8070318D90A5808F600590806
:10150000F70080308E31BA268A312000D7002100C2
:10151000B100932ADD302100AF0083302100B000FC
:10152000D5302100B1006E302100BC000630210012
:10153000BA00082D003021003C04031DA22A21001E
:10154000BA01082D883021003D052000DC00803ADA
:10155000031DAD2A2100BA01082D223021003D05CE
:101560002000DC00203A031DBF2A2100BB0A2230E4
:101570003B020318BB0105302100BA00082D1130D1
:1015800021003D052000DC00103A031DD32A210074
:10159000BB0322303B02031CCF2A2130BB000530A5
:1015A0002100BA00082D443021003D052000DC0058
:1015B000403A031D082D213021003B020318E92A7F
:1015C0003B088731BE278A312000E2007708E1001E
:1015D000042B2200111DF02A2000E101E201042B5E
:1015E0002200111EF82A01302000E100E201042B44
:1015F0002200931C002B02302000E100E201042BAA
:1016000003302000E100E20107302100BA00082D7C
:10161000213021003B020318532B0430F7003B0814
:101620008E31E9268B312000DC00DD015C081A3E9A
:10163000DC005D0803185D0F8D3EDD000330DC0724
:101640000318DD0A5C08F6005D08F70080308E3173
:10165000BA268B312000DE0002305E0203183A2BDE
:101660000130F60020006108F700620886313B2651
:101670008B31952B20005E08033A031D492B023065
:10168000F60020006108F700620886313B268B31A6
:10169000952B0030F60020006108F70062088631C3
:1016A0003B268B31952B21003516B5163515B51413
:1016B000200061086204031D662B03302100AF0087
:1016C00059302100B0002100B100952B20006108A5
:1016D000013A031D792B6208003A031D792B19305A
:1016E0002100AF00DD302100B000FF302100B1004B
:1016F000952B20006108023A031D8C2B6208003AEA
:10170000031D8C2BCD302100AF00C9302100B0006B
:10171000FF302100B100952BCD302100AF00033008
:101720002100B000FF302100B1006E302100BC006C
:1017300008302100BA00082D21003B082000DC0001
:1017400021003C08031DA72B2100BA01082D883079
:1017500021003D052000DD00803A031DB32B05303C
:101760002100BA00082D2100BD1EC92B2000E10A6E
:101770000319E20A6208803E7D3E031DC12BE93059
:101780006102031CDF2B09302000E1070318E20A85
:10179000DF2B21003D1EBC2CFF302000E107031C85
:1017A000E2036208803E7D3E031DD82BE9306102D2
:1017B000031CDF2BF7302000E107031CE2032000AD
:1017C0005C08F60020006108F70062082000CE00E7
:1017D0007708CD007608CF00D001D101E730D200E4
:1017E0000330D3004F08213A031DFA2B0330D200F7
:1017F000D301682C0430F70020004F088E31E92611
:101800008C312000D400D50154081A3ECF008D3011
:10181000D60055080318550FD6070330CF07031815
:10182000D60A4F08F6005608F70080308E31BA26E7
:101830008C312000D4005408031D272C7030D000B8
:10184000FE30D1007830D2000530D300682C200063
:101850005408013A031D342CCE30D000FF30D100A3
:101860003230D200D301682C20005408073A031DFF
:101870003D2C0130D200D301682C20005408023ADC
:10188000031D4A2C3830D000FF30D100C830D200C0
:10189000D301682C20005408033A031D562C0A304B
:1018A000D000D101C830D200D301682C20005408E8
:1018B000043A031D602CFF30D2000130D300682CA5
:1018C00020005408053A031D682C1F30D200D301B4
:1018D00020005208F3005308F4005008F5005108A6
:1018E000F6004D08F7004E082000D7007708D80012
:1018F0007608D9007508DA007408DB007308CB009D
:101900005B08803ECC005708803E4C02031D8A2CA9
:1019100058084B020318912C20005A08F700590868
:10192000A72C20005708803ECC005908803E4C026E
:10193000031D9C2C5A0858020318A32C20004B08A6
:10194000F7005B08A72C20005808F7005708200074
:10195000CE007708CD00F7004E082000E20077089F
:10196000E1001F3028001D02031CB82CF8309D0731
:1019700007302100BA00082D443021003D05200029
:10198000DC00403A031D022D213021003B020318E8
:10199000D42C20006108F6006208F70021003B0803
:1019A000873181278C31FE2C200061086204031DE1
:1019B000DF2C22001115111211109310FE2C2000A3
:1019C0006108013A031DEC2C6208003A031DEC2C5F
:1019D000220011111116FE2C20006108023A031D8D
:1019E000FA2C6208003A031DFA2C22001111111280
:1019F0009314FE2C220011111112931005302100B6
:101A0000BA00082DFA3028009D00082D2100BA01E7
:101A100021003A080030031901302000DC00DD000D
:101A20005D0C0318152D20009913031C192D20009F
:101A30009917080061348534FF3406346134C934A1
:101A4000FF34003461340334FF3402341934C934B0
:101A5000B734003419348534B73406341934C934F2
:101A60000D340034193485340D3406341934C93436
:101A70002534003419348534253406341934C934F6
:101A8000B134003419348534B13406341934C934CE
:101A90006134003419348534613406341934C9345E
:101AA0004134003419348534413406341934033454
:101AB000FF3402349134C934FF3400349134033498
:101AC000FF34023491348534FF340634C134033496
:101AD000FF340234C1348534FF340634D1348534C4
:101AE000B7340634D13485340D340634D1348534DA
:101AF00025340634D1348534B1340634C934CD3478
:101B0000FF3401341134193459340434193459343C
:101B1000FF34053419348534FF340334CD340334B1
:101B2000FF340234CD341934FF340734CD346134FA
:101B30001934003411346134853406341E30F60013
:101B40008E30F70080308E31CC268D312000E400BD
:101B50007708E3002030E5008E30E60020006308BF
:101B6000E7006408E800FF30E307031CE4036708AC
:101B7000680403191B2E04306507E700E801E80D2F
:101B80006608E8076708F6006808F70080308E31BD
:101B9000CC268D312000EA007708E9006508F600C0
:101BA0006608F70080308E31CC268D312000EC00A5
:101BB000E8007708EB00E70002306507E700E8017E
:101BC000E80D6608E8076708F6006808F700803047
:101BD0008E31CC268D312000E800EE007708E7003A
:101BE000ED0020006908ED006A08EE00FF30E9070B
:101BF000031CEA036D086E040319152E6B08F6002A
:101C00006C08F70080308E31BA268E312000ED004E
:101C100067088400680885006D088000EB0A0319D6
:101C2000EC0AE70A0319E80AF12D06302000E5075F
:101C30000318E60AAE2D8031472808000F3400341F
:101C400003340034B534003401340034EF34073445
:101C5000A534003402340034F1340734A73400349E
:101C600002340034F3340734A9340034023400342D
:101C7000F5340734AB34003402340034F93407341B
:101C8000B634003401340034FA340734B734003445
:101C900001340034F7340734AD34003402340034F6
:101CA000FB340734B834003401340034FC340734D6
:101CB000B934003401340034FD340734BA3400340C
:101CC00001340034FE340734BB34003401340034B2
:101CD000FF340734BC3400340134003408340F348A
:101CE000BD3400340134003409340F34BE340034C0
:101CF00001340034003400341A34FE349D34FE3490
:101D0000F234FE343334FF346934FF349834FF3412
:101D1000C334FF34EB34FF34103400343334003434
:101D2000553400347734003498340034B8340034F7
:101D3000D9340034FA3400341C3401343E340134D4
:101D40006234013487340134AF340134D93401347E
:101D5000073402343934023470340234B03402347B
:101D6000FB34023458340334D13403348234043421
:101D7000CA340534003A0319C12E803A0319C72E1C
:101D8000003476088400770885000008080077088A
:101D90008A00760882000800003A0319D42E803A9F
:101DA0000319DC2EF70100347608840077088500DB
:101DB0001200F700000808008E31C726F500F60F64
:101DC000F703F70A8E31C726F4007508F700740888
:101DD00008002100A0007708A100A2010830A3009C
:101DE0002100201CF52E2108A20721002008A400B4
:101DF0000310240CA0000310210DA400A10023084F
:101E0000A4002403A3002308031DF02E22080800C9
:041E10000034003466
:020000040001F9
:02000E00D40F0D
:02001000FF3AB5
:00000001FF
