:020000040000FA
:1000000000008631F42EFF348A012000911C412823
:10001000031022000D0D2000BB003B08031D122819
:100020001030BB0021008E0122008D0120003B0812
:10003000103A031928283B08203A03192D283B08B9
:10004000403A031932283B08803A031937283B28E5
:1000500021002F0822008E003B28210030082200BA
:100060008E003B282100310822008E003B28210011
:10007000320822008E0020003B0822008D00200064
:10008000911009002000BE01BF01FF30C0007F3089
:10009000C1006A30210099000E308C0022008C01D2
:1000A00021008D0122008D0121008E0104302300EA
:1000B0008C0021001E169E1723008E0105302000A3
:1000C0009C00FA309B0021009114723028009700A8
:1000D0007F30CD262000A7007708A900A800280CB3
:1000E0000318742828001711031C782828001715F6
:1000F000FA302800960037309E00FA309D007230AA
:10010000CD262100A6007708A500C03020008B0076
:10011000093021009D002000931DA1288831002076
:100120008031280017199F28FF302100B2000330CA
:100130002100AF0059302100B1002100B0002000A3
:1001400093112000931C472D2000BE0A0319BF0AFB
:100150003E1CF0284008F70041082000A000770866
:10016000A10021009D1421009D18B3281D1020001E
:10017000210E0F39A200200EA300F039A204A3061D
:100180000310A30CA20C0310A30CA20C2208A102C2
:100190002308031C230FA00221001C082000A2003A
:1001A000A3012208A400A60121001B082000A20030
:1001B000A3012208A6042308A4042608A2002408F8
:1001C000A3002208A10723080318230FA007210872
:1001D000F7002008C1007708C000093021009D0009
:1001E00020003E080F39031D452D4008F700410847
:1001F0002000A0007708A1002030A200A301A401E4
:10020000A601210E0F39A500200EA700F039A50484
:10021000A7060310A70CA50C3F30A505A7012508CC
:10022000A9000310200CA500A7010310A70CA50C22
:100230000310A70CA50C1F302505A100A001210863
:10024000A500250AA1000230F70021088D31E8251C
:1002500081312000A000A7012008B83EA00087300F
:10026000A10027080318270FA1070230F70025086F
:100270008D31E82581312000A700A8012708B83E6C
:10028000A7008730A50028080318280FA507A80194
:10029000200029082802031C70292708F6002508D9
:1002A000F70080308D31A32581312000AB00770825
:1002B000AA00AC002B08AD000030AD1BFF30BD0024
:1002C000BC002C08A2072D0803182D0FA3073C081B
:1002D00003183C0FA4073D0803183D0FA6079329F8
:1002E00020002008F6002108F70080308D31A3257A
:1002F00081312000AB007708AA00AC002B08AD00CC
:100300000030AD1BFF30BD00BC002C08A2072D083B
:1003100003182D0FA3073C0803183C0FA4073D0842
:1003200003183D0FA6072000A80A40302802031C2E
:100330004829220E0F39A100230EA000F039A10494
:10034000A006240EA500F039A004A506260EA700DD
:10035000F039A504A706F030A719A7040310A71BBE
:100360000314A70CA50CA00CA10C0310A71B0314CD
:10037000A70CA50CA00CA10C2108A2002008A3002A
:100380002208F7002308C3007708C2007430CD2686
:100390002000C5007708C4004208C6004308C70013
:1003A000440846072100A700200047082100A800B4
:1003B000200045080318450A0319E0292100A80771
:1003C00020004108C200C30100304302031DEA2996
:1003D000F83042022000C401031C441444080030D9
:1003E00003190130C5004508031D092A00304302E6
:1003F000031DFC29093042022000C401C40D440839
:10040000003003190130C2004208031D092AC2014D
:100410000C2A01302000C20020004208C400440C15
:100420000318142A22000C10031C182A22000C1492
:1004300022000C1C322A11302100AF00CB302100E9
:10044000B000FF302100B1002100B20022000C12E8
:100450008C123C302100AD00AE013C302100AB00DD
:10046000AC01452D7B30CD262000C4007708C200AA
:10047000C5000630450203185D2B210032130330FE
:1004800020003F02031D462AE8303E02031C622B77
:100490007B30CD262000AC007708AD00BD000630D3
:1004A0003D020318582B7630CD262000AC0077088B
:1004B000AD00BC002100A90A0319AA0A09302000D6
:1004C0003C02031C652A0830BC001330F7002000F2
:1004D0003D088D31E82582312000AD0003103C0D30
:1004E000BD00AD072D0AAC00CD262000BD00770869
:1004F000AC0002302D07AE00CD262000AF007708FB
:10050000AE003D0821002A02031D8A2A20002C0883
:1005100021002902031CC12A20002E082100A50069
:1005200020002F082100A60020002E08F6002F082A
:10053000F7007230902620003C08083A0319AB2AD5
:1005400003302D07B000CD262000B1007708B000A1
:100550003104031DB22A0630F6000030F7007B306C
:100560009026582B2100A901AA012000BC0A3C08B2
:10057000B000B1013008F6003108F700763090265F
:10058000582B7A30CD262000B0007708BC0030040C
:100590000319582B2D08CD262000BC007708AD008C
:1005A00021002A0EF0392000B1002100290E200080
:1005B000B0000F39B104B0060310B00DB10D031037
:1005C000B00DB10D2030B200B301B401B501B601D8
:1005D00020003D083102031DEF2A2C083002031CC5
:1005E000102B20002C08B0023D08031C3D0FB10267
:1005F0002E08B7002F08B8000030B81BFF30BA0033
:10060000B9003708B20738080318380FB30739089C
:100610000318390FB4073A0803183A0FB507282B07
:1006200020002D08B7003C08B8000030B81BFF3090
:10063000BA00B9003708B20738080318380FB307F3
:1006400039080318390FB4073A0803183A0FB507E9
:100650002000B60A40303602031CE82A320E0F3959
:10066000B200330EB300F039B204B306340EB40056
:10067000F039B304B406350EB500F039B404B5064C
:10068000F030B519B5040310B51B0314B50CB40C48
:10069000B30CB20C0310B51B0314B50CB40CB30CA3
:1006A000B20C32082100A500200033082100A6006A
:1006B00008302000BE00BF01622B2100321720004D
:1006C000BE01BF017530CD262000C4007708C200EE
:1006D00044040319CA2B2100250821002702200009
:1006E000C50021002608031C260A2100280220003C
:1006F000C6000314C61F0310031C832BC509C609BB
:10070000C50A0319C60A03142000C41F0310031CE2
:10071000AC2BC209C409C20A0319C40A4408803EAA
:10072000C8004608803E4802031D982B4508420237
:100730002000C701031C471447080030031901308B
:10074000C800C700470C0318A72B22000C10031C7D
:10075000AB2B22000C14CA2B20004608803EC90097
:100760004408803E4902031DB72B42084502200081
:10077000C701031C47144708003003190130C200A9
:10078000C700470C0318C62B22000C10031CCA2BF1
:1007900022000C1421002B082C040319D32BFF304A
:1007A000AB07031CAC0321002D082E040319DC2B1E
:1007B000FF30AD07031CAE032000A70122000C1E72
:1007C000E32B2000A70A200027080030031901307E
:1007D000A900A700270C0318EF2B2100B213031C5C
:1007E000F32B2100B2172000A70122008C1EFA2B48
:1007F0002000A70A20002708003003190130A900B3
:10080000A700270C0318062C2100B211031C0A2C88
:100810002100B21522000C1E1F2C21002608803E4C
:100820002000A80021002808803E20002802031D87
:100830001D2C21002708210025020318342C22003A
:100840008C1E922C21002808803E2000A800210048
:100850002608803E20002802031D322C2100250896
:1008600021002702031C922C7830CD262000A900FD
:100870007708A700290EF0392100AC002000270ED0
:100880002100AB000F39AC04AB060310AB0DAC0D6F
:100890000310AB0DAC0D2B0E0F392000A70021006B
:1008A0002C0E2000A900F039A704A9062708210072
:1008B000AB0220002908031C290A0319612C21001E
:1008C000AC027930CD262000A9007708A700290EB8
:1008D000F0392100AE002000270E2100AD000F39B5
:1008E000AE04AD060310AD0DAE0D0310AD0DAE0D93
:1008F0002D0E0F392000A70021002E0E2000A90088
:10090000F039A704A90627082100AD022000290814
:10091000031C290A03198E2C2100AE0222000C129E
:100920008C12142D22000C1A142D8C1A142D7330D5
:10093000CD262000A9007708A70021002507200068
:10094000A800210026082000AB0029080318290F61
:10095000AB072B08803EAA0021002808803E20001B
:100960002A02031DB72C21002708200028020318A3
:10097000D92C21002B082C040319D62C2000A80107
:100980002100B21FC52C2000A80A21002B08013924
:100990002000AB00AA00A806280C0318D12C2100C7
:1009A000B213031CD52C2100B217142D22000C16F3
:1009B000142D20002708210025022000A700290867
:1009C000031C290A210026022000A9002100280872
:1009D000803E2000AC002908803E2C02031DF32C31
:1009E0002708210027020318142D21002D082E04AA
:1009F0000319122D2000A7012100B21D012D200096
:100A0000A70A21002D0801392000A900A800A70687
:100A1000270C03180D2D2100B211031C112D2100EC
:100A2000B215142D22008C162000991F452D22008E
:100A30000C1C272D23001D1F272D61302100AF0026
:100A400011302100B000FF302100B1002E2D013007
:100A5000F60021002708F70028084A252000C201D7
:100A600023001D1F352D2000C20A2000420800303F
:100A700003190130C500C200420C0318412D2300A8
:100A80001D13031C452D23001D1720009310640027
:100A90008B2808002000A9007708A8007608AB0082
:100AA0000314A91F0310031C5E2D21003212200025
:100AB000A809A909A80A0319A90A602D210032165C
:100AC00020002B08013A031D692D2100B2123211BA
:100AD0006C2D2100B216321520002908803E7D3E83
:100AE000031D742DE8302802031C842D20002808E3
:100AF000AA002908AC002A08F7002C0827262000A5
:100B0000A9007708A800AB0120002908803E803E9C
:100B1000031D8C2D64302802031CC02D20002808E2
:100B2000AA002908AC00AD0120002C08803E803EC0
:100B3000031D9C2D64302A02031CA52D9C3020002F
:100B4000AA07031CAC03AD0A942D20002A08A800B4
:100B50002C08A9000F30AD052D08073EAD008E30E2
:100B60000318013EAA002D08F6002A08F70080307D
:100B70008D31912585312000AC002100AF00C32DBF
:100B8000FF302100AF0020002908803E803E031D79
:100B9000CB2D0A3028020318D82D20002B08031D66
:100BA000D82D21002F082000AA00FF3A03190E2E8D
:100BB00020002808AA002908AC00AD0120002C085C
:100BC000803E803E031DE62D0A302A02031CEF2DD5
:100BD000F6302000AA07031CAC03AD0ADE2D20006E
:100BE0002A08A8002C08A9002D08073EAD008E3069
:100BF0000318013EAA002D08F6002A08F7008030ED
:100C00008D31912586312000AC002100B0002000FC
:100C10002B080319112E21003010112EFF30210056
:100C2000B00020002808AB00073EA8008E30031853
:100C3000013EA9002808F6002908F70080308D3110
:100C4000912586312000AB002100B1000800200072
:100C5000A0007708A1000310200CA200210CA30023
:100C60000310200CA400210CA6000310A40CA60C59
:100C70002608A30724080318240FA207230E0F3900
:100C8000A600220EA400F039A604A4062608A30795
:100C900024080318240FA2072208A600A40126088E
:100CA000A30724080318240FA2070310A20CA30C07
:100CB0000310A20CA30C0310A20CA30C0310230D11
:100CC000A600220DA4000310A60DA40D0310A60D6E
:100CD000A40D0310230DA500220DA7002508A607CB
:100CE00027080318270FA4072608A1022408031CBD
:100CF000240FA0020630A1070318A00A210E0F3905
:100D0000A600200EA400F039A604A4062608A30716
:100D100024080318240FA2072308F700220808005C
:100D20002000A7007708A9007608A8002708CD268C
:100D30002000AB007708AA002806031DA32E2B086D
:100D400029060319CC2E03102000270DAA0020002D
:100D50002A0823009100200028082300930015137F
:100D60009513151520008B13553023009600AA30DB
:100D70009600951420008B17230015112300951859
:100D8000BE2E2000121220002908A800A9012A085E
:100D9000A700AA0A271CA72E08002000A000A10176
:100DA000A2010310200DA3002000230823009100BE
:100DB00015139513151413082000A000A401200892
:100DC000A600A5012208A000A40120082504A10076
:100DD00024082604A2002308A000A30A201CD42E65
:100DE0002108F700220808007430F6008730F70069
:100DF00080308D31A32586312000E4007708E300A0
:100E00007630E5008730E60020006308E7006408DC
:100E1000E800FF30E307031CE403670868040319D4
:100E2000712F04306507E700E801E80D6608E80760
:100E30006708F6006808F70080308D31A3258731F8
:100E40002000EA007708E9006508F6006608F70068
:100E500080308D31A32587312000EC00E800770831
:100E6000EB00E70002306507E700E801E80D6608DF
:100E7000E8076708F6006808F70080308D31A32581
:100E800087312000E800EE007708E700ED00200041
:100E90006908ED006A08EE00FF30E907031CEA0369
:100EA0006D086E0403196B2F6B08F6006C08F700D1
:100EB00080308D31912587312000ED006708840056
:100EC000680885006D088000EB0A0319EC0AE70A40
:100ED0000319E80A472F06302000E5070318E60A41
:100EE000042F8031422808000B34003403340034CE
:100EF000B234003401340034F8340734A7340034F9
:100F000002340034FA340734A93400340234003493
:100F1000FC340734AB34003402340034FE3407347C
:100F2000AD3400340234003411340E34B3340034A0
:100F30000134003412340E34B4340034013400343B
:100F400013340E34B53400340134003414340E3408
:100F5000B63400340134003415340E34B734003460
:100F60000134003416340E34B83400340134003403
:100F7000003400341A34FE349D34FE34F234FE342E
:100F80003334FF346934FF349834FF34C334FF34CE
:100F9000EB34FF341034003433340034553400342F
:100FA0007734003498340034B8340034D934003401
:100FB000FA3400341C3401343E34013462340134D8
:100FC00087340134AF340134D93401340734023466
:100FD0003934023470340234B0340234FB34023415
:100FE00058340334D134033482340434CA340534DD
:100FF00000340034003400343C3400343C340034D9
:1010000020008B1322000D082000DB0021000E08B9
:101010002000DC0022008D01D83021008E0003105A
:101020002100370D2000DD00DE0120008E1F1A2870
:101030002000DE0A20005D08DF005E08DD005F049E
:101040002100B7000310370D2000DD00DE01200075
:101050000E1E2C282000DE0A20005D08DF005E083E
:10106000DD005F042100B7000310370D2000DD0014
:10107000DE0120000E1F3E282000DE0A20005D0851
:10108000DF005E08DD005F042100B7000310370DAC
:101090002000DD00DE0120008E1D50282000DE0A29
:1010A00020005D08DF005E08DD005F042100B7005E
:1010B00020005B0822008D0020005C0821008E00CB
:1010C00020008B1721003608031DB6030F302100C6
:1010D00033020318592C88308A0072303307031802
:1010E0008A0A82008128D328EB28FF282529EC2BA7
:1010F000A82B092C152C592C592C4929E229782A7E
:10110000E02A8830210037052000DB00083A031D63
:1011100090281B302100B60006302100B3005B2C64
:1011200000302100370403195B2C7F308631CD2637
:1011300088312000DC007708DB005C0403195B2C9D
:101140003330210037052000DB00033A031DAC28B3
:1011500001302100B3005B2C223021003705200034
:10116000DB00023A031DB82802302100B3005B2CDB
:101170001130210037052000DB00013A031DC7288C
:101180000D302100B60003302100B3005B2C443049
:10119000210037052000DB00403A031D5B2C07309F
:1011A0002100B3005B2C0030F6006D30F7000030FA
:1011B00085314A25883121002F102100B2163215C1
:1011C0003330210037052000DB00333A03195B2C54
:1011D0002100B3015B2C0130F60021002508F70047
:1011E000260885314A258831223021003705200024
:1011F000DB00223A03195B2C2100B3015B2C7B300E
:101200008631CD2689312000DD007708DB00DE0045
:101210000030F7005E086D24063020005E020318DF
:101220001A2921003608031D1A291130B60004308E
:101230002100B3001130210037052000DB00113AF6
:1012400003195B2C2100B3015B2C76308631CD264F
:1012500089312000DD007708DB000030F6005B08F4
:10126000F7005D0885314A25893121003608031DC4
:101270003E290D30B60005302100B30011302100A9
:1012800037052000DB00113A03195B2C2100B30164
:101290005B2C21003216B2163215063021003402C2
:1012A00003187A292100351C5C2985302100AF0004
:1012B000D1302100B000622961302100AF00193027
:1012C0002100B00003102100350C2000DB00073E98
:1012D000DB008E300318013EDD005B08F6005D0880
:1012E000F70080308D31912589312000DE0021000A
:1012F000B100DB290430F700210035088D31E825E5
:1013000089312000DB00DD015B08C03EDB005D08A9
:1013100003185D0F8D3EDD005B08F6005D08F700E9
:1013200080308D31912589312000DE002100AF0011
:101330000430F700210035088D31E825893120007F
:10134000DB00DD015B08C03EDB005D0803185D0FBC
:101350008D3EDD00DB0A0319DD0A5B08F6005D083F
:10136000F70080308D31912589312000DE00210089
:10137000B0000430F700210035088D31E8258931AF
:101380002000DB00DD015B08C03EDB005D080318C8
:101390005D0F8D3EDD000230DB070318DD0A5B08C0
:1013A000F6005D08F70080308D31912589312000ED
:1013B000DE002100B1006E302100B6000C302100AB
:1013C000B3005B2C003021003604031DEA29210004
:1013D000B3015B2C8830210037052000DB00803A08
:1013E000031DF62907302100B3005B2C22302100B9
:1013F00037052000DB00203A031D172A2100B50A1B
:1014000006302100340203180C2A13302100350263
:10141000031C132AB501132A0A3021003502031CCC
:10142000352AB501352A0B302100B3005B2C113071
:10143000210037052000DB00103A031D482A210057
:10144000B50306302100340203182E2A1330210080
:101450003502031C442A1230B500442A0A30210008
:101460003502031C352A0930B50021003508043A3D
:10147000031D3D2AB50AB50A442A21003508053A5C
:10148000031D442AFE30B5070B302100B3005B2C4E
:101490004430210037052000DB00403A031D5B2C5F
:1014A0001330F700210034088D31E8258A312000FF
:1014B000DB00210035082000DB075B088631CD26E4
:1014C0008A312000E2007708E10020005B08F60086
:1014D00020006108F7006208AD242000E2007708D0
:1014E000E1006E302100B6000D302100B3005B2C0E
:1014F0000630210034020318942A2100351C8A2A60
:101500000030F60020006108F700620885314A25A6
:101510008A31D92A0130F60020006108F7006208FC
:1015200085314A258A31D92A0430F700210035084F
:101530008D31E8258A312000DB00DD015B08C03EEB
:10154000DB005D0803185D0F8D3EDD000330DB0717
:101550000318DD0A5B08F6005D08F70080308D3166
:1015600091258A312000DE0004305E020318C22A71
:101570000130F60020006108F700620885314A2535
:101580008A31D92A20005E08063A031DD02A20009D
:1015900061082000DB000030F7005B086D24D92AC9
:1015A0000030F60020006108F700620885314A2506
:1015B0008A316E302100B6000E302100B3005B2C62
:1015C0001330F700210034088D31E8258A312000DE
:1015D000DB00210035082000DB0721003608031D51
:1015E000F42A2100B3015B2C88302100370520004C
:1015F000DD00803A031D002B0B302100B3005B2C73
:101600002100B71E162B2000E10A0319E20A620826
:10161000803E7D3E031D0E2BE9306102031C2C2B06
:1016200009302000E1070318E20A2C2B2100371EA5
:10163000432BFF302000E107031CE2036208803ED9
:101640007D3E031D252BE9306102031C2C2BF73056
:101650002000E107031CE20320005B08F6002000E5
:101660006108F7006208AD242000E2007708E1007D
:101670001F3028001D02031C3F2BF8309D070D3042
:101680002100B3005B2C4430210037052000DD0031
:10169000403A031DA42B21003408063A031D962B63
:1016A00021003508093A031D962B0030F600003062
:1016B000F7007630863190268B312100A901AA01EE
:1016C00020006208803E803E031D682B06306102C8
:1016D0000318962B200061082000DD001330F7006E
:1016E0005D088D31E8258B312000DE008631CD2666
:1016F0008B312100A6007708A5002508F6002608F2
:10170000F7007230863190268B312000DE0A5E08A9
:101710008631CD268B312000DE007708DD005E04A7
:10172000031D962B06302000E100E2012000610835
:10173000F6006208F70020005B08863190268B31A6
:101740000B302100B3005B2CFA3028009D005B2C8D
:10175000003021003604031DE12B7F308631CD2679
:101760008B312000DD007708DB00DE005E080030F2
:1017700003190130DB00DF00E001DF1BE0035F083D
:10178000F6006008F7007F30863190268B3120000C
:101790005E080319D42B22000C100C128C122800A6
:1017A000171120009310DE2B3C302100AD00AE015C
:1017B0003C302100AB00AC01280017152100B3011B
:1017C0005B2C8830210037052000DB00883A0319A4
:1017D0005B2C2100B3015B2C0030F60021002908AE
:1017E000F7002A0885314A258B3121003608031D70
:1017F000FE2B0D30B60003302100B3001130210064
:1018000037052000DB00113A03195B2C2100B301DE
:101810005B2C0130F700210034086D246E3021006C
:10182000B60008302100B3005B2C003021003604E4
:101830000319222C8830210037052000DB00803A74
:10184000031D252C2100B3015B2C2230210037051C
:101850002000DB00203A031D372C2100B40A07309A
:1018600034020318B40107302100B3005B2C11309F
:10187000210037052000DB00103A031D4B2C21000E
:10188000B40307303402031C472C0630B400073081
:101890002100B3005B2C4430210037052000DB0021
:1018A000403A031D5B2C2100B5010B302100B30031
:1018B0005B2C2100B30121003308003003190130F3
:1018C0002000DB00DE005E0C0318682C200099135A
:1018D000031C6C2C2000991708002000CB0077080F
:1018E000CA0021003216B2163215B214063020009A
:1018F0004B020318942C19302100AF00DD30210079
:10190000B00020004B08073ECB008E300318013E8C
:10191000CD004B08F6004D08F70080308D31912541
:101920008C312100B100AC2C003020004A04031996
:10193000A32C61302100AF0009302100B000C93074
:101940002100B100AC2CC9302100AF00D130210002
:10195000B000FF302100B10008002000D20077085D
:10196000D1007608D300D401D501E730D60003308A
:10197000D700723053020318D32C5308D800133009
:1019800020005802031CC72CED30D807BF2C2000C4
:101990005818492D7030D400FE30D5007830D6006C
:1019A0000530D700492D8E302000D3070430F700D2
:1019B00053088D31E8258C312000D800D901580812
:1019C000C03ED3008D30DA0059080318590FDA07EA
:1019D0000330D3070318DA0A5308F6005A08F70051
:1019E00080308D3191258C312000D8005808031D9E
:1019F000022D7030D400FE30D5007830D60005308E
:101A0000D700492D20005808013A031D0F2DCE3074
:101A1000D400FF30D5003230D600D701492D200048
:101A20005808083A031D182D0130D600D701492D5A
:101A300020005808023A031D212D3230D600D7016C
:101A4000492D20005808033A031D2F2D7030D40073
:101A5000FE30D5009030D6000130D700492D20004F
:101A60005808043A031D382D0830D600D701492DF7
:101A700020005808053A031D412D3C30D600D701FF
:101A8000492D20005808063A031D492D0630D6007E
:101A9000D70120005608F3005708F4005408F50059
:101AA0005508F6005108F70052085D252000D200C5
:101AB0007708D100F700520808002000CB00770813
:101AC000CA007608CD007508CC007408CF007308F2
:101AD000CE004F08803ED0004B08803E5002031DD0
:101AE000732D4A084E0203187A2D20004C08F70087
:101AF0004D08902D20004B08803ED0004D08803EC0
:101B00005002031D852D4C084A0203188C2D20001D
:101B10004E08F7004F08902D20004A08F7004B08A8
:101B20000800003A0319982D803A03199E2D0034BD
:101B300076088400770885000008080077088A0086
:101B4000760882000800003A0319AB2D803A031989
:101B5000B32DF70100347608840077088500120061
:101B6000F700000808008D319E25F500F60FF703F9
:101B7000F70A8D319E25F4007508F70074080800F7
:101B800061341934FF340034D134A134FF340234C9
:101B9000C934CD34FF34013461341134FF3403349B
:101BA0006134C934FF3404348534D134FF3407340C
:101BB000CD348534FF340534D1348534FF340534D5
:101BC000DD341934FF340834DD34D534FF340634C1
:101BD0002100A0007708A100A2010830A300210085
:101BE000201CF42D2108A20721002008A4000310C6
:101BF000240CA0000310210DA400A1002308A400C0
:101C00002403A3002308031DEF2D2208080003343A
:101C1000B7340D342534B1346134413437340134B0
:0E1C2000213400340034003400340034003429
:020000040001F9
:02000E00D40F0D
:02001000FF3AB5
:00000001FF
