:020000040000FA
:1000000000008D319A2DFF348A0120000B1D372806
:1000100022008C1021003808031917280310210032
:10002000B70C8230200095002100B8012C28210057
:100030003708210035052000BB003B0803192428A0
:10004000C130200095002728433020009500220071
:100050008C1401302100B800003021003704031D4A
:1000600035282100951620008B1220000B1120004E
:10007000911C7328031022000D0D2000BB003B08CB
:10008000031D44281030BB0021008E0122008D0189
:1000900020003B08103A03195A283B08203A03195C
:1000A0005F283B08403A031964283B08803A03194B
:1000B00069286D282100300822008E006D2821005B
:1000C000310822008E006D282100320822008E00A7
:1000D0006D282100330822008E0020003B082200FA
:1000E0008D002000911009002000BE01BF01C00159
:1000F0008030C1006A30210099000C308C00220051
:100100008C0121008D0122008D0121008E0104301F
:1001100023008C0021001E169E1723008E0105303F
:1001200020009C00FA309B002100911472302800BE
:1001300097007F30A0272000A7007708A900A8001B
:10014000280C0318A52828001711031CA92828002B
:100150001715FA302800960037309E00FA309D00BF
:100160007230A0272000EB007708EA00C0302000A2
:100170008B002100951115109514151109309D0063
:1001800006302100360203186C2921003708031DB0
:100190006C2921003608031DD128FF302100B5004D
:1001A000412921003608013A031DDC284530210091
:1001B000B5002000C901412921003608023A031D7B
:1001C00008297530A0272000A7007708A900A800FB
:1001D000280EF039A90020006C082000CA00200079
:1001E0006D082000CB002000A800AB01A81BAB03CA
:1001F0000F30A805AB012908AA00AC0128082A0481
:10020000A9002B082C04AD0029082100B5004129C4
:1002100021003608033A031D122920004A08210054
:10022000B500412921003608043A031D3829200071
:10023000A90122008C1E1E292000A90A2000290ED7
:10024000F039A8000310A80D0310A80DA901220081
:100250000C1E2C292000A90A2000290EF039AB0021
:100260002808A9002B08A80029042100B50041296D
:1002700021003608053A031D4129200049082100C4
:10028000B500210035082000A9000830A800200092
:100290002808AB00A8032B080319632929082000AC
:1002A00049062000AB008030AB0503102000C90DCB
:1002B00020002B0803195F2931302000C9060310E4
:1002C0002000A90D472980302100B70020008B169F
:1002D000210095122100B60A2000931D8229883141
:1002E00000208131280017198029FF302100B30038
:1002F00003302100B00059302100B2002100B100CC
:10030000200093112000931C1A2E2000BE0A03190E
:10031000BF0A3E1CD1294008F70041082000A00078
:100320007708A10021009D1421009D1894291D101B
:100330002000210E0F39A200200EA300F039A204E4
:10034000A3060310A30CA20C0310A30CA20C2208FA
:10035000A1022308031C230FA00221001C08200077
:10036000A200A3012208A400A60121001B0820006E
:10037000A200A3012208A6042308A4042608A200C0
:100380002408A3002208A10723080318230FA007AD
:100390002108F7002008C1007708C00009302100BB
:1003A0009D0020003E080F39031D182E4008F7005D
:1003B00041082000A0007708A1002030A200A3017E
:1003C000A401A601210E0F39A500200EA700F039C7
:1003D000A504A7060310A70CA50C3F30A505A7018F
:1003E0002508A9000310200CA500A7010310A70CE5
:1003F000A50C0310A70CA50C1F30A505A701250807
:10040000A8002008A500A7012508A100F8302102B6
:1004100003180E2A093021020318102A210034146F
:100420002000280AA1000230F70021088E31EE26B4
:1004300082312000A000A5012008823EA0008E305D
:10044000A10025080318250FA1070230F70028088E
:100450008E31EE2682312000A500A7012508823EBC
:10046000A50027080318270F8E3EA700A80120002B
:1004700029082802031C5F2A2508F6002708F70030
:1004800080308731D92782312000AB007708AA005D
:10049000AC002B08AD000030AD1BFF30BD00BC0030
:1004A0002C08A2072D0803182D0FA3073C080318DA
:1004B0003C0FA4073D0803183D0FA607822A200021
:1004C0002008F6002108F70080308731D9278231D3
:1004D0002000AB007708AA00AC002B08AD0000306C
:1004E000AD1BFF30BD00BC002C08A2072D0803186F
:1004F0002D0FA3073C0803183C0FA4073D08031861
:100500003D0FA6072000A80A40302802031C372A06
:10051000220E0F39A100230EA000F039A104A0067D
:10052000240EA500F039A004A506260EA700F03978
:10053000A504A706F030A719A7040310A71B0314EE
:10054000A70CA50CA00CA10C0310A71B0314A70C4F
:10055000A50CA00CA10C2108A2002008A3002208D1
:10056000F7002308C3007708C2007430A0272000DA
:10057000C5007708C4004208C6004308C700440805
:1005800046072000EC00200047082000ED00200076
:1005900045080318450A0319CF2A2000ED07033048
:1005A000210039020318D62A2100B601210039089A
:1005B000031DDC2A3030B9002100B9032100341CAE
:1005C000E42A22000C14E62A22000C102100341028
:1005D00022000C1C052B2000991FF92A1130210044
:1005E000B000CB302100B100FF302100B20021006B
:1005F000B30022000C128C123C302100AE00AF017F
:100600003C302100AC00AD01182E7C30A02720002A
:10061000C3007708C200C400063044020318302C1F
:1006200021003313033020003F02031D192BE83053
:100630003E02031C352C7C30A0272000AC0077083C
:10064000AD00BD0006303D0203182B2C7730A027EB
:100650002000AC007708AD00BC002000EE0A0319B2
:10066000EF0A093020003C02031C382B0830BC0084
:100670001330F70020003D088E31EE268331200034
:10068000AD0003103C0DBD00AD072D0AAC00A02746
:100690002000BD007708AC0002302D07AE00A02777
:1006A0002000AF007708AE003D0820006F02031D58
:1006B0005D2B20002C0820006E02031C942B2000D0
:1006C0002E082000EA0020002F082000EB00200068
:1006D0002E08F6002F08F7007230632720003C0830
:1006E000083A03197E2B03302D07B000A027200005
:1006F000B1007708B0003104031D852B0630F600E9
:100700000030F7007C3063272B2C2000EE01EF0136
:100710002000BC0A3C08B000B1013008F6003108E6
:10072000F700773063272B2C7B30A0272000B00008
:100730007708BC00300403192B2C2D08A0272000BB
:10074000BC007708AD0020006F0EF0392000B1002A
:1007500020006E0E2000B0000F39B104B006031067
:10076000B00DB10D0310B00DB10D2030B200B301CA
:10077000B401B501B60120003D083102031DC22BB2
:100780002C083002031CE32B20002C08B0023D088B
:10079000031C3D0FB1022E08B7002F08B80000302F
:1007A000B81BFF30BA00B9003708B2073808031881
:1007B000380FB30739080318390FB4073A0803187C
:1007C0003A0FB507FB2B20002D08B7003C08B800F6
:1007D0000030B81BFF30BA00B9003708B20738083C
:1007E0000318380FB30739080318390FB4073A084C
:1007F00003183A0FB5072000B60A40303602031C32
:10080000BB2B320E0F39B200330EB300F039B204F5
:10081000B306340EB400F039B304B406350EB50097
:10082000F039B404B506F030B519B5040310B51BA2
:100830000314B50CB40CB30CB20C0310B51B0314A9
:10084000B50CB40CB30CB20C32082000EA00200046
:1008500033082000EB0008302000BE00BF01352C1B
:10086000210033172000BE01BF017630A0272000F1
:10087000C3007708C200430403199D2C20006A08B6
:1008800020006C022000C40020006B08031C6B0ACF
:1008900020006D022000C5000314C51F0310031CB7
:1008A000562CC409C509C40A0319C50A031420003B
:1008B000C31F0310031C7F2CC209C309C20A0319FA
:1008C000C30A4308803EC8004508803E4802031D15
:1008D0006B2C440842022000C601031C4614460843
:1008E000003003190130C700C600460C03187A2CEB
:1008F00022000C10031C7E2C22000C149D2C2000C6
:100900004508803EC8004308803E4802031D8A2CEB
:10091000420844022000C601031C46144608003069
:1009200003190130C200C600460C0318992C22009E
:100930000C10031C9D2C22000C1421002C082D04EB
:100940000319A62CFF30AC07031CAD0321002E08B1
:100950002F040319AF2CFF30AE07031CAF03200098
:10096000A70122000C1EB62C2000A70A2000270891
:10097000003003190130A900A700270C0318C22C6E
:100980002100B313031CC62C2100B3172000A701BC
:1009900022008C1ECD2C2000A70A20002708003042
:1009A00003190130A900A700270C0318D92C210036
:1009B000B311031CDD2C2100B31522000C1EF22CF8
:1009C00020006B08803E2000A80020006D08803EBB
:1009D00020002802031DF02C20006C0820006A0271
:1009E0000318072D22008C1E652D20006D08803E07
:1009F0002000A80020006B08803E20002802031D74
:100A0000052D20006A0820006C02031C652D79303A
:100A1000A0272000A9007708A700290EF03921009F
:100A2000AD002000270E2100AC000F39AD04AC064C
:100A30000310AC0DAD0D0310AC0DAD0D2C0E0F3928
:100A40002000A70021002D0E2000A900F039A704E6
:100A5000A90627082100AC0220002908031C290A46
:100A60000319342D2100AD027A30A0272000A900FF
:100A70007708A700290EF0392100AF002000270ECB
:100A80002100AE000F39AF04AE060310AE0DAF0D5E
:100A90000310AE0DAF0D2E0E0F392000A700210060
:100AA0002F0E2000A900F039A704A906270821006D
:100AB000AE0220002908031C290A0319612D210018
:100AC000AF0222000C128C12E72D22000C1AE72D27
:100AD0008C1AE72D7330A0272000A9007708A70003
:100AE00020006A072000A80020006B082000AB004F
:100AF00029080318290FAB072B08803EAA00200005
:100B00006D08803E20002A02031D8A2D20006C08FB
:100B1000200028020318AC2D21002C082D040319F5
:100B2000A92D2000A8012100B31F982D2000A80A9C
:100B300021002C0801392000AB00AA00A806280CCF
:100B40000318A42D2100B313031CA82D2100B317F3
:100B5000E72D22000C16E72D2000270820006A024E
:100B60002000A7002908031C290A20006B0220008E
:100B7000A90020006D08803E2000AC002908803EBE
:100B80002C02031DC62D270820006C020318E72D38
:100B900021002E082F040319E52D2000A7012100B4
:100BA000B31DD42D2000A70A21002E0801392000F2
:100BB000A900A800A706270C0318E02D2100B311F7
:100BC000031CE42D2100B315E72D22008C16200014
:100BD000991F182E22000C1CFA2D23001D1FFA2D20
:100BE00061302100B00011302100B100FF30210040
:100BF000B200012E0130F60020006C08F7006D08ED
:100C00001D262000C20123001D1F082E2000C20A3D
:100C100020004208003003190130C400C200420C19
:100C20000318142E23001D13031C182E23001D1758
:100C3000200093106400C02808002000A900770855
:100C4000A8007608AB000314A91F0310031C312E63
:100C5000210033122000A809A909A80A0319A90A2A
:100C6000332E2100331620002B08013A031D3C2EA1
:100C70002100B31233153F2E2100B3163315200087
:100C80002908803E7D3E031D472EE8302802031CC4
:100C9000572E20002808AA002908AC002A08F700CF
:100CA0002C08FA262000A9007708A800AB01200034
:100CB0002908803E803E031D5F2E64302802031CFD
:100CC000932E20002808AA002908AC00AD012000BE
:100CD0002C08803E803E031D6F2E64302A02031CC8
:100CE000782E9C302000AA07031CAC03AD0A672EA7
:100CF00020002A08A8002C08A9000F30AD052D08F7
:100D0000F63EAD0087300318013EAA002D08F6001C
:100D10002A08F70080308731C72786312000AC00D1
:100D20002100B000962EFF302100B00020002908DD
:100D3000803E803E031D9E2E0A3028020318AB2EF3
:100D400020002B08031DAB2E210030082000AA0034
:100D5000FF3A0319E12E20002808AA002908AC0058
:100D6000AD0120002C08803E803E031DB92E0A30C4
:100D70002A02031CC22EF6302000AA07031CAC0373
:100D8000AD0AB12E20002A08A8002C08A9002D08C1
:100D9000F63EAD0087300318013EAA002D08F6008C
:100DA0002A08F70080308731C72786312000AC0041
:100DB0002100B10020002B080319E42E210031107E
:100DC000E42EFF302100B10020002808AB00F63EE1
:100DD000A80087300318013EA9002808F60029085A
:100DE000F70080308731C72786312000AB00210013
:100DF000B20008002000A0007708A1000310200C1A
:100E0000A200210CA3000310200CA400210CA600BA
:100E10000310A40CA60C2608A30724080318240F0B
:100E2000A207230E0F39A600220EA400F039A60453
:100E3000A4062608A30724080318240FA2072208E3
:100E4000A600A4012608A30724080318240FA2075C
:100E50000310A20CA30C0310A20CA30C0310A20CF1
:100E6000A30C0310230DA600220DA4000310A60D51
:100E7000A40D0310A60DA40D0310230DA500220D33
:100E8000A7002508A60727080318270FA407260888
:100E9000A1022408031C240FA0020630A107031896
:100EA000A00A210E0F39A600200EA400F039A604D6
:100EB000A4062608A30724080318240FA207230862
:100EC000F700220808002000A7007708A90076088C
:100ED000A8002708A0272000AB007708AA00280652
:100EE000031D762F2B08290603199F2F03102000BE
:100EF000270DAA0020002A082300910020002808BE
:100F00002300930015139513151520008B135530EE
:100F100023009600AA309600951420008B1723001A
:100F2000151123009518912F200012122000290876
:100F3000A800A9012A08A700AA0A271C7A2F0800DE
:100F40002000A000A101A2010310200DA300200099
:100F5000230823009100151395131514130820007E
:100F6000A000A4012008A600A5012208A000A40159
:100F700020082504A10024082604A2002308A000BC
:100F8000A30A201CA72F2108F70022080800003A16
:100F90000319CE2F803A0319D42F00347608840029
:100FA000770885000008080077088A007608820024
:100FB0000800003A0319E12F803A0319E92FF701DD
:100FC000003476088400770885001200F7000008D6
:100FD00008008731D427F500F60FF703F70A8731A9
:100FE000D427F4007508F700740808000334B734F8
:100FF0000D342534B1346134413437340134213473
:1010000020008B1322000D082000DD0021000E08B7
:101010002000DE0022008D01D83021008E00031058
:1010200021003E0D2000DF00E00120008E1F1A2865
:101030002000E00A20005F08E1006008DF00610492
:101040002100BE0003103E0D2000DF00E001200063
:101050000E1E2C282000E00A20005F08E100600836
:10106000DF0061042100BE0003103E0D2000DF0000
:10107000E00120000E1F3E282000E00A20005F084B
:10108000E1006008DF0061042100BE0003103E0D96
:101090002000DF00E00120008E1D50282000E00A23
:1010A00020005F08E1006008DF0061042100BE004D
:1010B00020005D0822008D0020005E0821008E00C7
:1010C00020008B1721003D08031DBD030F302100B8
:1010D0003A020318592C88308A0072303A070318F4
:1010E0008A0A82008128D328EB28FF282529EC2BA7
:1010F000A82B092C152C592C592C4929E229782A7E
:10110000E02A883021003E052000DD00083A031D5A
:1011100090281B302100BD0006302100BA005B2C56
:10112000003021003E0403195B2C7F308731A0275B
:1011300088312000DE007708DD005E0403195B2C97
:10114000333021003E052000DD00033A031DAC28AA
:1011500001302100BA005B2C223021003E05200026
:10116000DD00023A031DB82802302100BA005B2CD2
:10117000113021003E052000DD00013A031DC72883
:101180000D302100BD0003302100BA005B2C44303B
:1011900021003E052000DD00403A031D5B2C073096
:1011A0002100BA005B2C0030F6006D30F7000030F3
:1011B00086311D268831210030102100B3163315E9
:1011C000333021003E052000DD00333A03195B2C4B
:1011D0002100BA015B2C0130F60020006A08F700FC
:1011E0006B0886311D268831223021003E05200003
:1011F000DD00223A03195B2C2100BA015B2C7C3004
:101200008731A02789312000DF007708DD00E0006A
:101210000030F70060086D240630200060020318DB
:101220001A2921003D08031D1A291130BD00043080
:101230002100BA00113021003E052000DD00113AE6
:1012400003195B2C2100BA015B2C77308731A02772
:1012500089312000DF007708DD000030F6005D08EE
:10126000F7005F0886311D26893121003D08031DE6
:101270003E290D30BD0005302100BA00113021009B
:101280003E052000DD00113A03195B2C2100BA0154
:101290005B2C21003316B3163315063021003B02B8
:1012A00003187A2921003C1C5C2985302100B000FC
:1012B000D1302100B100622961302100B000193025
:1012C0002100B100031021003C0C2000DD00F63E9F
:1012D000DD0087300318013EDF005D08F6005F087F
:1012E000F70080308731C72789312000E0002100D6
:1012F000B200DB290430F70021003C088E31EE26D5
:1013000089312000DD00DF015D08C23EDD005F089D
:1013100003185F0F8E3EDF005D08F6005F08F700E0
:1013200080308731C72789312000E0002100B000DC
:101330000430F70021003C088E31EE268931200070
:10134000DD00DF015D08C23EDD005F0803185F0FAE
:101350008E3EDF00DD0A0319DF0A5D08F6005F0834
:10136000F70080308731C72789312000E000210055
:10137000B1000430F70021003C088E31EE2689319F
:101380002000DD00DF015D08C23EDD005F080318BC
:101390005F0F8E3EDF000230DD070318DF0A5D08B5
:1013A000F6005F08F70080308731C72789312000B9
:1013B000E0002100B2006E302100BD000C302100A1
:1013C000BA005B2C003021003D04031DEA292100F6
:1013D000BA015B2C883021003E052000DD00803AF8
:1013E000031DF62907302100BA005B2C22302100B2
:1013F0003E052000DD00203A031D172A2100BC0A0B
:10140000063021003B0203180C2A133021003C0255
:10141000031C132ABC01132A0B3021003C02031CBD
:10142000352ABC01352A0B302100BA005B2C113063
:1014300021003E052000DD00103A031D482A21004E
:10144000BC03063021003B0203182E2A1330210072
:101450003C02031C442A1230BC00442A0B302100F9
:101460003C02031C352A0A30BC0021003C08053A26
:10147000031D3D2ABC0ABC0A442A21003C08063A46
:10148000031D442AFE30BC070B302100BA005B2C40
:10149000443021003E052000DD00403A031D5B2C56
:1014A0001330F70021003B088E31EE268A312000F0
:1014B000DD0021003C082000DD075D088731A02702
:1014C0008A312000E4007708E30020005D08F60080
:1014D00020006308F7006408AD242000E4007708CA
:1014E000E3006E302100BD000D302100BA005B2CFE
:1014F000063021003B020318942A21003C1C8A2A52
:101500000030F60020006308F700640886311D26CD
:101510008A31D92A0130F60020006308F7006408F8
:1015200086311D268A31D92A0430F70021003C0873
:101530008E31EE268A312000DD00DF015D08C23EDB
:10154000DD005F0803185F0F8E3EDF000330DD070C
:101550000318DF0A5D08F6005F08F7008030873166
:10156000C7278A312000E000043060020318C22A35
:101570000130F60020006308F700640886311D265C
:101580008A31D92A20006008073A031DD02A20009A
:1015900063082000DD000030F7005D086D24D92AC3
:1015A0000030F60020006308F700640886311D262D
:1015B0008A316E302100BD000E302100BA005B2C54
:1015C0001330F70021003B088E31EE268A312000CF
:1015D000DD0021003C082000DD0721003D08031D3F
:1015E000F42A2100BA015B2C883021003E0520003E
:1015F000DF00803A031D002B0B302100BA005B2C6A
:101600002100BE1E162B2000E30A0319E40A640819
:10161000803E7D3E031D0E2BE9306302031C2C2B04
:1016200009302000E3070318E40A2C2B21003E1E9A
:10163000432BFF302000E307031CE4036408803ED3
:101640007D3E031D252BE9306302031C2C2BF73054
:101650002000E307031CE40320005D08F6002000DF
:101660006308F7006408AD242000E4007708E30075
:101670001F3028001D02031C3F2BF8309D070D3042
:101680002100BA005B2C443021003E052000DF0021
:10169000403A031DA42B21003B08063A031D962B5C
:1016A00021003C080A3A031D962B0030F60000305A
:1016B000F7007730873163278B312000EE01EF018F
:1016C00020006408803E803E031D682B06306302C4
:1016D0000318962B200063082000DF001330F7006A
:1016E0005F088E31EE268B312000E0008731A02785
:1016F0008B312000EB007708EA006A08F6006B08DF
:10170000F7007230873163278B312000E00A6008D0
:101710008731A0278B312000E0007708DF006004CC
:10172000031D962B06302000E300E401200063082F
:10173000F6006408F70020005D08873163278B31CD
:101740000B302100BA005B2CFA3028009D005B2C86
:10175000003021003D04031DE12B7F308731A0279D
:101760008B312000DF007708DD00E00060080030EA
:1017700003190130DD00E100E201E11BE203610831
:10178000F6006208F7007F30873163278B31200035
:1017900060080319D42B22000C100C128C122800A4
:1017A000171120009310DE2B3C302100AE00AF015A
:1017B0003C302100AC00AD01280017152100BA0112
:1017C0005B2C883021003E052000DD00883A03199B
:1017D0005B2C2100BA015B2C0030F60020006E0863
:1017E000F7006F0886311D268B3121003D08031D4F
:1017F000FE2B0D30BD0003302100BA001130210056
:101800003E052000DD00113A03195B2C2100BA01CE
:101810005B2C0130F70021003B086D246E30210065
:10182000BD0008302100BA005B2C003021003D04CF
:101830000319222C883021003E052000DD00803A6B
:10184000031D252C2100BA015B2C223021003E050E
:101850002000DD00203A031D372C2100BB0A073091
:101860003B020318BB0107302100BA005B2C11308A
:1018700021003E052000DD00103A031D4B2C210005
:10188000BB0307303B02031C472C0630BB0007306C
:101890002100BA005B2C443021003E052000DD0011
:1018A000403A031D5B2C2100BC010B302100BA0023
:1018B0005B2C2100BA0121003A08003003190130E5
:1018C0002000DD00E000600C0318682C2000991354
:1018D000031C6C2C2000991708002000CD0077080D
:1018E000CC0021003316B3163315B3140630200094
:1018F0004D020318942C19302100B000DD30210076
:10190000B10020004D08F63ECD0087300318013E9F
:10191000CF004D08F6004F08F70080308731C72709
:101920008C312100B200AC2C003020004C04031993
:10193000A32C61302100B00009302100B100C93072
:101940002100B200AC2CC9302100B000D130210000
:10195000B100FF302100B20008002000D400770859
:10196000D3007608D500D601D701E730D800033080
:10197000D900723055020318D32C5508DA00133001
:1019800020005A02031CC72CED30DA07BF2C2000C0
:101990005A18522D7030D600FE30D700C430D8000F
:1019A0000930D900522D8E302000D5070430F700C1
:1019B00055088E31EE268C312000DA00DB015A0802
:1019C000C23ED5008E30DC005B0803185B0FDC07DD
:1019D0000330D5070318DC0A5508F6005C08F70049
:1019E00080308731C7278C312000DA005A08031D68
:1019F000022D7030D600FE30D700C430D800093038
:101A0000D900522D20005A08013A031D0F2D9C3099
:101A1000D600FF30D7006430D800D901522D200005
:101A20005A08093A031D182D0130D800D901522D4A
:101A300020005A08023A031D212D6430D800D90134
:101A4000522D20005A08043A031D2A2D0F30D800C9
:101A5000D901522D20005A08033A031D382DE030D9
:101A6000D600FC30D7002030D8000330D900522DEA
:101A700020005A08053A031D412D0830D800D9012D
:101A8000522D20005A08063A031D4A2D3C30D8003A
:101A9000D901522D20005A08073A031D522D063055
:101AA000D800D90120005808F3005908F40056085E
:101AB000F5005708F6005308F70054086625200083
:101AC000D4007708D300F700540808002000CD00A8
:101AD0007708CC007608CF007508CE007408D100D6
:101AE0007308D0005108803ED2004D08803E52025B
:101AF000031D7C2D4C0850020318832D20004E0836
:101B0000F7004F08992D20004D08803ED2004F0865
:101B1000803E5202031D8E2D4E084C020318952D57
:101B200020005008F7005108992D20004C08F700BC
:101B30004D0808001A30F6008E30F70080308731EB
:101B4000D9278D312100A1007708A0001C30A20008
:101B50008E30A30021002008A4002108A500FF303A
:101B6000A007031CA103240825040319172E043021
:101B70002207A400A501A50D2308A5072408F60047
:101B80002508F70080308731D9278D312100A70043
:101B90007708A6002208F6002308F7008030873176
:101BA000D9278D312100A900A5007708A800A4003D
:101BB00002302207A400A501A50D2308A5072408CB
:101BC000F6002508F70080308731D9278D312100B4
:101BD000A500AB007708A400AA0021002608AA00EF
:101BE0002708AB00FF30A607031CA7032A082B0415
:101BF0000319112E2808F6002908F70080308731D4
:101C0000C7278E312100AA002408840025088500FA
:101C10002A088000A80A0319A90AA40A0319A50A18
:101C2000ED2D06302100A2070318A30AAA2D80314A
:101C3000742808001134003403340034B334003401
:101C40000134003415340F34B4340034013400341A
:101C50000D340F346C3400340234003416340F3435
:101C6000B53400340134003417340F34B634003442
:101C70000134003418340F34B734003401340034E4
:101C800019340F34B8340034013400341A340F34AA
:101C9000B9340034013400340F340F346E3400345E
:101CA0000234003411340F34AC34003402340034C4
:101CB00013340F34AE340034023400341B340F3488
:101CC000BA340034013400341C340F34BB340034D3
:101CD000013400341D340F34BC340034013400347A
:101CE0001E340F34BD340034013400341F340F343B
:101CF000BE3400340134003420340F34BF34003497
:101D00000134003400340034D534FD34C134FE34A1
:101D10005934FF34CF34FF34303400348634003447
:101D2000D33400341A3401345C3401349C3401342B
:101D3000DA34013416340234513402348C3402342F
:101D4000C7340234023403343F3403347D34033463
:101D5000BD3403340134043448340434943404343A
:101D6000E53404343F340534A434053417340634E0
:101D70009E340634443407341E3408345D34093448
:101D8000AB340B3461341934FF340034D134A13412
:101D9000FF340234C934CD34FF3401348534B734D0
:101DA000FF34043461341134FF3403346134C934F2
:101DB000FF3405348534D134FF340834CD348534D0
:101DC000FF340634D1348534FF340634DD3419341D
:101DD000FF340934DD34D534FF3407342000E50006
:101DE0007708E600E7010830E8002000651CFA2EBD
:101DF0006608E70720006508E9000310690CE500A4
:101E00000310660DE900E6006808E9006903E800D0
:101E10006808031DF52E67080800003400340034FC
:101E200000343C3400343C3400340034003400349A
:101E300000340034183400340034003400340034EA
:021E400000346C
:020000040001F9
:02000E00D40F0D
:02001000FF3AB5
:00000001FF
