:020000040000FA
:10000000000086313B2EFF348A012700931C2328F1
:1000100020008B11270091102100370803191728A1
:100020002100B61F172821008C1022008C140A30E2
:100030002100B80005302000950021009512200015
:100040008B162700930120000B1D422821009516D6
:1000500020008B1221008C1422008C100310210030
:10006000B60D2100B90A21003708031D3C282000E5
:100070008C1C3C2821003614270093019114200089
:100080008B150B112000911C8A28031022000D0DE6
:100090002000BC003C08031D4F281030BC0021008C
:1000A0008E0122008D0120003C08103A03196528BA
:1000B0003C08203A03196A283C08403A03196F2883
:1000C0003C08803A0319742878282100320822005D
:1000D0008E0078282100330822008E007828210025
:1000E000340822008E0078282100350822008E0076
:1000F00020003C0822008D002100380803198228C6
:10010000B80388282100BA012100B9012100B701F4
:1001100020009110090020008B1322000D08200000
:10012000E20021000E082000E30022008D01D830FB
:1001300021008E00031021003F0D2000E400E501A6
:1001400020008E1FA5282000E50A20006408E60094
:100150006508E40066042100BF0003103F0D200085
:10016000E400E50120000E1EB7282000E50A20006B
:100170006408E6006508E40066042100BF0003107F
:100180003F0D2000E400E50120000E1FC9282000DB
:10019000E50A20006408E6006508E4006604210022
:1001A000BF0003103F0D2000E400E50120008E1D7C
:1001B000DB282000E50A20006408E6006508E4006A
:1001C00066042100BF002000620822008D0020008C
:1001D000630821008E0020008B1721003E08031DBC
:1001E000BE030F3021003B020318032D80308A002C
:1001F000FD303B0703188A0A82000C295E29762904
:100200009129B7298F2C4B2CB32CBF2C032D032DF8
:10021000DB29742A172B7F2B883021003F05200013
:10022000E200083A031D1B291B302100BE000630E6
:100230002100BB00052D003021003F040319052DCE
:100240007F308F31B42781312000E3007708E2004E
:1002500063040319052D333021003F052000E2001F
:10026000033A031D372901302100BB00052D223040
:1002700021003F052000E200023A031D432902301D
:100280002100BB00052D113021003F052000E200B8
:10029000013A031D52290D302100BE000330210018
:1002A000BB00052D443021003F052000E200403A0C
:1002B000031D052D07302100BB00052D0030F60081
:1002C0006D30F70000308E3131268131210032103F
:1002D0002100B5163515333021003F052000E2001E
:1002E000333A0319052D2100BB01052D72308F31E2
:1002F000B42781312000E4007708E2000130F600E5
:100300006208F70064088E313126813122302100E5
:100310003F052000E200223A0319052D2100BB0110
:10032000052D7B308F31B42781312000E400770820
:10033000E200E5000030F7006508172506302000D0
:1003400065020318AC2921003E08031DAC291130B9
:10035000BE0004302100BB00113021003F05200009
:10036000E200113A0319052D2100BB01052D76305D
:100370008F31B42781312000E4007708E20000309B
:10038000F6006208F70064088E31312681312100C1
:100390003E08031DD0290D30BE0005302100BB00F2
:1003A000113021003F052000E200113A0319052D0C
:1003B0002100BB01052D21003516B5163515063077
:1003C00021003C0203180C2A21003D1CEE29853037
:1003D0002100B200D1302100B300F42961302100A6
:1003E000B20019302100B300031021003D0C2000A1
:1003F000E200AE3EE20087300318013EE4006208EE
:10040000F6006408F70080308731572782312000DA
:10041000E5002100B4006D2A0430F70021003D08FA
:100420008F31DB2782312000E200E4016208863E42
:10043000E20064080318640F873EE4006208F600D7
:100440006408F70080308731572782312000E500AB
:100450002100B2000430F70021003D088F31DB2776
:1004600082312000E200E4016208863EE200640876
:100470000318640F873EE400E20A0319E40A6208E5
:10048000F6006408F700803087315727823120005A
:10049000E5002100B3000430F70021003D088F3152
:1004A000DB2782312000E200E4016208863EE200A0
:1004B00064080318640F873EE4000230E207031863
:1004C000E40A6208F6006408F70080308731572795
:1004D00082312000E5002100B4006E302100BE0012
:1004E0000C302100BB00052D003021003E04031D0F
:1004F0007C2A2100BB01052D883021003F0520000A
:10050000E200803A031D882A07302100BB00052D38
:10051000223021003F052000E200203A031DA92AD5
:100520002100BD0A063021003C0203189E2A133028
:1005300021003D02031CA52ABD01A52A0A30210085
:100540003D02031CC72ABD01C72A0B302100BB0096
:10055000052D113021003F052000E200103A031D57
:10056000E72A2100BD03063021003C020318C02AFF
:10057000133021003D02031CE32A1230BD00E32AA0
:100580000A3021003D02031CC72A0930BD007B3020
:100590008F31B42782312000E4007708E200E500C3
:1005A00006306502031CE32A21003D08043A031DBE
:1005B000DC2ABD0ABD0AE32A21003D08053A031DD5
:1005C000E32AFE30BD070B302100BB00052D44306F
:1005D00021003F052000E200403A031D052D1330A5
:1005E000F70021003C088F31DB2782312000E20038
:1005F00021003D082000E20762088F31B4278231D4
:100600002000E9007708E80020006208F6002000DA
:100610006808F700690857252000E9007708E80016
:100620006E302100BE000D302100BB00052D0630CC
:1006300021003C020318332B21003D1C292B0030E4
:10064000F60020006808F70069088E3131268331F2
:10065000782B0130F60020006808F70069088E3119
:1006600031268331782B0430F70021003D088F318B
:10067000DB2783312000E200E4016208863EE200CD
:1006800064080318640F873EE4000330E207031890
:10069000E40A6208F6006408F700803087315727C3
:1006A00083312000E500043065020318612B01301E
:1006B000F60020006808F70069088E313126833182
:1006C000782B20006508063A031D6F2B2000680870
:1006D0002000E2000030F70062081725782B003078
:1006E000F60020006808F70069088E313126833152
:1006F0006E302100BE000E302100BB00052D1330EE
:10070000F70021003C088F31DB2783312000E20015
:1007100021003D082000E20721003E08031D932B25
:100720002100BB01052D883021003F052000E40099
:10073000803A031D9F2B0B302100BB00052D2100AB
:10074000BF1EB52B2000E80A0319E90A6908803E9C
:100750007D3E031DAD2BE9306802031CCB2B093015
:100760002000E8070318E90ACB2B21003F1EE22BEB
:10077000FF302000E807031CE9036908803E7D3E46
:10078000031DC42BE9306802031CCB2BF73020007B
:10079000E807031CE90320006208F600200068084F
:1007A000F700690857252000E9007708E8001F30A6
:1007B00028001D02031CDE2BF8309D070D302100A0
:1007C000BB00052D443021003F052000E400403AE5
:1007D000031D472C21003C08063A031D392C21003B
:1007E0003D08093A031D392C0030F6000030F700AF
:1007F00076308F31772783310030F6000030F700F4
:1008000077308F317727843120006908803E803E21
:10081000031D0C2C063068020318392C20006808D0
:100820002000E4001330F70064088F31DB278431A7
:100830002000E5008F31B42784312000E6007708DE
:10084000E400F6006608F70072308F3177278431B4
:100850002000E50A65088F31B42784312000E500C7
:100860007708E4006504031D392C06302000E800F9
:10087000E90120006808F6006908F7002000620816
:100880008F31772784310B302100BB00052DFA30E2
:1008900028009D00052D003021003E04031D842CFE
:1008A0007F308F31B42784312000E4007708E200E4
:1008B000E5006508003003190130E200E600E701B9
:1008C000E61BE7036608F6006708F7007F308F3104
:1008D00077278431200065080319772C22000C103B
:1008E0000C128C122800171120009310812C3C3020
:1008F0002100B000B1013C302100AE00AF01280062
:1009000017152100BB01052D883021003F0520006F
:10091000E200883A0319052D2100BB01052D77302F
:100920008F31B42784312000E5007708E2000030E1
:10093000F6006208F70065088E3131268431210007
:100940003E08031DA82C0D30BE0003302100BB0063
:10095000113021003F052000E200113A0319052D56
:100960002100BB01052D0130F70021003C081725AF
:100970006E302100BE0008302100BB00052D003084
:1009800021003E040319CC2C883021003F052000B3
:10099000E200803A031DCF2C2100BB01052D22303F
:1009A00021003F052000E200203A031DE12C210038
:1009B000BC0A07303C020318BC0107302100BB0011
:1009C000052D113021003F052000E200103A031DE3
:1009D000F52C2100BC0307303C02031CF12C06302F
:1009E000BC0007302100BB00052D443021003F052D
:1009F0002000E200403A031D052D2100BD010B300F
:100A00002100BB00052D2100BB0121003B08003067
:100A1000031901302000E200E500650C0318122DD7
:100A200020009913031C162D2000991708002000A0
:100A3000D2007708D10021003516B5163515B5144A
:100A400006302000520203183E2D19302100B2005A
:100A5000DD302100B30020005208AE3ED2008730C6
:100A60000318013ED4005208F6005408F700803005
:100A70008731572785312100B400562D00302000E2
:100A8000510403194D2D61302100B20009302100BD
:100A9000B300C9302100B400562DC9302100B20086
:100AA000D1302100B300FF302100B4000800200045
:100AB000D9007708D8007608DA00DB01DC01E730DE
:100AC000DD000330DE0072305A0203187D2D5A0813
:100AD000DF00133020005F02031C712DED30DF07B3
:100AE000692D20005F18F32D7030DB00FE30DC0034
:100AF000C430DD000930DE00F32D8E302000DA072F
:100B00000430F7005A088F31DB2785312000DF00E1
:100B1000E0015F08863EDA008730E10060080318D4
:100B2000600FE1070330DA070318E10A5A08F600FC
:100B30006108F70080308731572785312000DF00BA
:100B40005F08031DAC2D7030DB00FE30DC00C430CC
:100B5000DD000930DE00F32D20005F08013A031D9F
:100B6000B92D9C30DB00FF30DC006430DD00DE019D
:100B7000F32D20005F08083A031DC22D0130DD006F
:100B8000DE01F32D20005F08023A031DCB2D6430F7
:100B9000DD00DE01F32D20005F08033A031DD92D8F
:100BA000E030DB00FC30DC002030DD000330DE0014
:100BB000F32D20005F08043A031DE22D0830DD000C
:100BC000DE01F32D20005F08053A031DEB2D3C30BC
:100BD000DD00DE01F32D20005F08063A031DF32D32
:100BE0000630DD00DE0120005D08F3005E08F40041
:100BF0005B08F5005C08F6005808F700590807265E
:100C00002000D9007708D800F70059080800200014
:100C1000D2007708D1007608D4007508D300740894
:100C2000D6007308D5005608803ED7005208803E93
:100C30005702031D1D2E510855020318242E2000B3
:100C40005308F70054083A2E20005208803ED7007F
:100C50005408803E5702031D2F2E530851020318DB
:100C6000362E20005508F70056083A2E200051086D
:100C7000F70052080800BB30F6008630F7008030DD
:100C80008731692786312100A1007708A000BD3097
:100C9000A2008630A30021002008A4002108A5009E
:100CA000FF30A007031CA103240825040319B82E54
:100CB00004302207A400A501A50D2308A5072408D8
:100CC000F6002508F700803087316927863121003A
:100CD000A7007708A6002208F6002308F700803056
:100CE0008731692786312100A900A5007708A8006F
:100CF000A40002302207A400A501A50D2308A50722
:100D00002408F6002508F7008030873169278631EE
:100D10002100A500AB007708A400AA002100260846
:100D2000AA002708AB00FF30A607031CA7032A0868
:100D30002B040319B22E2808F6002908F70080308A
:100D40008731572786312100AA002408840025080E
:100D500085002A088000A80A0319A90AA40A031911
:100D6000A50A8E2E06302100A2070318A30A4B2ED7
:100D70008831002808000F34003403340034B534BF
:100D8000003401340034FA340F34AC34003402340B
:100D90000034B8340734B634003401340034B93484
:100DA0000734B734003401340034BA340734B8346B
:100DB000003401340034BB340734B9340034013416
:100DC0000034BC340734BA34003401340034FC3409
:100DD0000F34AE34003402340034FE340F34B034F7
:100DE000003402340034BD340734BB3400340134E1
:100DF0000034BE340734BC34003401340034BF3412
:100E00000734BD34003401340034C0340734BE34F8
:100E1000003401340034C1340734BF3400340134A9
:100E20000034C2340734C034003401340034003498
:100E30000034D534FD34C134FE345934FF34CF345A
:100E4000FF343034003486340034D33400341A3460
:100E500001345C3401349C340134DA340134163406
:100E60000234513402348C340234C7340234023434
:100E700003343F3403347D340334BD34033401344C
:100E800004344834043494340434E53404343F34B2
:100E90000534A4340534173406349E3406344434FF
:100EA00007341E3408345D340934AB340B34003A53
:100EB00003195E2F803A0319642F003476088400EA
:100EC000770885000008080077088A007608820005
:100ED0000800003A0319712F803A0319792FF7019E
:100EE000003476088400770885001200F7000008B7
:100EF000080087316427F500F60FF703F70A8731FA
:100F00006427F4007508F700740808006134193488
:100F1000FF340034D134A134FF340234C934CD3429
:100F2000FF34013461341134FF3403346134C93483
:100F3000FF3404348534D134FF340734CD34853460
:100F4000FF340534D1348534FF340534DD341934AD
:100F5000FF340834DD34D534FF3406340334B73479
:100F60000D342534B1346134413437340134213403
:100F700000340034003400340034003400340034D1
:060F8000003400340034CF
:101000002000C001C101C2018030C3006A3021004C
:1010100099000E308C0022008C0121008D012200ED
:101020008D0121008E01043023008C0021001E164A
:101030009E1723008E01053020009C00FA309B0093
:10104000210091147230280097007F30B4272000CF
:10105000A7007708A900A800280C03183128280049
:101060001711031C352828001715FA3028009600A0
:1010700037309E00FA309D00C83020008B000230CF
:10108000270091009201093021009D0020008B1360
:10109000083021003902031C642921003608200091
:1010A000C4002100B90120008B1720004408200053
:1010B000AC002000CC062100B70121003A08031D36
:1010C000B12820002C082000CD0020002C08200092
:1010D000CC002000CE0120004D08203A03197428CE
:1010E0004D08E03A031D782801302100BA004E294E
:1010F00020002C08013A031D892821002C0820001B
:10110000CF0021002D082000D00005302100BA00BA
:101110004E2920002C08023A031D9D28AD01220013
:101120000C1E94282000AD0A20002D082000CF00BE
:10113000D00105302100BA004E2920002C08033AC6
:10114000031D4E29AD0122008C1EA8282000AD0AE7
:1011500020002D082000CF00D00105302100BA006A
:101160004E2921003A08013A031DCE2820002C0800
:101170002000CE0020004D08E03A031DC3280230B5
:101180002100BA004E2920004E08B4272000D000CC
:101190007708CF0005302100BA004E2921003A0817
:1011A000023A0319D7283A08033A031DEB28200016
:1011B0004F082000BD00AD012C08BE00BF013E0855
:1011C0002D042000CF0020003F083D042000D00067
:1011D0002100BA0A4E2921003A08043A031D1029B9
:1011E00020004C08031D072920004F082000AC00F8
:1011F000200050082000AD002C08F6002D08F70054
:1012000020004E0877279A302100B6000A29663060
:101210002100B60001302100B7002100BA014E299B
:1012200021003A08063A031D202920004F0821001A
:10123000B60001302100B70007302100BA004E2966
:1012400021003A08073A031D412920004E082000DA
:101250004D062000AC00200050082000AD00BD016C
:101260002D08BE00AC0620004F082000AD002C0663
:101270002100B60001302100B70008302100BA007B
:101280004E2921003A08083A031D4E299A302100C0
:10129000B60001302100B7002100BA0121003A0850
:1012A000053A031957293A08063A031D6429200014
:1012B00050082000AC00AD012C082100B600013020
:1012C0002100B7002100BA0A20008B17931D7B294B
:1012D00080318B208931280017197929FF302100AE
:1012E000B50003302100B20059302100B4002100C4
:1012F000B300200093112000931C2E2E2000C00A62
:101300000319C10A401CCA294208F70043082000FB
:10131000A0007708A10021009D1421009D188D29AF
:101320001D102000210E0F39A200200EA300F0395D
:10133000A204A3060310A30CA20C0310A30CA20C7E
:101340002208A1022308031C230FA00221001C086D
:101350002000A200A3012208A400A60121001B086E
:101360002000A200A3012208A6042308A404260842
:10137000A2002408A3002208A10723080318230FB2
:10138000A0072108F7002008C3007708C200093031
:1013900021009D00200040080F39031D2C2E42081B
:1013A000F70043082000A0007708A1002030A20029
:1013B000A301A401A601210E0F39A500200EA7004C
:1013C000F039A504A7060310A70CA50C3F30A5050E
:1013D000A7012508A9000310200CA500A7010310F0
:1013E000A70CA50C0310A70CA50C1F302505A10008
:1013F000A0012108A500250AA1000230F70021085C
:101400008F31DB278A312000A000A7012008173E7A
:10141000A0008730A10027080318270FA10702307A
:10142000F70025088F31DB278A312000A700A801AB
:101430002708173EA7008730A50028080318280FA3
:10144000A507A801200029082802031C4A2A27080A
:10145000F6002508F7008030873169278A3120009F
:10146000AB007708AA00AC002B08AD000030AD1B24
:10147000FF30BD00BE002C08A2072D0803182D0F59
:10148000A3073E0803183E0FA4073D0803183D0FAD
:10149000A6076D2A20002008F6002108F7008030FA
:1014A000873169278A312000AB007708AA00AC0099
:1014B0002B08AD000030AD1BFF30BD00BE002C0876
:1014C000A2072D0803182D0FA3073E0803183E0F8F
:1014D000A4073D0803183D0FA6072000A80A4030C6
:1014E0002802031C222A220E0F39A100230EA0007D
:1014F000F039A104A006240EA500F039A004A50629
:10150000260EA700F039A504A706F030A719A704F6
:101510000310A71B0314A70CA50CA00CA10C03100F
:10152000A71B0314A70CA50CA00CA10C2108A2005A
:101530002008A3002208F7002308C5007708C4008C
:101540007430B4272000C7007708C6004408C800DC
:101550004508C900460848072100AC00200049089A
:101560002100AD00200047080318470A0319BA2AD2
:101570002100AD0720004308C400C501003045022A
:10158000031DC42AF83044022000C601031C46147F
:101590004608003003190130C7004708031DE32A3D
:1015A00000304502031DD62A093044022000C6013E
:1015B000C60D4608003003190130C4004408031D5D
:1015C000E32AC401E62A01302000C40020004408B8
:1015D000C600460C0318EE2A22000C10031CF22A47
:1015E00022000C1422000C1C0C2B11302100B20024
:1015F000CB302100B300FF302100B4002100B50042
:1016000022000C128C123C302100B000B1013C30A1
:101610002100AE00AF012C2E7B30B4272000C60085
:101620007708C400C700063047020318442C210085
:10163000351320004008C4004108C600C701C80196
:101640004808803E803E031D2F2B00304702031DBB
:101650002F2BEA304602031D2F2B60304402031C5F
:10166000492C7B30B4272000AC007708AD00BD00CA
:1016700006303D020318402C7630B4272000AC0021
:101680007708AD00BE007730B4272000AC007708A3
:10169000AD00AD0A0319AC0A09303E02031C522BFF
:1016A0000830BE001330F70020003D088F31DB27E3
:1016B0008B312000BF0003103E0DBD003F07BD0071
:1016C0003D0ABF00B4272000AE007708BF000230FB
:1016D0003D07AF00B4272000B0007708AF002E0808
:1016E0002C02031D752B3F082D02031CA32B200089
:1016F0002F08F6003008F7007230772720003E08E8
:10170000083A03198E2B03303D07B100B42720009F
:10171000B2007708B1003204031D952B0630F600A5
:101720000030F7007B307727402C2000AD01AC0162
:10173000BE0A3E08B100B2013108F6003208F700D7
:1017400076307727392C7A30B4272000B10077081B
:10175000BE0031040319392C3D08B4272000BE0017
:101760007708BD002C0EF039B2002D0EB1000F39F4
:10177000B204B1060310B10DB20D0310B10DB20DDC
:101780002030B300B401B501B601B70120002E0826
:101790003202031DCD2B3F083102031CEE2B20002B
:1017A0003F08B1022E08031C2E0FB2022F08B8000A
:1017B0003008B9000030B91BFF30BB00BA00380850
:1017C000B30739080318390FB4073A0803183A0F5A
:1017D000B5073B0803183B0FB607062C20003D0851
:1017E000B8003E08B9000030B91BFF30BB00BA009A
:1017F0003808B30739080318390FB4073A08031833
:101800003A0FB5073B0803183B0FB6072000B70A8D
:1018100040303702031CC62B330E0F39B300340E91
:10182000B400F039B304B406350EB500F039B40491
:10183000B506360EB600F039B504B606F030B61966
:10184000B6040310B61B0314B60CB50CB40CB30CE1
:101850000310B61B0314B60CB50CB40CB30C330850
:10186000BD003408BE003D08F6003E08F7007230A7
:10187000772720002D08F6002C08F700773077270F
:101880002000C001C101492C210035172000C001F2
:10189000C1017530B4272000C6007708C400460493
:1018A0000319B92C7230B4272000C8007708C7008C
:1018B00021002C082000C90021002D082000CA00AA
:1018C00047084902C7004808031C480A4A02C800E2
:1018D0000314C81F0310031C722CC709C809C70AC8
:1018E0000319C80A03142000C61F0310031C9B2CF5
:1018F000C409C609C40A0319C60A4608803ECB00BB
:101900004808803E4B02031D872C470844022000F4
:10191000C901031C49144908003003190130CA00E9
:10192000C900490C0318962C22000C10031C9A2C99
:1019300022000C14B92C20004808803ECB00460839
:10194000803E4B02031DA62C440847022000C9011B
:10195000031C49144908003003190130C400C900B0
:10196000490C0318B52C22000C10031CB92C2200C2
:101970000C147230B4272000A7007708A9002100BA
:101980002E082F040319C82CFF30AE07031CAF0329
:101990002100300831040319D12CFF30B007031C9B
:1019A000B1032000A80122000C1ED82C2000A80A98
:1019B00020002808003003190130AB00A800280CD3
:1019C0000318E42C2100B513031CE82C2100B517E3
:1019D0002000A80122008C1EEF2C2000A80A200065
:1019E0002808003003190130AB00A800280C0318A8
:1019F000FB2C2100B511031CFF2C2100B515220082
:101A00000C1E132D20002708803EAA0021002D085F
:101A1000803E20002A02031D112D21002C082000E9
:101A200029020318252D22008C1E832D21002D084C
:101A3000803E2000AA002708803E2A02031D232D95
:101A4000290821002C02031C832D7830B4272000A4
:101A5000AB007708A8002B0EF0392100AF00200062
:101A6000280E2100AE000F39AF04AE060310AE0DF4
:101A7000AF0D0310AE0DAF0D2E0E0F392000A800D4
:101A800021002F0E2000AB00F039A804AB06280877
:101A90002100AE0220002B08031C2B0A0319522D33
:101AA0002100AF027930B4272000AB007708A800EE
:101AB0002B0EF0392100B1002000280E2100B000CB
:101AC0000F39B104B0060310B00DB10D0310B00D05
:101AD000B10D300E0F392000A8002100310E20007A
:101AE000AB00F039A804AB0628082100B0022000A2
:101AF0002B08031C2B0A03197F2D2100B1022200A1
:101B00000C128C12FB2D22000C1AFB2D8C1AFB2DB3
:101B10007330B4272000AB007708A8002907AA007B
:101B20002708AC002B0803182B0FAC072C08803EAD
:101B3000AD0021002D08803E20002D02031DA42DA4
:101B400021002C0820002A020318C62D21002E088F
:101B50002F040319C32D2000AA012100B51FB22DA7
:101B60002000AA0A21002E0801392000AC00AD0097
:101B7000AA062A0C0318BE2D2100B513031CC22D82
:101B80002100B517FB2D22000C16FB2D2000280884
:101B9000A9022B08031C2B0FA70221002D08803E51
:101BA0002000BD002708803E3D02031DDA2D2908D4
:101BB00021002C020318FB2D2100300831040319E9
:101BC000F92D2000A9012100B51DE82D2000A90A4A
:101BD0002100300801392000A700A800A906290C1F
:101BE0000318F42D2100B511031CF82D2100B515A3
:101BF000FB2D22008C162000991F2C2E22000C1C7D
:101C00000E2E23001D1F0E2E61302100B200113058
:101C10002100B300FF302100B400152E0130F60082
:101C200021002C08F7002D0831262000C4012300D4
:101C30001D1F1C2E2000C40A200044080030031978
:101C40000130C700C400440C0318282E23001D13C4
:101C5000031C2C2E23001D1720009310640046281F
:101C600008002000A9007708A8007608AB0003143C
:101C7000A91F0310031C452E210035122000A809BE
:101C8000A909A80A0319A90A472E21003516200020
:101C90002B08013A031D502E2100B5123515532E85
:101CA0002100B516351520002908803E7D3E031D14
:101CB0005B2EE8302802031C6B2E20002808AA00A7
:101CC0002908AC002A08F7002C080E272000A900DC
:101CD0007708A800AB0120002908803E803E031D44
:101CE000732E64302802031CA72E20002808AA00A7
:101CF0002908AC00AD0120002C08803E803E031D69
:101D0000832E64302A02031C8C2E9C302000AA07EC
:101D1000031CAC03AD0A7B2E20002A08A8002C0867
:101D2000A9000F30AD052D08AE3EAD008730031879
:101D3000013EAA002D08F6002A08F70080308731FE
:101D400057278E312000AC002100B200AA2EFF30B0
:101D50002100B20020002908803E803E031DB22EE3
:101D60000A3028020318BF2E20002B08031DBF2EA7
:101D7000210032082000AA00FF3A0319F52E2000A6
:101D80002808AA002908AC00AD0120002C08803EDC
:101D9000803E031DCD2E0A302A02031CD62EF630BB
:101DA0002000AA07031CAC03AD0AC52E20002A0898
:101DB000A8002C08A9002D08AE3EAD0087300318FE
:101DC000013EAA002D08F6002A08F700803087316E
:101DD00057278E312000AC002100B30020002B08D3
:101DE0000319F82E21003310F82EFF302100B30024
:101DF00020002808AB00AE3EA80087300318013E43
:101E0000A9002808F6002908F700803087315727F5
:101E10008F312000AB002100B40008002000A0009A
:101E20007708A1000310200CA200210CA3000310CE
:101E3000200CA400210CA6000310A40CA60C26085C
:101E4000A30724080318240FA207230E0F39A600A6
:101E5000220EA400F039A604A4062608A30724082D
:101E60000318240FA2072208A600A4012608A3072E
:101E700024080318240FA2070310A20CA30C0310BC
:101E8000A20CA30C0310A20CA30C0310230DA6009C
:101E9000220DA4000310A60DA40D0310A60DA40D81
:101EA0000310230DA500220DA7002508A60727086B
:101EB0000318270FA4072608A1022408031C240FD7
:101EC000A0020630A1070318A00A210E0F39A600B0
:101ED000200EA400F039A604A4062608A3072408AF
:101EE0000318240FA2072308F70022080800200087
:101EF000A7007708A9007608A8002708B4272000C3
:101F0000AB007708AA002806031D8A2F2B08290694
:101F10000319B32F03102000270DAA0020002A0860
:101F20002300910020002808230093001513951327
:101F3000151520008B13553023009600AA3096000B
:101F4000951420008B172300151123009518A52F39
:101F50002000121220002908A800A9012A08A700C1
:101F6000AA0A271C8E2F08002000A000A101A201B0
:101F70000310200DA3002000230823009100151357
:101F80009513151413082000A000A4012008A60032
:101F9000A5012208A000A40120082504A10024080E
:101FA0002604A2002308A000A30A201CBB2F21089E
:101FB000F700220808002000EA007708EB00EC0197
:101FC0000830ED0020006A1CE72F6B08EC072000AA
:101FD0006A08EE0003106E0CEA0003106B0DEE00B1
:101FE000EB006D08EE006E03ED006D08031DE22F9F
:101FF0006C080800003400343C3400343C340034B5
:020000040001F9
:02000E00D40F0D
:02001000FF3AB5
:00000001FF
