:020000040000FA
:1000000000008D31242DFF348A012700931C232802
:1000100020008B11270091102100380803191728A0
:100020002100B71F172821008C1022008C140A30E1
:100030002100B90005302000950021009512200014
:100040008B162700930120000B1D412821009516D7
:1000500020008B1221008C1422008C102100B73557
:100060002100BA0A21003808031D3B2820008C1CFF
:100070003B282100371427009301911420008B1591
:100080000B112000911C882822000D352000BA0099
:100090003A08031D4D281030BA0021008E012200BD
:1000A0008D0120003A08103A031963283A08203AD3
:1000B000031968283A08403A03196D283A08803A2B
:1000C0000319722876282100320822008E00762833
:1000D0002100330822008E007628210034082200F7
:1000E0008E0076282100350822008E0020003A0874
:1000F00022008D002100390803198028B9038628C1
:100100002100BB012100BA012100B801200091109B
:1001100009002000BE01BF01C0018030C100803154
:100120006A30210099000E308C0022008C012100E1
:100130008D0122008D0121008E01043023008C00EE
:1001400021001E169E1723008E01053020009C0002
:10015000FA309B00210091147230280097007F3004
:100160008F314C2780312000A7007708A900A80014
:10017000280C0318BD2828001711031CC1282800CB
:100180001715FA302800960037309E00FA309D008F
:1001900072308F314C2780312000ED007708EC0061
:1001A000C83020008B00023027009100920180317E
:1001B000093021009D0020008B13083021003A02F5
:1001C000031CFF29210037082000C2002100BA01CA
:1001D00020008B172000420880312000AC00200056
:1001E000C9062100B80121003B08031D4729200052
:1001F0002C082000CA0020002C082000C900200084
:10020000CB0120004A08203A03190A294A08E03A9B
:10021000031D0E2901302100BB00E82920002C0815
:10022000013A031D1F2920006E082000CC00200089
:100230006F082000CD0005302100BB00E829200018
:100240002C08023A031D3329AD0122000C1E2A2975
:100250002000AD0A20002D082000CC00CD01053083
:100260002100BB00E82920002C08033A031DE829DF
:10027000AD0122008C1E3E292000AD0A20002D0871
:100280002000CC00CD0105302100BB00E829210071
:100290003B08013A031D662920002C082000CB00F2
:1002A00020004A08E03A031D592902302100BB0012
:1002B000E82920004B088F314C2781312000CD00E8
:1002C0007708CC0005302100BB00E82921003B085D
:1002D000023A03196F293B08033A031D83292000C2
:1002E0004C082000BB00AD012C08BC00BD013C083F
:1002F0002D042000CC0020003D083B042000CD0050
:100300002100BB0AE82921003B08043A031DAA2961
:1003100020004908031DA12920004C082000AC0042
:1003200020004D082000AD002C08F6002D08F70035
:1003300020004B088E31832681319A302100B7008E
:10034000A42966302100B70001302100B800210047
:10035000BB01E82921003B08063A031DBA29200009
:100360004C082100B70001302100B80007302100FF
:10037000BB00E82921003B08073A031DDB292000C8
:100380004B0820004A062000AC0020004D08200049
:10039000AD00BB012D08BC00AC0620004C082000BD
:1003A000AD002C062100B70001302100B800083054
:1003B0002100BB00E82921003B08083A031DE82979
:1003C0009A302100B70001302100B8002100BB01A4
:1003D00021003B08053A0319F1293B08063A031DA1
:1003E000FE2920004D082000AC00AD012C082100A2
:1003F000B70001302100B8002100BB0A8131200084
:100400008B17931D162A8831002082312800171976
:10041000142AFF302100B50003302100B20059300A
:100420002100B4002100B300200093112000931C90
:10043000B02E2000BE0A0319BF0A3E1C652A4008E0
:10044000F700410882312000A0007708A1002100B8
:100450009D1421009D18292A1D102000210E0F39FE
:10046000A200200EA300F039A204A306A336A20C1A
:10047000A336A20C2208A1022308031C230FA0020A
:1004800021001C082000A200A3012208A400A6014C
:1004900021001B082000A200A3012208A6042308B3
:1004A000A4042608A2002408A3002208A107230808
:1004B0000318230FA0072108F70020088231C1008C
:1004C0007708C000093021009D0020003E080F3948
:1004D000031DAE2E4008F700410882312000A00025
:1004E0007708A1002030A200A301A401A601210EDB
:1004F0000F39A500200EA700F039A504A706A736DE
:10050000A50C3F30A505A7012508A9002136A500A7
:10051000A701A736A50CA736A50C1F30A505A70176
:100520002508A8002008A500A7012508A100F8308B
:10053000210203189F2A093021020318A12A210051
:1005400036142000280AA1000230F70021088F315C
:10055000722782312000A000A5012008033EA000E0
:100560008E30A10025080318250FA1070230F700DF
:1005700028088F31722782312000A500A7012508A5
:10058000033EA50027080318270F8E3EA700A801E9
:10059000200029082802031CF02A2508F600270855
:1005A000F70080308F31072782312000AB007708B9
:1005B000AA00AC002B08AD000030AD1BFF30BB0023
:1005C000BC002C08A2072D0803182D0FA3073C0818
:1005D00003183C0FA4073B0803183B0FA607132B77
:1005E00020002008F6002108F70080308F3107270F
:1005F00082312000AB007708AA00AC002B08AD00C8
:100600000030AD1BFF30BB00BC002C08A2072D083A
:1006100003182D0FA3073C0803183C0FA4073B0841
:1006200003183B0FA6072000A80A40302802031C2D
:10063000C82A220E0F39A100230EA000F039A10410
:10064000A006240EA500F039A004A506260EA700DA
:10065000F039A504A706F030A719A704A737A50C01
:10066000A00CA10CA737A50CA00CA10C2108A2007E
:100670002008A3002208F70023088331C30077086D
:10068000C20074308F314C2783312000C5007708B9
:10069000C4004208C6004308C700440846072000BB
:1006A000EE00200047082000EF0020004508031856
:1006B000450A03195D2B2000EF072100361C632B30
:1006C00022000C14652B22000C1021003610220091
:1006D0000C1C842B2000991F782B11302100B200B4
:1006E000CB302100B300FF302100B4002100B50061
:1006F00022000C128C123C302100B000B1013C30C1
:100700002100AE00AF01AE2E7B308F314C278331FC
:100710002000C3007708C200C4000630440203185A
:10072000BE2C21003513033020003F02031D02328E
:10073000E8303E02031CC32C83317B308F314C27C1
:1007400083312000AC007708AD00BB0006303B02CF
:100750000318B82C76308F314C2783312000AC0041
:100760007708AD00BC002100AC0A0319AD0A0930BE
:1007700020003C02031CBE2B0830BC001330F700E5
:1007800020003B088F31722783312000AD003C35BB
:10079000BB00AD072D0AAC008F314C278331200000
:1007A000BB007708AC0002302D07BD008F314C270D
:1007B00083312000AE007708BD003B0821002D02E8
:1007C000031D043220002C0821002C02031C252CC0
:1007D00020003D082000EC0020002E082000ED0045
:1007E00020003D08F6002E08F70072308E31832677
:1007F00083312000BC0A09303C0203180C2C033062
:100800002D07AF008F314C2784312000B0007708CE
:10081000AF003004031D152C0630F6000030F70041
:100820007B308E3183268431B82C2100AC01AD01A0
:1008300020003C08AF00B0012F08F6003008F70098
:1008400076308E3183268431B82C7A308F314C2724
:1008500084312000AF007708BC002F040319B82CA6
:100860002D088F314C2784312000BC007708AD0063
:1008700021002D0EF0392000B00021002C0E2000A8
:10088000AF000F39B004AF06AF35B00DAF35B00DC6
:100890002030B100B201B301B401B50120003B0822
:1008A0003002031D02322C082F02031C762C20007C
:1008B0002C08AF023B08031C3B0FB0023D08B600FA
:1008C0002E08B7000030B71BFF30B900B80036085B
:1008D000B10737080318370FB20738080318380F65
:1008E000B30739080318390FB4078E2C20002D08E0
:1008F000B6003C08B7000030B71BFF30B900B800A5
:100900003608B10737080318370FB207380803183D
:10091000380FB30739080318390FB4072000B50A98
:1009200040303502031C4E2C310E0F39B100320E0F
:10093000B200F039B104B206330EB300F039B2049C
:10094000B306340EB400F039B304B406F030B41971
:10095000B404B437B30CB20CB10CB437B30CB20C52
:10096000B10C31082000EC00200032082000ED001E
:10097000843108302000BE00BF01C32C2100351790
:100980002000BE01BF0175308F314C27843120001B
:10099000C3007708C200430403192D2D20006C0802
:1009A00020006E022000C40020006D08031C6D0AA8
:1009B00020006F022000C5000314C51F0310031C94
:1009C000E62CC409C509C40A0319C50A031420008A
:1009D000C31F0310031C0F2DC209C309C20A031948
:1009E000C30A4308803EC8004508803E4802031DF4
:1009F0000232440842022000C601031C4614460885
:100A0000003003190130C700C600460C03180A2D38
:100A100022000C10031C0E2D22000C142D2D200082
:100A20004508803EC8004308803E4802031D02324C
:100A3000420844022000C601031C46144608003048
:100A400003190130C200C600460C0318292D2200EC
:100A50000C10031C2D2D22000C14853121002E08B2
:100A60002F040319372DFF30AE07031CAF032100FD
:100A7000300831040319402DFF30B007031CB103C7
:100A80002000A70122000C1E472D2000A70A2000ED
:100A90002708003003190130A900A700270C03180C
:100AA000532D2100B513031C572D2100B51720002D
:100AB000A70122008C1E5E2D2000A70A2000270817
:100AC000003003190130A900A700270C03186A2D74
:100AD0002100B511031C6E2D2100B51522000C1E3E
:100AE000832D20006D08803E2000A80020006F08A4
:100AF000803E20002802031D043220006E082000E2
:100B00006C020318982D22008C1EF62D20006F0811
:100B1000803E2000A80020006D08803E20002802B2
:100B2000031D043220006C0820006E02031CF62D09
:100B300078308F314C2785312000A9007708A70035
:100B4000290EF0392100AF002000270E2100AE0051
:100B50000F39AF04AE06AE35AF0DAE35AF0D2E0E6C
:100B60000F392000A70021002F0E2000A900F03926
:100B7000A704A90627082100AE0220002908031CAB
:100B8000290A0319C52D2100AF0279308F314C2776
:100B900085312000A9007708A700290EF03921002F
:100BA000B1002000270E2100B0000F39B104B006BB
:100BB000B035B10DB035B10D300E0F392000A700A2
:100BC0002100310E2000A900F039A704A90627084A
:100BD0002100B00220002908031C290A0319F22D64
:100BE0002100B10222000C128C127A2E22000C1A63
:100BF0007A2E8C1A7A2E73308F314C278531200053
:100C0000A9007708A70020006C072000A80020009A
:100C10006D082000AB0029080318290FAB072B082B
:100C2000803EAA0020006F08803E20002A02031D9B
:100C3000043220006E082000280203183F2E2100F5
:100C40002E082F0403193C2E2000A8012100B51FF7
:100C50002B2E2000A80A21002E0801392000AB000D
:100C6000AA00A806280C0318372E2100B513031C70
:100C70003B2E2100B5177A2E22000C167A2E20006A
:100C8000270820006C022000A7002908031C290A5D
:100C900020006D022000A90020006F08803E200087
:100CA000AC002908803E2C02031D033227082000D7
:100CB0006E0203187A2E2100300831040319782EB1
:100CC0002000A7012100B51D672E2000A70A2100E2
:100CD000300801392000A900A800A706270C031836
:100CE000732E2100B511031C772E2100B5157A2E25
:100CF00022008C1686312000991FAE2E22000C1C7B
:100D00008E2E23001D1F8E2E61302100B200113067
:100D10002100B300FF302100B400972E0130F6000F
:100D200020006E08F7006F088631B3268631200058
:100D3000C20123001D1F9E2E2000C20A200042086F
:100D4000003003190130C400C200420C0318AA2E5F
:100D500023001D13031CAE2E23001D17200093102B
:100D60006400DB2808002000A9007708A8007608A6
:100D7000AB000314A91F0310031CC72E210035125A
:100D80002000A809A909A80A0319A90AC92E210047
:100D9000351620002B08013A031DD22E2100B51272
:100DA0003515D52E2100B516351520002908803EB1
:100DB0007D3E031D0232E8302802031CEF2E200086
:100DC0002808AA002908AC002A08F7002C088D3151
:100DD000A42586312000A9007708A800AB012000D7
:100DE0002908803E803E031D023264302802031C25
:100DF0002B2F20002808AA002908AC00AD012000F4
:100E00002C08803E803E031D023264302A02031CFF
:100E1000102F9C302000AA07031CAC03AD0AFF2E44
:100E200020002A08A8002C08A9000F30AD052D08C5
:100E30008B3EAD008F300318013EAA002D08F6004E
:100E40002A08F70080308E31F52687312000AC006B
:100E50002100B2002E2FFF302100B200200029080F
:100E6000803E803E031D02320A3028020318432FC1
:100E700020002B08031D432F210032082000AA0068
:100E8000FF3A0319792F20002808AA002908AC008E
:100E9000AD0120002C08803E803E031D02320A3046
:100EA0002A02031C5A2FF6302000AA07031CAC03A9
:100EB000AD0A492F20002A08A8002C08A9002D08F7
:100EC0008B3EAD008F300318013EAA002D08F600BE
:100ED0002A08F70080308E31F52687312000AC00DB
:100EE0002100B30020002B0803197C2F21003310B0
:100EF0007C2FFF302100B30020002808AB008B3E80
:100F0000A8008F300318013EA9002808F600290820
:100F1000F70080308E31F52687312000AB002100AC
:100F2000B40008001134003403340034B534003404
:100F30000134003497340F34B634003401340034B3
:100F4000FA3407346E3400340234003498340F34E9
:100F5000B73400340134003499340F34B8340034D9
:100F6000013400349A340F34B9340034013400347D
:100F70009B340F34BA340034013400349C340F34C1
:100F8000BB34003401340034FC340734AC34003456
:100F900002340034FE340734AE34003402340034FA
:100FA00095340F34B0340034023400349D340F349F
:100FB000BC340034013400349E340F34BD3400346A
:100FC000013400349F340F34BE3400340134003413
:100FD000A0340F34BF34003401340034A1340F3452
:100FE000C034003401340034A2340F34C13400342E
:100FF0000134003400340034003400343C34003414
:1010000020008B1322000D082000DF0021000E08B5
:101010002000E00022008D01D83021008E00210048
:1010200040352000E100E20120008E1F1928200039
:10103000E20A20006108E3006208E1006304210085
:10104000C00040352000E100E20120000E1E2A28E9
:101050002000E20A20006108E3006208E100630466
:101060002100C00040352000E100E20120000E1FF9
:101070003B282000E20A20006108E3006208E1004A
:1010800063042100C00040352000E100E20120009F
:101090008E1D4C282000E20A20006108E30062084F
:1010A000E10063042100C00020005F0822008D00E1
:1010B0002000600821008E0020008B1721003F08CF
:1010C000031DBF030F3021003C0203185E2C883043
:1010D0008A006E303C0703188A0A82007D28CF28D8
:1010E000E728FB282329EF2BAB2B0C2C1A2C5E2C8A
:1010F0005E2C4729DF29772AE12A88302100400524
:101100002000DF00083A031D8C281B302100BF009F
:1011100006302100BC00602C00302100400403197F
:10112000602C7F308F314C2788312000E000770819
:10113000DF0060040319602C3330210040052000DB
:10114000DF00033A031DA82801302100BC00602CF9
:101150002230210040052000DF00023A031DB428A0
:1011600002302100BC00602C11302100400520001D
:10117000DF00013A031DC3280D302100BF000330FA
:101180002100BC00602C4430210040052000DF001D
:10119000403A031D602C07302100BC00602C003059
:1011A000F6006D30F70000308631B326883121001B
:1011B00032102100B51635153330210040052000CE
:1011C000DF00333A0319602C2100BC01602C013090
:1011D000F60020006C08F7006D088631B3268831D0
:1011E0002230210040052000DF00223A0319602C44
:1011F0002100BC01602C7B308F314C2788312000CE
:10120000E1007708DF00E2000030F70062088E316D
:101210004326893106302000620203181829210074
:101220003F08031D18291130BF0004302100BC0005
:101230001130210040052000DF00113A0319602C15
:101240002100BC01602C76308F314C278931200081
:10125000E1007708DF000030F6005F08F700610862
:101260008631B326893121003F08031D3C290D300A
:10127000BF0005302100BC001130210040052000D6
:10128000DF00113A0319602C2100BC01602C210001
:101290003516B5163515063021003D02031877299D
:1012A00021003E1C5A2985302100B200D130210096
:1012B000B300602961302100B20019302100B30071
:1012C00021003E362000DF008B3EDF008F30031808
:1012D000013EE1005F08F6006108F70080308E31C2
:1012E000F52689312000E2002100B400D82904301D
:1012F000F70021003E088F31722789312000DF007E
:10130000E1015F08243EDF0061080318610F8F3E92
:10131000E1005F08F6006108F70080308E31F526A5
:1013200089312000E2002100B2000430F7002100E2
:101330003E088F31722789312000DF00E1015F080C
:10134000243EDF0061080318610F8F3EE100DF0AD1
:101350000319E10A5F08F6006108F70080308E315A
:10136000F52689312000E2002100B3000430F700A7
:1013700021003E088F31722789312000DF00E10112
:101380005F08243EDF0061080318610F8F3EE10013
:101390000230DF070318E10A5F08F6006108F70072
:1013A00080308E31F52689312000E2002100B40022
:1013B0006E302100BF000C302100BC00602C0030DA
:1013C00021003F04031DE7292100BC01602C883067
:1013D000210040052000DF00803A031DF32907307B
:1013E0002100BC00602C2230210040052000DF00DD
:1013F000203A031D142A2100BE0A063021003D02B6
:101400000318092A133021003E02031C102ABE01D2
:10141000102A0A3021003E02031C322ABE01322A61
:101420000B302100BC00602C113021004005200051
:10143000DF00103A031D452A2100BE0306302100BB
:101440003D0203182B2A133021003E02031C412ABF
:101450001230BE00412A0A3021003E02031C322A0B
:101460000930BE0021003E08043A031D3A2ABE0A94
:10147000BE0A412A21003E08053A031D412AFE30DA
:10148000BE070B302100BC00602C44302100400519
:101490002000DF00403A031D602C1330F7002100CC
:1014A0003D088F3172278A312000DF0021003E087D
:1014B0002000DF075F088F314C278A312000E600CB
:1014C0007708E50020005F08F60020006508F700B7
:1014D00066088C3172248A312000E6007708E50026
:1014E0006E302100BF000D302100BC00602C0630A2
:1014F00021003D020318932A21003E1C892A003056
:10150000F60020006508F70066088631B3268A31A8
:10151000DA2A0130F60020006508F70066088631F7
:10152000B3268A31DA2A0430F70021003E088F31D1
:1015300072278A312000DF00E1015F08243EDF00CE
:1015400061080318610F8F3EE1000330DF070318C5
:10155000E10A5F08F6006108F70080308E31F52659
:101560008A312000E200043062020318C12A0130EF
:10157000F60020006508F70066088631B3268A3138
:10158000DA2A20006208063A031DD12A20006508E5
:101590002000DF000030F7005F088E3143268A31DB
:1015A000DA2A0030F60020006508F7006608863168
:1015B000B3268A316E302100BF000E302100BC00FE
:1015C000602C1330F70021003D088F3172278A31DB
:1015D0002000DF0021003E082000DF0721003F0837
:1015E000031DF52A2100BC01602C88302100400534
:1015F0002000E100803A031D012B0B302100BC00CC
:10160000602C2100C01E172B2000E50A0319E60AF2
:101610006608803E7D3E031D0232E9306502031CF0
:101620002D2B09302000E5070318E60A2D2B210099
:10163000401E462BFF302000E507031CE60366082A
:10164000803E7D3E031D0232E9306502031C2D2BD6
:10165000F7302000E507031CE60320005F08F600D2
:1016600020006508F70066088C3172248B31200059
:10167000E6007708E5001F3028001D02031C422BFE
:10168000F8309D070D302100BC00602C4430210053
:1016900040052000E100403A031DA72B21003D0832
:1016A000063A031D992B21003E08093A031D992B88
:1016B0000030F6000030F70076308E3183268B3113
:1016C0002100AC01AD0120006608803E803E031D74
:1016D0000232063065020318992B200065082000AD
:1016E000E1001330F70061088F3172278B31200041
:1016F000E2008F314C278B312000ED007708EC00A1
:101700006C08F6006D08F70072308E3183268B313D
:101710002000E20A62088F314C278B312000E20062
:101720007708E1006204031D992B06302000E500D4
:10173000E60120006508F6006608F70020005F0853
:101740008E3183268B310B302100BC00602CFA30A7
:1017500028009D00602C003021003F04031DE42B75
:101760007F308F314C278B312000E1007708DF007C
:10177000E2006208003003190130DF00E300E401F9
:10178000E31BE4036308F6006408F7007F308E3142
:1017900083268B31200062080319D72B22000C10FE
:1017A0000C128C122800171120009310E12B3C30F2
:1017B0002100B000B1013C302100AE00AF01280093
:1017C00017152100BC01602C883021004005200045
:1017D000DF00883A0319602C2100BC01602C003026
:1017E000F60021002C08F7002D088631B3268B3136
:1017F00021003F08031D012C0D30BF0003302100E4
:10180000BC001130210040052000DF00113A03190F
:10181000602C2100BC01602C0130F70021003D0844
:101820008E3143268C316E302100BF0008302100FC
:10183000BC00602C003021003F040319272C8830A5
:10184000210040052000DF00803A031D2A2C2100E2
:10185000BC01602C2230210040052000DF00203A2E
:10186000031D3C2C2100BD0A07303D020318BD01B9
:1018700007302100BC00602C113021004005200001
:10188000DF00103A031D502C2100BD0307303D023C
:10189000031C4C2C0630BD0007302100BC00602C1E
:1018A0004430210040052000DF00403A031D602C39
:1018B0002100BE010B302100BC00602C2100BC01C6
:1018C00021003C080030031901302000DF00E20055
:1018D000620C03186D2C20009913031C712C20003E
:1018E000991708002000D6007708D5007608D700A1
:1018F000D801D901E730DA000330DB00723057023B
:101900000318982C5708DC00133020005C02031CDD
:101910008C2CED30DC07842C20005C180E2D7030F0
:10192000D800FE30D900C430DA000930DB000E2DBB
:101930008E302000D7070430F70057088F31722708
:101940008C312000DC00DD015C08243ED7008F30A4
:10195000DE005D0803185D0FDE070330D7070318AC
:10196000DE0A5708F6005E08F70080308E31F52653
:101970008C312000DC005C08031DC72C7030D800BF
:10198000FE30D900C430DA000930DB000E2D200013
:101990005C08013A031DD42C9C30D800FF30D900DC
:1019A0006430DA00DB010E2D20005C08083A031DCC
:1019B000DD2C0130DA00DB010E2D20005C08023A3C
:1019C000031DE62C6430DA00DB010E2D20005C08DC
:1019D000033A031DF42CE030D800FC30D90020304D
:1019E000DA000330DB000E2D20005C08043A031DF2
:1019F000FD2C0830DA00DB010E2D20005C08053AD2
:101A0000031D062D3C30DA00DB010E2D20005C08A2
:101A1000063A031D0E2D0630DA00DB0120005A08BD
:101A2000F3005B08F4005808F5005908F600550863
:101A3000F70056088E31C1268D312000D600770878
:101A4000D500F700560808009230F6008730F700FE
:101A500080308F3107278D312100A1007708A00049
:101A60009430A2008730A30021002008A4002108A0
:101A7000A500FF30A007031CA103240825040319B7
:101A8000A12D04302207A400A501A50D2308A50758
:101A90002408F6002508F70080308F3107278D31A4
:101AA0002100A7007708A6002208F6002308F70007
:101AB00080308F3107278D312100A900A5007708DC
:101AC000A800A40002302207A400A501A50D230848
:101AD000A5072408F6002508F70080308F31072776
:101AE0008D312100A500AB007708A400AA002100D9
:101AF0002608AA002708AB00FF30A607031CA7038F
:101B00002A082B0403199B2D2808F6002908F70042
:101B100080308E31F5268D312100AA002408840002
:101B2000250885002A088000A80A0319A90AA40A22
:101B30000319A50A772D06302100A2070318A30A6E
:101B4000342D8031892808002000A0007708A100EA
:101B50002036A200210CA3002036A400210CA600F0
:101B6000A436A60C2608A30724080318240FA207EE
:101B7000230E0F39A600220EA400F039A604A406F5
:101B80002608A30724080318240FA2072208A6008A
:101B9000A4012608A30724080318240FA207A236CD
:101BA000A30CA236A30CA236A30C2335A600220D4B
:101BB000A400A635A40DA635A40D2335A500220D3D
:101BC000A7002508A60727080318270FA40726083B
:101BD000A1022408031C240FA0020630A107031849
:101BE000A00A210E0F39A600200EA400F039A60489
:101BF000A4062608A30724080318240FA207230815
:101C0000F7002208080000340034D534FD34C13414
:101C1000FE345934FF34CF34FF343034003486344A
:101C20000034D33400341A3401345C3401349C342D
:101C30000134DA34013416340234513402348C3431
:101C40000234C7340234023403343F3403347D3465
:101C50000334BD340334013404344834043494343C
:101C60000434E53404343F340534A43405341734E3
:101C700006349E340634443407341E3408345D344C
:101C80000934AB340B342000CF007708CE0021009C
:101C90003516B5163515B514063020004F02031859
:101CA0006A2E19302100B200DD302100B30020007F
:101CB0004F088B3ECF008F300318013ED1004F08F4
:101CC000F6005108F70080308E31F5268E31210064
:101CD000B400822E003020004E040319792E6130AA
:101CE0002100B20009302100B300C9302100B40046
:101CF000822EC9302100B200D1302100B300FF3064
:101D00002100B40008002000A7007708A900760889
:101D1000A80027088F314C278E312000AB007708B0
:101D2000AA002806031D982E2B0829060319C02E89
:101D300020002735AA0020002A0823009100200057
:101D400028082300930015139513151520008B13F5
:101D5000553023009600AA309600951420008B176A
:101D60002300151123009518B22E20001212200016
:101D70002908A800A9012A08A700AA0A271C9B2E47
:101D800008002000CF007708CE007608D100750843
:101D9000D0007408D3007308D2005308803ED400EA
:101DA0004F08803E5402031D02324E0852020318AF
:101DB000DE2E20005008F7005108F42E20004F08B6
:101DC000803ED4005108803E5402031D0232500868
:101DD0004E020318F02E20005208F7005308F42E8C
:101DE00020004E08F7004F080800003A0319FC2EA7
:101DF000803A0319022F00347608840077088500A2
:101E00000008080077088A00760882000800003A77
:101E100003190F2F803A0319172FF70100347608A2
:101E20008400770885001200F700000808008F3151
:101E30000227F500F60FF703F70A8F310227F400A7
:101E40007508F7007408080061341934FF34003451
:101E5000D134A134FF340234C934CD34FF340134D9
:101E600061341134FF3403346134C934FF34043431
:101E70008534D134FF340734CD348534FF34053410
:101E8000D1348534FF340534DD341934FF3408345B
:101E9000DD34D534FF3406342000A000A101A201B6
:101EA0002035A3002000230823009100151395136B
:101EB000151413082000A000A4012008A600A50105
:101EC0002208A000A40120082504A100240826045B
:101ED000A2002308A000A30A201C522F2108F7000B
:101EE000220808002000E7007708E800E901083030
:101EF000EA002000671C7E2F6808E9072000E7360B
:101F00006835EB00E8006A03EB00EA006B08031D8C
:101F1000792F690808000334B7340D342534B134FF
:101F2000613441343734013421343C3400340034DA
:101F30000034003400340034003400340034003401
:061F4000003400340034FF
:020000040001F9
:02000E00D40F0D
:02001000FF3AB5
:00000001FF
