:020000040000FA
:1000000000008731112FFF348A012000911C412804
:10001000031022000D0D2000BF003F08031D122811
:100020001030BF0021008E0122008D0120003F080A
:10003000103A031928283F08203A03192D283F08B1
:10004000403A031932283F08803A031937283B28E1
:100050002100360822008E003B28210037082200AC
:100060008E003B282100380822008E003B2821000A
:10007000390822008E0020003F0822008D00200059
:10008000911009002000C001C101FF30C2007F3083
:10009000C300FF30C4007F30C5006A3021009900E2
:1000A0000E308C0022008C0121008D0122008D0178
:1000B00021008E01063023008C0021001E169E17A1
:1000C00023008E01053020009C00FA309B002100A7
:1000D00091147230280097007F30EA262000A70094
:1000E0007708A900A800280C031878282800171101
:1000F000031C7C2828001715FA302800960037309A
:100100009E00FA309D00C03020008B000930210095
:100110009D002000931D9F288831002080312800F9
:1001200017199D28FF302100B90003302100B600C7
:1001300059302100B8002100B700200093112000A1
:10014000931CC12C2000C00A0319C10A401CB4280A
:100150004208F700430890252000C3007708C2003A
:10016000053021009D00C02820004408F700450804
:1001700090252000C5007708C400093021009D00AB
:10018000200040080F39031DBF2C4208F700430828
:10019000C4242000C7007708C6007430EA26200077
:1001A000C9007708C8004608CA004708CB004808BD
:1001B0004A072100AE0020004B082100AF002000BC
:1001C00049080318490A0319E7282100AF0720004E
:1001D0004408F7004508C4242000C7007708C6007B
:1001E0007530EA262000C9007708C8004608CA0012
:1001F0004708CB0048084A072100B00020004B0800
:100200002100B100200049080318490A03190A29EE
:100210002100B10720004308C600C7010030470293
:10022000031D1429F83046022000C801031C48149D
:100230004808003003190130C9004908031D63292B
:1002400000304702031D2629093046022000C8015C
:10025000C80D4808003003190130C6004608031DC8
:1002600063297C30EA262000C8007708C6004804CD
:10027000031960294508C600C80100304802031D63
:100280004329F83046022000C901031C49144908DB
:10029000003003190130CA004A08031D63290030E9
:1002A0004802031D5529093046022000C901C90D25
:1002B0004908003003190130C6004608031D6329B0
:1002C0002000C601662901302000C6002000460833
:1002D000C900490C03186E2922000C10031C722956
:1002E00022000C1422000C1C8C2905302100B600C1
:1002F000CB302100B700FF302100B8002100B90049
:1003000022000C128C123C302100B400B5013C30AC
:100310002100B200B301BF2C7D30EA262000C900C5
:100320007708C600CA0006304A020318C52A210011
:10033000391320004008C6004108C900CA01CB019A
:100340004B08803E803E031DAF2900304A02031D4A
:10035000AF29EA304902031DAF2960304602031C71
:10036000CA2A7D30EA262000AD007708AC00AE0036
:1003700006302E020318C12A7730EA262000AD008D
:100380007708AC00AF007830EA262000AD0077088F
:10039000AC00AC0A0319AD0A09302F02031CD229A4
:1003A0000830AF0020002E0EF039B00003102E0DE3
:1003B000B100B0072E083007AE0003102F0DB000BB
:1003C000AE072E0AB000EA262000B1007708B00080
:1003D00002302E07B200EA262000B3007708B200F0
:1003E00031082D02031DF62930082C02031C242A93
:1003F00020003208F6003308F7007630AD262000E2
:100400002F08083A03190F2A03302E07B400EA26F2
:100410002000B5007708B4003504031D162A063005
:10042000F6000030F7007D30AD26C12A2000AC0177
:10043000AD01AF0A2F08B400B5013408F600350845
:10044000F7007730AD26BA2A7B30EA262000B400C8
:100450007708AF0034040319BA2A2E08EA262000D0
:10046000AF007708AE002D0EF039B5002C0EB400A9
:100470000F39B504B4060310B40DB50D0310B40D57
:10048000B50D2030B600B701B801B901BA0120009E
:1004900031083502031D4E2A30083402031C6F2A2E
:1004A00020003008B4023108031C310FB5023208B5
:1004B000BB003308BC000030BC1BFF30BE00BD00D9
:1004C0003B08B6073C0803183C0FB7073D08031864
:1004D0003D0FB8073E0803183E0FB907872A2000D2
:1004E0002E08BB002F08BC000030BC1BFF30BE0034
:1004F000BD003B08B6073C0803183C0FB7073D0892
:1005000003183D0FB8073E0803183E0FB907200037
:10051000BA0A40303A02031C472A360E0F39B60099
:10052000370EB700F039B604B706380EB800F03908
:10053000B704B806390EB900F039B804B906F0307E
:10054000B919B9040310B91B0314B90CB80CB70CD2
:10055000B60C0310B91B0314B90CB80CB70CB60CCD
:100560003608AE003708AF002E08F6002F08F70057
:100570007630AD2620002C08F6002D08F7007830E4
:10058000AD262000C001C101CA2A21003917200070
:10059000C001C1017630EA262000A7007708A90033
:1005A0007330EA262000A8007708AB007C30EA26EA
:1005B0002000AA007708AD00AC0021003208330407
:1005C0000319E62AFF30B207031CB30321003408E5
:1005D00035040319EF2AFF30B407031CB5032000CC
:1005E000AD0122000C1EF62A2000AD0A20002D08C5
:1005F000003003190130AA00AD002D0C0318022BA6
:100600002100B913031C062B2100B9172000AD01EE
:1006100022008C1E0D2B2000AD0A20002D0800307A
:1006200003190130AA00AD002D0C0318192B21006D
:10063000B911031C1D2B2100B91522000C1E4C2BD7
:1006400020002708803EAE0021002F08803E2000B9
:100650002E02031D2F2B21002E0820002902031833
:100660007B2B20002C0803194C2B2B082902AD00F2
:100670002808031C280A2702AA0021003108803E0E
:100680002000AE002A08803E2E02031D4A2B2D08B2
:1006900021003002031C7B2B22008C1ED92B210051
:1006A0002F08803E2000AE002708803E2E02031D4A
:1006B0005C2B290821002E0203187B2B20002C081C
:1006C0000319D92B2B082907AD002708AA002808F1
:1006D0000318280FAA072A08803EAE00210031081F
:1006E000803E20002E02031D792B210030082000BF
:1006F0002D020318D92B7930EA262000AA007708AA
:10070000AD002A0EF0392100B30020002D0E21008B
:10071000B2000F39B304B2060310B20DB30D0310CB
:10072000B20DB30D320E0F392000AD002100330E93
:100730002000AA00F039AD04AA062D082100B2025B
:1007400020002A08031C2A0A0319A82B2100B3023F
:100750007A30EA262000AA007708AD002A0EF03988
:100760002100B50020002D0E2100B4000F39B50482
:10077000B4060310B40DB50D0310B40DB50D340E51
:100780000F392000AD002100350E2000AA00F039FD
:10079000AD04AA062D082100B40220002A08031C7B
:1007A0002A0A0319D52B2100B50222000C128C1243
:1007B000932C22000C1A932C8C1A932C7230EA265C
:1007C0002000AA007708AD000310A81B0314A80C92
:1007D000AB0C0310A81B0314A80CAB0C2D082907A5
:1007E000AE002708AF002A0803182A0FAF072F080A
:1007F000803EB00021002F08803E20003002031D03
:10080000052C21002E0820002E020318422C200067
:100810002C080319222C2B082902AE002808031CDF
:10082000280A2702AF0021003108803E2000B000D6
:100830002F08803E3002031D202C2E08210030029C
:10084000031C422C21003208330403193F2C2000E2
:10085000AE012100B91F2E2C2000AE0A2100320863
:1008600001392000AF00B000AE062E0C03183A2C60
:100870002100B913031C3E2C2100B917932C220030
:100880000C16932C20002D082902AD002A08031C09
:100890002A0A2702AA0021002F08803E2000B1006A
:1008A0002A08803E3102031D582C2D0821002E02FB
:1008B0000318932C20002C080319742C2B08A9076B
:1008C00028080318280FA7072708803EB100210039
:1008D0003108803E20003102031D722C21003008B7
:1008E00020002902031C932C21003408350403192D
:1008F000912C2000A9012100B91D802C2000A90AFB
:100900002100340801392000A700AB00A906290CFA
:1009100003188C2C2100B911031C902C2100B9154F
:10092000932C22008C162000991FBF2C2000C6019A
:1009300023001E1F9D2C2000C60A20004608003000
:1009400003190130C900C600460C0318A92C210068
:10095000B910031CAD2C2100B91423001E1FB82CA4
:100960000130F60021003008F7003108CE25BF2CF9
:100970000130F60021002E08F7002F08CE252000B8
:1009800093106400892808002000A0007708A100C7
:100990002030A200A301A401A601210E0F39A50059
:1009A000200EA700F039A504A7060310A70CA50C7C
:1009B0003F30A505A7012508A9000310200CA500BC
:1009C000A7010310A70CA50C0310A70CA50C1F3042
:1009D0002505A100A0012108A500250AA1000230DB
:1009E000F70021088F31612784312000A000A70182
:1009F0002008F23EA0000E30A10027080318270FA0
:100A0000A1070230F70025088F31612785312000CA
:100A1000A700A8012708F23EA7000E30A50028086D
:100A20000318280FA507A801200029082802031C85
:100A30003C2D2708F6002508F70080308F31442729
:100A400085312000AB007708AA00AD002B08AC0070
:100A50000030AC1BFF30AE00AF002D08A2072C0801
:100A600003182C0FA3072F0803182F0FA4072E0815
:100A700003182E0FA6075F2D20002008F60021087E
:100A8000F70080308F31442785312000AB00770894
:100A9000AA00AD002B08AC000030AC1BFF30AE004C
:100AA000AF002D08A2072C0803182C0FA3072F084E
:100AB00003182F0FA4072E0803182E0FA6072000D7
:100AC000A80A40302802031C142D220E0F39A10061
:100AD000230EA000F039A104A006240EA500F039D1
:100AE000A004A506260EA700F039A504A706F0303D
:100AF000A719A7040310A71B0314A70CA50CA00C8F
:100B0000A10C0310A71B0314A70CA50CA00CA10C8F
:100B10002108A2002008A3002208F70023080800EB
:100B20002000A0007708A10021009D1421009D183D
:100B3000962D1D102000210E0F39A200200EA300BB
:100B4000F039A204A3060310A30CA20C0310A30CFB
:100B5000A20C2208A1022308031C230FA0022100DB
:100B60001C082000A200A3012208A400A601210065
:100B70001B082000A200A3012208A6042308A40445
:100B80002608A2002408A3002208A10723080318AE
:100B9000230FA0072108F700200808002000A0006C
:100BA0007708A1007608A2000314A01F0310031CFD
:100BB000E22D210039122000A109A009A10A031980
:100BC000A00AE42D21003916003020002204031968
:100BD000EC2D2100B912391120002008803E7D3E05
:100BE000031DF42DE8302102031C0A2E20002108E9
:100BF000A3002008A4000A30F5000030F600230806
:100C0000F70024088E31652686312000A000770881
:100C1000A100A20120002008803E803E031D122E6C
:100C200064302102031C462E20002108A300200866
:100C3000A400A60120002408803E803E031D222E31
:100C400064302302031C2B2E9C302000A307031CBE
:100C5000A403A60A1A2E20002308A1002408A0003D
:100C60000F30A6052608E53EA60007300318013E12
:100C7000A3002608F6002308F70080308F313227C2
:100C800086312000A4002100B600492EFF3021004B
:100C9000B60020002008803E803E031D512E0A3001
:100CA000210203185E2E20002208031D5E2E210063
:100CB00036082000A300FF3A0319942E20002108D3
:100CC000A3002008A400A60120002408803E803E46
:100CD000031D6C2E0A302302031C752EF6302000F3
:100CE000A307031CA403A60A642E20002308A10066
:100CF0002408A0002608E53EA60007300318013EA0
:100D0000A3002608F6002308F70080308F31322731
:100D100086312000A4002100B7002000220803191A
:100D2000972E21003710972EFF302100B7002000AA
:100D30002108A200E53EA10007300318013EA000F3
:100D40002108F6002008F70080308F3132278631E5
:100D50002000A2002100B80008002000A7007708AA
:100D6000A9007608A8002708EA262000AB0077082B
:100D7000AA002806031DC02E2B0829060319E92EF8
:100D800003102000270DAA0020002A08230091004C
:100D90002000280823009300151395131515200033
:100DA0008B13553023009600AA309600951420002E
:100DB0008B172300151123009518DB2E200012122B
:100DC00020002908A800A9012A08A700AA0A271CB0
:100DD000C42E08002000A000A101A2010310200DD4
:100DE000A300200023082300910015139513151468
:100DF00013082000A000A4012008A600A5012208D5
:100E0000A000A40120082504A10024082604A200B3
:100E10002308A000A30A201CF12E2108F7002208B5
:100E20000800AE30F6000E30F70080308F314427D6
:100E300087312000E4007708E300B030E5000E3091
:100E4000E60020006308E7006408E800FF30E307DD
:100E5000031CE4036708680403198E2F0430650738
:100E6000E700E801E80D6608E8076708F60068088B
:100E7000F70080308F31442787312000EA0077085F
:100E8000E9006508F6006608F70080308F314427D6
:100E900087312000EC00E8007708EB00E700023023
:100EA0006507E700E801E80D6608E8076708F6004F
:100EB0006808F70080308F31442787312000E80030
:100EC000EE007708E700ED0020006908ED006A08F1
:100ED000EE00FF30E907031CEA036D086E040319F6
:100EE000882F6B08F6006C08F70080308F313227AE
:100EF00087312000ED0067088400680885006D08D0
:100F00008000EB0A0319EC0AE70A0319E80A642FC8
:100F100006302000E5070318E60A212F8031422819
:100F20000800D134A134FF340034003432340034AA
:100F3000D134A1340D3400340034FA340034C934CF
:100F4000CD34FF34CE34FF3432340034C934CD34A0
:100F50000D34CE34FF343234003461341934FF346C
:100F60007034FE34783405346134C934FF340034CD
:100F70000034083400348534D134FF340034003474
:100F8000E7340334CD348534FF34003400343C344A
:100F90000034D1348534FF34003400343C34003420
:100FA000DD341934FF340034003401340034193492
:100FB000C134FF340034003401340034DD34D5341E
:100FC000FF3400340034063400340334B7340D34B5
:100FD0002534B134613441343734013421340034A0
:100FE0000034003400343C3400343C3400340034E9
:0A0FF00000340034003400340034F3
:1010000020008B1322000D082000DB0021000E08B9
:101010002000DC0022008D01D83021008E0003105A
:1010200021003E0D2000DD00DE0120008E1F1A2869
:101030002000DE0A20005D08DF005E08DD005F049E
:101040002100BE0003103E0D2000DD00DE01200067
:101050000E1E2C282000DE0A20005D08DF005E083E
:10106000DD005F042100BE0003103E0D2000DD0006
:10107000DE0120000E1F3E282000DE0A20005D0851
:10108000DF005E08DD005F042100BE0003103E0D9E
:101090002000DD00DE0120008E1D50282000DE0A29
:1010A00020005D08DF005E08DD005F042100BE0057
:1010B00020005B0822008D0020005C0821008E00CB
:1010C00020008B1721003D08031DBD030D302100BA
:1010D0003A020318632D08308A0072303A07031869
:1010E0008A0A82007F28E928D1283A2955297B29B4
:1010F0009F29C329CF29332ACC2AB62B042C883028
:1011000021003E052000DB00083A031D8E281B301D
:101110002100BD0001302100BA00652D0030210002
:101120003E040319652D7F308631EA268831200080
:10113000DC007708DB005C040319652D33302100E7
:101140003E052000DB00033A031DAA2802302100DF
:10115000BA00652D223021003E052000DB00023A56
:10116000031DB62803302100BA00652D113021007F
:101170003E052000DB00013A031DC5280D3021008B
:10118000BD0004302100BA00652D443021003E0529
:101190002000DB00403A031D652D07302100BA0016
:1011A000652D0030F6006A30F70000308531CE251D
:1011B0008831210036102100B9163915333021004D
:1011C0003E052000DB00333A0319652D2100BA01EA
:1011D000652D003021003D04031D19297F30863123
:1011E000EA2688312000DD007708DB00DE005E089B
:1011F000003003190130DB00DF00E001DF1BE003FA
:101200005F08F6006008F7007F308631AD2689312F
:1012100020005E080319152922000C100C128C12F4
:101220002800171120009310162901002100BA018F
:10123000652D883021003E052000DB00883A031927
:10124000652DDB0123001E1F27292000DB0A20005B
:101250005B08003003190130DE00DB005B0C031873
:10126000332923001E13031C372923001E172100D6
:10127000BA01652D76308631EA2689312000DE00FC
:101280007708DB000130F6005B08F7005E08853167
:10129000CE258931223021003E052000DB00223A94
:1012A0000319652D2100BA01652D7D308631EA26AE
:1012B00089312000DE007708DB00DF000030F70016
:1012C0005F087725063020005F020318702921008F
:1012D0003D08031D70291130BD0005302100BA0002
:1012E000113021003E052000DB00113A0319652D65
:1012F0002100BA01652D77308631EA268931200038
:10130000DE007708DB000030F6005B08F7005E08BF
:101310008531CE25893121003D08031D94290D30EA
:10132000BD0006302100BA00113021003E0520002A
:10133000DB00113A0319652D2100BA01652D7830C3
:101340008631EA2689312000DE007708DB00003094
:10135000F6005B08F7005E088531CE258931210053
:101360003D08031DB8290D30BD0004302100BA002E
:10137000113021003E052000DB00113A0319652DD4
:101380002100BA01652D0130F70021003B087725C7
:101390006E302100BD0008302100BA00652D0030FC
:1013A00021003D040319DC29883021003E0520007E
:1013B000DB00803A031DDF292100BA01652D2230B0
:1013C00021003E052000DB00203A031D042A0630E0
:1013D00021003B022000DB01031C5B145B08003092
:1013E00003190130DE005E080319F829DB01FC292E
:1013F00021003B0A2000DB0020005B082100BB002D
:1014000007302100BA00652D113021003E05200073
:10141000DB00103A031D252A21003B080030031988
:1014200001302000DB005B080319192A0630DB00BD
:101430001D2A21003B032000DB0020005B08210067
:10144000BB0007302100BA00652D443021003E0565
:101450002000DB00403A031D652D2100BC0109304E
:101460002100BA00652D21003916B916391506304C
:1014700021003B020318642A21003C1C462A8530C7
:101480002100B600D1302100B7004C2A6130210084
:10149000B60019302100B700031021003C0C2000D9
:1014A000DB00E53EDB0007300318013EDE005B0891
:1014B000F6005E08F70080308F3132278A31200035
:1014C000DF002100B800C52A0730F70021003C08E2
:1014D0008F3161278A312000DB00DE015B08913EFD
:1014E000DB005E0803185E0F073EDE005B08F600B7
:1014F0005E08F70080308F3132278A312000DF000C
:101500002100B6000730F70021003C088F31612729
:101510008A312000DB00DE015B08913EDB005E08C3
:1015200003185E0F073EDE00DB0A0319DE0A5B08C4
:10153000F6005E08F70080308F3132278A312000B4
:10154000DF002100B7000730F70021003C088F3191
:1015500061278A312000DB00DE015B08913EDB0061
:101560005E0803185E0F073EDE000230DB0703183B
:10157000DE0A5B08F6005E08F70080308F31322704
:101580008A312000DF002100B8006E302100BD004C
:101590000A302100BA00652D003021003D04031DF2
:1015A000D42A2100BA01652D883021003E05200093
:1015B000DB00803A031DE02A07302100BA00652DC8
:1015C000223021003E052000DB00203A031D372B8E
:1015D000063021003B020318072B123021003C0289
:1015E0002000DB01031C5B145B0800300319013091
:1015F000DE005E080319FE2ADB01022B21003C0AF3
:101600002000DB0020005B082100BC00332B0B30E6
:1016100021003C022000DB01031C5B145B0800304E
:1016200003190130DE005E080319182BDB011C2BA7
:1016300021003C0A2000DB0020005B082100BC00E8
:10164000053A031D332B7D308631EA268B3120008D
:10165000DE007708DB00DF0006305F02031C332B5F
:101660002100BC0ABC0A09302100BA00652D1130E6
:1016700021003E052000DB00103A031D862B0630BA
:1016800021003B0203185A2B21003C0800300319AB
:1016900001302000DB005B080319512B1230DB0006
:1016A000552B21003C032000DB0020005B082100BB
:1016B000BC00822B21003C080030031901302000BF
:1016C000DB005B080319672B0B30DB006B2B210061
:1016D0003C032000DB0020005B082100BC00063A30
:1016E000031D822B7D308631EA268B312000DE00FF
:1016F0007708DB00DF0006305F02031C822BFE3020
:101700002100BC0709302100BA00652D44302100BA
:101710003E052000DB00403A031D652D1330F70025
:1017200021003B088F3161278B312000DB00210035
:101730003C082000DB075B088631EA268B3120005D
:10174000E2007708E10020005B08F6002000610855
:10175000F7006208B6252000E2007708E1006E304D
:101760002100BD000B302100BA00652D063021009C
:101770003B020318D22B21003C1CC82B0030F60082
:1017800020006108F70062088531CE258B31FD2BE2
:101790000130F60020006108F70062088531CE258F
:1017A0008B31FD2B21003B08063A031DFD2B053034
:1017B00021003C020318E62B0130F60020006108EE
:1017C000F70062088531CE258B31FD2B0B302100CF
:1017D0003C020318F52B0030F60020006108F700EA
:1017E00062088531CE258B31FD2B20006108200059
:1017F000DB000030F7005B0877256E302100BD006C
:101800000C302100BA00652D1330F70021003B0891
:101810008F3161278C312000DB0021003C08200043
:10182000DB0721003D08031D182C2100BA01652D9E
:10183000883021003E052000DE00803A031D242C64
:1018400009302100BA00652D223021003E0520001C
:10185000DE00203A0319302C5E08223A031D842C46
:1018600020006208803E7D3E031D382CE830610276
:101870002000DE01031C5E145E08003003190130F5
:10188000DF005F08031D4E2C20006208803E843E6E
:10189000031D4C2C1830610203185A2C0A3020000A
:1018A00061072000DE00DF01DF0D2000620820005C
:1018B000DF07652C0130200061072000DE00DF011A
:1018C000DF0D200062082000DF0720005E082000F6
:1018D000E10020005F082000E20020005B08F60025
:1018E00020006108F7006208B6252000E2007708B2
:1018F000E1001F3028001D02031C802CF8309D07DA
:101900000B302100BA00652D113021003E0520006A
:10191000DE00103A0319902C5E08113A031DEB2CDF
:1019200020006208803E7D3E031D982CE930610254
:101930000318AD2C20006208803E843E031DA22CBB
:10194000193061022000DE01DE0D5E08003003194F
:101950000130DF005F080319BD2CF630200061075D
:101960002000DE00FF30DF00200062080318620A5A
:101970000319BC2C2000DF07CC2CFF3020006107AE
:101980002000DE00FF30DF00200062080318620A3A
:101990000319CC2C2000DF0720005E082000E100A6
:1019A00020005F082000E20020005B08F600200015
:1019B0006108F7006208B6252000E2007708E10020
:1019C0001F3028001D02031CE72CF8309D070B3048
:1019D0002100BA00652D443021003E052000DE00C4
:1019E000403A031D5F2D21003B08063A031D512D8F
:1019F00021003C080B3A031D512D0030F600003049
:101A0000F70077308631AD268D310030F60000309A
:101A1000F70078308631AD268D3120006208803E97
:101A2000803E031D152D063061020318512D200044
:101A300061082000DE005E0EF039DF0003105E0D4D
:101A4000E000DF075E085F07DE008631EA268D31A1
:101A50002000DF007708DE00F6005F08F700763030
:101A60008631AD268D31200061082000DE005E0E3B
:101A7000F039DF0003105E0DE000DF075E085F074E
:101A8000DE00DE0A5E088631EA268D312000DF00A6
:101A90007708DE005F04031D512D06302000E100B1
:101AA000E20120006108F6006208F70020005B08F0
:101AB0008631AD268D3109302100BA00652DFA300E
:101AC00028009D00652D2100BA0121003A08003050
:101AD000031901302000DB00DE005E0C0318722DBC
:101AE00020009913031C762D200099170800200070
:101AF000CD007708CC0021003916B916391506300B
:101B000020004D0203189D2D19302100B600DD3054
:101B10002100B70020004D08E53ECD000730031836
:101B2000013ECF004D08F6004F08F70080308F319E
:101B300032278D312100B800B52D003020004C0433
:101B40000319AC2D61302100B60009302100B70027
:101B5000C9302100B800B52DC9302100B600D13000
:101B60002100B700FF302100B80008002000D40099
:101B70007708D3007608D500723055020318E52D9A
:101B8000551CD32DE730F3000330F4000030F5008E
:101B90000030F6005308F700540831262000D40026
:101BA0007708D3002C2E7830F3000530F400703025
:101BB000F500FE30F60020005308F70054083126E7
:101BC0002000D4007708D3002C2E8E302000D507BB
:101BD0000730F70055088F3161278D312000D6007E
:101BE000D7015608913ED5000730D8005708031892
:101BF000570FD80703305507D600D701D70D58081F
:101C0000D7075608F6005708F70080308F31442771
:101C10008E312000DA007708D9000530D507031887
:101C2000D80A5508F6005808F70080308F3144274D
:101C30008E312000D7007708D600F3005708F40053
:101C40005908F5005A08F6005308F70054083126E1
:101C50002000D4007708D30020005308F700540870
:101C600008002000CD007708CC007608CF0075086A
:101C7000CE007408D1007308D0005108803ED20015
:101C80004D08803E5202031D472E4C085002031897
:101C90004E2E20004E08F7004F08642E20004D08FD
:101CA000803ED2004F08803E5202031D592E4E083E
:101CB0004C020318602E20005008F7005108642ED3
:101CC00020004C08F7004D0808002100A10077080B
:101CD000A0007608A3007508A200A401A5010130A8
:101CE000A600A70122082304031D7A2EFF30F70067
:101CF000FF30AD2E210022082308A800A81B872E44
:101D00000310A20DA30D0310A60DA70D7A2E21001E
:101D1000260827040319A92E23082102031D922E49
:101D200022082002031CA12E21002608A407270850
:101D30000318270FA5072208A0022308031C230F5E
:101D4000A10203102100A30CA20C0310A70CA60CE7
:101D5000872E21002408F700250808000B340034E2
:101D600003340034B934003401340034EF34073420
:101D7000AE34003402340034F1340734B03400346B
:101D800002340034F3340734B23400340234003403
:101D9000F5340734B434003402340034F7340734F3
:101DA000BA34003401340034F8340734BB3400341E
:101DB00001340034F9340734BC34003401340034C5
:101DC000FA340734BD34003401340034FB340734B2
:101DD000BE34003401340034FC340734BF340034E2
:101DE00001340034003400341A34FE349D34FE349F
:101DF000F234FE343334FF346934FF349834FF3422
:101E0000C334FF34EB34FF34103400343334003443
:101E1000553400347734003498340034B834003406
:101E2000D9340034FA3400341C3401343E340134E3
:101E30006234013487340134AF340134D93401348D
:101E4000073402343934023470340234B03402348A
:101E5000FB34023458340334D13403348234043430
:101E6000CA340534003A0319392F803A03193F2F39
:101E70000034760884007708850000080800770899
:101E80008A00760882000800003A03194C2F803A35
:101E90000319542FF7010034760884007708850071
:101EA0001200F700000808008F313F27F500F60FF9
:101EB000F703F70A8F313F27F4007508F70074081D
:101EC00008002100A9007708AA00AB010830AC0087
:101ED0002100291C6D2F2A08AB0721002908AD001D
:101EE00003102D0CA90003102A0DAD00AA002C0828
:101EF000AD002D03AC002C08031D682F2B08080033
:020000040001F9
:02000E00D40F0D
:02001000FF3AB5
:00000001FF
