:020000040000FA
:1000000000008631FB2EFF348A012000911C41281C
:10001000031022000D0D2000BD003D08031D122815
:100020001030BD0021008E0122008D0120003D080E
:10003000103A031928283D08203A03192D283D08B5
:10004000403A031932283D08803A031937283B28E3
:1000500021002C0822008E003B2821002D082200C0
:100060008E003B2821002E0822008E003B28210014
:100070002F0822008E0020003D0822008D00200065
:10008000911009002000C001C101FF30C2007F3083
:10009000C3006A30210099000E308C0022008C01D0
:1000A00021008D0122008D0121008E0104302300EA
:1000B0008C0021001E169E1723008E0105302000A3
:1000C0009C00FA309B0021009114723028009700A8
:1000D0007F30D4262000A7007708A900A800280CAC
:1000E0000318742828001711031C782828001715F6
:1000F000FA302800960037309E00FA309D00C0305C
:1001000020008B00093021009D002000931D9B28BA
:10011000883100208031280017199928FF302100EC
:10012000AF0003302100AC0059302100AE002100A7
:10013000AD00200093112000931C4E2D2000C00A1A
:100140000319C10A401CEA284208F70043082000AE
:10015000A0007708A10021009D1421009D18AD2862
:100160001D102000210E0F39A200200EA300F0392F
:10017000A204A3060310A30CA20C0310A30CA20C50
:100180002208A1022308031C230FA00221001C083F
:100190002000A200A3012208A400A60121001B0840
:1001A0002000A200A3012208A6042308A404260814
:1001B000A2002408A3002208A10723080318230F84
:1001C000A0072108F7002008C3007708C200093003
:1001D00021009D00200040080F39031D4C2D4208CE
:1001E000F70043082000A0007708A1002030A200FB
:1001F000A301A401A601210E0F39A500200EA7001E
:10020000F039A504A7060310A70CA50C3F30A505DF
:10021000A7012508A9000310200CA500A7010310C1
:10022000A70CA50C0310A70CA50C1F302505A100D9
:10023000A0012108A500250AA1000230F70021082D
:100240008E31072681312000A000A70120087B3EC7
:10025000A0008730A10027080318270FA10702304C
:10026000F70025088E31072681312000A700A8015C
:1002700027087B3EA7008730A50028080318280F11
:10028000A507A801200029082802031C6A292708BD
:10029000F6002508F70080308D31C225813120001D
:1002A000AB007708AA00AC002B08AD000030AD1BF6
:1002B000FF30BF00BE002C08A2072D0803182D0F29
:1002C000A3073E0803183E0FA4073F0803183F0F7B
:1002D000A6078D2920002008F6002108F7008030AD
:1002E0008D31C22581312000AB007708AA00AC0017
:1002F0002B08AD000030AD1BFF30BF00BE002C0846
:10030000A2072D0803182D0FA3073E0803183E0F60
:10031000A4073F0803183F0FA6072000A80A403093
:100320002802031C4229220E0F39A100230EA0002F
:10033000F039A104A006240EA500F039A004A506FA
:10034000260EA700F039A504A706F030A719A704C8
:100350000310A71B0314A70CA50CA00CA10C0310E1
:10036000A71B0314A70CA50CA00CA10C2108A2002C
:100370002008A3002208F7002308C5007708C4005E
:100380007430D4262000C7007708C6004408C8008F
:100390004508C900460848072000EA00200049082F
:1003A0002000EB00200047080318470A0319DA2948
:1003B0002000EB0720004308C400C50100304502BF
:1003C000031DE429F83044022000C601031C461432
:1003D0004608003003190130C7004708031D032AEF
:1003E00000304502031DF629093044022000C601F1
:1003F000C60D4608003003190130C4004408031D2F
:10040000032AC401062A01302000C4002000440849
:10041000C600460C03180E2A22000C10031C122AD8
:1004200022000C1422000C1C2C2A11302100AC00DC
:10043000CB302100AD00FF302100AE002100AF0025
:1004400022000C128C123C302000EE00EF013C30F8
:100450002000EC00ED014C2D7B30D4262000C6009E
:100460007708C400C700063047020318642B210038
:100470002F1320004008C4004108C600C701C8016E
:100480004808803E803E031D4F2A00304702031D6E
:100490004F2AEA304602031D4F2A60304402031CF3
:1004A000692B7B30D4262000AC007708AD00BF005C
:1004B00006303F020318602B7630D4262000AC00B3
:1004C0007708AD00BE007730D4262000AC00770856
:1004D000AD00AD0A0319AC0A09303E02031C722AB2
:1004E0000830BE001330F70020003F088E31072689
:1004F00082312000AE0003103E0DBF002E07BF006A
:100500003F0AAE00D4262000AF007708AE000230CC
:100510003F07B000D4262000B1007708B0002F08B4
:100520002C02031D952A2E082D02031CC32A20002D
:100530003008F6003108F7007230972620003E0898
:10054000083A0319AE2A03303F07B200D426200030
:10055000B3007708B2003304031DB52A0630F60055
:100560000030F7007B309726602B2000AD01AC01F6
:10057000BE0A3E08B200B3013208F6003308F700A5
:1005800076309726592B7A30D4262000B20077088F
:10059000BE0032040319592B3F08D4262000BE00A8
:1005A0007708BF002C0EF039B3002D0EB2000F39C2
:1005B000B304B2060310B20DB30D0310B20DB30DA8
:1005C0002030B400B501B601B701B80120002F08F2
:1005D0003302031DED2A2E083202031C0E2B2000CD
:1005E0002E08B2022F08031C2F0FB3023008B900E7
:1005F0003108BA000030BA1BFF30BC00BB0039081C
:10060000B4073A0803183A0FB5073B0803183B0F25
:10061000B6073C0803183C0FB707262B20003F08FD
:10062000B9003E08BA000030BA1BFF30BC00BB0066
:100630003908B4073A0803183A0FB5073B080318FE
:100640003B0FB6073C0803183C0FB7072000B80A59
:1006500040303802031CE62A340E0F39B400350E40
:10066000B500F039B404B506360EB600F039B5045D
:10067000B606370EB700F039B604B706F030B71932
:10068000B7040310B71B0314B70CB60CB50CB40CAD
:100690000310B71B0314B70CB60CB50CB40C34081C
:1006A000BF003508BE003F08F6003E08F700723074
:1006B000972620002D08F6002C08F70077309726A3
:1006C0002000C001C101692B21002F172000C001AB
:1006D000C1017530D4262000C6007708C400460446
:1006E0000319D92B7230D4262000C8007708C70020
:1006F00020006A082000C90020006B082000CA0002
:1007000047084902C7004808031C480A4A02C800B3
:100710000314C81F0310031C922BC709C809C70A7A
:100720000319C80A03142000C61F0310031CBB2BA7
:10073000C409C609C40A0319C60A4608803ECB008C
:100740004808803E4B02031DA72B470844022000A7
:10075000C901031C49144908003003190130CA00BB
:10076000C900490C0318B62B22000C10031CBA2B2D
:1007700022000C14D92B20004808803ECB004608EC
:10078000803E4B02031DC62B440847022000C901CE
:10079000031C49144908003003190130C400C90082
:1007A000490C0318D52B22000C10031CD92B220056
:1007B0000C147230D4262000A7007708A90020006E
:1007C0006C086D040319E82BFF30EC07031CED03E4
:1007D00020006E086F040319F12BFF30EE07031C95
:1007E000EF032000A80122000C1EF82B2000A80A0D
:1007F00020002808003003190130AB00A800280CA5
:100800000318042C2100AF13031C082C2100AF1780
:100810002000A80122008C1E0F2C2000A80A200016
:100820002808003003190130AB00A800280C031879
:100830001B2C2100AF11031C1F2C2100AF1522001F
:100840000C1E332C20002708803EAA0020006B08D5
:10085000803E20002A02031D312C20006A0820005F
:1008600029020318452C22008C1EA32C20006B08A3
:10087000803E2000AA002708803E2A02031D432C48
:10088000290820006A02031CA32C7830D4262000FB
:10089000AB007708A8002B0EF0392000ED002000F7
:1008A000280E2000EC000F39ED04EC060310EC0DCF
:1008B000ED0D0310EC0DED0D6C0E0F392000A800AE
:1008C00020006D0E2000AB00F039A804AB0628080C
:1008D0002000EC0220002B08031C2B0A0319722CA9
:1008E0002000ED027930D4262000AB007708A80064
:1008F0002B0EF0392000EF002000280E2000EE0023
:100900000F39EF04EE060310EE0DEF0D0310EE0DA0
:10091000EF0D6E0E0F392000A80020006F0E200092
:10092000AB00F039A804AB0628082000EE02200036
:100930002B08031C2B0A03199F2C2000EF02220016
:100940000C128C121B2D22000C1A1B2D8C1A1B2D25
:100950007330D4262000AB007708A8002907AA002E
:100960002708AC002B0803182B0FAC072C08803E7F
:10097000AD0020006B08803E20002D02031DC42C1A
:1009800020006A0820002A020318E62C20006C08C8
:100990006D040319E32C2000AA012100AF1FD22C03
:1009A0002000AA0A20006C0801392000AC00AD002C
:1009B000AA062A0C0318DE2C2100AF13031CE22C1C
:1009C0002100AF171B2D22000C161B2D200028081C
:1009D000A9022B08031C2B0FA70220006B08803EE6
:1009E0002000BF002708803E3F02031DFA2C290883
:1009F00020006A0203181B2D20006E086F040319E3
:100A0000192D2000A9012100AF1D082D2000A90AE1
:100A100020006E0801392000A700A800A906290CB3
:100A20000318142D2100AF11031C182D2100AF1540
:100A30001B2D22008C162000991F4C2D22000C1C0F
:100A40002E2D23001D1F2E2D61302100AC001130F2
:100A50002100AD00FF302100AE00352D0130F60041
:100A600020006A08F7006B0851252000C40123000C
:100A70001D1F3C2D2000C40A20004408003003192B
:100A80000130C700C400440C0318482D23001D1377
:100A9000031C4C2D23001D17200093106400852893
:100AA00008002000A9007708A8007608AB0003140E
:100AB000A91F0310031C652D21002F122000A80977
:100AC000A909A80A0319A90A672D21002F162000D9
:100AD0002B08013A031D702D2100AF122F15732D25
:100AE0002100AF162F1520002908803E7D3E031DF2
:100AF0007B2DE8302802031C8B2D20002808AA003B
:100B00002908AC002A08F7002C082E262000A9008E
:100B10007708A800AB0120002908803E803E031D15
:100B2000932D64302802031CC72D20002808AA003A
:100B30002908AC00AD0120002C08803E803E031D3A
:100B4000A32D64302A02031CAC2D9C302000AA0780
:100B5000031CAC03AD0A9B2D20002A08A8002C081A
:100B6000A9000F30AD052D08263EAD008E300318CC
:100B7000013EAA002D08F6002A08F70080308D31CA
:100B8000B02585312000AC002100AC00CA2DFF301B
:100B90002100AC0020002908803E803E031DD22D9C
:100BA0000A3028020318DF2D20002B08031DDF2D3B
:100BB00021002C082000AA00FF3A0319152E20005E
:100BC0002808AA002908AC00AD0120002C08803EAE
:100BD000803E031DED2D0A302A02031CF62DF6304F
:100BE0002000AA07031CAC03AD0AE52D20002A084B
:100BF000A8002C08A9002D08263EAD008E30031851
:100C0000013EAA002D08F6002A08F70080308D3139
:100C1000B02586312000AC002100AD0020002B085B
:100C20000319182E21002D10182EFF302100AD00C1
:100C300020002808AB00263EA8008E300318013E95
:100C4000A9002808F6002908F70080308D31B0256A
:100C500086312000AB002100AE0008002000A0007B
:100C60007708A1000310200CA200210CA3000310A0
:100C7000200CA400210CA6000310A40CA60C26082E
:100C8000A30724080318240FA207230E0F39A60078
:100C9000220EA400F039A604A4062608A3072408FF
:100CA0000318240FA2072208A600A4012608A30700
:100CB00024080318240FA2070310A20CA30C03108E
:100CC000A20CA30C0310A20CA30C0310230DA6006E
:100CD000220DA4000310A60DA40D0310A60DA40D53
:100CE0000310230DA500220DA7002508A60727083D
:100CF0000318270FA4072608A1022408031C240FA9
:100D0000A0020630A1070318A00A210E0F39A60081
:100D1000200EA400F039A604A4062608A307240880
:100D20000318240FA2072308F70022080800200058
:100D3000A7007708A9007608A8002708D426200075
:100D4000AB007708AA002806031DAA2E2B08290647
:100D50000319D32E03102000270DAA0020002A0813
:100D600023009100200028082300930015139513F9
:100D7000151520008B13553023009600AA309600DD
:100D8000951420008B172300151123009518C52EEC
:100D90002000121220002908A800A9012A08A70093
:100DA000AA0A271CAE2E08002000A000A101A20163
:100DB0000310200DA3002000230823009100151329
:100DC0009513151413082000A000A4012008A60004
:100DD000A5012208A000A40120082504A1002408E0
:100DE0002604A2002308A000A30A201CDB2E210851
:100DF000F70022080800BB30F6008730F70080308B
:100E00008D31C22587312100A1007708A000BD30B7
:100E1000A2008730A30021002008A4002108A5001B
:100E2000FF30A007031CA103240825040319782F11
:100E300004302207A400A501A50D2308A507240856
:100E4000F6002508F70080308D31C225873121005A
:100E5000A7007708A6002208F6002308F7008030D4
:100E60008D31C22587312100A900A5007708A8008F
:100E7000A40002302207A400A501A50D2308A507A0
:100E80002408F6002508F70080308D31C22587310F
:100E90002100A500AB007708A400AA0021002608C5
:100EA000AA002708AB00FF30A607031CA7032A08E7
:100EB0002B040319722F2808F6002908F700803048
:100EC0008D31B02587312100AA002408840025082F
:100ED00085002A088000A80A0319A90AA40A031990
:100EE000A50A4E2F06302100A2070318A30A0B2FD4
:100EF00080314228080000340034D534FD34C13438
:100F0000FE345934FF34CF34FF3430340034863467
:100F10000034D33400341A3401345C3401349C344A
:100F20000134DA34013416340234513402348C344E
:100F30000234C7340234023403343F3403347D3482
:100F40000334BD3403340134043448340434943459
:100F50000434E53404343F340534A4340534173400
:100F600006349E340634443407341E3408345D3469
:100F70000934AB340B340A34003403340034AF3456
:100F8000003401340034F93407346A340034023454
:100F90000034FB3407346C34003402340034FD3444
:100FA00007346E34003402340034FF340734B03474
:100FB00000340134003430340E34B13400340134A0
:100FC000003431340E34B23400340134003432345D
:100FD0000E34B33400340134003433340E34B434BA
:100FE00000340134003434340E34B5340034013468
:100FF0000034003400343C3400343C3400340034D9
:1010000020008B1322000D082000DD0021000E08B7
:101010002000DE0022008D01D83021008E00031058
:101020002100340D2000DF00E00120008E1F1A286F
:101030002000E00A20005F08E1006008DF00610492
:101040002100B4000310340D2000DF00E001200077
:101050000E1E2C282000E00A20005F08E100600836
:10106000DF0061042100B4000310340D2000DF0014
:10107000E00120000E1F3E282000E00A20005F084B
:10108000E1006008DF0061042100B4000310340DAA
:101090002000DF00E00120008E1D50282000E00A23
:1010A00020005F08E1006008DF0061042100B40057
:1010B00020005D0822008D0020005E0821008E00C7
:1010C00020008B1721003308031DB3030F302100CC
:1010D00030020318782C88308A00723030070318E9
:1010E0008A0A82008128D328EB2806292C29042C7F
:1010F000C02B282C342C782C782C5029E9298C2AC8
:10110000F42A8830210034052000DD00083A031D50
:1011100090281B302100B30006302100B0007A2C4B
:1011200000302100340403197A2C7F308631D42614
:1011300088312000DE007708DD005E0403197A2C78
:101140003330210034052000DD00033A031DAC28B4
:1011500001302100B0007A2C22302100340520001B
:10116000DD00023A031DB82802302100B0007A2CBD
:101170001130210034052000DD00013A031DC7288D
:101180000D302100B30003302100B0007A2C443030
:10119000210034052000DD00403A031D7A2C073081
:1011A0002100B0007A2C0030F6006C30F7000030DF
:1011B00085315125883121002C102100AF162F15C3
:1011C0003330210034052000DD00333A03197A2C36
:1011D0002100B0017A2C72308631D426883120006B
:1011E000DF007708DD000130F6005D08F7005F08DA
:1011F0008531512588312230210034052000DD0061
:10120000223A03197A2C2100B0017A2C7B308631E6
:10121000D42689312000DF007708DD00E0000030AF
:10122000F70060088C240630200060020318212992
:1012300021003308031D21291130B300043021009F
:10124000B0001130210034052000DD00113A0319EF
:101250007A2C2100B0017A2C76308631D42689315F
:101260002000DF007708DD000030F6005D08F700A1
:101270005F0885315125893121003308031D452937
:101280000D30B30005302100B000113021003405CD
:101290002000DD00113A03197A2C2100B0017A2CCC
:1012A00021002F16AF162F1506302100310203182A
:1012B00081292100321C632985302100AC00D13006
:1012C0002100AD00692961302100AC0019302100F6
:1012D000AD0003102100320C2000DD00263EDD00B1
:1012E0008E300318013EDF005D08F6005F08F7004E
:1012F00080308D31B02589312000E0002100AE0022
:10130000E2290430F700210032088E3107268931A6
:101310002000DD00DF015D08DF3EDD005F0803180F
:101320005F0F8D3EDF005D08F6005F08F70080303C
:101330008D31B02589312000E0002100AC0004305F
:10134000F700210032088E31072689312000DD00A8
:10135000DF015D08DF3EDD005F0803185F0F8D3E93
:10136000DF00DD0A0319DF0A5D08F6005F08F700F9
:1013700080308D31B02589312000E0002100AD00A2
:101380000430F700210032088E3107268931200011
:10139000DD00DF015D08DF3EDD005F0803185F0F41
:1013A0008D3EDF000230DD070318DF0A5D08F6001E
:1013B0005F08F70080308D31B02589312000E000D2
:1013C0002100AE006E302100B3000C302100B000CF
:1013D0007A2C003021003304031DF1292100B001D3
:1013E0007A2C8830210034052000DD00803A031D6E
:1013F000FD2907302100B0007A2C2230210034056D
:101400002000DD00203A031D1E2A2100B20A06300A
:10141000210031020318132A133021003202031C69
:101420001A2AB2011A2A0A3021003202031C3C2A6D
:10143000B2013C2A0B302100B0007A2C113021007F
:1014400034052000DD00103A031D5C2A2100B203A0
:101450000630210031020318352A133021003202F0
:10146000031C582A1230B200582A0A3021003202D6
:10147000031C3C2A0930B2007B308631D4268A31E5
:101480002000DF007708DD00E00006306002031C6A
:10149000582A21003208043A031D512AB20AB20A1E
:1014A000582A21003208053A031D582AFE30B20797
:1014B0000B302100B0007A2C44302100340520008C
:1014C000DD00403A031D7A2C1330F700210031086B
:1014D0008E3107268A312000DD00210032082000ED
:1014E000DD075D088631D4268A312000E4007708C4
:1014F000E30020005D08F60020006308F7006408A0
:10150000CC242000E4007708E3006E302100B30013
:101510000D302100B0007A2C063021003102031872
:10152000A82A2100321C9E2A0030F6002000630801
:10153000F7006408853151258A31ED2A0130F60023
:1015400020006308F7006408853151258A31ED2AAF
:101550000430F700210032088E3107268A3120003E
:10156000DD00DF015D08DF3EDD005F0803185F0F6F
:101570008D3EDF000330DD070318DF0A5D08F6004B
:101580005F08F70080308D31B0258A312000E000FF
:10159000043060020318D62A0130F60020006308E8
:1015A000F7006408853151258A31ED2A2000600852
:1015B000063A031DE42A200063082000DD00003005
:1015C000F7005D088C24ED2A0030F6002000630847
:1015D000F7006408853151258A316E302100B3004F
:1015E0000E302100B0007A2C1330F70021003108B2
:1015F0008E3107268A312000DD00210032082000CC
:10160000DD0721003308031D082B2100B0017A2CCF
:101610008830210034052000DF00803A031D142BA0
:101620000B302100B0007A2C2100B41E2A2B2000A0
:10163000E30A0319E40A6408803E7D3E031D222B61
:10164000E9306302031C402B09302000E307031834
:10165000E40A402B2100341E572BFF302000E30703
:10166000031CE4036408803E7D3E031D392BE930F2
:101670006302031C402BF7302000E307031CE40344
:1016800020005D08F60020006308F7006408CC2401
:101690002000E4007708E3001F3028001D02031C2F
:1016A000532BF8309D070D302100B0007A2C4430C8
:1016B000210034052000DF00403A031DBC2B21002F
:1016C0003108063A031DAE2B21003208093A031DEA
:1016D000AE2B0030F6000030F700763086319726CA
:1016E0008B310030F6000030F700773086319726D6
:1016F0008B3120006408803E803E031D812B063024
:1017000063020318AE2B200063082000DF001330B3
:10171000F7005F088E3107268B312000E00086310C
:10172000D4268B312000E1007708DF00F600610845
:10173000F7007230863197268B312000E00A60086E
:101740008631D4268B312000E0007708DF0060046A
:10175000031DAE2B06302000E300E40120006308E7
:10176000F6006408F70020005D08863197268B316B
:101770000B302100B0007A2CFA3028009D007A2C22
:10178000003021003304031DF92B7F308631D4262D
:101790008B312000DF007708DD00E00060080030BA
:1017A00003190130DD00E100E201E11BE203610801
:1017B000F6006208F7007F30863197268B312000D3
:1017C00060080319EC2B22000C100C128C1228005C
:1017D000171120009310F62B3C302000EE00EF0193
:1017E0003C302000EC00ED01280017152100B0016D
:1017F0007A2C8830210034052000DD00883A031956
:101800007A2C2100B0017A2C77308631D4268C31A5
:101810002000E0007708DD000030F6005D08F700EA
:101820006008853151258C3121003308031D1D2CA2
:101830000D30B30003302100B00011302100340519
:101840002000DD00113A03197A2C2100B0017A2C16
:101850000130F700210031088C246E302100B300E4
:1018600008302100B0007A2C003021003304031925
:10187000412C8830210034052000DD00803A031D12
:10188000442C2100B0017A2C2230210034052000A4
:10189000DD00203A031D562C2100B10A0730310229
:1018A0000318B10107302100B0007A2C113021005B
:1018B00034052000DD00103A031D6A2C2100B1031D
:1018C00007303102031C662C0630B10007302100BE
:1018D000B0007A2C4430210034052000DD00403A6D
:1018E000031D7A2C2100B2010B302100B0007A2CAC
:1018F0002100B00121003008003003190130200020
:10190000DD00E000600C0318872C20009913031CF5
:101910008B2C2000991708002000CD007708CC0000
:1019200021002F16AF162F15AF14063020004D02E0
:101930000318B32C19302100AC00DD302100AD00BC
:1019400020004D08263ECD008E300318013ECF000A
:101950004D08F6004F08F70080308D31B0258C31EE
:101960002100AE00CB2C003020004C040319C22C07
:1019700061302100AC0009302100AD00C9302100E8
:10198000AE00CB2CC9302100AC00D1302100AD001D
:10199000FF302100AE0008002000D4007708D300FB
:1019A0007608D500D601D701E730D8000330D9003A
:1019B000723055020318F22C5508DA00133020005B
:1019C0005A02031CE62CED30DA07DE2C20005A18F0
:1019D000682D7030D600FE30D700C430D8000930F2
:1019E000D900682D8E302000D5070430F700550847
:1019F0008E3107268C312000DA00DB015A08DF3EE9
:101A0000D5008D30DC005B0803185B0FDC0703306A
:101A1000D5070318DC0A5508F6005C08F70080308B
:101A20008D31B0258D312000DA005A08031D212D9B
:101A30007030D600FE30D700C430D8000930D9004D
:101A4000682D20005A08013A031D2E2D9C30D60027
:101A5000FF30D7006430D800D901682D20005A0823
:101A6000083A031D372D0130D800D901682D200018
:101A70005A08023A031D402D6430D800D901682D60
:101A800020005A08033A031D4E2DE030D600FC30EA
:101A9000D7002030D8000330D900682D20005A0824
:101AA000043A031D572D0830D800D901682D2000B5
:101AB0005A08053A031D602D3C30D800D901682D25
:101AC00020005A08063A031D682D0630D800D901B7
:101AD00020005808F3005908F4005608F50057088C
:101AE000F6005308F70054087C252000D40077083E
:101AF000D300F700540808002000CD007708CC0080
:101B00007608CF007508CE007408D1007308D000A5
:101B10005108803ED2004D08803E5202031D922D96
:101B20004C0850020318992D20004E08F7004F086A
:101B3000AF2D20004D08803ED2004F08803E52025B
:101B4000031DA42D4E084C020318AB2D2000500895
:101B5000F7005108AF2D20004C08F7004D08080091
:101B6000003A0319B72D803A0319BD2D00347608C9
:101B70008400770885000008080077088A00760846
:101B800082000800003A0319CA2D803A0319D22DA9
:101B9000F701003476088400770885001200F7000A
:101BA000000808008D31BD25F500F60FF703F70A90
:101BB0008D31BD25F4007508F70074080800613404
:101BC0001934FF340034D134A134FF340234C93421
:101BD000CD34FF34013461341134FF3403346134C3
:101BE000C934FF3404348534D134FF340734CD3460
:101BF0008534FF340534D1348534FF340534DD3485
:101C00001934FF340834DD34D534FF340634200071
:101C1000E5007708E600E7010830E8002000651CD1
:101C2000132E6608E70720006508E9000310690C19
:101C3000E5000310660DE900E6006808E9006903A5
:101C4000E8006808031D0E2E670808000334B73447
:101C50000D342534B1346134413437340134213406
:0A1C60000034003400340034003476
:020000040001F9
:02000E00D40F0D
:02001000FF3AB5
:00000001FF
