:020000040000FA
:1000000000008731732FFF348A012000911C4128A2
:10001000031022000D0D2000BF003F08031D122811
:100020001030BF0021008E0122008D0120003F080A
:10003000103A031928283F08203A03192D283F08B1
:10004000403A031932283F08803A031937283B28E1
:1000500021002D0822008E003B2821002E082200BE
:100060008E003B2821002F0822008E003B28210013
:10007000300822008E0020003F0822008D00200062
:10008000911009002000C001C101FF30C2007F3083
:10009000C300FF30C4007F30C5006A3021009900E2
:1000A0000E308C0022008C0121008D0122008D0178
:1000B00021008E01063023008C0021001E169E17A1
:1000C00023008E01053020009C00FA309B002100A7
:1000D00091147230280097007F304C272000A70031
:1000E0007708A900A800280C031878282800171101
:1000F000031C7C2828001715FA302800960037309A
:100100009E00FA309D00C03020008B000930210095
:100110009D002000931D9F288831002080312800F9
:1001200017199D28FF302100B00003302100AD00D9
:1001300059302100AF002100AE00200093112000B3
:10014000931CC02C2000C00A0319C10A401CB4280B
:100150004208F70043088F252000C3007708C2003B
:10016000053021009D00C02820004408F700450804
:100170008F252000C5007708C400093021009D00AC
:10018000200040080F39031DBE2C4208F700430829
:10019000C3242000C7007708C60074304C27200015
:1001A000C9007708C8004608CA004708CB004808BD
:1001B0004A072100A50020004B082100A6002000CE
:1001C00049080318490A0319E7282100A607200057
:1001D0004408F7004508C3242000C7007708C6007C
:1001E00075304C272000C9007708C8004608CA00AF
:1001F0004708CB0048084A072100A70020004B0809
:100200002100A800200049080318490A03190A29F7
:100210002100A80720004308C600C701003047029C
:10022000031D1429F83046022000C801031C48149D
:100230004808003003190130C9004908031D63292B
:1002400000304702031D2629093046022000C8015C
:10025000C80D4808003003190130C6004608031DC8
:1002600063297C304C272000C8007708C60048046A
:10027000031960294508C600C80100304802031D63
:100280004329F83046022000C901031C49144908DB
:10029000003003190130CA004A08031D63290030E9
:1002A0004802031D5529093046022000C901C90D25
:1002B0004908003003190130C6004608031D6329B0
:1002C0002000C601662901302000C6002000460833
:1002D000C900490C03186E2922000C10031C722956
:1002E00022000C1422000C1C8C2905302100AD00CA
:1002F000CB302100AE00FF302100AF002100B00064
:1003000022000C128C123C302100AB00AC013C30BE
:100310002100A900AA01BE2C7D304C272000C90075
:100320007708C600CA0006304A020318C42A210012
:10033000301320004008C6004108C900CA01CB01A3
:100340004B08803E803E031DAF2900304A02031D4A
:10035000AF29EA304902031DAF2960304602031C71
:10036000C92A7D304C272000AC007708AD00AE00D4
:1003700006302E020318C02A77304C272000AC002C
:100380007708AD00AF0078304C272000AC0077082C
:10039000AD00AD0A0319AC0A09302F02031CD229A3
:1003A0000830AF001330F70020002E088E316D2684
:1003B00081312000B00003102F0DAE003007AE00D9
:1003C0002E0AB0004C272000B1007708B0000230A0
:1003D0002E07B2004C272000B3007708B200310886
:1003E0002C02031DF52930082D02031C232A2000AE
:1003F0003208F6003308F70076300F2720002F0868
:10040000083A03190E2A03302E07B4004C272000A7
:10041000B5007708B4003504031D152A0630F60030
:100420000030F7007D300F27C02A2000AD01AC015D
:10043000AF0A2F08B400B5013408F6003508F700FC
:1004400077300F27B92A7B304C272000B40077087B
:10045000AF0034040319B92A2E084C272000AF003E
:100460007708AE002C0EF039B5002D0EB4000F3910
:10047000B504B4060310B40DB50D0310B40DB50DDD
:100480002030B600B701B801B901BA012000310827
:100490003502031D4D2A30083402031C6E2A200049
:1004A0003008B4023108031C310FB5023208BB001A
:1004B0003308BC000030BC1BFF30BE00BD003B0851
:1004C000B6073C0803183C0FB7073D0803183D0F5B
:1004D000B8073E0803183E0FB907862A20002E08E9
:1004E000BB002F08BC000030BC1BFF30BE00BD00AD
:1004F0003B08B6073C0803183C0FB7073D08031834
:100500003D0FB8073E0803183E0FB9072000BA0A8E
:1005100040303A02031C462A360E0F39B600370E19
:10052000B700F039B604B706380EB800F039B70492
:10053000B806390EB900F039B804B906F030B91967
:10054000B9040310B91B0314B90CB80CB70CB60CE2
:100550000310B91B0314B90CB80CB70CB60C360851
:10056000AE003708AF002E08F6002F08F7007630EF
:100570000F2720002D08F6002C08F70078300F27F1
:100580002000C001C101C92A210030172000C0018C
:10059000C10176304C272000A7007708A9007330EE
:1005A0004C272000A8007708AB007C304C272000A7
:1005B000AA007708AC00AD00210029082A0403191D
:1005C000E52AFF30A907031CAA0321002B082C04ED
:1005D0000319EE2AFF30AB07031CAC032000AC016B
:1005E00022000C1EF52A2000AC0A20002C08003046
:1005F00003190130AA00AC002C0C0318012B2100B8
:10060000B013031C052B2100B0172000AC01220001
:100610008C1E0C2B2000AC0A20002C080030031983
:100620000130AA00AC002C0C0318182B2100B011CB
:10063000031C1C2B2100B01522000C1E4B2B20008C
:100640002708803EAE0021002608803E20002E02B2
:10065000031D2E2B210025082000290203187A2BC8
:1006600020002D0803194B2B2B082902AC00280869
:10067000031C280A2702AA0021002808803E200027
:10068000AE002A08803E2E02031D492B2C082100B3
:100690002702031C7A2B22008C1ED82B210026084F
:1006A000803E2000AE002708803E2E02031D5B2BFB
:1006B00029082100250203187A2B20002D08031990
:1006C000D82B2B082907AC002708AA0028080318F4
:1006D000280FAA072A08803EAE0021002808803E85
:1006E00020002E02031D782B2100270820002C0259
:1006F0000318D82B79304C272000AA007708AC00CB
:100700002A0EF0392100AA0020002C0E2100A90099
:100710000F39AA04A9060310A90DAA0D0310A90DEB
:10072000AA0D290E0F392000AC0021002A0E20004E
:10073000AA00F039AC04AA062C082100A902200066
:100740002A08031C2A0A0319A72B2100AA027A30BF
:100750004C272000AA007708AC002A0EF0392100AF
:10076000AC0020002C0E2100AB000F39AC04AB060E
:100770000310AB0DAC0D0310AB0DAC0D2B0E0F39F0
:100780002000AC0021002C0E2000AA00F039AC049F
:10079000AA062C082100AB0220002A08031C2A0A02
:1007A0000319D42B2100AC0222000C128C12922CC3
:1007B00022000C1A922C8C1A922C72304C2720009A
:1007C000AA007708AC000310A81B0314A80CAB0CFC
:1007D0000310A81B0314A80CAB0C2C082907AE00AF
:1007E0002708AF002A0803182A0FAF072F08803EFA
:1007F000B00021002608803E20003002031D042C9A
:100800002100250820002E020318412C20002D086D
:100810000319212C2B082902AE002808031C280AE2
:100820002702AF0021002808803E2000B0002F08DA
:10083000803E3002031D1F2C2E0821002702031CBE
:10084000412C210029082A0403193E2C2000AE0166
:100850002100B01F2D2C2000AE0A210029080139EB
:100860002000AF00B000AE062E0C0318392C21007A
:10087000B013031C3D2C2100B017922C22000C1643
:10088000922C20002C082902AC002A08031C2A0AFA
:100890002702AA0021002608803E2000B1002A0875
:1008A000803E3102031D572C2C082100250203181D
:1008B000922C20002D080319732C2B08A907280857
:1008C0000318280FA7072708803EB1002100280839
:1008D000803E20003102031D712C210027082000DA
:1008E0002902031C922C21002B082C040319902CA4
:1008F0002000A9012100B01D7F2C2000A90A2100A1
:100900002B0801392000A700AB00A906290C031809
:100910008B2C2100B011031C8F2C2100B015922CC0
:1009200022008C162000991FBE2C2000C601230037
:100930001E1F9C2C2000C60A200046080030031908
:100940000130C900C600460C0318A82C2100B010C5
:10095000031CAC2C2100B01423001E1FB72C013047
:10096000F60021002708F7002808CD25BE2C01300D
:10097000F60021002508F7002608CD252000931059
:100980006400892808002000A0007708A10020301A
:10099000A200A301A401A601210E0F39A500200E7B
:1009A000A700F039A504A7060310A70CA50C3F303B
:1009B000A505A7012508A9000310200CA500A70183
:1009C0000310A70CA50C0310A70CA50C1F302505C0
:1009D000A100A0012108A500250AA1000230F7000E
:1009E00021088E316D2684312000A000A701200847
:1009F000FE3EA0000D30A10027080318270FA10715
:100A00000230F70025088E316D2685312000A700C1
:100A1000A8012708FE3EA7000D30A50028080318EE
:100A2000280FA507A801200029082802031C3B2D38
:100A30002708F6002508F70080308E3150268531D2
:100A40002000AB007708AA00AC002B08AD000030F6
:100A5000AD1BFF30AE00AF002C08A2072D08031815
:100A60002D0FA3072F0803182F0FA4072E08031814
:100A70002E0FA6075E2D20002008F6002108F700A3
:100A800080308E31502685312000AB007708AA00D7
:100A9000AC002B08AD000030AD1BFF30AE00AF0046
:100AA0002C08A2072D0803182D0FA3072F080318E1
:100AB0002F0FA4072E0803182E0FA6072000A80A40
:100AC00040302802031C132D220E0F39A100230EE3
:100AD000A000F039A104A006240EA500F039A0045E
:100AE000A506260EA700F039A504A706F030A71921
:100AF000A7040310A71B0314A70CA50CA00CA10CA2
:100B00000310A71B0314A70CA50CA00CA10C210813
:100B1000A2002008A3002208F700230808002000F4
:100B2000A0007708A10021009D1421009D18952D9B
:100B30001D102000210E0F39A200200EA300F03955
:100B4000A204A3060310A30CA20C0310A30CA20C76
:100B50002208A1022308031C230FA00221001C0865
:100B60002000A200A3012208A400A60121001B0866
:100B70002000A200A3012208A6042308A40426083A
:100B8000A2002408A3002208A10723080318230FAA
:100B9000A0072108F700200808002000A900770816
:100BA000A8007608AB000314A91F0310031CE12D55
:100BB000210030122000A809A909A80A0319A90ACE
:100BC000E32D21003016003020002B040319EB2DFB
:100BD0002100B012301120002908803E7D3E031D07
:100BE000F32DE8302802031C032E20002808AA0059
:100BF0002908AC002A08F7002C08A6262000A90026
:100C00007708A800AB0120002908803E803E031D24
:100C10000B2E64302802031C3F2E20002808AA0057
:100C20002908AC00AD0120002C08803E803E031D49
:100C30001B2E64302A02031C242E9C302000AA079D
:100C4000031CAC03AD0A132E20002A08A8002C08B0
:100C5000A9000F30AD052D08F33EAD000730031895
:100C6000013EAA002D08F6002A08F70080308E31D8
:100C70003E2686312000AC002100AD00422EFF3020
:100C80002100AD0020002908803E803E031D4A2E31
:100C90000A3028020318572E20002B08031D572E58
:100CA00021002D082000AA00FF3A03198D2E2000F4
:100CB0002808AA002908AC00AD0120002C08803EBD
:100CC000803E031D652E0A302A02031C6E2EF6306C
:100CD0002000AA07031CAC03AD0A5D2E20002A08E1
:100CE000A8002C08A9002D08F33EAD00073003181A
:100CF000013EAA002D08F6002A08F70080308E3148
:100D00003E2686312000AC002100AE0020002B08DA
:100D10000319902E21002E10902EFF302100AE00DE
:100D200020002808AB00F33EA80007300318013E5E
:100D3000A9002808F6002908F70080308E313E26E9
:100D400086312000AB002100AF0008002000A00089
:100D50007708A1000310200CA200210CA3000310AF
:100D6000200CA400210CA6000310A40CA60C26083D
:100D7000A30724080318240FA207230E0F39A60087
:100D8000220EA400F039A604A4062608A30724080E
:100D90000318240FA2072208A600A4012608A3070F
:100DA00024080318240FA2070310A20CA30C03109D
:100DB000A20CA30C0310A20CA30C0310230DA6007D
:100DC000220DA4000310A60DA40D0310A60DA40D62
:100DD0000310230DA500220DA7002508A60727084C
:100DE0000318270FA4072608A1022408031C240FB8
:100DF000A0020630A1070318A00A210E0F39A60091
:100E0000200EA400F039A604A4062608A30724088F
:100E10000318240FA2072308F70022080800200067
:100E2000A7007708A9007608A80027084C2720000B
:100E3000AB007708AA002806031D222F2B082906DD
:100E400003194B2F03102000270DAA0020002A08A9
:100E50002300910020002808230093001513951308
:100E6000151520008B13553023009600AA309600EC
:100E7000951420008B1723001511230095183D2F82
:100E80002000121220002908A800A9012A08A700A2
:100E9000AA0A271C262F08002000A000A101A201F9
:100EA0000310200DA3002000230823009100151338
:100EB0009513151413082000A000A4012008A60013
:100EC000A5012208A000A40120082504A1002408EF
:100ED0002604A2002308A000A30A201C532F2108E7
:100EE000F70022080800BA30F6000D30F700803015
:100EF0008E31502687312000E4007708E300BC30B3
:100F0000E5000D30E60020006308E7006408E80013
:100F1000FF30E307031CE403670868040319F02F9C
:100F200004306507E700E801E80D6608E807670890
:100F3000F6006808F70080308E3150268731200097
:100F4000EA007708E9006508F6006608F7008030D7
:100F50008E31502687312000EC00E8007708EB0046
:100F6000E70002306507E700E801E80D6608E807DA
:100F70006708F6006808F70080308E315026873108
:100F80002000E800EE007708E700ED002000690887
:100F9000ED006A08EE00FF30E907031CEA036D0864
:100FA0006E040319EA2F6B08F6006C08F700803016
:100FB0008E313E2687312000ED00670884006808E6
:100FC00085006D088000EB0A0319EC0AE70A031993
:100FD000E80AC62F06302000E5070318E60A832F2B
:100FE0008031422808000334B7340D342534B1343D
:100FF0006134413437340134213400340034003456
:1010000020008B1322000D082000DB0021000E08B9
:101010002000DC0022008D01D83021008E0003105A
:101020002100350D2000DD00DE0120008E1F1A2872
:101030002000DE0A20005D08DF005E08DD005F049E
:101040002100B5000310350D2000DD00DE01200079
:101050000E1E2C282000DE0A20005D08DF005E083E
:10106000DD005F042100B5000310350D2000DD0018
:10107000DE0120000E1F3E282000DE0A20005D0851
:10108000DF005E08DD005F042100B5000310350DB0
:101090002000DD00DE0120008E1D50282000DE0A29
:1010A00020005D08DF005E08DD005F042100B50060
:1010B00020005B0822008D0020005C0821008E00CB
:1010C00020008B1721003408031DB4030D302100CC
:1010D00031020318632C08308A007230310703187C
:1010E0008A0A82007F28E928D1283A2955297B29B4
:1010F0009F29C329CF29132AAC2A4F2B982B88303C
:10110000210035052000DB00083A031D8E281B3026
:101110002100B40001302100B100652C0030210015
:1011200035040319652C7F3087314C278831200026
:10113000DC007708DB005C040319652C33302100E8
:1011400035052000DB00033A031DAA2802302100E8
:10115000B100652C2230210035052000DB00023A69
:10116000031DB62803302100B100652C1130210089
:1011700035052000DB00013A031DC5280D30210094
:10118000B40004302100B100652C44302100350545
:101190002000DB00403A031D652C07302100B10020
:1011A000652C0030F6006A30F70000308531CD251F
:1011B000883121002D102100B01630153330210068
:1011C00035052000DB00333A0319652C2100B101FD
:1011D000652C003021003404031D19297F3087312C
:1011E0004C2788312000DD007708DB00DE005E0838
:1011F000003003190130DB00DF00E001DF1BE003FA
:101200005F08F6006008F7007F3087310F278931CB
:1012100020005E080319152922000C100C128C12F4
:101220002800171120009310162901002100B10198
:10123000652C8830210035052000DB00883A031931
:10124000652CDB0123001E1F27292000DB0A20005C
:101250005B08003003190130DE00DB005B0C031873
:10126000332923001E13031C372923001E172100D6
:10127000B101652C763087314C2789312000DE00A2
:101280007708DB000130F6005B08F7005E08853167
:10129000CD2589312230210035052000DB00223A9E
:1012A0000319652C2100B101652C7D3087314C2755
:1012B00089312000DE007708DB00DF000030F70016
:1012C0005F087724063020005F0203187029210090
:1012D0003408031D70291130B40005302100B1001D
:1012E0001130210035052000DB00113A0319652C6F
:1012F0002100B101652C773087314C2789312000DE
:10130000DE007708DB000030F6005B08F7005E08BF
:101310008531CD25893121003408031D94290D30F4
:10132000B40006302100B100113021003505200045
:10133000DB00113A0319652C2100B101652C7830CE
:1013400087314C2789312000DE007708DB00003030
:10135000F6005B08F7005E088531CD258931210054
:101360003408031DB8290D30B40004302100B10049
:101370001130210035052000DB00113A0319652CDE
:101380002100B101652C0130F700210032087724DB
:101390006E302100B40008302100B100652C00300F
:1013A000210034040319DC29883021003505200090
:1013B000DB00803A031DDF292100B101652C2230BA
:1013C000210035052000DB00203A031DF129210012
:1013D000B20A073032020318B20107302100B1000F
:1013E000652C1130210035052000DB00103A031D6B
:1013F000052A2100B20307303202031C012A0630FD
:10140000B20007302100B100652C443021003505C1
:101410002000DB00403A031D652C2100B301093098
:101420002100B100652C21003016B01630150630B1
:10143000210032020318442A2100331C262A853059
:101440002100AD00D1302100AE002C2A61302100F6
:10145000AD0019302100AE0003102100330C200034
:10146000DB00F33EDB0007300318013EDE005B08C3
:10147000F6005E08F70080308E313E268A3120006B
:10148000DF002100AF00A52A0730F7002100330854
:101490008E316D268A312000DB00DE015B08663E5E
:1014A000DB005E0803185E0F0D3EDE005B08F600F1
:1014B0005E08F70080308E313E268A312000DF0042
:1014C0002100AD000730F700210033088E316D2672
:1014D0008A312000DB00DE015B08663EDB005E082F
:1014E00003185E0F0D3EDE00DB0A0319DE0A5B08FF
:1014F000F6005E08F70080308E313E268A312000EB
:10150000DF002100AE000730F700210033088E31E4
:101510006D268A312000DB00DE015B08663EDB00C1
:101520005E0803185E0F0D3EDE000230DB07031875
:10153000DE0A5B08F6005E08F70080308E313E263A
:101540008A312000DF002100AF006E302100B4009E
:101550000A302100B100652C003021003404031D45
:10156000B42A2100B101652C883021003505200006
:10157000DB00803A031DC02A07302100B100652C32
:101580002230210035052000DB00203A031DE12A2E
:101590002100B30A0630210032020318D62A133084
:1015A00021003302031CDD2AB301DD2A0C302100A7
:1015B0003302031CFF2AB301FF2A09302100B100C6
:1015C000652C1130210035052000DB00103A031D89
:1015D0001F2B2100B3030630210032020318F82A22
:1015E000133021003302031C1B2B1230B3001B2BC2
:1015F0000C3021003302031CFF2A0B30B3007D3076
:1016000087314C278B312000DE007708DB00DF00BC
:1016100006305F02031C1B2B21003308053A031D13
:10162000142BB30AB30A1B2B21003308063A031DFF
:101630001B2BFE30B30709302100B100652C44306C
:10164000210035052000DB00403A031D652C1330D6
:10165000F700210032088E316D268B312000DB002F
:10166000210033082000DB075B0887314C278B31D2
:101670002000E2007708E10020005B08F60020006F
:101680006108F7006208B7242000E2007708E10053
:101690006E302100B4000B302100B100652C063003
:1016A0002100320203186B2B2100331C612B003008
:1016B000F60020006108F70062088531CD258B31E6
:1016C000912B0130F60020006108F7006208853197
:1016D000CD258B31912B05302100330203187A2B55
:1016E0000130F60020006108F70062088531CD2541
:1016F0008B31912B0B30210033020318892B0030E2
:10170000F60020006108F70062088531CD258B3195
:10171000912B200061082000DB000030F7005B08FF
:1017200077246E302100B4000C302100B100652C0C
:101730001330F700210032088E316D268B312000E6
:10174000DB00210033082000DB0721003408031DE3
:10175000AC2B2100B101652C88302100350520001B
:10176000DE00803A031DB82B09302100B100652C42
:101770002100B51ECE2B2000E10A0319E20A6208FF
:10178000803E7D3E031DC62BE9306102031CE42B25
:1017900009302000E1070318E20AE42B2100351E7E
:1017A000FB2BFF302000E107031CE2036208803EB0
:1017B0007D3E031DDD2BE9306102031CE42BF73075
:1017C0002000E107031CE20320005B08F600200074
:1017D0006108F7006208B7242000E2007708E10002
:1017E0001F3028001D02031CF72BF8309D070B301B
:1017F0002100B100652C4430210035052000DE00B9
:10180000403A031D5F2C21003208063A031D512C7B
:10181000210033080B3A031D512C0030F600003034
:10182000F700773087310F278C310030F600003019
:10183000F700783087310F278C3120006108063A95
:10184000031D262C6208003A0319512C2000610860
:101850002000DE001330F7005E088E316D268C31DB
:101860002000DF0087314C278C312000E000770812
:10187000DE00F6006008F700763087310F278C31E4
:101880002000DF0A5F0887314C278C312000DF0001
:101890007708DE005F04031D512C06302000E100B4
:1018A000E20120006108F6006208F70020005B08F2
:1018B00087310F278C3109302100B100652CFA30B7
:1018C00028009D00652C2100B10121003108003065
:1018D000031901302000DB00DE005E0C0318722CBF
:1018E00020009913031C762C200099170800200073
:1018F000CD007708CC0021003016B0163015B0149A
:10190000063020004D0203189E2C19302100AD0036
:10191000DD302100AE0020004D08F33ECD00073041
:101920000318013ECF004D08F6004F08F700803045
:101930008E313E268C312100AF00B62C00302000C5
:101940004C040319AD2C61302100AD000930210099
:10195000AE00C9302100AF00B62CC9302100AD0067
:10196000D1302100AE00FF302100AF000800200080
:10197000D4007708D3007608D500723055020318DA
:10198000E62C551CD42CE730F3000330F400003073
:10199000F5000030F6005308F70054083225200007
:1019A000D4007708D3002D2D7830F3000530F400F3
:1019B0007030F500FE30F60020005308F7005408A0
:1019C00032252000D4007708D3002D2D8E30200042
:1019D000D5070730F70055088E316D268C31200071
:1019E000D600D7015608663ED5000D30D8005708FE
:1019F0000318570FD80703305507D600D701D70D66
:101A00005808D7075608F6005708F70080308E317F
:101A100050268D312000DA007708D9000530D5072F
:101A20000318D80A5508F6005808F70080308E31A0
:101A300050268D312000D7007708D600F3005708D4
:101A4000F4005908F5005A08F6005308F700540846
:101A500032252000D4007708D30020005308F70077
:101A6000540808002000CD007708CC007608CF008D
:101A70007508CE007408D1007308D0005108803E6C
:101A8000D2004D08803E5202031D482D4C085002E2
:101A900003184F2D20004E08F7004F08652D200039
:101AA0004D08803ED2004F08803E5202031D5A2D41
:101AB0004E084C020318612D20005008F700510811
:101AC000652D20004C08F7004D080800D134A134E2
:101AD000FF340034003432340034D134A1340D34B6
:101AE00000340034FA340034C934CD34FF34CE34F9
:101AF000FF3432340034C934CD340D34CE34FF34A5
:101B00003234003461341934FF347034FE347834A4
:101B100005346134C934FF340034003408340034EF
:101B20008534D134FF3400340034E7340334CD3409
:101B30008534FF34003400343C340034D1348534EF
:101B4000FF34003400343C340034DD341934FF34C5
:101B500000340034013400341934C134FF3400340B
:101B6000003401340034DD34D534FF340034003423
:101B7000063400340B34003403340034B034003401
:101B800001340034FD340734A53400340234003409
:101B90008C340E34A7340034023400348E340E34C6
:101BA000A93400340234003490340E34AB340034A1
:101BB00002340034FF340734B134003401340034CB
:101BC00092340E34B23400340134003493340E3481
:101BD000B33400340134003494340E34B43400345B
:101BE0000134003495340E34B534003401340034FB
:101BF00096340E34B63400340134003400340034EA
:101C00001A34FE349D34FE34F234FE343334FF345F
:101C10006934FF349834FF34C334FF34EB34FF3479
:101C20001034003433340034553400347734003405
:101C300098340034B8340034D9340034FA340034E1
:101C40001C3401343E3401346234013487340134AD
:101C5000AF340134D9340134073402343934023416
:101C600070340234B0340234FB3402345834033458
:101C7000D134033482340434CA340534003A0319AD
:101C8000452E803A03194B2E0034760884007708DD
:101C900085000008080077088A007608820008009E
:101CA000003A0319582E803A0319602EF7010034C8
:101CB00076088400770885001200F7000008080005
:101CC0008E314B26F500F60FF703F70A8E314B26BF
:101CD000F4007508F700740808002100A0007708D8
:101CE000A100A2010830A3002100201C792E2108A8
:101CF000A20721002008A4000310240CA000031058
:101D0000210DA400A1002308A4002403A30023089C
:101D1000031D742E22080800003400343C340034C3
:0E1D20003C340034003400340034003400340D
:020000040001F9
:02000E00D40F0D
:02001000FF3AB5
:00000001FF
