:020000040000FA
:1000000000008D31A12DFF348A012000911C46286B
:10001000031022000D0D2000BD003D08031D122815
:100020001030BD0021008E0122008D0120003D080E
:10003000103A031928283D08203A03192D283D08B5
:10004000403A031932283D08803A031937283B28E3
:1000500021002F0822008E003B28210030082200BA
:100060008E003B282100310822008E003B28210011
:10007000350822008E0020003D0822008D0000304F
:1000800021003904031DB90320009110090020004C
:10009000BE01BF01FF30C0007F30C1000622093021
:1000A00021009D002000931D6828883100208031A8
:1000B000280017196628FF302100B5000330210001
:1000C000AF0059302100B1002100B0002000931191
:1000D000003021003904031D76281C30BF27200082
:1000E000C3007708C2002100B90057252000931CE7
:1000F000F9282000BE0A0319BF0A3E1C8A284008BE
:10010000F7004108C8212000C1007708C00009306D
:1001100021009D0020003E080F39031DF7284008EC
:10012000F7004108FC202000C3007708C200193006
:10013000BF272000C5007708C4004208C600430856
:10014000C700440846072100AB00200047082100F3
:10015000AC00200045080318450A0319B128210006
:10016000AC07322235252000991FEA282200131EF1
:10017000CF2820003E1ECF28210032082000C200D8
:100180002100AF00210033082000C2002100B00090
:10019000210034082000C2002100B100EA2822001A
:1001A000111EE32821003708093A0319DB28370814
:1001B000013A031DE3280030F60021002D08F70066
:1001C0002E083C26EA280130F60021002B08F70013
:1001D0002C083C26033020003F02031DF128E830A4
:1001E0003E02031CF72808302000BE00BF0120009B
:1001F00093106400522808002000A0007708A10096
:100200002030A200A301A401A601210E0F39A500F0
:10021000200EAC00F039A504AC060310AC0CA50C04
:100220003F30A505AC012508AE000310200CA50049
:10023000AC010310AC0CA50C0310AC0CA50C1F30CA
:100240002505A100A0012108A500250AA100023072
:10025000F70021088E31EC2681312000A000AC018E
:1002600020087D3EA0008E30A1002C0803182C0F22
:10027000A1070230F70025088E31EC2681312000DD
:10028000AC00AD012C087D3EAC008E30A5002D08E1
:1002900003182D0FA507AD0120002E082D02031C09
:1002A00074292C08F6002508F70080308E31CF26FF
:1002B00081312000AF007708B000B1002F08B200F4
:1002C0000030B21BFF30B300B4003108A20732087F
:1002D0000318320FA30734080318340FA407330898
:1002E0000318330FA607972920002008F6002108DD
:1002F000F70080308E31CF2681312000AF007708A3
:10030000B000B1002F08B2000030B21BFF30B300C4
:10031000B4003108A20732080318320FA3073408CB
:100320000318340FA40733080318330FA60720005F
:10033000AD0A40302D02031C4C29220E0F39A100BA
:10034000230EA000F039A104A006240EA500F03968
:10035000A004A506260EAC00F039A504AC06F030CA
:10036000AC19AC040310AC1B0314AC0CA50CA00C12
:10037000A10C0310AC1B0314AC0CA50CA00CA10C1D
:100380002108A2002008A3002208F7002308080083
:100390002000A0007708A10021009D1421009D18D5
:1003A000CE291D102000210E0F39A200200EA3001F
:1003B000F039A204A3060310A30CA20C0310A30C93
:1003C000A20C2208A1022308031C230FA002210073
:1003D0001C082000A200A3012208A400A6012100FD
:1003E0001B082000A200A3012208A6042308A404DD
:1003F0002608A2002408A3002208A1072308031846
:10040000230FA0072108F700200808006A30210008
:1004100099000C308C0022008C0124008C102100EB
:100420008D0122008D0121008E01043023008C00FB
:1004300021001E169E1723008E01053020009C000F
:10044000FA309B0021009114723028009700171594
:10045000FA30960037309E00FA309D00C030200000
:100460008B0008002200111D382A2100B701342D0D
:100470002200911C3C2A342D21002D082E04031942
:100480004E2A20004A08031D4C2A3C30CA00FF3087
:100490002100AD07031CAE032000CA030A3021006F
:1004A00037020318342D82308A005A303707031878
:1004B0008A0A8200642A982AAD2A122B3D2BA12B8E
:1004C000F92B222C662C8F2C2200111E712A003051
:1004D000BF272100AE007708AD0001302100B70032
:1004E000342D2200931C812A1F30BF272100A60033
:1004F0007708A5001D30BF272100AA007708A900B2
:10050000872A1D30BF272100A8007708A7001E30CA
:10051000BF272000AC007708AE00AD002D0C0318FB
:10052000932A22001110031C972A22001114342D43
:100530002100A701A80122009310111021002D080D
:100540002E04031D342D2030BF272100AE00770874
:10055000AD0002302100B700342D0130BF2721004B
:10056000A6007708A5000230BF272100A800770861
:10057000A7001B30BF272000AC007708AE00013970
:10058000AD00AE002E0C0318C72A22001110031C68
:10059000CB2A2200111421002C08803E2000AF003D
:1005A00021002608803E20002F02031DDB2A2100A7
:1005B000250821002B02031C0A2B220093140F3064
:1005C000BF272100AA007708A9001A30BF27200002
:1005D000AD007708AE000139B000AE002E0C031854
:1005E000F32A22001312031CF72A2200131661308B
:1005F0002100B200C9302100B300FF302100B40057
:100600002030BF272100AE007708AD000330210065
:10061000B700342D21002D082E04031D342D220097
:100620001115342D2200131A352B1A30BF27200044
:10063000B0007708AE000239031D0130B100AE00F2
:100640002E0C0318252B22009110031C292B2200AD
:1006500091142100B8012030BF272100AE00770897
:10066000AD0004302100B700342D21002D082E04E8
:10067000031D342D22001115342D03102100380DD7
:100680002000AE000330AE072E08BF272100A600D1
:100690007708A5000230BF272100A8007708A7002F
:1006A000220093101B30BF272000B1007708AE0056
:1006B0000239031D0130B200AE002E0C0318622B6C
:1006C00022001110031C662B2200111421002C089B
:1006D000803E2000AF0021002608803E20002F022F
:1006E000031D762B2100250821002B020318882BDF
:1006F00003102100380D2000AE000430AE072E0894
:10070000BF272000B2007708AE003204031D992BEA
:1007100003102100380D2000AE000430AE072E0873
:10072000BF272100AE007708AD0005302100B700DB
:10073000342D21002D082E04031D342D2200111507
:10074000342D220093140F30BF272100AA00770810
:10075000A9001B30BF272000B2007708AE00043983
:10076000031D0130B300AE002E0C0318B92B22007C
:100770001110031CBD2B2200111421002D082E0482
:10078000031D342D2100B80A063038020318D22B7D
:100790002030BF272100AE007708AD0004302100D3
:1007A000B700342D1A30BF272000B3007708AE0001
:1007B0000439031D0130B400AE002E0C0318E22BE7
:1007C00022001312031CE62B22001316C130210055
:1007D000B20083302100B300FF302100B40020308C
:1007E000BF272100AE007708AD0006302100B7001A
:1007F000342D2200131A1A2C1A30BF272000B400FF
:100800007708AE000839031D0130B500AE002E0C8C
:1008100003180C2C22009110031C102C22009114A0
:100820002030BF272100AE007708AD00073021003F
:10083000B700342D21002D082E04031D342D220075
:100840001115342D220093101B30BF272000B50056
:100850007708AE000839031D0130B600AE002E0C3B
:100860000318342C22001110031C382C2200111400
:100870000230BF272100A8007708A7001030BF274B
:100880002000B6007708AE0021002B082000B7003A
:1008900021002C082000AF0036082F02031D522C27
:1008A0002E083702031C5E2C1230BF272100AE0039
:1008B0007708AD0008302100B700342D21002D0845
:1008C0002E04031D342D22001115342D1130BF27A5
:1008D0002100A8007708A7001B30BF272000B60022
:1008E0007708AE001039031D0130B700AE002E0CA2
:1008F00003187C2C22001110031C802C22001114E0
:1009000021002D082E04031D342D1430BF27210093
:10091000AE007708AD0009302100B700342D220069
:1009200011101330BF272100A8007708A70020006E
:10093000AE01B701153020003707AF00BF272000F8
:10094000B8007708AF0021002D06031D012D2000FF
:10095000380821002E06031D012D3A3020004A02DE
:10096000031C012D1A30BF272000B8007708AF0004
:100970002E08B900BA010430B9070318BA0A3808BA
:10098000BC002F08BB003908B91BD02C003C031950
:10099000D72C2000BC0CBB0C013E031CC92CD72C4F
:1009A00003102000BB0DBC0D013E031CD12C200008
:1009B0003B080139AF00BB003B0C0318E12C2200BF
:1009C0001312031CE52C22001316D1302100B200B3
:1009D00085302100B30020002E0AAF00E63EAF00B4
:1009E00087300318013EB9002F08F6003908F700D8
:1009F00080308E31BD2684312000BA002100B40041
:100A0000092D2000B70A3708AE0004303702031C56
:100A10009A2C21002D082E04031D342D2100A7013E
:100A2000A8012200931011151A30BF272000B7002B
:100A30007708AE0037080139AF00AE002E0C03185E
:100A4000232D22001312031C272D220013164B30D6
:100A50002100B200D1302100B300FF302100B400EA
:100A6000220011122100B70108002200931C562D0C
:100A700021002C08803E2000A00021002608803E96
:100A800020002002031D482D2100250821002B02F3
:100A90000318532D210029082100A70021002A084E
:100AA0002100A800562D2100A701A801080021005F
:100AB0003608031D742D6430B60003142100A81FEE
:100AC0000310031C6E2D27082000A0002009200021
:100AD000C800C80A01302000C900742D2100270871
:100AE0002000C8002000C9012100B60322000C101C
:100AF0002100B5142200131E8F2D4C302100360228
:100B00002000A001A00D2008A100210C03188A2DAF
:100B100022000C10031C8E2D22000C14A32D220089
:100B2000911CA32D1119A32D210036080139200095
:100B3000A000A100210C03189F2D2100B510031C5B
:100B4000A32D2100B51422009118A82D111DB02D40
:100B500022008C120C1221008C1022008C100D2E01
:100B600020004808210036022000A001031C2014A8
:100B7000210036082000A100A2016430A10703185B
:100B8000A20A200048082000A300A4012208803EF9
:100B9000A6002408803E2602031DD02D2308210232
:100BA0002000A601031C2614200049080319ED2D7E
:100BB0002000260C0318DE2D22008C12031CE22DCF
:100BC00022008C162000200C0318E82D22000C12A5
:100BD000031CEC2D22000C16012E2000200C031803
:100BE000F32D22008C12031CF72D22008C162000FE
:100BF000260C0318FD2D22000C12031C012E2200CE
:100C00000C162200111C092E21008C1422008C10BD
:100C10000D2E21008C1022008C102000A00122003B
:100C20008C1E142E2000A00A20002008003003197A
:100C30000130A100A000200C0318202E2100B511C6
:100C4000031C242E2100B5152000A00122000C1E3B
:100C50002B2E2000A00A20002008003003190130AC
:100C6000A100A000200C0318372E2100B513031C8F
:100C70003B2E2100B51708002000AE007708AD001C
:100C80007608AF000314AE1F0310031C502E210082
:100C900035122000AD09AE09AD0A0319AE0A522E75
:100CA0002100351620002F08013A031D5B2E21007C
:100CB000B51235115E2E2100B516351520002E080F
:100CC000803E7D3E031D662EE8302D02031C762EED
:100CD00020002D08B0002E08B1003008F7003108C0
:100CE00019272000AE007708AD00AF0120002E08C4
:100CF000803E803E031D7E2E64302D02031CB22EEA
:100D000020002D08B0002E08B100B20120003108EB
:100D1000803E803E031D8E2E64303002031C972ED1
:100D20009C302000B007031CB103B20A862E2000BD
:100D30003008AD003108AE000F30B2053208E63E93
:100D4000B20087300318013EB0003208F6003008C8
:100D5000F70080308E31BD2686312000B1002100A1
:100D6000AF00B52EFF302100AF0020002E08803EDE
:100D7000803E031DBD2E0A302D020318CA2E20000E
:100D80002F08031DCA2E21002F082000B000FF3AB3
:100D90000319002F20002D08B0002E08B100B20169
:100DA00020003108803E803E031DD82E0A303002DC
:100DB000031CE12EF6302000B007031CB103B20A79
:100DC000D02E20003008AD003108AE003208E63EDB
:100DD000B20087300318013EB0003208F600300838
:100DE000F70080308E31BD2686312000B100210011
:100DF000B00020002F080319032F21003010032F0B
:100E0000FF302100B00020002D08AF00E63EAD000D
:100E100087300318013EAE002D08F6002E08F700BB
:100E200080308E31BD2687312000AF002100B10017
:100E300008002000A0007708A1000310200CA200E9
:100E4000210CA3000310200CA400210CA600031009
:100E5000A40CA60C2608A30724080318240FA20735
:100E6000230E0F39A600220EA400F039A604A40612
:100E70002608A30724080318240FA2072208A600A7
:100E8000A4012608A30724080318240FA2070310AF
:100E9000A20CA30C0310A20CA30C0310A20CA30C15
:100EA0000310230DA600220DA4000310A60DA40D0F
:100EB0000310A60DA40D0310230DA500220DAC00F8
:100EC0002508A6072C0803182C0FA4072608A10242
:100ED0002408031C240FA0020630A1070318A00A4F
:100EE000210E0F39A600200EA400F039A604A40696
:100EF0002608A30724080318240FA2072308F700D5
:100F0000220808002000A7007708A9007608A8009A
:100F10002708BF272000AB007708AA002806031D7A
:100F2000952F2B0829060319BE2F03102000270D2B
:100F3000AA0020002A08230091002000280823008E
:100F4000930015139513151520008B1355302300AE
:100F50009600AA309600951420008B1723001511D7
:100F600023009518B02F2000121220002908A80095
:100F7000A9012A08A700AA0A271C992F0800200007
:100F8000A000A101A2010310200DA300200023084E
:100F90002300910015139513151413082000A000C9
:100FA000A4012008A600A5012208A000A401200891
:100FB0002504A10024082604A2002308A000A30AF7
:100FC000201CC62F2108F700220808000334B7347C
:100FD0000D342534B1346134413437340134213493
:100FE0000034003400340034003400340034003461
:100FF0000034003400340034003400340034003451
:1010000020008B1322000D082000DC0021000E08B8
:101010002000DD0022008D01D83021008E00031059
:1010200021003D0D2000DE00DF0120008E1F1A2868
:101030002000DF0A20005E08E0005F08DE00600498
:101040002100BD0003103D0D2000DE00DF01200067
:101050000E1E2C282000DF0A20005E08E0005F083A
:10106000DE0060042100BD0003103D0D2000DE0005
:10107000DF0120000E1F3E282000DF0A20005E084E
:10108000E0005F08DE0060042100BD0003103D0D9C
:101090002000DE00DF0120008E1D50282000DF0A26
:1010A00020005E08E0005F08DE0060042100BD0053
:1010B00020005C0822008D0020005D0821008E00C9
:1010C00020008B1721003C08031DBC0309302100C0
:1010D0003A020318092D88308A0072303A07031843
:1010E0008A0A82007B28DC28F4283429132A302A33
:1010F0009A2A052B9C2B2200131E8A2821003D08CA
:101100000F39031D8A283D08F03903198A28220067
:1011100013120B2D883021003D052000DC00803AA1
:10112000031DA928DC012200911C98282000DC0A5C
:1011300020005C08003003190130DD00DC005C0C8D
:101140000318A42822009110031CA828220091143F
:101150000B2D333021003D052000DC00033A031D38
:10116000B52801302100BA000B2D443021003D0587
:101170002000DC00403A031DC12805302100BA00E0
:101180000B2D223021003D052000DC00223A031DFA
:10119000CD2802302100BA000B2D113021003D0571
:1011A0002000DC00113A031D0B2D14302100BC007F
:1011B00003302100BA000B2D0030F6006C30F70030
:1011C000003086313C26883121002F102100B516D1
:1011D0003515333021003D052000DC00333A03197A
:1011E0000B2D2100BA010B2D2200111D0329033004
:1011F0002100AF0059302100B0002100B100FF30C4
:101200002100B50029292200911C13291930210041
:10121000AF0061302100B00049302100B100FF3043
:101220002100B50029292200931C20290130F60055
:1012300021002508F700260886313C268931292916
:101240000030F60021002708F700280886313C26E8
:101250008931223021003D052000DC00223A0319AB
:101260000B2D2100BA010B2D2200111D4329033043
:101270002100AF0059302100B0002100B100FF3043
:101280002100B500F1292200111ED729FF302100CD
:10129000B1002100B50021003708013A031D57298C
:1012A00061302100AF0085302100B000F12921001C
:1012B0003708023A031D632961302100AF00C930AD
:1012C0002100B000F12921003708043A031D8B29C1
:1012D00019302100AF0083302100B0002100380810
:1012E0002000DC00DD01DC0A0319DD0A5C08E63EB3
:1012F000DC005D0803185D0F873EDD005C08F6002A
:101300005D08F70080308E31BD2689312000DE0077
:101310002100B100F12921003708053A031DB32946
:10132000FF302100AF0019302100B0002100380843
:101330002000DC00DD01DC0A0319DD0A5C08E63E62
:10134000DC005D0803185D0F873EDD005C08F600D9
:101350005D08F70080308E31BD2689312000DE0027
:101360002100B100F12921003708073A031DBF29E8
:10137000C1302100AF0083302100B000F1292100ED
:101380003708083A031DCB2991302100AF00C13046
:101390002100B000F12921003708093A031DF12985
:1013A000C1302100AF00FF302100B000F129220040
:1013B000931CE6294B302100AF00C9302100B0005A
:1013C000FF302100B1002100B500F1294B30210090
:1013D000AF0003302100B000FF302100B100210038
:1013E000B500003021003C04031D082A1430BC0065
:1013F00021003708013A0319052A3708053A03196D
:10140000052A08303702031C082A04302100BA00DC
:10141000113021003D052000DC00113A03190B2D8D
:101420002100BA010B2D0030F60021002D08F70035
:101430002E0886313C268A3121003C08031D252ACE
:101440001430BC0003302100BA00113021003D05EA
:101450002000DC00113A03190B2D2100BA010B2DDD
:1014600021003B082000D70021003516B5163515A0
:10147000B51421302000570203188A2A0430F700DF
:1014800057088E31EC268A312000D800D90158083F
:101490001D3ED7008D30DA0059080318590FDA07BE
:1014A0005708F6005A08F70080308E31BD268A3181
:1014B0002000DB002100AF00200058081D3ED800AE
:1014C00059080318590F8D3ED90001305807D7002D
:1014D000DA01DA0D5908DA075708F6005A08F7005A
:1014E00080308E31BD268A312000DB002100B00023
:1014F00002302000D8070318D90A5808F600590806
:10150000F70080308E31BD268A312000D7002100BF
:10151000B100932ADD302100AF0083302100B000FC
:10152000D5302100B1006E302100BC000630210012
:10153000BA000B2D003021003C040319A72A883083
:1015400021003D052000DC00803A031DAA2A21006D
:10155000BA010B2D223021003D052000DC00203A8D
:10156000031DBC2A2100BB0A22303B020318BB0129
:1015700005302100BA000B2D113021003D0520005F
:10158000DC00103A031DD02A2100BB0322303B02AD
:10159000031CCC2A2130BB0005302100BA000B2DE2
:1015A000443021003D052000DC00403A031D0B2D96
:1015B000213021003B020318E62A3B088731BF2770
:1015C0008A312000E2007708E100012B2200111D82
:1015D000ED2A2000E101E201012B2200111EF52A73
:1015E00001302000E100E201012B2200931CFD2AC2
:1015F00002302000E100E201012B03302000E10075
:10160000E20107302100BA000B2D213021003B02FE
:101610000318532B0430F7003B088E31EC268B3136
:101620002000DC00DD015C081D3EDC005D080318C5
:101630005D0F8D3EDD000330DC070318DD0A5C081A
:10164000F6005D08F70080308E31BD268B3120001A
:10165000DE005E080319302B5E08013A031D3A2BA9
:101660000130F60020006108F700620886313C2650
:101670008B31952B20005E08053A031D492B023063
:10168000F60020006108F700620886313C268B31A5
:10169000952B0030F60020006108F70062088631C3
:1016A0003C268B31952B21003516B5163515B51412
:1016B000200061086204031D662B03302100AF0087
:1016C00059302100B0002100B100952B20006108A5
:1016D000013A031D792B6208003A031D792B19305A
:1016E0002100AF00DD302100B000FF302100B1004B
:1016F000952B20006108023A031D8C2B6208003AEA
:10170000031D8C2BCD302100AF00C9302100B0006B
:10171000FF302100B100952BCD302100AF00033008
:101720002100B000FF302100B1006E302100BC006C
:1017300008302100BA000B2D003021003C04031DAD
:10174000A42B2100BA010B2D883021003D0520007B
:10175000DC00803A031DB02B05302100BA000B2DB0
:101760002100BD1EC62B2000E10A0319E20A62080F
:10177000803E7D3E031DBE2BE9306102031CDC2B45
:1017800009302000E1070318E20ADC2B21003D1E8E
:10179000BF2CFF302000E107031CE2036208803EFB
:1017A0007D3E031DD52BE9306102031CDC2BF73095
:1017B0002000E107031CE20321003B082000DC00BD
:1017C000DD01200061082000DE00F6005C08F70063
:1017D0005D082000CE007708CD007608CF00D0014C
:1017E000D101E730D2000330D3004F08213A031D66
:1017F000FD2B0330D200D3016B2C0430F700200006
:101800004F088E31EC268C312000D400D5015408CD
:101810001D3ECF008D30D60055080318550FD60752
:101820000330CF070318D60A4F08F6005608F70012
:1018300080308E31BD268C312000D4005408031D29
:101840002A2C7030D000FE30D1007830D200053024
:10185000D3006B2C20005408013A031D372CCE30E6
:10186000D000FF30D1003230D200D3016B2C2000E9
:101870005408033A031D402C0130D200D3016B2CD5
:1018800020005408043A031D4D2C3830D000FF309E
:10189000D100C830D200D3016B2C20005408053A87
:1018A000031D592C0A30D000D101C830D200D30119
:1018B0006B2C20005408063A031D632CFF30D20025
:1018C0000130D3006B2C20005408073A031D6B2C09
:1018D0001F30D200D30120005208F3005308F40057
:1018E0005008F5005108F6004D08F7004E0820009A
:1018F000D7007708D8007608D9007508DA00740890
:10190000DB007308CB005B08803ECC005708803EAC
:101910004C02031D8D2C58084B020318942C2000F8
:101920005A08F7005908AA2C20005708803ECC001E
:101930005908803E4C02031D9F2C5A085802031878
:10194000A62C20004B08F7005B08AA2C20005808A2
:10195000F70057082000CE007708CD00F7004E08AA
:101960002000E2007708E1001F3028001D02031C60
:10197000BB2CF8309D0707302100BA000B2D4430F6
:1019800021003D052000DC00403A031D052D2130DB
:1019900021003B020318D72C20006108F6006208E2
:1019A000F70021003B08873182278C31012D200070
:1019B00061086204031DE22C22001115111211109E
:1019C0009310012D20006108013A031DEF2C6208DD
:1019D000003A031DEF2C220011111116012D2000D9
:1019E0006108023A031DFD2C6208003A031DFD2C1C
:1019F0002200111111129314012D22001111111244
:101A0000931005302100BA000B2DFA3028009D00FC
:101A10000B2D2100BA0121003A08003003190130D2
:101A20002000DC00DD005D0C0318182D2000991348
:101A3000031C1C2D20009917080061348534FF34E5
:101A400002346134C934FF34003461340334FF3468
:101A500004341934C934B734003419348534B734F4
:101A600002341934C9340D340034193485340D343A
:101A700002341934C93425340034193485342534FA
:101A800002341934C934B134003419348534B134D2
:101A900002341934C9346134003419348534613462
:101AA00002341934C9344134003419348534413492
:101AB000023419340334FF3404349134C934FF340C
:101AC000003491340334FF34043491348534FF34CA
:101AD0000234C1340334FF340434C1348534FF3458
:101AE0000234D1348534B7340234D13485340D34E2
:101AF0000234D134853425340234D1348534B134C0
:101B00000234C934CD34FF3401341134193459341A
:101B1000063419345934FF34073419348534FF340A
:101B20000534CD340334FF340434CD341934FF3458
:101B30000334CD34613419340034113461348534C4
:101B400002342130F6008E30F70080308E31CF26FF
:101B50008D312000E4007708E3002330E5008E306B
:101B6000E60020006308E7006408E800FF30E307B0
:101B7000031CE4036708680403191E2E043065077C
:101B8000E700E801E80D6608E8076708F60068085E
:101B9000F70080308E31CF268D312000EA007708A3
:101BA000E9006508F6006608F70080308E31CF2620
:101BB0008D312000EC00E8007708EB00E7000230F0
:101BC0006507E700E801E80D6608E8076708F60022
:101BD0006808F70080308E31CF268D312000E80074
:101BE000EE007708E700ED0020006908ED006A08C4
:101BF000EE00FF30E907031CEA036D086E040319C9
:101C0000182E6B08F6006C08F70080308E31BD2668
:101C10008E312000ED0067088400680885006D089B
:101C20008000EB0A0319EC0AE70A0319E80AF42D0D
:101C300006302000E5070318E60AB12D8031472859
:101C400008000F34003403340034B5340034013458
:101C50000034F0340734A534003402340034F23454
:101C60000734A734003402340034F4340734A93480
:101C7000003402340034F6340734AB340034023418
:101C80000034FA340734B634003401340034FB3401
:101C90000734B734003401340034F8340734AD3439
:101CA000003402340034FC340734B83400340134D6
:101CB0000034FD340734B934003401340034FE34C8
:101CC0000734BA34003401340034FF340734BB34F1
:101CD0000034013400340B340F34BC34003401348C
:101CE00000340C340F34BD340034013400340D346E
:101CF0000F34BE34003401340034003400341A345C
:101D0000FE349D34FE34F234FE343334FF3469340F
:101D1000FF349834FF34C334FF34EB34FF341034D1
:101D2000003433340034553400347734003498347C
:101D30000034B8340034D9340034FA3400341C345C
:101D400001343E3401346234013487340134AF3419
:101D50000134D93401340734023439340234703454
:101D60000234B0340234FB34023458340334D134F6
:101D7000033482340434CA340534003A0319C42EBF
:101D8000803A0319CA2E003476088400770885004B
:101D90000008080077088A00760882000800003AE8
:101DA0000319D72E803A0319DF2EF7010034760885
:101DB0008400770885001200F700000808008E31C3
:101DC000CA26F500F60FF703F70A8E31CA26F4008B
:101DD0007508F700740808002100A0007708A1002A
:101DE000A2010830A3002100201CF82E2108A20720
:101DF00021002008A4000310240CA0000310210DD2
:101E0000A400A1002308A4002403A3002308031DA9
:0C1E1000F32E22080800003400340034D7
:020000040001F9
:02000E00D40F0D
:02001000FF3AB5
:00000001FF
