:020000040000FA
:10000000000086311C2EFF348A012700931C232810
:1000100020008B112700911021003908031917289F
:100020002100B81F172821008C1022008C140A30E0
:100030002100BA0005302000950021009512200013
:100040008B162700930120000B1D422821009516D6
:1000500020008B1221008C1422008C100310210030
:10006000B80D2100BB0A21003908031D3C282000DF
:100070008C1C3C2821003814270093019114200087
:100080008B150B112000911C8A28031022000D0DE6
:100090002000BA003A08031D4F281030BA00210092
:1000A0008E0122008D0120003A08103A03196528BC
:1000B0003A08203A03196A283A08403A03196F2887
:1000C0003A08803A0319742878282100340822005D
:1000D0008E0078282100350822008E007828210023
:1000E000360822008E0078282100370822008E0072
:1000F00020003A0822008D0021003A0803198228C6
:10010000BA0388282100BC012100BB012100B901EC
:1001100020009110090020008B1322000D08200000
:10012000E00021000E082000E10022008D01D830FF
:1001300021008E0003102100410D2000E200E301A8
:1001400020008E1FA5282000E30A20006208E4009A
:100150006308E20064042100C1000310410D200087
:10016000E200E30120000E1EB7282000E30A200071
:100170006208E4006308E20064042100C100031087
:10018000410D2000E200E30120000E1FC9282000DD
:10019000E30A20006208E4006308E200640421002E
:1001A000C1000310410D2000E200E30120008E1D7C
:1001B000DB282000E30A20006208E4006308E20074
:1001C00064042100C1002000600822008D0020008E
:1001D000610821008E0020008B1721004008031DBC
:1001E000C0030F3021003D020318E42C80308A0048
:1001F000FD303D0703188A0A82000C295E29762902
:100200008A29B029772C332C942CA02CE42CE42CB4
:10021000D4296D2A032B6B2B883021004105200047
:10022000E000083A031D1B291B302100C0000630E6
:100230002100BD00E62C0030210041040319E62C0A
:100240007F308F31AE2781312000E1007708E00058
:1002500061040319E62C3330210041052000E00041
:10026000033A031D372901302100BD00E62C22305E
:10027000210041052000E000023A031D432902301D
:100280002100BD00E62C1130210041052000E000D6
:10029000013A031D52290D302100C0000330210016
:1002A000BD00E62C4430210041052000E000403A2A
:1002B000031DE62C07302100BD00E62C0030F600BF
:1002C0006D30F70000308E312B2681312100341043
:1002D0002100B71637153330210041052000E0001A
:1002E000333A0319E62C2100BD01E62C0130F6005B
:1002F00020006D08F7006E088E312B2681312230E8
:10030000210041052000E000223A0319E62C2100DB
:10031000BD01E62C7B308F31AE2781312000E20019
:100320007708E000E3000030F7006308F8240630A7
:10033000200063020318A52921004008031DA529F8
:100340001130C00004302100BD00113021004105F2
:100350002000E000113A0319E62C2100BD01E62C33
:1003600076308F31AE2781312000E2007708E0003F
:100370000030F6006008F70062088E312B268131CC
:1003800021004008031DC9290D30C000053021009F
:10039000BD001130210041052000E000113A031991
:1003A000E62C2100BD01E62C21003716B7163715C3
:1003B000063021003E020318052A21003F1CE729D0
:1003C00085302100B400D1302100B500ED29613025
:1003D0002100B40019302100B500031021003F0CAA
:1003E0002000E0008C3EE00087300318013EE20070
:1003F0006008F6006208F700803087313E278131BF
:100400002000E3002100B600662A0430F700210036
:100410003F0887316D2782312000E000E20160084B
:10042000D53EE00062080318620F8F3EE2006008CC
:10043000F6006208F700803087313E2782312000C5
:10044000E3002100B4000430F70021003F088731A9
:100450006D2782312000E000E2016008D53EE00017
:1004600062080318620F8F3EE200E00A0319E20AF5
:100470006008F6006208F700803087313E2782313D
:100480002000E3002100B5000430F70021003F0800
:1004900087316D2782312000E000E2016008D53EFF
:1004A000E00062080318620F8F3EE2000230E007AE
:1004B0000318E20A6008F6006208F700803087310E
:1004C0003E2782312000E3002100B6006E3021007B
:1004D000C0000C302100BD00E62C0030210040049B
:1004E000031D752A2100BD01E62C8830210041053D
:1004F0002000E000803A031D812A07302100BD0062
:10050000E62C2230210041052000E000203A031DA6
:10051000A22A2100BF0A063021003E020318972AB2
:10052000133021003F02031C9E2ABF019E2A0A307D
:1005300021003F02031CC02ABF01C02A0B3021004A
:10054000BD00E62C1130210041052000E000103AEA
:10055000031DD32A2100BF03063021003E020318E9
:10056000B92A133021003F02031CCF2A1230BF00EA
:10057000CF2A0A3021003F02031CC02A0930BF00E5
:1005800021003F08043A031DC82ABF0ABF0ACF2A28
:1005900021003F08053A031DCF2AFE30BF070B306C
:1005A0002100BD00E62C4430210041052000E00080
:1005B000403A031DE62C1330F70021003E08873136
:1005C0006D2782312000E00021003F082000E00775
:1005D00060088F31AE2782312000E7007708E600FF
:1005E00020006008F60020006608F700670838253C
:1005F0002000E7007708E6006E302100C0000D30D3
:100600002100BD00E62C063021003E0203181F2BFE
:1006100021003F1C152B0030F60020006608F70073
:1006200067088E312B268331642B0130F6002000C1
:100630006608F70067088E312B268331642B04305F
:10064000F70021003F0887316D2783312000E0004B
:10065000E2016008D53EE00062080318620F8F3E99
:10066000E2000330E0070318E20A6008F6006208BF
:10067000F700803087313E2783312000E3000430CB
:10068000630203184D2B0130F60020006608F700C6
:1006900067088E312B268331642B20006308063ACD
:1006A000031D5B2B200066082000E0000030F700EF
:1006B0006008F824642B0030F60020006608F7007C
:1006C00067088E312B2683316E302100C0000E303A
:1006D0002100BD00E62C1330F70021003E088731D1
:1006E0006D2783312000E00021003F082000E00753
:1006F00021004008031D7F2B2100BD01E62C88301E
:10070000210041052000E200803A031D8B2B0B30B5
:100710002100BD00E62C2100C11EA12B2000E60A0D
:100720000319E70A6708803E7D3E031D992BE930D7
:100730006602031CB72B09302000E6070318E70AFE
:10074000B72B2100411ECE2BFF302000E607031CF3
:10075000E7036708803E7D3E031DB02BE93066024B
:10076000031CB72BF7302000E607031CE70320002B
:100770006008F60020006608F700670838252000AA
:10078000E7007708E6001F3028001D02031CCA2B73
:10079000F8309D070D302100BD00E62C44302100CB
:1007A00041052000E200403A031D2F2C21003E08A5
:1007B000063A031D212C21003F08093A031D212C74
:1007C0000030F6000030F70076308F31712783312A
:1007D0002100AE01AF0120006708803E803E031D6E
:1007E000F32B063066020318212C20006608200037
:1007F000E2001330F700620887316D278331200053
:10080000E3008F31AE2784312000EE007708ED0041
:100810006D08F6006E08F70072308F317127843151
:100820002000E30A63088F31AE2784312000E30003
:100830007708E2006304031D212C06302000E60047
:10084000E70120006608F6006708F700200060084E
:100850008F31712784310B302100BD00E62CFA3036
:1008600028009D00E62C003021004004031D6C2C64
:100870007F308F31AE2784312000E2007708E0001E
:10088000E3006308003003190130E000E400E501F3
:10089000E41BE5036408F6006508F7007F308F313C
:1008A000712784312000630803195F2C22000C108B
:1008B0000C128C122800171120009310692C3C3068
:1008C0002100B200B3013C302100B000B10128008A
:1008D00017152100BD01E62C8830210041052000BC
:1008E000E000883A0319E62C2100BD01E62C003017
:1008F000F60021002E08F7002F088E312B268431B8
:1009000021004008031D892C0D30C0000330210058
:10091000BD001130210041052000E000113A03190B
:10092000E62C2100BD01E62C0130F70021003E0835
:10093000F8246E302100C00008302100BD00E62CF4
:100940000030210040040319AD2C883021004105FE
:100950002000E000803A031DB02C2100BD01E62CF0
:100960002230210041052000E000203A031DC22C66
:100970002100BE0A07303E020318BE0107302100E5
:10098000BD00E62C1130210041052000E000103AA6
:10099000031DD62C2100BE0307303E02031CD22CBF
:1009A0000630BE0007302100BD00E62C4430210097
:1009B00041052000E000403A031DE62C2100BF0164
:1009C0000B302100BD00E62C2100BD0121003D08B7
:1009D0000030031901302000E000E300630C03182D
:1009E000F32C20009913031CF72C20009917080002
:1009F0002000D0007708CF0021003716B716371532
:100A0000B71406302000500203181F2D19302100A2
:100A1000B400DD302100B500200050088C3ED0002D
:100A200087300318013ED2005008F6005208F70044
:100A3000803087313E2785312100B600372D0030C8
:100A400020004F0403192E2D61302100B40009301D
:100A50002100B500C9302100B600372DC930210072
:100A6000B400D1302100B500FF302100B6000800ED
:100A70002000D7007708D6007608D800D901DA011F
:100A8000E730DB000330DC007230580203185E2DC3
:100A90005808DD00133020005D02031C522DED309C
:100AA000DD074A2D20005D18D42D7030D900FE30AE
:100AB000DA007830DB000530DC00D42D8E302000E9
:100AC000D8070430F700580887316D27853120009A
:100AD000DD00DE015D08D53ED8008F30DF005E0806
:100AE00003185E0FDF070330D8070318DF0A580822
:100AF000F6005F08F700803087313E2785312000FF
:100B0000DD005D08031D8D2D7030D900FE30DA0048
:100B10007830DB000530DC00D42D20005D08013A80
:100B2000031D9A2DCE30D900FF30DA003230DB00C1
:100B3000DC01D42D20005D08083A031DA32D0130EF
:100B4000DB00DC01D42D20005D08023A031DAC2D32
:100B50003230DB00DC01D42D20005D08033A031D98
:100B6000BA2D7030D900FE30DA009030DB00013051
:100B7000DC00D42D20005D08043A031DC32D08308D
:100B8000DB00DC01D42D20005D08053A031DCC2DCF
:100B90003C30DB00DC01D42D20005D08063A031D4B
:100BA000D42D0630DB00DC0120005B08F3005C087C
:100BB000F4005908F5005A08F6005608F7005708DF
:100BC000E8252000D7007708D600F700570808006E
:100BD0002000D0007708CF007608D2007508D10039
:100BE0007408D4007308D3005408803ED500500820
:100BF000803E5502031DFE2D4F0853020318052E9B
:100C000020005108F70052081B2E20005008803E9B
:100C1000D5005208803E5502031D102E51084F0288
:100C20000318172E20005308F70054081B2E20002D
:100C30004F08F700500808009C30F6008630F70097
:100C400080308731502786312100A1007708A0002D
:100C50009E30A2008630A30021002008A4002108B5
:100C6000A500FF30A007031CA103240825040319D5
:100C7000992E04302207A400A501A50D2308A5077D
:100C80002408F6002508F700803087315027863188
:100C90002100A7007708A6002208F6002308F70025
:100CA00080308731502786312100A900A5007708C0
:100CB000A800A40002302207A400A501A50D230866
:100CC000A5072408F6002508F70080308731502753
:100CD00086312100A500AB007708A400AA002100FE
:100CE0002608AA002708AB00FF30A607031CA703AD
:100CF0002A082B040319932E2808F6002908F70068
:100D0000803087313E2786312100AA0024088400E4
:100D1000250885002A088000A80A0319A90AA40A40
:100D20000319A50A6F2E06302100A2070318A30A93
:100D30002C2E88310028080010340034033400348D
:100D4000B734003401340034FD340F34AC34003493
:100D500002340034FF340F34B8340034013400342A
:100D60009C340734B9340034013400349D340734E2
:100D7000BA340034013400349E340734BB340034B8
:100D8000013400349F340734BC340034013400345F
:100D900096340734AE3400340234003498340734C7
:100DA000B0340034023400349A340734B23400349E
:100DB00002340034A0340734BD340034013400342C
:100DC000A1340734BE34003401340034A234073473
:100DD000BF34003401340034A3340734C034003449
:100DE00001340034A4340734C134003401340034F5
:100DF000A5340734C23400340134003400340034E4
:100E00001A34FE349D34FE34F234FE343334FF346D
:100E10006934FF349834FF34C334FF34EB34FF3487
:100E20001034003433340034553400347734003413
:100E300098340034B8340034D9340034FA340034EF
:100E40001C3401343E3401346234013487340134BB
:100E5000AF340134D9340134073402343934023424
:100E600070340234B0340234FB3402345834033466
:100E7000D134033482340434CA340534003A0319BB
:100E8000452F803A03194B2F0034760884007708E9
:100E900085000008080077088A00760882000800AC
:100EA000003A0319582F803A0319602FF7010034D4
:100EB00076088400770885001200F7000008080013
:100EC00087314B27F500F60FF703F70A87314B27D9
:100ED000F4007508F700740808002000E80077089F
:100EE000E900EA010830EB002000681C792F69084E
:100EF000EA0720006808EC0003106C0CE8000310FF
:100F0000690DEC00E9006B08EC006C03EB006B086A
:100F1000031D742F6A0808000334B7340D342534D8
:100F2000B134613441343734013421340034003475
:100F30003C3400343C340034003400340034003499
:0C0F40000034003400340034003400346D
:101000002000BE01BF01FF30C0007F30C1006A3048
:10101000210099000E308C0022008C0121008D01EE
:1010200022008D0121008E01043023008C0021005C
:101030001E169E1723008E01053020009C00FA30FA
:101040009B00210091147230280097007F30AE275A
:101050002000A7007708A900A800280C0318322850
:1010600028001711031C362828001715FA3028000D
:10107000960037309E00FA309D007230AE27200077
:10108000EE007708ED00C83020008B00023027000A
:1010900091009201093021009D0020008B1308303F
:1010A00021003B02031C6B29210038082000C200EC
:1010B0002100BB0120008B17200042082000AC005B
:1010C0002000CA062100B90121003C08031DB828F0
:1010D00020002C082000CB0020002C082000CA0093
:1010E0002000CC0120004B08203A03197B284B0834
:1010F000E03A031D7F2801302100BC005529200063
:101100002C08013A031D902821002C082000CD0056
:1011100021002D082000CE0005302100BC005529FB
:1011200020002C08023A031DA428AD0122000C1E49
:101130009B282000AD0A20002D082000CD00CE0104
:1011400005302100BC00552920002C08033A031D5E
:101150005529AD0122008C1EAF282000AD0A2000C9
:101160002D082000CD00CE0105302100BC005529FE
:1011700021003C08013A031DD52820002C0820003E
:10118000CC0020004B08E03A031DCA2802302100A1
:10119000BC00552920004C08AE272000CE0077085F
:1011A000CD0005302100BC00552921003C08023A41
:1011B0000319DE283C08033A031DF22820004D08DD
:1011C0002000BB00AD012C08BC00BD013C082D0473
:1011D0002000CD0020003D083B042000CE0021006F
:1011E000BC0A552921003C08043A031D1729200098
:1011F0004A08031D0E2920004D082000AC002000E5
:101200004E082000AD002C08F6002D08F700200045
:101210004C0871279A302100B8001129663021004E
:10122000B80001302100B9002100BC01552921007E
:101230003C08063A031D272920004D082100B8006C
:1012400001302100B90007302100BC0055292100E0
:101250003C08073A031D482920004C0820004B0693
:101260002000AC0020004E082000AD00BB012D087E
:10127000BC00AC0620004D082000AD002C0621006B
:10128000B80001302100B90008302100BC00552908
:1012900021003C08083A031D55299A302100B80066
:1012A00001302100B9002100BC0121003C08053AB1
:1012B00003195E293C08063A031D6B2920004E08DD
:1012C0002000AC00AD012C082100B8000130210045
:1012D000B9002100BC0A20008B17931D82298031A0
:1012E0008B208931280017198029FF302100B70091
:1012F00003302100B40059302100B6002100B500B0
:10130000200093112000931C282E2000BE0A0319F0
:10131000BF0A3E1CD1294008F70041082000A00068
:101320007708A10021009D1421009D1894291D100B
:101330002000210E0F39A200200EA300F039A204D4
:10134000A3060310A30CA20C0310A30CA20C2208EA
:10135000A1022308031C230FA00221001C08200067
:10136000A200A3012208A400A60121001B0820005E
:10137000A200A3012208A6042308A4042608A200B0
:101380002408A3002208A10723080318230FA0079D
:101390002108F7002008C1007708C00009302100AB
:1013A0009D0020003E080F39031D262E4008F7003F
:1013B00041082000A0007708A1002030A200A3016E
:1013C000A401A601210E0F39A500200EA700F039B7
:1013D000A504A7060310A70CA50C3F30A505A7017F
:1013E0002508A9000310200CA500A7010310A70CD5
:1013F000A50C0310A70CA50C1F302505A100A0010A
:101400002108A500250AA1000230F7002108873134
:101410006D278A312000A000A7012008FE3EA00011
:101420008630A10027080318270FA1070230F70014
:10143000250887316D278A312000A700A8012708D9
:10144000FE3EA7008630A50028080318280FA50730
:10145000A801200029082802031C512A2708F600A9
:101460002508F7008030873150278A312000AB00F3
:101470007708AA00AC002B08AD000030AD1BFF3090
:10148000BB00BC002C08A2072D0803182D0FA307D2
:101490003C0803183C0FA4073B0803183B0FA607A2
:1014A000742A20002008F6002108F70080308731D8
:1014B00050278A312000AB007708AA00AC002B0827
:1014C000AD000030AD1BFF30BB00BC002C08A207F4
:1014D0002D0803182D0FA3073C0803183C0FA40781
:1014E0003B0803183B0FA6072000A80A403028023B
:1014F000031C292A220E0F39A100230EA000F03967
:10150000A104A006240EA500F039A004A506260E0D
:10151000A700F039A504A706F030A719A704031007
:10152000A71B0314A70CA50CA00CA10C0310A71B50
:101530000314A70CA50CA00CA10C2108A2002008E4
:10154000A3002208F7002308C3007708C200743004
:10155000AE272000C5007708C4004208C600430833
:10156000C700440846072100AC00200047082100BE
:10157000AD00200045080318450A0319C12A2100BF
:10158000AD0720004108C200C30100304302031D23
:10159000CB2AF83042022000C401031C4414440842
:1015A000003003190130C5004508031DEA2A003048
:1015B0004302031DDD2A093042022000C401C40D8C
:1015C0004408003003190130C2004208031DEA2A12
:1015D000C201ED2A01302000C20020004208C400F0
:1015E000440C0318F52A22000C10031CF92A2200CF
:1015F0000C1422000C1C132B11302100B400CB3032
:101600002100B500FF302100B6002100B700220004
:101610000C128C123C302100B200B3013C3021008E
:10162000B000B101262E7B30AE272000C400770821
:10163000C200C5000630450203183E2C21003713B6
:10164000033020003F02031D272BE8303E02031C1D
:10165000432C7B30AE272000AC007708AD00BB00E8
:1016600006303B020318392C7630AE272000AC0040
:101670007708AD00BC002100AE0A0319AF0A09309B
:1016800020003C02031C462B0830BC001330F7003E
:1016900020003B0887316D278B312000AD000310FF
:1016A0003C0DBB00AD072D0AAC00AE272000BB00EF
:1016B0007708AC0002302D07BD00AE272000AE0039
:1016C0007708BD003B0821002F02031D6B2B200073
:1016D0002C0821002E02031CA22B20003D08200014
:1016E000ED0020002E082000EE0020003D08F6004E
:1016F0002E08F7007230712720003C08083A0319C1
:101700008C2B03302D07AF00AE272000B0007708E8
:10171000AF003004031D932B0630F6000030F700B5
:101720007B307127392C2100AE01AF012000BC0AAB
:101730003C08AF00B0012F08F6003008F700763003
:101740007127392C7A30AE272000AF007708BC0013
:101750002F040319392C2D08AE272000BC00770870
:10176000AD0021002F0EF0392000B00021002E0E18
:101770002000AF000F39B004AF060310AF0DB00D5D
:101780000310AF0DB00D2030B100B201B301B401B0
:10179000B50120003B083002031DD02B2C082F027E
:1017A000031CF12B20002C08AF023B08031C3B0F4D
:1017B000B0023D08B6002E08B7000030B71BFF305E
:1017C000B900B8003608B10737080318370FB20759
:1017D00038080318380FB30739080318390FB4074E
:1017E000092C20002D08B6003C08B7000030B71BBC
:1017F000FF30B900B8003608B10737080318370FB3
:10180000B20738080318380FB30739080318390F1F
:10181000B4072000B50A40303502031CC92B310E35
:101820000F39B100320EB200F039B104B206330EF6
:10183000B300F039B204B306340EB400F039B30487
:10184000B406F030B419B4040310B41B0314B40C80
:10185000B30CB20CB10C0310B41B0314B40CB30CD6
:10186000B20CB10C31082000ED002000320820003D
:10187000EE0008302000BE00BF01432C21003717C6
:101880002000BE01BF017530AE272000C4007708DC
:10189000C20044040319AB2C20006D0821002C0267
:1018A0002000C50020006E08031C6E0A21002D02D6
:1018B0002000C6000314C61F0310031C642CC509B6
:1018C000C609C50A0319C60A03142000C41F031061
:1018D000031C8D2CC209C409C20A0319C40A440896
:1018E000803EC8004608803E4802031D792C45080A
:1018F00042022000C701031C4714470800300319A7
:101900000130C800C700470C0318882C22000C10B7
:10191000031C8C2C22000C14AB2C20004608803EAB
:10192000C9004408803E4902031D982C4208450224
:101930002000C701031C4714470800300319013079
:10194000C200C700470C0318A72C22000C10031C70
:10195000AB2C22000C142100300831040319B42CE4
:10196000FF30B007031CB103210032083304031910
:10197000BD2CFF30B207031CB3032000A7012200D7
:101980000C1EC42C2000A70A2000270800300319D1
:101990000130A900A700270C0318D02C2100B71391
:1019A000031CD42C2100B7172000A70122008C1E95
:1019B000DB2C2000A70A2000270800300319013083
:1019C000A900A700270C0318E72C2100B711031C5E
:1019D000EB2C2100B71522000C1E002D20006E08F4
:1019E000803E2000A80021002D08803E2000280213
:1019F000031DFE2C21002C0820006D020318152D5C
:101A000022008C1E732D21002D08803E2000A8008E
:101A100020006E08803E20002802031D132D2000A8
:101A20006D0821002C02031C732D7830AE27200096
:101A3000A9007708A700290EF0392100B100200085
:101A4000270E2100B0000F39B104B0060310B00D0D
:101A5000B10D0310B00DB10D300E0F392000A700ED
:101A60002100310E2000A900F039A704A90627089B
:101A70002100B00220002908031C290A0319422D65
:101A80002100B1027930AE272000A9007708A70015
:101A9000290EF0392100B3002000270E2100B200EA
:101AA0000F39B304B2060310B20DB30D0310B20D1B
:101AB000B30D320E0F392000A7002100330E200095
:101AC000A900F039A704A90627082100B2022000C6
:101AD0002908031C290A03196F2D2100B3022200D3
:101AE0000C128C12F52D22000C1AF52D8C1AF52DE6
:101AF0007330AE272000A9007708A70020006D07EB
:101B00002000A80020006E082000AB002908031860
:101B1000290FAB072B08803EAA0021002D08803E2C
:101B200020002A02031D982D21002C0820002802E5
:101B30000318BA2D2100300831040319B72D2000F5
:101B4000A8012100B71FA62D2000A80A21003008F7
:101B500001392000AB00AA00A806280C0318B22DFA
:101B60002100B713031CB62D2100B717F52D220055
:101B70000C16F52D2000270820006D022000A7007C
:101B80002908031C290A20006E022000A900210058
:101B90002D08803E2000AC002908803E2C02031D49
:101BA000D42D270821002C020318F52D210032081E
:101BB00033040319F32D2000A7012100B71DE22DE6
:101BC0002000A70A2100320801392000A900A8003E
:101BD000A706270C0318EE2D2100B711031CF22DC8
:101BE0002100B715F52D22008C162000991F262EF6
:101BF00022000C1C082E23001D1F082E613021001E
:101C0000B40011302100B500FF302100B6000F2EC6
:101C10000130F60021002C08F7002D082B262000AB
:101C2000C20123001D1F162E2000C20A20004208F8
:101C3000003003190130C500C200420C0318222EE7
:101C400023001D13031C262E23001D1720009310B4
:101C500064004D2808002000A9007708A800760835
:101C6000AB000314A91F0310031C3F2E21003712E1
:101C70002000A809A909A80A0319A90A412E2100D0
:101C8000371620002B08013A031D4A2E2100B712F7
:101C900037114D2E2100B716371520002908803E38
:101CA0007D3E031D552EE8302802031C652E2000C2
:101CB0002808AA002908AC002A08F7002C080827E1
:101CC0002000A9007708A800AB0120002908803E69
:101CD000803E031D6D2E64302802031CA12E2000BF
:101CE0002808AA002908AC00AD0120002C08803E7D
:101CF000803E031D7D2E64302A02031C862E9C30FC
:101D00002000AA07031CAC03AD0A752E20002A0888
:101D1000A8002C08A9000F30AD052D088C3EAD00A1
:101D200087300318013EAA002D08F6002A08F700A4
:101D3000803087313E278E312000AC002100B40076
:101D4000A42EFF302100B40020002908803E803EF0
:101D5000031DAC2E0A3028020318B92E20002B08D0
:101D6000031DB92E210034082000AA00FF3A0319F0
:101D7000EF2E20002808AA002908AC00AD012000A1
:101D80002C08803E803E031DC72E0A302A02031C09
:101D9000D02EF6302000AA07031CAC03AD0ABF2EDC
:101DA00020002A08A8002C08A9002D088C3EAD00B0
:101DB00087300318013EAA002D08F6002A08F70014
:101DC000803087313E278E312000AC002100B500E5
:101DD00020002B080319F22E21003510F22EFF30BF
:101DE0002100B50020002808AB008C3EA8008730F9
:101DF0000318013EA9002808F6002908F7008030E2
:101E000087313E278F312000AB002100B60008004B
:101E10002000A0007708A1000310200CA200210CD4
:101E2000A3000310200CA400210CA6000310A40C96
:101E3000A60C2608A30724080318240FA207230EC4
:101E40000F39A600220EA400F039A604A406260825
:101E5000A30724080318240FA2072208A600A40140
:101E60002608A30724080318240FA2070310A20CB6
:101E7000A30C0310A20CA30C0310A20CA30C0310C0
:101E8000230DA600220DA4000310A60DA40D03101F
:101E9000A60DA40D0310230DA500220DA7002508F3
:101EA000A60727080318270FA4072608A10224085D
:101EB000031C240FA0020630A1070318A00A210E5C
:101EC0000F39A600200EA400F039A604A4062608A7
:101ED000A30724080318240FA2072308F7002208E9
:101EE00008002000A7007708A9007608A8002708A6
:101EF000AE272000AB007708AA002806031D842F18
:101F00002B0829060319AD2F03102000270DAA0066
:101F100020002A08230091002000280823009300B5
:101F200015139513151520008B13553023009600BB
:101F3000AA309600951420008B172300151123005A
:101F400095189F2F2000121220002908A800A9012F
:101F50002A08A700AA0A271C882F08002000A00032
:101F6000A101A2010310200DA300200023082300DB
:101F7000910015139513151413082000A000A40157
:101F80002008A600A5012208A000A401200825041D
:101F9000A10024082604A2002308A000A30A201CF4
:101FA000B52F2108F7002208080061341934FF34E6
:101FB0000034D134A134FF340234C934CD34FF3479
:101FC000013461341134FF3403346134C934FF34D3
:101FD00004348534D134FF340734CD348534FF34B0
:101FE0000534D1348534FF340534DD341934FF34FD
:101FF0000834DD34D534FF34063400340034003482
:020000040001F9
:02000E00D40F0D
:02001000FF3AB5
:00000001FF
