:020000040000FA
:1000000000008D31652DFF348A0120000B1D37283B
:1000100022008C1021003308031917280310210037
:10002000B20C8230200095002100B3012C28210061
:100030003208210030052000BD003D0803192428A6
:10004000C130200095002728433020009500220071
:100050008C1401302100B300003021003204031D54
:1000600035282100951620008B1220000B1120004E
:10007000911C7328031022000D0D2000BD003D08C7
:10008000031D44281030BD0021008E0122008D0187
:1000900020003D08103A03195A283D08203A031958
:1000A0005F283D08403A031964283D08803A031947
:1000B00069286D2821002C0822008E006D2821005F
:1000C0002D0822008E006D2821002E0822008E00AF
:1000D0006D2821002F0822008E0020003D082200FC
:1000E0008D002000911009002000C001C101FF30E7
:1000F000C2007F30C3006A30210099000C308C00B0
:1001000022008C0121008D0122008D0121008E0131
:10011000043023008C0021001E169E1723008E0140
:10012000053020009C00FA309B00210091147230B1
:10013000280097007F30B0272000A7007708A9008B
:10014000A800280C0318A62828001711031CAA28A9
:1001500028001715FA302800960037309E00FA3034
:100160009D00C03020008B002100951115109514C2
:10017000151109309D00063021003102031867294E
:1001800021003208031D672921003108031DCC28F6
:10019000FF302100B0003C2921003108013A031D45
:1001A000D72845302100B0002000CB013C29210098
:1001B0003108023A031D03297330B0272000A7003D
:1001C0007708A900A800280EF039A90020006A08C5
:1001D0002000CC0020006B082000CD002000A800EB
:1001E000AB01A81BAB030F30A805AB012908AA007F
:1001F000AC0128082A04A9002B082C04AD0029080A
:100200002100B0003C2921003108033A031D0D29CB
:1002100020004C082100B0003C2921003108043A9C
:10022000031D33292000A90122008C1E192920005A
:10023000A90A2000290EF039A8000310A80D031008
:10024000A80DA90122000C1E27292000A90A2000C0
:10025000290EF039AB002808A9002B08A8002904B2
:100260002100B0003C2921003108053A031D3C293A
:1002700020004B082100B000210030082000A90018
:100280000830A80020002808AB00A8032B08031999
:100290005E29290820004B062000AB008030AB050A
:1002A00003102000CB0D20002B0803195A293130F0
:1002B0002000CB0603102000A90D42298030210028
:1002C000B20020008B16210095122100B10A2000F7
:1002D000931D7D29883100208131280017197B2941
:1002E000FF302100AF0003302100AC005930210065
:1002F000AE002100AD00200093112000931C2E2E93
:100300002000C00A0319C10A401CCC294208F7008A
:1003100043082000A0007708A10021009D142100BF
:100320009D188F291D102000210E0F39A200200ECC
:10033000A300F039A204A3060310A30CA20C03101F
:10034000A30CA20C2208A1022308031C230FA00265
:1003500021001C082000A200A3012208A400A6017D
:1003600021001B082000A200A3012208A6042308E4
:10037000A4042608A2002408A3002208A107230839
:100380000318230FA0072108F7002008C3007708EF
:10039000C200093021009D00200040080F39031DD4
:1003A0002C2E4208F70043082000A0007708A10087
:1003B0002030A200A301A401A601210E0F39A5003F
:1003C000200EA700F039A504A7060310A70CA50C62
:1003D0003F30A505A7012508A9000310200CA500A2
:1003E000A7010310A70CA50C0310A70CA50C1F3028
:1003F0002505A100A0012108A500250AA1000230C1
:10040000F70021088731D72782312000A000A701FB
:1004100020089C3EA0008E30A10027080318270F5B
:10042000A1070230F70025088731D7278231200045
:10043000A700A80127089C3EA7008E30A500280829
:100440000318280FA507A801200029082802031C6B
:100450004C2A2708F6002508F70080308E31EE265A
:1004600082312000AB007708AA00AC002B08AD0059
:100470000030AD1BFF30BF00BE002C08A2072D08C6
:1004800003182D0FA3073E0803183E0FA4073F08CB
:1004900003183F0FA6076F2A20002008F600210846
:1004A000F70080308E31EE2682312000AB007708D5
:1004B000AA00AC002B08AD000030AD1BFF30BF0020
:1004C000BE002C08A2072D0803182D0FA3073E0815
:1004D00003183E0FA4073F0803183F0FA60720008C
:1004E000A80A40302802031C242A220E0F39A1003A
:1004F000230EA000F039A104A006240EA500F039B7
:10050000A004A506260EA700F039A504A706F03022
:10051000A719A7040310A71B0314A70CA50CA00C74
:10052000A10C0310A71B0314A70CA50CA00CA10C75
:100530002108A2002008A3002208F7002308C50014
:100540007708C4007430B0272000C7007708C600C1
:100550004408C8004508C900460848072000EA00CA
:10056000200049082000EB00200047080318470A34
:100570000319BC2A2000EB070330210034020318C2
:10058000C32A2100B10121003408031DC92A3030DB
:10059000B4002100B40320004308C400C5010030AA
:1005A0004502031DD52AF83044020318E32A00301F
:1005B00020004502031DDE2A09304402031CE32A01
:1005C0002000C401E62A01302000C40020004408B5
:1005D000C500450C0318EE2A22000C10031CF22A59
:1005E00022000C1422000C1C0C2B11302100AC003A
:1005F000CB302100AD00FF302100AE002100AF0064
:1006000022000C128C123C302000EE00EF013C3036
:100610002000EC00ED012C2E7E30B0272000C5001C
:100620007708C400C600063046020318442C210097
:100630002F1320004008C4004108C500C601C701AF
:100640004708803E803E031D2F2B00304602031DCD
:100650002F2BEA304502031D2F2B60304402031C70
:10066000492C7E30B0272000AC007708AD00BF00D9
:1006700006303F020318402C7830B0272000AC0031
:100680007708AD00BE007930B0272000AC007708B5
:10069000AD00AD0A0319AC0A09303E02031C522B0F
:1006A0000830BE001330F70020003F088731D727FD
:1006B00083312000AE0003103E0DBF002E07BF00A7
:1006C0003F0AAE00B0272000AF007708AE0002302E
:1006D0003F07B000B0272000B1007708B0002F0816
:1006E0002C02031D752B2E082D02031CA32B2000AA
:1006F0003008F6003108F7007730732720003E08F5
:10070000083A03198E2B03303F07B200B0272000B0
:10071000B3007708B2003304031D952B0630F600B2
:100720000030F7007E307327402C2000AD01AC0173
:10073000BE0A3E08B200B3013208F6003308F700E3
:1007400078307327392C7C30B0272000B20077082E
:10075000BE0032040319392C3F08B0272000BE0028
:100760007708BF002C0EF039B3002D0EB2000F3900
:10077000B304B2060310B20DB30D0310B20DB30DE6
:100780002030B400B501B601B701B80120002F0830
:100790003302031DCD2B2E083202031CEE2B20004A
:1007A0002E08B2022F08031C2F0FB3023008B90025
:1007B0003108BA000030BA1BFF30BC00BB0039085A
:1007C000B4073A0803183A0FB5073B0803183B0F64
:1007D000B6073C0803183C0FB707062C20003F085B
:1007E000B9003E08BA000030BA1BFF30BC00BB00A5
:1007F0003908B4073A0803183A0FB5073B0803183D
:100800003B0FB6073C0803183C0FB7072000B80A97
:1008100040303802031CC62B340E0F39B400350E9D
:10082000B500F039B404B506360EB600F039B5049B
:10083000B606370EB700F039B604B706F030B71970
:10084000B7040310B71B0314B70CB60CB50CB40CEB
:100850000310B71B0314B70CB60CB50CB40C34085A
:10086000BF003508BE003F08F6003E08F7007730AD
:10087000732720002D08F6002C08F7007930732725
:100880002000C001C101492C21002F172000C00108
:10089000C1017630B0272000C5007708C4004504A8
:1008A0000319B92C7730B0272000C7007708C6009D
:1008B00020006A082000C80020006B082000C90042
:1008C00046084802C6004708031C470A4902C700F9
:1008D0000314C71F0310031C722CC609C709C60ADC
:1008E0000319C70A03142000C51F0310031C9B2C07
:1008F000C409C509C40A0319C50A4508803ECA00CF
:100900004708803E4A02031D872C46084402200007
:10091000C801031C48144808003003190130C900FD
:10092000C800480C0318962C22000C10031C9A2CAB
:1009300022000C14B92C20004708803ECA0045084C
:10094000803E4A02031DA62C440846022000C8012E
:10095000031C48144808003003190130C400C800C3
:10096000480C0318B52C22000C10031CB92C2200D3
:100970000C147730B0272000A7007708A9002000CA
:100980006C086D040319C82CFF30EC07031CED0341
:1009900020006E086F040319D12CFF30EE07031CF2
:1009A000EF032000A80122000C1ED82C2000A80A6A
:1009B00020002808003003190130AB00A800280CE3
:1009C0000318E42C2100AF13031CE82C2100AF17FF
:1009D0002000A80122008C1EEF2C2000A80A200075
:1009E0002808003003190130AB00A800280C0318B8
:1009F000FB2C2100AF11031CFF2C2100AF1522009E
:100A00000C1E132D20002708803EAA0020006B0832
:100A1000803E20002A02031D112D20006A082000BC
:100A200029020318252D22008C1E832D20006B081F
:100A3000803E2000AA002708803E2A02031D232DA5
:100A4000290820006A02031C832D7A30B027200079
:100A5000AB007708A8002B0EF0392000ED00200035
:100A6000280E2000EC000F39ED04EC060310EC0D0D
:100A7000ED0D0310EC0DED0D6C0E0F392000A800EC
:100A800020006D0E2000AB00F039A804AB0628084A
:100A90002000EC0220002B08031C2B0A0319522D06
:100AA0002000ED027B30B0272000AB007708A800C3
:100AB0002B0EF0392000EF002000280E2000EE0061
:100AC0000F39EF04EE060310EE0DEF0D0310EE0DDF
:100AD000EF0D6E0E0F392000A80020006F0E2000D1
:100AE000AB00F039A804AB0628082000EE02200075
:100AF0002B08031C2B0A03197F2D2000EF02220074
:100B00000C128C12FB2D22000C1AFB2D8C1AFB2DC3
:100B10007230B0272000AB007708A8002907AA0090
:100B20002708AC002B0803182B0FAC072C08803EBD
:100B3000AD0020006B08803E20002D02031DA42D77
:100B400020006A0820002A020318C62D20006C0825
:100B50006D040319C32D2000AA012100AF1FB22D7F
:100B60002000AA0A20006C0801392000AC00AD006A
:100B7000AA062A0C0318BE2D2100AF13031CC22D98
:100B80002100AF17FB2D22000C16FB2D200028089A
:100B9000A9022B08031C2B0FA70220006B08803E24
:100BA0002000BF002708803E3F02031DDA2D2908E0
:100BB00020006A020318FB2D20006E086F04031941
:100BC000F92D2000A9012100AF1DE82D2000A90A60
:100BD00020006E0801392000A700A800A906290CF2
:100BE0000318F42D2100AF11031CF82D2100AF15BF
:100BF000FB2D22008C162000991F2C2E22000C1C8D
:100C00000E2E23001D1F0E2E61302100AC0011306E
:100C10002100AD00FF302100AE00152E0130F6009E
:100C200020006A08F7006B0831262000C401230069
:100C30001D1F1C2E2000C40A200044080030031988
:100C40000130C600C400440C0318282E23001D13D5
:100C5000031C2C2E23001D17200093106400BB28BA
:100C600008002000A9007708A8007608AB0003144C
:100C7000A91F0310031C452E21002F122000A809D4
:100C8000A909A80A0319A90A472E21002F16003026
:100C900020002B0403194F2E2100AF122F1120002A
:100CA0002908803E7D3E031D572EE8302802031C94
:100CB000672E20002808AA002908AC002A08F7009F
:100CC0002C080A272000A9007708A800AB01200003
:100CD0002908803E803E031D6F2E64302802031CCD
:100CE000A32E20002808AA002908AC00AD0120008E
:100CF0002C08803E803E031D7F2E64302A02031C98
:100D0000882E9C302000AA07031CAC03AD0A772E66
:100D100020002A08A8002C08A9000F30AD052D08D6
:100D2000F53EAD0087300318013EAA002D08F600FD
:100D30002A08F70080308E31DC2686312000AC0096
:100D40002100AC00A62EFF302100AC0020002908B5
:100D5000803E803E031DAE2E0A3028020318BB2EB3
:100D600020002B08031DBB2E21002C082000AA0008
:100D7000FF3A0319F12E20002808AA002908AC0028
:100D8000AD0120002C08803E803E031DC92E0A3094
:100D90002A02031CD22EF6302000AA07031CAC0343
:100DA000AD0AC12E20002A08A8002C08A9002D0891
:100DB000F53EAD0087300318013EAA002D08F6006D
:100DC0002A08F70080308E31DC2686312000AC0006
:100DD0002100AD0020002B080319F42E21002D1056
:100DE000F42EFF302100AD0020002808AB00F53EB6
:100DF000A80087300318013EA9002808F60029083A
:100E0000F70080308E31DC2687312000AB002100D6
:100E1000AE0008002000A0007708A1000310200CFD
:100E2000A200210CA3000310200CA400210CA6009A
:100E30000310A40CA60C2608A30724080318240FEB
:100E4000A207230E0F39A600220EA400F039A60433
:100E5000A4062608A30724080318240FA2072208C3
:100E6000A600A4012608A30724080318240FA2073C
:100E70000310A20CA30C0310A20CA30C0310A20CD1
:100E8000A30C0310230DA600220DA4000310A60D31
:100E9000A40D0310A60DA40D0310230DA500220D13
:100EA000A7002508A60727080318270FA407260868
:100EB000A1022408031C240FA0020630A107031876
:100EC000A00A210E0F39A600200EA400F039A604B6
:100ED000A4062608A30724080318240FA207230842
:100EE000F700220808002000A7007708A90076086C
:100EF000A8002708B0272000AB007708AA00280622
:100F0000031D862F2B0829060319AF2F031020007D
:100F1000270DAA0020002A0823009100200028089D
:100F20002300930015139513151520008B135530CE
:100F300023009600AA309600951420008B172300FA
:100F4000151123009518A12F200012122000290846
:100F5000A800A9012A08A700AA0A271C8A2F0800AE
:100F60002000A000A101A2010310200DA300200079
:100F7000230823009100151395131514130820005E
:100F8000A000A4012008A600A5012208A000A40139
:100F900020082504A10024082604A2002308A0009C
:100FA000A30A201CB72F2108F70022080800200000
:100FB000E5007708E600E7010830E8002000651C3E
:100FC000E32F6608E70720006508E9000310690CB5
:100FD000E5000310660DE900E6006803E900E8009B
:100FE0006908031DDE2F670808000334B7340D3489
:100FF0002534B13461344134373401342134003480
:1010000020008B1322000D082000DD0021000E08B7
:101010002000DE0022008D01D83021008E00031058
:101020002100390D2000DF00E00120008E1F1A286A
:101030002000E00A20005F08E1006008DF00610492
:101040002100B9000310390D2000DF00E00120006D
:101050000E1E2C282000E00A20005F08E100600836
:10106000DF0061042100B9000310390D2000DF000A
:10107000E00120000E1F3E282000E00A20005F084B
:10108000E1006008DF0061042100B9000310390DA0
:101090002000DF00E00120008E1D50282000E00A23
:1010A00020005F08E1006008DF0061042100B90052
:1010B00020005D0822008D0020005E0821008E00C7
:1010C00020008B1721003808031DB8030D302100C4
:1010D00035020318572C88308A0072303507031800
:1010E0008A0A82007F28E928D1282D2948296E29DB
:1010F0009229B629C229062A9F2A422B8B2B883097
:10110000210039052000DD00083A031D8E281B3020
:101110002100B80001302100B500592C0030210019
:1011200039040319592C7F308731B02788312000CA
:10113000DE007708DD005E040319592C33302100EE
:1011400039052000DD00033A031DAA2802302100E2
:10115000B500592C2230210039052000DD00023A6B
:10116000031DB62803302100B500592C1130210091
:1011700039052000DD00013A031DC5280D3021008E
:10118000B80004302100B500592C44302100390545
:101190002000DD00403A031D592C07302100B50026
:1011A000592C0030F6006C30F700003086313126C3
:1011B000883121002C102100AF162F15333021006B
:1011C00039052000DD00333A0319592C2100B501FF
:1011D000592C003021003804031D22297F3087312B
:1011E000B02788312000DF007708DD00E0006008CC
:1011F000003003190130DD00E100E201E11BE203F0
:101200006108F6006208F7007F3087317327893163
:10121000200060080319152922000C100C128C12F2
:1012200028001711200093101F293C302000EE00E9
:10123000EF013C302000EC00ED01280017152100E3
:10124000B501592C8830210039052000DD00883A8D
:101250000319592C2100B501592C77308731B0275B
:1012600089312000E0007708DD000130F6005D08DC
:10127000F700600886313126893122302100390596
:101280002000DD00223A0319592C2100B501592C08
:101290007E308731B02789312000E0007708DD00FB
:1012A000E1000030F70061086B2406302000610285
:1012B0000318632921003808031D63291130B80081
:1012C00005302100B5001130210039052000DD0076
:1012D000113A0319592C2100B501592C7830873166
:1012E000B02789312000E0007708DD000030F600EB
:1012F0005D08F70060088631312689312100380801
:10130000031D87290D30B80006302100B5001130CB
:10131000210039052000DD00113A0319592C210064
:10132000B501592C79308731B02789312000E00090
:101330007708DD000030F6005D08F70060088631B0
:101340003126893121003808031DAB290D30B80042
:1013500004302100B5001130210039052000DD00E6
:10136000113A0319592C2100B501592C0130F7000D
:10137000210036086B246E302100B80008302100AF
:10138000B500592C0030210038040319CF298830CA
:10139000210039052000DD00803A031DD2292100FB
:1013A000B501592C2230210039052000DD00203AFA
:1013B000031DE4292100B60A073036020318B601DE
:1013C00007302100B500592C1130210039052000CB
:1013D000DD00103A031DF8292100B603073036025C
:1013E000031CF4290630B60007302100B500592C43
:1013F0004430210039052000DD00403A031D592CFE
:101400002100B70109302100B500592C21002F1609
:10141000AF162F150630210036020318372A210097
:10142000371C192A85302100AC00D1302100AD00D5
:101430001F2A61302100AC0019302100AD000310DB
:101440002100370C2000DD00F53EDD008730031859
:10145000013EE0005D08F6006008F70080308E3144
:10146000DC268A312000E1002100AE00982A0730F6
:10147000F700210037088731D7278A312000DD00A7
:10148000E0015D08413EDD0060080318600F8E3EFC
:10149000E0005D08F6006008F70080308E31DC2641
:1014A0008A312000E1002100AC000730F700210064
:1014B00037088731D7278A312000DD00E0015D0839
:1014C000413EDD0060080318600F8E3EE000DD0A3B
:1014D0000319E00A5D08F6006008F70080308E31DD
:1014E000DC268A312000E1002100AD000730F70042
:1014F000210037088731D7278A312000DD00E0013D
:101500005D08413EDD0060080318600F8E3EE0007C
:101510000230DD070318E00A5D08F6006008F700F6
:1015200080308E31DC268A312000E1002100AE00BF
:101530006E302100B8000A302100B500592C00306F
:1015400021003804031DA72A2100B501592C883039
:10155000210039052000DD00803A031DB32A073041
:101560002100B500592C2230210039052000DD0072
:10157000203A031DD42A2100B70A06302100360282
:101580000318C92A133021003702031CD02AB701DF
:10159000D02A0D3021003702031CF22AB701F22AAB
:1015A00009302100B500592C1130210039052000E7
:1015B000DD00103A031D122B2100B7030630210075
:1015C00036020318EB2A133021003702031C0E2BBE
:1015D0001230B7000E2B0D3021003702031CF22A07
:1015E0000C30B7007E308731B0278A312000E00010
:1015F0007708DD00E10006306102031C0E2B21009C
:101600003708063A031D072BB70AB70A0E2B21002D
:101610003708073A031D0E2BFE30B70709302100AB
:10162000B500592C4430210039052000DD00403A36
:10163000031D592C1330F700210036088731D727B6
:101640008B312000DD00210037082000DD075D0818
:101650008731B0278B312000E4007708E3002000B9
:101660005D08F60020006308F7006408AB24200042
:10167000E4007708E3006E302100B8000B30210051
:10168000B500592C06302100360203185E2B2100CC
:10169000371C542B0030F60020006308F700640864
:1016A000863131268B31842B0130F600200063080F
:1016B000F7006408863131268B31842B06302100F7
:1016C000370203186D2B0130F60020006308F70085
:1016D0006408863131268B31842B0C30210037028F
:1016E00003187C2B0030F60020006308F700640824
:1016F000863131268B31842B200063082000DD00E9
:101700000030F7005D086B246E302100B8000C300B
:101710002100B500592C1330F7002100360887311D
:10172000D7278B312000DD00210037082000DD079E
:1017300021003808031D9F2B2100B501592C88304A
:10174000210039052000E000803A031DAB2B093051
:101750002100B500592C2100B91EC12B2000E30A3D
:101760000319E40A6408803E7D3E031DB92BE9306D
:101770006302031CD72B09302000E3070318E40A97
:10178000D72B2100391EEE2BFF302000E307031C6E
:10179000E4036408803E7D3E031DD02BE9306302E4
:1017A000031CD72BF7302000E307031CE4032000C1
:1017B0005D08F60020006308F7006408AB242000F1
:1017C000E4007708E3001F3028001D02031CEA2B09
:1017D000F8309D070B302100B500592C4430210012
:1017E00039052000E000403A031D532C2100360843
:1017F000063A031D452C210037080C3A031D452CE1
:101800000030F6000030F7007830873173278C31D4
:101810000030F6000030F7007930873173278C31C3
:1018200020006408803E803E031D182C06306302B1
:101830000318452C200063082000E0001330F70057
:1018400060088731D7278C312000E1008731B0272D
:101850008C312000E2007708E000F6006208F70013
:101860007730873173278C312000E10A6108873196
:10187000B0278C312000E1007708E0006104031DEF
:10188000452C06302000E300E40120006308F60048
:101890006408F70020005D08873173278C31093018
:1018A0002100B500592CFA3028009D00592C210048
:1018B000B501210035080030031901302000DD009A
:1018C000E000600C0318662C20009913031C6A2C9E
:1018D0002000991708002000CF007708CE002100D3
:1018E0002F16AF162F15AF14063020004F02031825
:1018F000922C19302100AC00DD302100AD00200019
:101900004F08F53ECF0087300318013ED1004F0845
:10191000F6005108F70080308E31DC268C31210032
:10192000AE00AA2C003020004E040319A12C613017
:101930002100AC0009302100AD00C9302100AE000B
:10194000AA2CC9302100AC00D1302100AD00FF30FD
:101950002100AE0008002000D6007708D5007608E8
:10196000D700723057020318E52C5708D8001330FF
:1019700020005802031CBF2CED30D807B72C2000E4
:10198000581CD32CE730F3000330F4000030F5008E
:101990000030F6005508F700560831252000D60023
:1019A0007708D5002C2D7830F3000530F400703026
:1019B000F500FE30F60020005508F70056083125E6
:1019C0002000D6007708D5002C2D8E302000D707B8
:1019D0000730F70057088731D7278C312000D8000F
:1019E000D9015808413ED7008E30DA005908031853
:1019F000590FDA0703305707D800D901D90D5A0813
:101A0000D9075808F6005908F70080308E31EE26C5
:101A10008D312000DC007708DB000530D707031884
:101A2000DA0A5708F6005A08F70080308E31EE26A1
:101A30008D312000D9007708D800F3005908F40050
:101A40005B08F5005C08F6005508F70056083125DC
:101A50002000D6007708D50020005508F70056086A
:101A600008002000CF007708CE007608D100750866
:101A7000D0007408D3007308D2005308803ED4000D
:101A80004F08803E5402031D472D4E085202031892
:101A90004E2D20005008F7005108642D20004F08FB
:101AA000803ED4005108803E5402031D592D500839
:101AB0004E020318602D20005208F7005308642DD1
:101AC00020004E08F7004F080800E530F6008D3082
:101AD000F70080308E31EE268D312100A10077088D
:101AE000A000E730A2008D30A30021002008A40050
:101AF0002108A500FF30A007031CA103240825042A
:101B00000319E22D04302207A400A501A50D230826
:101B1000A5072408F6002508F70080308E31EE2650
:101B20008D312100A7007708A6002208F6002308BF
:101B3000F70080308E31EE268D312100A900A500FE
:101B40007708A800A40002302207A400A501A50D73
:101B50002308A5072408F6002508F70080308E31F9
:101B6000EE268D312100A500AB007708A400AA0065
:101B700021002608AA002708AB00FF30A607031C97
:101B8000A7032A082B040319DC2D2808F6002908CE
:101B9000F70080308E31DC268D312100AA00240828
:101BA0008400250885002A088000A80A0319A90ACC
:101BB000A40A0319A50AB82D06302100A2070318AC
:101BC000A30A752D8031742808000F3400340334C3
:101BD0000034AF340034013400340B340F346A3431
:101BE000003402340034FF340734B034003401349C
:101BF000003411340F34B134003401340034123461
:101C00000F34B23400340134003413340F34B3349D
:101C100000340134003414340F34B434003401344B
:101C200000340D340F346C340034023400340F347B
:101C30000F346E3400340234003415340F34B534AC
:101C400000340134003416340F34B6340034013417
:101C5000003417340F34B7340034013400341834EE
:101C60000F34B83400340134003419340F34B9342B
:101C70000034013400341A340F34BA3400340134DF
:101C80000034D134A134FF34003400343234003411
:101C9000D134A1340D3400340034FA340034C93462
:101CA000CD34FF34CE34FF3432340034C934CD3433
:101CB0000D34CE34FF343234003461341134FF3407
:101CC0007034FE349034013461341934FF3470348C
:101CD000FE34783405346134C934FF3400340034C0
:101CE000083400348534D134FF3400340034E73410
:101CF0000334CD348534FF34003400343C340034B4
:101D0000D1348534FF34003400343C340034DD34C5
:101D10001934FF3400340034013400341934C13430
:101D20000D340034003401340034DD34D534FF3454
:101D30000034003406340034003400341A34FE34E5
:101D40009D34FE34F234FE343334FF346934FF34CE
:101D50009834FF34C334FF34EB34FF341034003490
:101D6000333400345534003477340034983400343C
:101D7000B8340034D9340034FA3400341C3401341B
:101D80003E3401346234013487340134AF340134D9
:101D9000D934013407340234393402347034023413
:101DA000B0340234FB34023458340334D1340334B5
:101DB00082340434CA340534003A0319E32E803ADD
:101DC0000319E92E0034760884007708850000089E
:101DD000080077088A00760882000800003A031994
:101DE000F62E803A0319FE2EF7010034760884009F
:101DF000770885001200F700000808008E31E926F8
:101E0000F500F60FF703F70A8E31E926F40075089E
:101E1000F70074080800003400343C3400343C34CB
:101E200000340034003400341834003400340034FA
:061E300000340034003410
:020000040001F9
:02000E00D40F0D
:02001000FF3AB5
:00000001FF
