:020000040000FA
:1000000000008631232EFF348A012700931C232809
:1000100020008B11270091102100370803191728A1
:100020002100B61F172821008C1022008C140A30E2
:100030002100B80005302000950021009512200015
:100040008B162700930120000B1D422821009516D6
:1000500020008B1221008C1422008C100310210030
:10006000B60D2100B90A21003708031D3C282000E5
:100070008C1C3C2821003614270093019114200089
:100080008B150B112000911C8A28031022000D0DE6
:100090002000BC003C08031D4F281030BC0021008C
:1000A0008E0122008D0120003C08103A03196528BA
:1000B0003C08203A03196A283C08403A03196F2883
:1000C0003C08803A0319742878282100320822005D
:1000D0008E0078282100330822008E007828210025
:1000E000340822008E0078282100350822008E0076
:1000F00020003C0822008D002100380803198228C6
:10010000B80388282100BA012100B9012100B701F4
:1001100020009110090020008B1322000D08200000
:10012000E20021000E082000E30022008D01D830FB
:1001300021008E00031021003F0D2000E400E501A6
:1001400020008E1FA5282000E50A20006408E60094
:100150006508E40066042100BF0003103F0D200085
:10016000E400E50120000E1EB7282000E50A20006B
:100170006408E6006508E40066042100BF0003107F
:100180003F0D2000E400E50120000E1FC9282000DB
:10019000E50A20006408E6006508E4006604210022
:1001A000BF0003103F0D2000E400E50120008E1D7C
:1001B000DB282000E50A20006408E6006508E4006A
:1001C00066042100BF002000620822008D0020008C
:1001D000630821008E0020008B1721003E08031DBC
:1001E000BE030D3021003B020318E22C80308A0050
:1001F000FD303B0703188A0A82000A2974295C290A
:10020000B829D329F9291D2A412A4D2A912A2A2BB6
:10021000CD2B162C883021003F052000E200083A43
:10022000031D19291B302100BE0001302100BB0035
:10023000E42C003021003F040319E42C7F308F317F
:10024000B52781312000E3007708E2006304031939
:10025000E42C333021003F052000E200033A031D67
:10026000352902302100BB00E42C223021003F055B
:100270002000E200023A031D412903302100BB00A7
:10028000E42C113021003F052000E200013A031D5B
:1002900050290D302100BE0004302100BB00E42CA9
:1002A000443021003F052000E200403A031DE42CC9
:1002B00007302100BB00E42C0030F6006C30F70062
:1002C00000308E3132268131210032102100B516E6
:1002D0003515333021003F052000E200333A031981
:1002E000E42C2100BB01E42C003021003E04031D5E
:1002F000AD297F308F31B52781312000E4007708A8
:10030000E200E5006508003003190130E200E60074
:10031000E701E61BE7036608F6006708F7007F3091
:100320008F3178278131200065080319A029220028
:100330000C100C128C122800171120009310AA29FF
:100340003C302100B000B1013C302100AE00AF01D3
:10035000280017152100BB01E42C883021003F053F
:100360002000E200883A0319E42C2100BB01E42CB0
:1003700077308F31B52781312000E5007708E20022
:100380000130F6006208F70065088E3132268131AF
:10039000223021003F052000E200223A0319E42C1C
:1003A0002100BB01E42C7E308F31B5278131200044
:1003B000E5007708E200E6000030F7006608F62462
:1003C0000630200066020318EE2921003E08031DB6
:1003D000EE291130BE0005302100BB001130210094
:1003E0003F052000E200113A0319E42C2100BB0173
:1003F000E42C78308F31B52781312000E500770873
:10040000E2000030F6006208F70065088E313226FF
:10041000823121003E08031D122A0D30BE00063035
:100420002100BB00113021003F052000E200113AFD
:100430000319E42C2100BB01E42C79308F31B5275E
:1004400082312000E5007708E2000030F600620803
:10045000F70065088E313226823121003E08031DE7
:10046000362A0D30BE0004302100BB0011302100BF
:100470003F052000E200113A0319E42C2100BB01E2
:10048000E42C0130F70021003C08F6246E302100F6
:10049000BE0008302100BB00E42C003021003E04E7
:1004A00003195A2A883021003F052000E200803AD3
:1004B000031D5D2A2100BB01E42C223021003F05F1
:1004C0002000E200203A031D6F2A2100BC0A0730F9
:1004D0003C020318BC0107302100BB00E42C1130A2
:1004E00021003F052000E200103A031D832A21006D
:1004F000BC0307303C02031C7F2A0630BC000730D7
:100500002100BB00E42C443021003F052000E20024
:10051000403A031DE42C2100BD0109302100BB003D
:10052000E42C21003516B5163515063021003C02A5
:100530000318C22A21003D1CA42A85302100B200E4
:10054000D1302100B300AA2A61302100B200193055
:100550002100B300031021003D0C2000E200A23E68
:10056000E20087300318013EE5006208F6006508E6
:10057000F70080308731732782312000E6002100A8
:10058000B400232B0430F70021003D088F31DC2715
:1005900082312000E200E50162083F3EE20065088A
:1005A0000318650F873EE5006208F6006508F7004E
:1005B00080308731732782312000E6002100B200AD
:1005C0000430F70021003D088F31DC278231200004
:1005D000E200E50162083F3EE20065080318650F8E
:1005E000873EE500E20A0319E50A6208F60065089D
:1005F000F70080308731732782312000E600210028
:10060000B3000430F70021003D088F31DC2783312F
:100610002000E200E50162083F3EE20065080318A1
:10062000650F873EE5000230E2070318E50A62081D
:10063000F6006508F700803087317327833120008A
:10064000E6002100B4006E302100BE000A30210017
:10065000BB00E42C003021003E04031D322B21009E
:10066000BB01E42C883021003F052000E200803AE5
:10067000031D3E2B07302100BB00E42C223021005B
:100680003F052000E200203A031D5F2B2100BD0A38
:10069000063021003C020318542B133021003D0288
:1006A000031C5B2BBD015B2B0D3021003D02031CA5
:1006B0007D2BBD017D2B09302100BB00E42C1130C6
:1006C00021003F052000E200103A031D9D2B210070
:1006D000BD03063021003C020318762B13302100A5
:1006E0003D02031C992B1230BD00992B0D302100C7
:1006F0003D02031C7D2B0C30BD007E308F31B527B1
:1007000083312000E5007708E200E600063066024B
:10071000031C992B21003D08063A031D922BBD0AAC
:10072000BD0A992B21003D08073A031D992BFE3085
:10073000BD0709302100BB00E42C443021003F05F7
:100740002000E200403A031DE42C1330F7002100A2
:100750003C088F31DC2783312000E20021003D0876
:100760002000E20762088F31B52783312000E900BD
:100770007708E80020006208F60020006808F7000B
:10078000690836252000E9007708E8006E3021006E
:10079000BE000B302100BB00E42C063021003C02DF
:1007A0000318E92B21003D1CDF2B0030F600200050
:1007B0006808F70069088E31322683310F2C01302A
:1007C000F60020006808F70069088E313226833170
:1007D0000F2C063021003D020318F82B0130F600E3
:1007E00020006808F70069088E31322683310F2C0B
:1007F0000C3021003D020318072C0030F6002000C9
:100800006808F70069088E31322684310F2C2000E9
:1008100068082000E2000030F7006208F6246E301D
:100820002100BE000C302100BB00E42C1330F70087
:1008300021003C088F31DC2784312000E2002100B8
:100840003D082000E20721003E08031D2A2C21005C
:10085000BB01E42C883021003F052000E500803AF0
:10086000031D362C09302100BB00E42C2100BF1EE3
:100870004C2C2000E80A0319E90A6908803E7D3EF5
:10088000031D442CE9306802031C622C093020004F
:10089000E8070318E90A622C21003F1E792CFF307B
:1008A0002000E807031CE9036908803E7D3E031D24
:1008B0005B2CE9306802031C622CF7302000E8074B
:1008C000031CE90320006208F60020006808F70016
:1008D000690836252000E9007708E8001F30280065
:1008E0001D02031C752CF8309D070B302100BB0046
:1008F000E42C443021003F052000E500403A031D70
:10090000DE2C21003C08063A031DD02C21003D08B6
:100910000C3A031DD02C0030F6000030F700783080
:100920008F31782784310030F6000030F7007930BD
:100930008F317827843120006908803E803E031D76
:10094000A32C063068020318D02C20006808200071
:10095000E5001330F70065088F31DC278431200073
:10096000E6008F31B52784312000E7007708E500E5
:10097000F6006708F70077308F3178278431200040
:10098000E60A66088F31B52784312000E600770833
:10099000E5006604031DD02C06302000E800E901C4
:1009A00020006808F6006908F700200062088F310F
:1009B0007827843109302100BB00E42CFA3028006C
:1009C0009D00E42C2100BB0121003B0800300319ED
:1009D00001302000E200E500650C0318F12C200036
:1009E0009913031CF52C2000991708002000D20051
:1009F0007708D10021003516B5163515B514063027
:100A00002000520203181D2D19302100B200DD30E4
:100A10002100B30020005208A23ED2008730031804
:100A2000013ED4005208F6005408F70080308731A8
:100A3000732785312100B400352D0030200051048A
:100A400003192C2D61302100B20009302100B300C0
:100A5000C9302100B400352DC9302100B200D13099
:100A60002100B300FF302100B40008002000D900AD
:100A70007708D8007608DA00DB01DC01E730DD001A
:100A80000330DE0072305A0203185C2D5A08DF0072
:100A9000133020005F02031C502DED30DF07482D7E
:100AA00020005F18DB2D7030DB00FE30DC0078307A
:100AB000DD000530DE00DB2D8E302000DA0704304B
:100AC000F7005A088F31DC2785312000DF00E00174
:100AD0005F083F3EDA008730E10060080318600FCE
:100AE000E1070330DA070318E10A5A08F600610843
:100AF000F70080308731732785312000DF005F08E1
:100B0000031D8B2D7030DB00FE30DC007830DD0003
:100B10000530DE00DB2D20005F08013A031D982D13
:100B2000CE30DB00FF30DC003230DD00DE01DB2DBB
:100B300020005F08033A031DA12D0130DD00DE0116
:100B4000DB2D20005F08043A031DAA2D3230DD00A2
:100B5000DE01DB2D20005F08053A031DB32DFA30BE
:100B6000DD00DE01DB2D20005F08063A031DC12DEC
:100B70007030DB00FE30DC009030DD000130DE0044
:100B8000DB2D20005F08073A031DCA2D0830DD0069
:100B9000DE01DB2D20005F08083A031DD32D3C3019
:100BA000DD00DE01DB2D20005F08093A031DDB2D8F
:100BB0000630DD00DE0120005D08F3005E08F40071
:100BC0005B08F5005C08F6005808F7005908EF25A7
:100BD0002000D9007708D800F70059080800200045
:100BE000D2007708D1007608D4007508D3007408C5
:100BF000D6007308D5005608803ED7005208803EC4
:100C00005702031D052E5108550203180C2E200013
:100C10005308F7005408222E20005208803ED700C7
:100C20005408803E5702031D172E53085102031823
:100C30001E2E20005508F7005608222E20005108CD
:100C4000F70052080800A330F6008630F700803025
:100C50008731852786312100A1007708A000A530C3
:100C6000A2008630A30021002008A4002108A500CE
:100C7000FF30A007031CA103240825040319A02E9C
:100C800004302207A400A501A50D2308A507240808
:100C9000F6002508F700803087318527863121004E
:100CA000A7007708A6002208F6002308F700803086
:100CB0008731852786312100A900A5007708A80083
:100CC000A40002302207A400A501A50D2308A50752
:100CD0002408F6002508F700803087318527863103
:100CE0002100A500AB007708A400AA002100260877
:100CF000AA002708AB00FF30A607031CA7032A0899
:100D00002B0403199A2E2808F6002908F7008030D2
:100D10008731732786312100AA0024088400250822
:100D200085002A088000A80A0319A90AA40A031941
:100D3000A50A762E06302100A2070318A30A332E37
:100D40008831002808000F34003403340034B534EF
:100D5000003401340034FB340F34AC34003402343A
:100D60000034FF340F34B634003401340034AE3470
:100D70000734B734003401340034AF340734B834A6
:100D8000003401340034B0340734B9340034013451
:100D90000034B1340734BA34003401340034FD3443
:100DA0000F34AE34003402340034AC340734B03481
:100DB000003402340034B2340734BB34003401341C
:100DC0000034B3340734BC34003401340034B43458
:100DD0000734BD34003401340034B5340734BE3434
:100DE000003401340034B6340734BF3400340134E5
:100DF0000034B7340734C0340034013400340034D4
:100E000000341A34FE349D34FE34F234FE3433346C
:100E1000FF346934FF349834FF34C334FF34EB3487
:100E2000FF34103400343334003455340034773414
:100E3000003498340034B8340034D9340034FA34EF
:100E400000341C3401343E340134623401348734BC
:100E50000134AF340134D934013407340234393425
:100E6000023470340234B0340234FB340234583467
:100E70000334D134033482340434CA340534D134D5
:100E8000A134FF340434D134A1340D340534C934D1
:100E9000CD34FF340134C934CD340D3401346134E0
:100EA0001134FF34063461341934FF3400346134B2
:100EB000C934FF3407348534D134FF340234CD349F
:100EC0008534FF340834D1348534FF340834DD34BC
:100ED0001934FF3403341934C1340D340334DD3490
:100EE000D534FF340934003A03197A2F803A0319B4
:100EF000802F0034760884007708850000080800F9
:100F000077088A00760882000800003A03198D2FBE
:100F1000803A0319952FF70100347608840077088A
:100F200085001200F7000008080087318027F500CF
:100F3000F60FF703F70A87318027F4007508F700EA
:100F4000740808000334B7340D342534B1346134E7
:100F500041343734013421343C340034003400341B
:100F600000340034003400340034003400340034E1
:101000002000C001C101FF30C2007F30C3006A3040
:10101000210099000E308C0022008C0121008D01EE
:1010200022008D0121008E01043023008C0021005C
:101030001E169E1723008E01053020009C00FA30FA
:101040009B00210091147230280097007F30B52753
:101050002000A7007708A900A800280C0318322850
:1010600028001711031C362828001715FA3028000D
:10107000960037309E00FA309D00C83020008B006B
:101080000230270091009201093021009D002000CC
:101090008B13083021003902031C65292100360812
:1010A0002000C4002100B90120008B172000440853
:1010B0002000AC002000CC062100B70121003A0836
:1010C000031DB22820002C082000CD0020002C0891
:1010D0002000CC002000CE0120004D08203A03194A
:1010E00075284D08E03A031D792801302100BA0027
:1010F0004F2920002C08013A031D8A2821002C08C2
:101100002000CF0021002D082000D0000530210054
:10111000BA004F2920002C08023A031D9E28AD0179
:1011200022000C1E95282000AD0A20002D0820006A
:10113000CF00D00105302100BA004F2920002C0833
:10114000033A031D4F29AD0122008C1EA92820005F
:10115000AD0A20002D082000CF00D001053021006D
:10116000BA004F2921003A08013A031DCF28200078
:101170002C082000CE0020004D08E03A031DC428B2
:1011800002302100BA004F2920004E08B527200068
:10119000D0007708CF0005302100BA004F29210088
:1011A0003A08023A0319D8283A08033A031DEC28F2
:1011B00020004F082000BD00AD012C08BE00BF017B
:1011C0003E082D042000CF0020003F083D042000F1
:1011D000D0002100BA0A4F2921003A08043A031D21
:1011E000112920004C08031D082920004F08200069
:1011F000AC00200050082000AD002C08F6002D089F
:10120000F70020004E0878279A302100B6000B29FD
:1012100066302100B60001302100B7002100BA017C
:101220004F2921003A08063A031D212920004F08C2
:101230002100B60001302100B70007302100BA00BC
:101240004F2921003A08073A031D422920004E0881
:1012500020004D062000AC00200050082000AD000A
:10126000BD012D08BE00AC0620004F082000AD00D7
:101270002C062100B60001302100B7000830210003
:10128000BA004F2921003A08083A031D4F299A3025
:101290002100B60001302100B7002100BA01210071
:1012A0003A08053A031958293A08063A031D6529F0
:1012B000200050082000AC00AD012C082100B60031
:1012C00001302100B7002100BA0A20008B17931DBE
:1012D0007C2980318B208931280017197A29FF3029
:1012E0002100B50003302100B20059302100B400C4
:1012F0002100B300200093112000931C2F2E20000A
:10130000C00A0319C10A401CCB294208F700430850
:101310002000A0007708A10021009D1421009D1845
:101320008E291D102000210E0F39A200200EA300CF
:10133000F039A204A3060310A30CA20C0310A30C03
:10134000A20C2208A1022308031C230FA0022100E3
:101350001C082000A200A3012208A400A60121006D
:101360001B082000A200A3012208A6042308A4044D
:101370002608A2002408A3002208A10723080318B6
:10138000230FA0072108F7002008C3007708C20038
:10139000093021009D00200040080F39031D2D2E2B
:1013A0004208F70043082000A0007708A100203081
:1013B000A200A301A401A601210E0F39A500200E51
:1013C000A700F039A504A7060310A70CA50C3F3011
:1013D000A505A7012508A9000310200CA500A70159
:1013E0000310A70CA50C0310A70CA50C1F30250596
:1013F000A100A0012108A500250AA1000230F700E4
:1014000021088F31DC278A312000A000A7012008A5
:10141000FF3EA0008630A10027080318270FA10770
:101420000230F70025088F31DC278A312000A70021
:10143000A8012708FF3EA7008630A500280803184A
:10144000280FA507A801200029082802031C4B2A01
:101450002708F6002508F7008030873185278A3174
:101460002000AB007708AA00AC002B08AD000030CC
:10147000AD1BFF30BD00BE002C08A2072D080318CD
:101480002D0FA3073E0803183E0FA4073D080318BD
:101490003D0FA6076E2A20002008F6002108F7005D
:1014A0008030873185278A312000AB007708AA0079
:1014B000AC002B08AD000030AD1BFF30BD00BE00FE
:1014C0002C08A2072D0803182D0FA3073E080318A8
:1014D0003E0FA4073D0803183D0FA6072000A80AE9
:1014E00040302802031C232A220E0F39A100230EAC
:1014F000A000F039A104A006240EA500F039A00434
:10150000A506260EA700F039A504A706F030A719F6
:10151000A7040310A71B0314A70CA50CA00CA10C77
:101520000310A71B0314A70CA50CA00CA10C2108E9
:10153000A2002008A3002208F7002308C5007708AE
:10154000C4007430B5272000C7007708C6004408DF
:10155000C8004508C900460848072100AC00200023
:1015600049082100AD00200047080318470A031965
:10157000BB2A2100AD0720004308C400C50100308C
:101580004502031DC52AF83044022000C601031C91
:1015900046144608003003190130C7004708031DF0
:1015A000E42A00304502031DD72A093044022000F6
:1015B000C601C60D4608003003190130C4004408B6
:1015C000031DE42AC401E72A01302000C4002000E2
:1015D0004408C600460C0318EF2A22000C10031C16
:1015E000F32A22000C1422000C1C0D2B11302100B8
:1015F000B200CB302100B300FF302100B400210045
:10160000B50022000C128C123C302100B000B10158
:101610003C302100AE00AF012D2E7E30B5272000DA
:10162000C6007708C400C700063047020318452CDF
:101630002100351320004008C4004108C600C7013E
:10164000C8014808803E803E031D302B0030470211
:10165000031D302BEA304602031D302B603044025C
:10166000031C4A2C7E30B5272000AC007708AD0063
:10167000BD0006303D020318412C7830B52720000C
:10168000AC007708AD00BE007930B5272000AC0073
:101690007708AD00AD0A0319AC0A09303E02031CFD
:1016A000532B0830BE001330F70020003D088F3167
:1016B000DC278B312000BF0003103E0DBD003F072B
:1016C000BD003D0ABF00B5272000AE007708BF006F
:1016D00002303D07AF00B5272000B0007708AF000B
:1016E0002E082C02031D762B3F082D02031CA42B71
:1016F00020002F08F6003008F70077307827200008
:101700003E08083A03198F2B03303D07B100B52777
:101710002000B2007708B1003204031D962B06307A
:10172000F6000030F7007E307827412C2000AD0114
:10173000AC01BE0A3E08B100B2013108F600320821
:10174000F700783078273A2C7C30B5272000B1009C
:101750007708BE00310403193A2C3D08B527200054
:10176000BE007708BD002C0EF039B2002D0EB1007E
:101770000F39B204B1060310B10DB20D0310B10D53
:10178000B20D2030B300B401B501B601B70120009D
:101790002E083202031DCE2B3F083102031CEF2B13
:1017A00020003F08B1022E08031C2E0FB2022F08A2
:1017B000B8003008B9000030B91BFF30BB00BA00D8
:1017C0003808B30739080318390FB4073A08031863
:1017D0003A0FB5073B0803183B0FB607072C20004C
:1017E0003D08B8003E08B9000030B91BFF30BB000F
:1017F000BA003808B30739080318390FB4073A0894
:1018000003183A0FB5073B0803183B0FB607200033
:10181000B70A40303702031CC72B330E0F39B30011
:10182000340EB400F039B304B406350EB500F03907
:10183000B404B506360EB600F039B504B606F0307D
:10184000B619B6040310B61B0314B60CB50CB40CD1
:10185000B30C0310B61B0314B60CB50CB40CB30CCC
:101860003308BD003408BE003D08F6003E08F7000E
:101870007730782720002D08F6002C08F700793003
:1018800078272000C001C1014A2C21003517200013
:10189000C001C1017630B5272000C6007708C4001A
:1018A00046040319BA2C7730B5272000C800770802
:1018B000C70021002C082000C90021002D082000AD
:1018C000CA0047084902C7004808031C480A4A02E0
:1018D000C8000314C81F0310031C732CC709C809D0
:1018E000C70A0319C80A03142000C61F0310031CEB
:1018F0009C2CC409C609C40A0319C60A4608803EBE
:10190000CB004808803E4B02031D882C4708440248
:101910002000C901031C4914490800300319013093
:10192000CA00C900490C0318972C22000C10031C94
:101930009B2C22000C14BA2C20004808803ECB00BF
:101940004608803E4B02031DA72C44084702200096
:10195000C901031C49144908003003190130C400AF
:10196000C900490C0318B62C22000C10031CBA2C19
:1019700022000C147730B5272000A7007708A900B3
:1019800021002E082F040319C92CFF30AE07031CB9
:10199000AF032100300831040319D22CFF30B00707
:1019A000031CB1032000A80122000C1ED92C20002A
:1019B000A80A20002808003003190130AB00A80055
:1019C000280C0318E52C2100B513031CE92C210079
:1019D000B5172000A80122008C1EF02C2000A80AB8
:1019E00020002808003003190130AB00A800280CA3
:1019F0000318FC2C2100B511031C002D2100B51586
:101A000022000C1E142D20002708803EAA00210071
:101A10002D08803E20002A02031D122D21002C08D3
:101A2000200029020318262D22008C1E842D21005F
:101A30002D08803E2000AA002708803E2A02031DB0
:101A4000242D290821002C02031C842D7A30B5276F
:101A50002000AB007708A8002B0EF0392100AF0062
:101A60002000280E2100AE000F39AF04AE0603108F
:101A7000AE0DAF0D0310AE0DAF0D2E0E0F392000C1
:101A8000A80021002F0E2000AB00F039A804AB06FF
:101A900028082100AE0220002B08031C2B0A031982
:101AA000532D2100AF027B30B5272000AB00770813
:101AB000A8002B0EF0392100B1002000280E2100D3
:101AC000B0000F39B104B0060310B00DB10D031012
:101AD000B00DB10D300E0F392000A8002100310EDD
:101AE0002000AB00F039A804AB0628082100B002A2
:101AF00020002B08031C2B0A0319802D2100B102A2
:101B000022000C128C12FC2D22000C1AFC2D8C1AB7
:101B1000FC2D7230B5272000AB007708A8002907FC
:101B2000AA002708AC002B0803182B0FAC072C08C1
:101B3000803EAD0021002D08803E20002D02031DB7
:101B4000A52D21002C0820002A020318C72D2100F2
:101B50002E082F040319C42D2000AA012100B51F4F
:101B6000B32D2000AA0A21002E0801392000AC0064
:101B7000AD00AA062A0C0318BF2D2100B513031CC3
:101B8000C32D2100B517FC2D22000C16FC2D2000C2
:101B90002808A9022B08031C2B0FA70221002D08DF
:101BA000803E2000BD002708803E3D02031DDB2D46
:101BB000290821002C020318FC2D210030083104D3
:101BC0000319FA2D2000A9012100B51DE92D2000DF
:101BD000A90A2100300801392000A700A800A906A1
:101BE000290C0318F52D2100B511031CF92D210036
:101BF000B515FC2D22008C162000991F2D2E2200D9
:101C00000C1C0F2E23001D1F0F2E61302100B2006F
:101C100011302100B300FF302100B400162E013036
:101C2000F60021002C08F7002D0832262000C40100
:101C300023001D1F1D2E2000C40A20004408003070
:101C400003190130C700C400440C0318292E2300D7
:101C50001D13031C2D2E23001D172000931064005C
:101C6000472808002000A9007708A8007608AB00E4
:101C70000314A91F0310031C462E21003512200057
:101C8000A809A909A80A0319A90A482E210035168E
:101C900020002B08013A031D512E2100B5123511E9
:101CA000542E2100B516351520002908803E7D3EB2
:101CB000031D5C2EE8302802031C6C2E200028082F
:101CC000AA002908AC002A08F7002C080F272000DA
:101CD000A9007708A800AB0120002908803E803EBB
:101CE000031D742E64302802031CA82E200028082F
:101CF000AA002908AC00AD0120002C08803E803EDF
:101D0000031D842E64302A02031C8D2E9C3020007B
:101D1000AA07031CAC03AD0A7C2E20002A08A800E9
:101D20002C08A9000F30AD052D08A23EAD0087306C
:101D30000318013EAA002D08F6002A08F70080309B
:101D4000873173278E312000AC002100B200AB2E0A
:101D5000FF302100B20020002908803E803E031D94
:101D6000B32E0A3028020318C02E20002B08031DB2
:101D7000C02E210032082000AA00FF3A0319F62ED7
:101D800020002808AA002908AC00AD0120002C087A
:101D9000803E803E031DCE2E0A302A02031CD72E21
:101DA000F6302000AA07031CAC03AD0AC62E2000A3
:101DB0002A08A8002C08A9002D08A23EAD008730F3
:101DC0000318013EAA002D08F6002A08F70080300B
:101DD000873173278E312000AC002100B300200032
:101DE0002B080319F92E21003310F92EFF302100A2
:101DF000B30020002808AB00A23EA80087300318DB
:101E0000013EA9002808F6002908F7008030873134
:101E100073278F312000AB002100B40008002000A0
:101E2000A0007708A1000310200CA200210CA30041
:101E30000310200CA400210CA6000310A40CA60C77
:101E40002608A30724080318240FA207230E0F391E
:101E5000A600220EA400F039A604A4062608A307B3
:101E600024080318240FA2072208A600A4012608AC
:101E7000A30724080318240FA2070310A20CA30C25
:101E80000310A20CA30C0310A20CA30C0310230D2F
:101E9000A600220DA4000310A60DA40D0310A60D8C
:101EA000A40D0310230DA500220DA7002508A607E9
:101EB00027080318270FA4072608A1022408031CDB
:101EC000240FA0020630A1070318A00A210E0F3923
:101ED000A600200EA400F039A604A4062608A30735
:101EE00024080318240FA2072308F700220808007B
:101EF0002000A7007708A9007608A8002708B527C2
:101F00002000AB007708AA002806031D8B2F2B08A2
:101F100029060319B42F03102000270DAA00200062
:101F20002A0823009100200028082300930015139D
:101F30009513151520008B13553023009600AA30F9
:101F40009600951420008B17230015112300951877
:101F5000A62F2000121220002908A800A9012A0893
:101F6000A700AA0A271C8F2F08002000A000A101AB
:101F7000A2010310200DA3002000230823009100DC
:101F800015139513151413082000A000A4012008B0
:101F9000A600A5012208A000A40120082504A10094
:101FA00024082604A2002308A000A30A201CBC2F9A
:101FB0002108F700220808002000EA007708EB005B
:101FC000EC010830ED0020006A1CE82F6B08EC07DC
:101FD00020006A08EE0003106E0CEA0003106B0D7F
:101FE000EE00EB006D08EE006E03ED006D08031DC2
:101FF000E32F6C080800003400343C340034003413
:020000040001F9
:02000E00D40F0D
:02001000FF3AB5
:00000001FF
