:020000040000FA
:10000000000086313B2EFF348A012700931C2328F1
:1000100020008B11270091102100360803191728A2
:100020002100B51F172821008C1022008C140A30E3
:100030002100B70005302000950021009512200016
:100040008B162700930120000B1D422821009516D6
:1000500020008B1221008C1422008C100310210030
:10006000B50D2100B80A21003608031D3C282000E8
:100070008C1C3C282100351427009301911420008A
:100080008B150B112000911C8A28031022000D0DE6
:100090002000BC003C08031D4F281030BC0021008C
:1000A0008E0122008D0120003C08103A03196528BA
:1000B0003C08203A03196A283C08403A03196F2883
:1000C0003C08803A0319742878282100300822005F
:1000D0008E0078282100310822008E007828210027
:1000E000320822008E0078282100330822008E007A
:1000F00020003C0822008D002100370803198228C7
:10010000B70388282100B9012100B8012100B601F8
:1001100020009110090020008B1322000D08200000
:10012000E10021000E082000E20022008D01D830FD
:1001300021008E00031021003E0D2000E300E401A9
:1001400020008E1FA5282000E40A20006308E50097
:100150006408E30065042100BE0003103E0D20008A
:10016000E300E40120000E1EB7282000E40A20006E
:100170006308E5006408E30065042100BE00031085
:100180003E0D2000E300E40120000E1FC9282000DE
:10019000E40A20006308E5006408E3006504210028
:1001A000BE0003103E0D2000E300E40120008E1D80
:1001B000DB282000E40A20006308E5006408E3006F
:1001C00065042100BE002000610822008D0020008F
:1001D000620821008E0020008B1721003D08031DBE
:1001E000BD030F3021003A020318032D80308A002E
:1001F000FD303A0703188A0A82000C295E29762905
:100200009129B7298F2C4B2CB32CBF2C032D032DF8
:10021000DB29742A172B7F2B883021003E05200014
:10022000E100083A031D1B291B302100BD000630E8
:100230002100BA00052D003021003E040319052DD0
:100240007F308F31972781312000E2007708E1006D
:1002500062040319052D333021003E052000E10022
:10026000033A031D372901302100BA00052D223041
:1002700021003E052000E100023A031D432902301F
:100280002100BA00052D113021003E052000E100BB
:10029000013A031D52290D302100BD000330210019
:1002A000BA00052D443021003E052000E100403A0F
:1002B000031D052D07302100BA00052D0030F60082
:1002C0006D30F70000308E3114268131210030105E
:1002D0002100B3163315333021003E052000E10024
:1002E000333A0319052D2100BA01052D72308F31E3
:1002F000972781312000E3007708E1000130F60004
:100300006108F70063088E31142681312230210004
:100310003E052000E100223A0319052D2100BA0113
:10032000052D7B308F31972781312000E30077083E
:10033000E100E4000030F7006408172506302000D3
:1003400064020318AC2921003D08031DAC291130BB
:10035000BD0004302100BA00113021003E0520000C
:10036000E100113A0319052D2100BA01052D76305F
:100370008F31972781312000E3007708E1000030BA
:10038000F6006108F70063088E31142681312100E0
:100390003D08031DD0290D30BD0005302100BA00F5
:1003A000113021003E052000E100113A0319052D0E
:1003B0002100BA01052D21003316B316331506307E
:1003C00021003B0203180C2A21003C1CEE29853039
:1003D0002100B000D1302100B100F42961302100AA
:1003E000B00019302100B100031021003C0C2000A6
:1003F000E100933EE10087300318013EE30061080D
:10040000F6006308F700803087311D278231200015
:10041000E4002100B2006D2A0430F70021003C08FE
:100420008731742782312000E100E30161084C3EEE
:10043000E10063080318630F873EE3006108F600DC
:100440006308F700803087311D2782312000E400E7
:100450002100B0000430F70021003C0887317427E8
:1004600082312000E100E30161084C3EE1006308B5
:100470000318630F873EE300E10A0319E30A6108EA
:10048000F6006308F700803087311D278231200095
:10049000E4002100B1000430F70021003C0887315E
:1004A000742782312000E100E30161084C3EE10045
:1004B00063080318630F873EE3000230E107031867
:1004C000E30A6108F6006308F700803087311D27D2
:1004D00082312000E4002100B2006E302100BD0016
:1004E0000C302100BA00052D003021003D04031D11
:1004F0007C2A2100BA01052D883021003E0520000C
:10050000E100803A031D882A07302100BA00052D3A
:10051000223021003E052000E100203A031DA92AD7
:100520002100BC0A063021003B0203189E2A13302A
:1005300021003C02031CA52ABC01A52A0A30210087
:100540003C02031CC72ABC01C72A0B302100BA0099
:10055000052D113021003E052000E100103A031D59
:10056000E72A2100BC03063021003B020318C02A01
:10057000133021003C02031CE32A1230BC00E32AA2
:100580000A3021003C02031CC72A0930BC007B3022
:100590008F31972782312000E3007708E100E400E3
:1005A00006306402031CE32A21003C08043A031DC0
:1005B000DC2ABC0ABC0AE32A21003C08053A031DD8
:1005C000E32AFE30BC070B302100BA00052D443071
:1005D00021003E052000E100403A031D052D1330A7
:1005E000F70021003B088731742782312000E100A9
:1005F00021003C082000E10761088F3197278231F4
:100600002000E8007708E70020006108F6002000DD
:100610006708F700680857252000E8007708E7001A
:100620006E302100BD000D302100BA00052D0630CE
:1006300021003B020318332B21003C1C292B0030E6
:10064000F60020006708F70068088E311426833111
:10065000782B0130F60020006708F70068088E311B
:1006600014268331782B0430F70021003C088731B1
:10067000742783312000E100E30161084C3EE10072
:1006800063080318630F873EE3000330E107031894
:10069000E30A6108F6006308F700803087311D2700
:1006A00083312000E400043064020318612B013020
:1006B000F60020006708F70068088E3114268331A1
:1006C000782B20006408063A031D6F2B2000670872
:1006D0002000E1000030F70061081725782B00307A
:1006E000F60020006708F70068088E311426833171
:1006F0006E302100BD000E302100BA00052D1330F0
:10070000F70021003B088731742783312000E10086
:1007100021003C082000E10721003D08031D932B28
:100720002100BA01052D883021003E052000E3009C
:10073000803A031D9F2B0B302100BA00052D2100AC
:10074000BE1EB52B2000E70A0319E80A6808803EA0
:100750007D3E031DAD2BE9306702031CCB2B093016
:100760002000E7070318E80ACB2B21003E1EE22BEE
:10077000FF302000E707031CE8036808803E7D3E49
:10078000031DC42BE9306702031CCB2BF73020007C
:10079000E707031CE80320006108F6002000670853
:1007A000F700680857252000E8007708E7001F30A9
:1007B00028001D02031CDE2BF8309D070D302100A0
:1007C000BA00052D443021003E052000E300403AE8
:1007D000031D472C21003B08063A031D392C21003C
:1007E0003C08093A031D392C0030F6000030F700B0
:1007F00076308F315A2783310030F6000030F70011
:1008000077308F315A27843120006808803E803E3F
:10081000031D0C2C063067020318392C20006708D2
:100820002000E3001330F700630887317427843118
:100830002000E4008F31972784312000E5007708FD
:10084000E300F6006508F70072308F315A278431D3
:100850002000E40A64088F31972784312000E400E7
:100860007708E3006404031D392C06302000E700FC
:10087000E80120006708F6006808F700200061081A
:100880008F315A2784310B302100BA00052DFA3000
:1008900028009D00052D003021003D04031D842CFF
:1008A0007F308F31972784312000E3007708E10003
:1008B000E4006408003003190130E100E500E601BE
:1008C000E51BE6036508F6006608F7007F308F3108
:1008D0005A278431200064080319772C22000C1059
:1008E0000C128C122800171120009310812C3C3020
:1008F0002100AE00AF013C302100AC00AD0128006A
:1009000017152100BA01052D883021003E05200071
:10091000E100883A0319052D2100BA01052D773031
:100920008F31972784312000E4007708E100003000
:10093000F6006108F70064088E3114268431210026
:100940003D08031DA82C0D30BD0003302100BA0066
:10095000113021003E052000E100113A0319052D58
:100960002100BA01052D0130F70021003B081725B1
:100970006E302100BD0008302100BA00052D003086
:1009800021003D040319CC2C883021003E052000B5
:10099000E100803A031DCF2C2100BA01052D223041
:1009A00021003E052000E100203A031DE12C21003A
:1009B000BB0A07303B020318BB0107302100BA0015
:1009C000052D113021003E052000E100103A031DE5
:1009D000F52C2100BB0307303B02031CF12C063031
:1009E000BB0007302100BA00052D443021003E0530
:1009F0002000E100403A031D052D2100BC010B3011
:100A00002100BA00052D2100BA0121003A0800306A
:100A1000031901302000E100E400640C0318122DDA
:100A200020009913031C162D2000991708002000A0
:100A3000D1007708D00021003316B3163315B31454
:100A400006302000510203183E2D19302100B0005D
:100A5000DD302100B10020005108933ED1008730E5
:100A60000318013ED3005108F6005308F700803008
:100A700087311D2785312100B200562D003020001E
:100A8000500403194D2D61302100B00009302100C0
:100A9000B100C9302100B200562DC9302100B0008C
:100AA000D1302100B100FF302100B2000800200049
:100AB000D8007708D7007608D900DA01DB01E730E3
:100AC000DC000330DD007230590203187D2D590817
:100AD000DE00133020005E02031C712DED30DE07B6
:100AE000692D20005E18F32D7030DA00FE30DB0037
:100AF0007830DC000530DD00F32D8E302000D90782
:100B00000430F70059088731742785312000DE0052
:100B1000DF015E084C3ED9008730E0005F08031813
:100B20005F0FE0070330D9070318E00A5908F60001
:100B30006008F700803087311D2785312000DE00F6
:100B40005E08031DAC2D7030DA00FE30DB0078301B
:100B5000DC000530DD00F32D20005E08013A031DA6
:100B6000B92DCE30DA00FF30DB003230DC00DD01A1
:100B7000F32D20005E08083A031DC22D0130DC0071
:100B8000DD01F32D20005E08023A031DCB2D32302B
:100B9000DC00DD01F32D20005E08033A031DD92D92
:100BA0007030DA00FE30DB009030DC000130DD0018
:100BB000F32D20005E08043A031DE22D0830DC000E
:100BC000DD01F32D20005E08053A031DEB2D3C30BE
:100BD000DC00DD01F32D20005E08063A031DF32D35
:100BE0000630DC00DD0120005C08F3005D08F40045
:100BF0005A08F5005B08F6005708F7005808072662
:100C00002000D8007708D700F70058080800200017
:100C1000D1007708D0007608D3007508D200740898
:100C2000D5007308D4005508803ED6005108803E98
:100C30005602031D1D2E500854020318242E2000B6
:100C40005208F70053083A2E20005108803ED60083
:100C50005308803E5602031D2F2E520850020318DF
:100C6000362E20005408F70055083A2E2000500870
:100C7000F70051080800BB30F6008630F7008030DE
:100C800087312F2786312100A1007708A000BD30D1
:100C9000A2008630A30021002008A4002108A5009E
:100CA000FF30A007031CA103240825040319B82E54
:100CB00004302207A400A501A50D2308A5072408D8
:100CC000F6002508F700803087312F278631210074
:100CD000A7007708A6002208F6002308F700803056
:100CE00087312F2786312100A900A5007708A800A9
:100CF000A40002302207A400A501A50D2308A50722
:100D00002408F6002508F700803087312F27863128
:100D10002100A500AB007708A400AA002100260846
:100D2000AA002708AB00FF30A607031CA7032A0868
:100D30002B040319B22E2808F6002908F70080308A
:100D400087311D2786312100AA0024088400250848
:100D500085002A088000A80A0319A90AA40A031911
:100D6000A50A8E2E06302100A2070318A30A4B2ED7
:100D70008831002808001034003403340034B334C0
:100D8000003401340034A1340734B4340034013465
:100D90000034FE340F346E34003402340034A23494
:100DA0000734B534003401340034A3340734B63486
:100DB000003401340034A4340734B734003401342F
:100DC0000034A5340734B834003401340034A63478
:100DD0000734B9340034013400349D340734AC3462
:100DE0000034023400349F340734AE34003402340B
:100DF0000034A7340734BA34003401340034A83442
:100E00000734BB34003401340034A9340734BC3413
:100E1000003401340034AA340734BD3400340134C2
:100E20000034AB340734BE34003401340034AC3405
:100E30000734BF34003401340034003A0319242F3E
:100E4000803A03192A2F0034760884007708850039
:100E50000008080077088A00760882000800003A37
:100E60000319372F803A03193F2FF7010034760812
:100E70008400770885001200F70000080800873119
:100E80002A27F500F60FF703F70A87312A27F4001F
:100E90007508F7007408080061341934FF34003411
:100EA000D134A134FF340234C934CD34FF34013499
:100EB00061341134FF3403346134C934FF340434F1
:100EC0008534D134FF340734CD348534FF340534D0
:100ED000D1348534FF340534DD341934FF3408341B
:100EE000DD34D534FF3406342000E9007708EA0009
:100EF000EB010830EC002000691C802F6A08EB072A
:100F000020006908ED0003106D0CE90003106A0D64
:100F1000ED00EA006C08ED006D03EC006C08031DA9
:100F20007B2F6B0808000334B7340D342534B134FB
:100F3000613441343734013421343C3400343C349E
:100F40000034003400340034003400340034003401
:0A0F50000034003400340034003493
:101000002000C001C101C2018030C3006A3021004C
:1010100099000E308C0022008C0121008D012200ED
:101020008D0121008E01043023008C0021001E164A
:101030009E1723008E01053020009C00FA309B0093
:10104000210091147230280097007F3097272000EC
:10105000A7007708A900A800280C03183128280049
:101060001711031C352828001715FA3028009600A0
:1010700037309E00FA309D00C83020008B000230CF
:10108000270091009201093021009D0020008B1360
:10109000083021003802031C642921003508200093
:1010A000C4002100B80120008B1720004408200054
:1010B000AC002000CB062100B60121003908031D39
:1010C000B12820002C082000CC0020002C08200093
:1010D000CB002000CD0120004C08203A03197428D1
:1010E0004C08E03A031D782801302100B9004E2950
:1010F00020002C08013A031D892820006E082000DA
:10110000CE0020006F082000CF0005302100B9007C
:101110004E2920002C08023A031D9D28AD01220013
:101120000C1E94282000AD0A20002D082000CE00BF
:10113000CF0105302100B9004E2920002C08033AC8
:10114000031D4E29AD0122008C1EA8282000AD0AE7
:1011500020002D082000CE00CF0105302100B9006D
:101160004E2921003908013A031DCE2820002C0801
:101170002000CD0020004C08E03A031DC3280230B7
:101180002100B9004E2920004D0897272000CF00EC
:101190007708CE0005302100B9004E29210039081A
:1011A000023A0319D7283908033A031DEB28200017
:1011B0004E082000BD00AD012C08BE00BF013E0856
:1011C0002D042000CE0020003F083D042000CF0069
:1011D0002100B90A4E2921003908043A031D1029BB
:1011E00020004B08031D072920004E082000AC00FA
:1011F00020004F082000AD002C08F6002D08F70055
:1012000020004D085A279A302100B5000A2966307F
:101210002100B50001302100B6002100B9014E299E
:1012200021003908063A031D202920004E0821001C
:10123000B50001302100B60007302100B9004E2969
:1012400021003908073A031D412920004D082000DC
:101250004C062000AC0020004F082000AD00BD016E
:101260002D08BE00AC0620004E082000AD002C0664
:101270002100B50001302100B60008302100B9007E
:101280004E2921003908083A031D4E299A302100C1
:10129000B50001302100B6002100B9012100390854
:1012A000053A031957293908063A031D6429200015
:1012B0004F082000AC00AD012C082100B500013022
:1012C0002100B6002100B90A20008B17931D7B294D
:1012D00080318B208931280017197929FF302100AE
:1012E000B30003302100B00059302100B2002100CA
:1012F000B100200093112000931C112E2000C00A81
:101300000319C10A401CCA294208F70043082000FB
:10131000A0007708A10021009D1421009D188D29AF
:101320001D102000210E0F39A200200EA300F0395D
:10133000A204A3060310A30CA20C0310A30CA20C7E
:101340002208A1022308031C230FA00221001C086D
:101350002000A200A3012208A400A60121001B086E
:101360002000A200A3012208A6042308A404260842
:10137000A2002408A3002208A10723080318230FB2
:10138000A0072108F7002008C3007708C200093031
:1013900021009D00200040080F39031D0F2E420838
:1013A000F70043082000A0007708A1002030A20029
:1013B000A301A401A601210E0F39A500200EA7004C
:1013C000F039A504A7060310A70CA50C3F30A5050E
:1013D000A7012508A9000310200CA500A7010310F0
:1013E000A70CA50C0310A70CA50C1F30A505A70181
:1013F0002508A8002008A500A7012508A100F830AD
:1014000021020318072A093021020318092A2100A2
:1014100034142000280AA1000230F7002108873187
:1014200074278A312000A000A5012008BE3EA0003C
:101430008F30A10025080318250FA1070230F700FF
:101440002808873174278A312000A500A7012508C4
:10145000BE3EA50027080318270F8F3EA700A8014E
:10146000200029082802031C582A2508F60027080E
:10147000F700803087312F278A312000AB007708B2
:10148000AA00AC002B08AD000030AD1BFF30BD0042
:10149000BE002C08A2072D0803182D0FA3073E0835
:1014A00003183E0FA4073D0803183D0FA6077B2A2B
:1014B00020002008F6002108F700803087312F2710
:1014C0008A312000AB007708AA00AC002B08AD00E1
:1014D0000030AD1BFF30BD00BE002C08A2072D0858
:1014E00003182D0FA3073E0803183E0FA4073D085D
:1014F00003183D0FA6072000A80A40302802031C4D
:10150000302A220E0F39A100230EA000F039A104C9
:10151000A006240EA500F039A004A506260EA700FB
:10152000F039A504A706F030A719A7040310A71BDC
:101530000314A70CA50CA00CA10C0310A71B0314EB
:10154000A70CA50CA00CA10C2108A2002008A30048
:101550002208F7002308C5007708C40074309727D5
:101560002000C7007708C6004408C8004508C90025
:10157000460848072000EE00200049082000EF0040
:10158000200047080318470A0319C82A2000EF075C
:101590002100341CCE2A22000C14D02A22000C1068
:1015A0002100341022000C1CEF2A2000991FE32A8E
:1015B00011302100B000CB302100B100FF302100FC
:1015C000B2002100B30022000C128C123C3021002A
:1015D000AE00AF013C302100AC00AD010F2E7B30DE
:1015E00097272000C5007708C400C60006304602D1
:1015F0000318272C2100331320004008C4004108A1
:10160000C500C601C7014708803E803E031D122B5E
:1016100000304602031D122BEA304502031D122B37
:1016200060304402031C2C2C7B3097272000AC0038
:101630007708AD00BD0006303D020318232C76303C
:1016400097272000AC007708AD00BE0077309727C1
:101650002000AC007708AD00AD0A0319AC0A0930D0
:101660003E02031C352B0830BE001330F70020006B
:101670003D08873174278B312000BF0003103E0DD9
:10168000BD003F07BD003D0ABF0097272000AE0008
:101690007708BF0002303D07AF0097272000B00059
:1016A0007708AF002E082C02031D582B3F082D028F
:1016B000031C862B20002F08F6003008F70072303C
:1016C0005A2720003E08083A0319712B03303D07C2
:1016D000B10097272000B2007708B1003204031D43
:1016E000782B0630F6000030F7007B305A27232C89
:1016F0002000AD01AC01BE0A3E08B100B2013108C4
:10170000F6003208F70076305A271C2C7A309727DB
:101710002000B1007708BE00310403191C2C3D08DD
:1017200097272000BE007708BD002C0EF039B200CC
:101730002D0EB1000F39B204B1060310B10DB20D78
:101740000310B10DB20D2030B300B401B501B601E4
:10175000B70120002E083202031DB02B3F083102D2
:10176000031CD12B20003F08B1022E08031C2E0FB2
:10177000B2022F08B8003008B9000030B91BFF30A2
:10178000BB00BA003808B30739080318390FB4078B
:101790003A0803183A0FB5073B0803183B0FB60782
:1017A000E92B20003D08B8003E08B9000030B91B05
:1017B000FF30BB00BA003808B30739080318390FE7
:1017C000B4073A0803183A0FB5073B0803183B0F54
:1017D000B6072000B70A40303702031CA92B330E8E
:1017E0000F39B300340EB400F039B304B406350E2B
:1017F000B500F039B404B506360EB600F039B504BC
:10180000B606F030B619B6040310B61B0314B60CB6
:10181000B50CB40CB30C0310B61B0314B60CB50C0A
:10182000B40CB30C3308BD003408BE003D08F6000C
:101830003E08F70072305A2720002D08F6002C08C9
:10184000F70077305A272000C001C1012C2C21005D
:1018500033172000C001C101753097272000C50053
:101860007708C400450403199C2C72309727200088
:10187000C7007708C60020006E082000C8002000BE
:101880006F082000C90046084802C6004708031C2C
:10189000470A4902C7000314C71F0310031C552C35
:1018A000C609C709C60A0319C70A03142000C51FC1
:1018B0000310031C7E2CC409C509C40A0319C50AF8
:1018C0004508803ECA004708803E4A02031D6A2C34
:1018D000460844022000C801031C48144808003090
:1018E00003190130C900C800480C0318792C2200E4
:1018F0000C10031C7D2C22000C149C2C200047088B
:10190000803ECA004508803E4A02031D892C4408D7
:1019100046022000C801031C48144808003003197F
:101920000130C400C800480C0318982C22000C1089
:10193000031C9C2C22000C14723097272000A70057
:101940007708A90021002C082D040319AB2CFF30C7
:10195000AC07031CAD0321002E082F040319B42C7F
:10196000FF30AE07031CAF032000A80122000C1EAD
:10197000BB2C2000A80A20002808003003190130E1
:10198000AB00A800280C0318C72C2100B313031CBC
:10199000CB2C2100B3172000A80122008C1ED22CD2
:1019A0002000A80A20002808003003190130AB00ED
:1019B000A800280C0318DE2C2100B311031CE22C14
:1019C0002100B31522000C1EF62C20002708803EB3
:1019D000AA0020006F08803E20002A02031DF42C7C
:1019E00020006E08200029020318082D22008C1EFA
:1019F000662D20006F08803E2000AA002708803E48
:101A00002A02031D062D290820006E02031C662DE4
:101A1000783097272000AB007708A8002B0EF0390C
:101A20002100AD002000280E2100AC000F39AD04CC
:101A3000AC060310AC0DAD0D0310AC0DAD0D2C0EAE
:101A40000F392000A80021002D0E2000AB00F03936
:101A5000A804AB0628082100AC0220002B08031CB8
:101A60002B0A0319352D2100AD027930972720006C
:101A7000AB007708A8002B0EF0392100AF00200042
:101A8000280E2100AE000F39AF04AE060310AE0DD4
:101A9000AF0D0310AE0DAF0D2E0E0F392000A800B4
:101AA00021002F0E2000AB00F039A804AB06280857
:101AB0002100AE0220002B08031C2B0A0319622D03
:101AC0002100AF0222000C128C12DE2D22000C1A13
:101AD000DE2D8C1ADE2D733097272000AB0077089F
:101AE000A8002907AA002708AC002B0803182B0F11
:101AF000AC072C08803EAD0020006F08803E20001F
:101B00002D02031D872D20006E0820002A020318D5
:101B1000A92D21002C082D040319A62D2000AA01AF
:101B20002100B31F952D2000AA0A21002C0801399D
:101B30002000AC00AD00AA062A0C0318A12D21003C
:101B4000B313031CA52D2100B317DE2D22000C16A4
:101B5000DE2D20002808A9022B08031C2B0FA7024A
:101B600020006F08803E2000BD002708803E3D0217
:101B7000031DBD2D290820006E020318DE2D210053
:101B80002E082F040319DC2D2000A9012100B31D0C
:101B9000CB2D2000A90A21002E0801392000A70022
:101BA000A800A906290C0318D72D2100B311031C86
:101BB000DB2D2100B315DE2D22008C162000991F8D
:101BC0000F2E22000C1CF12D23001D1FF12D613062
:101BD0002100B00011302100B100FF302100B2001F
:101BE000F82D0130F60020006E08F7006F0814266B
:101BF0002000C40123001D1FFF2D2000C40A200067
:101C00004408003003190130C600C400440C031816
:101C10000B2E23001D13031C0F2E23001D17200065
:101C200093106400462808002000A9007708A80047
:101C30007608AB000314A91F0310031C282E2100F3
:101C400033122000A809A909A80A0319A90A2A2EF3
:101C50002100331620002B08013A031D332E2100EA
:101C6000B3123311362E2100B31633152000290884
:101C7000803E7D3E031D3E2EE8302802031C4E2E82
:101C800020002808AA002908AC002A08F7002C0820
:101C9000F1262000A9007708A800AB012000290840
:101CA000803E803E031D562E64302802031C8A2E7F
:101CB00020002808AA002908AC00AD0120002C084B
:101CC000803E803E031D662E64302A02031C6F2E68
:101CD0009C302000AA07031CAC03AD0A5E2E200036
:101CE0002A08A8002C08A9000F30AD052D08933E46
:101CF000AD0087300318013EAA002D08F6002A081F
:101D0000F700803087311D278E312000AC00210084
:101D1000B0008D2EFF302100B00020002908803E49
:101D2000803E031D952E0A3028020318A22E2000A3
:101D30002B08031DA22E210030082000AA00FF3A24
:101D40000319D82E20002808AA002908AC00AD01EC
:101D500020002C08803E803E031DB02E0A302A024F
:101D6000031CB92EF6302000AA07031CAC03AD0AF1
:101D7000A82E20002A08A8002C08A9002D08933EB0
:101D8000AD0087300318013EAA002D08F6002A088E
:101D9000F700803087311D278E312000AC002100F4
:101DA000B10020002B080319DB2E21003110DB2E9F
:101DB000FF302100B10020002808AB00933EA800AE
:101DC00087300318013EA9002808F6002908F7000B
:101DD000803087311D278E312000AB002100B200FA
:101DE00008002000A0007708A1000310200CA2002A
:101DF000210CA3000310200CA400210CA60003104A
:101E0000A40CA60C2608A30724080318240FA20775
:101E1000230E0F39A600220EA400F039A604A40652
:101E20002608A30724080318240FA2072208A600E7
:101E3000A4012608A30724080318240FA2070310EF
:101E4000A20CA30C0310A20CA30C0310A20CA30C55
:101E50000310230DA600220DA4000310A60DA40D4F
:101E60000310A60DA40D0310230DA500220DA7003D
:101E70002508A60727080318270FA4072608A1028C
:101E80002408031C240FA0020630A1070318A00A8F
:101E9000210E0F39A600200EA400F039A604A406D6
:101EA0002608A30724080318240FA2072308F70015
:101EB000220808002000A7007708A9007608A800DB
:101EC000270897272000AB007708AA002806031DE3
:101ED0006D2F2B0829060319962F03102000270DBC
:101EE000AA0020002A0823009100200028082300CF
:101EF000930015139513151520008B1355302300EF
:101F00009600AA309600951420008B172300151117
:101F100023009518882F2000121220002908A800FD
:101F2000A9012A08A700AA0A271C712F080020006F
:101F3000A000A101A2010310200DA300200023088E
:101F40002300910015139513151413082000A00009
:101F5000A4012008A600A5012208A000A4012008D1
:101F60002504A10024082604A2002308A000A30A37
:101F7000201C9E2F2108F70022080800003400349E
:101F80001A34FE349D34FE34F234FE343334FF34DC
:101F90006934FF349834FF34C334FF34EB34FF34F6
:101FA0001034003433340034553400347734003482
:101FB00098340034B8340034D9340034FA3400345E
:101FC0001C3401343E34013462340134873401342A
:101FD000AF340134D9340134073402343934023493
:101FE00070340234B0340234FB34023458340334D5
:101FF000D134033482340434CA3405340034003418
:020000040001F9
:02000E00D40F0D
:02001000FF3AB5
:00000001FF
