:020000040000FA
:1000000000008631022EFF348A012000911C412815
:10001000031022000D0D2000BF003F08031D122811
:100020001030BF0021008E0122008D0120003F080A
:10003000103A031928283F08203A03192D283F08B1
:10004000403A031932283F08803A031937283B28E1
:1000500021002E0822008E003B2821002F082200BC
:100060008E003B282100300822008E003B28210012
:10007000310822008E0020003F0822008D00200061
:100080009110090020008B1322000D082000DD00D4
:1000900021000E082000DE0022008D01D830210052
:1000A0008E0003102100360D2000DF00E00120004B
:1000B0008E1F5C282000E00A20005F08E100600835
:1000C000DF0061042100B6000310360D2000DF00C0
:1000D000E00120000E1E6E282000E00A20005F08CC
:1000E000E1006008DF0061042100B6000310360D56
:1000F0002000DF00E00120000E1F80282000E00A21
:1001000020005F08E1006008DF0061042100B60004
:100110000310360D2000DF00E00120008E1D922824
:100120002000E00A20005F08E1006008DF006104B1
:100130002100B60020005D0822008D0020005E082E
:1001400021008E0020008B1721003508031DB50308
:100150000D30210032020318AF2C80308A00B430F9
:10016000320703188A0A8200C1282B2913298529FE
:10017000A029C629EA290E2A1A2A5E2AF72A9A2BCA
:10018000E32B8830210036052000DD00083A031DEE
:10019000D0281B302100B50001302100B200B12C65
:1001A0000030210036040319B12C7F308F31A52790
:1001B00080312000DE007708DD005E040319B12CD9
:1001C0003330210036052000DD00033A031DEC2802
:1001D00002302100B200B12C22302100360520006F
:1001E000DD00023A031DF82803302100B200B12CD3
:1001F0001130210036052000DD00013A031D0729DA
:100200000D302100B50004302100B200B12C443083
:10021000210036052000DD00403A031DB12C0730D7
:100220002100B200B12C0030F6006C30F700003035
:100230008E312226813121002E102100B116311578
:100240003330210036052000DD00333A0319B12C8C
:100250002100B201B12C003021003504031D6429B6
:100260007F308F31A52781312000DF007708DD0046
:10027000E0006008003003190130DD00E100E20118
:10028000E11BE2036108F6006208F7007F308F315E
:1002900068278131200060080319572922000C10BB
:1002A0000C128C12280017112000931061293C3089
:1002B0002100AC00AD013C302000EE00EF01280031
:1002C00017152100B201B12C88302100360520001D
:1002D000DD00883A0319B12CDD0123001E1F7229AD
:1002E0002000DD0A20005D08003003190130E00025
:1002F000DD005D0C03187E2923001E13031C8229D8
:1003000023001E172100B201B12C77308F31A527B1
:1003100081312000E0007708DD000130F6005D0843
:10032000F70060088E312226813122302100360507
:100330002000DD00223A0319B12C2100B201B12CBA
:100340007E308F31A52781312000E0007708DD0065
:10035000E1000030F7006108C3240630200061028C
:100360000318BB2921003508031DBB291130B50036
:1003700005302100B2001130210036052000DD00DB
:10038000113A0319B12C2100B201B12C78308F3110
:10039000A52781312000E0007708DD000030F6005D
:1003A0005D08F70060088E31222681312100350872
:1003B000031DDF290D30B50006302100B2001130D9
:1003C000210036052000DD00113A0319B12C21006F
:1003D000B201B12C79308F31A52781312000E000A6
:1003E0007708DD000030F6005D08F70060088E3108
:1003F0002226813121003508031D032A0D30B50066
:1004000004302100B2001130210036052000DD004B
:10041000113A0319B12C2100B201B12C0130F700BF
:1004200021003308C3246E302100B50008302100BC
:10043000B200B12C0030210035040319272A88307E
:10044000210036052000DD00803A031D2A2A210004
:10045000B201B12C2230210036052000DD00203A07
:10046000031D3C2A2100B30A073033020318B301ED
:1004700007302100B200B12C1130210036052000D8
:10048000DD00103A031D502A2100B3030730330268
:10049000031C4C2A0630B30007302100B200B12CF7
:1004A0004430210036052000DD00403A031DB12C08
:1004B0002100B40109302100B200B12C2100311615
:1004C000B116311506302100330203188F2A21009E
:1004D000341C712A85302100AE00D1302100AF00DC
:1004E000772A61302100AE0019302100AF000310DF
:1004F0002100340C2000DD00543EDD00873003185D
:10050000013EE0005D08F6006008F70080308731AA
:10051000062782312000E1002100B000F02A0430DB
:10052000F700210034088731352782312000DD00B3
:10053000E0015D08CC3EDD0060080318600F8F3ECF
:10054000E0005D08F6006008F7008030873106277C
:1005500082312000E1002100AE000430F7002100CC
:1005600034088731352782312000DD00E0015D0845
:10057000CC3EDD0060080318600F8F3EE000DD0A0E
:100580000319E00A5D08F6006008F7008030873143
:10059000062782312000E1002100AF000430F7007F
:1005A000210034088731352782312000DD00E00149
:1005B0005D08CC3EDD0060080318600F8F3EE00050
:1005C0000230DD070318E00A5D08F6006008F70056
:1005D00080308731062782312000E1002100B00001
:1005E0006E302100B5000A302100B200B12C00307D
:1005F00021003504031DFF2A2100B201B12C8830EF
:10060000210036052000DD00803A031D0B2B07304A
:100610002100B200B12C2230210036052000DD007F
:10062000203A031D2C2B2100B40A0630210033028E
:100630000318212B133021003402031C282BB40192
:10064000282B0D3021003402031C4A2BB4014A2B05
:1006500009302100B200B12C1130210036052000F4
:10066000DD00103A031D6A2B2100B403063021007F
:1006700033020318432B133021003402031C662B72
:100680001230B400662B0D3021003402031C4A2BBB
:100690000C30B4007E308F31A52783312000E0007C
:1006A0007708DD00E10006306102031C662B2100A3
:1006B0003408063A031D5F2BB40AB40A662B2100E6
:1006C0003408073A031D662BFE30B40709302100B9
:1006D000B200B12C4430210036052000DD00403A44
:1006E000031DB12C1330F700210033088731352763
:1006F00083312000DD00210034082000DD075D0883
:100700008F31A52783312000E4007708E300200023
:100710005D08F60020006308F70064080325200048
:10072000E4007708E3006E302100B5000B302100B3
:10073000B200B12C0630210033020318B62B210081
:10074000341CAC2B0030F60020006308F70064086E
:100750008E3122268331DC2B0130F6002000630825
:10076000F70064088E3122268331DC2B063021000D
:1007700034020318C52B0130F60020006308F7008F
:1007800064088E3122268331DC2B0C3021003402A8
:100790000318D42B0030F60020006308F70064082B
:1007A0008E3122268331DC2B200063082000DD00FF
:1007B0000030F7005D08C3246E302100B5000C3016
:1007C0002100B200B12C1330F7002100330887312B
:1007D000352783312000DD00210034082000DD07AB
:1007E00021003508031DF72B2100B201B12C883000
:1007F000210036052000E000803A031D032C09305B
:100800002100B200B12C2100B61E192C2000E30AF1
:100810000319E40A6408803E7D3E031D112CE93073
:100820006302031C2F2C09302000E3070318E40A9D
:100830002F2C2100361E462CFF302000E307031C1E
:10084000E4036408803E7D3E031D282CE9306302EA
:10085000031C2F2CF7302000E307031CE4032000C7
:100860005D08F60020006308F700640803252000F7
:10087000E4007708E3001F3028001D02031C422C0F
:10088000F8309D070B302100B200B12C443021001C
:1008900036052000E000403A031DAB2C2100330850
:1008A000063A031D9D2C210034080C3A031D9D2C93
:1008B0000030F6000030F70078308F31682784313F
:1008C0000030F6000030F70079308F31682784312E
:1008D00020006408803E803E031D702C06306302B9
:1008E00003189D2C200063082000E0001330F7005F
:1008F00060088731352784312000E1008F31A5273A
:1009000084312000E2007708E000F6006208F7007A
:1009100077308F31682784312000E10A61088F31F8
:10092000A52784312000E1007708E0006104031D61
:100930009D2C06302000E300E40120006308F6004F
:100940006408F70020005D088F3168278431093082
:100950002100B200B12CFA3028009D00B12C2100FA
:10096000B201210032080030031901302000DD00FF
:10097000E000600C0318BE2C20009913031CC22C4D
:100980002000991708002000D0007708CF00210030
:100990003116B1163115B11406302000500203187B
:1009A000EA2C19302100AE00DD302100AF0020001C
:1009B0005008543ED00087300318013ED200500842
:1009C000F6005208F7008030873106278431210075
:1009D000B000022D003020004F040319F92C6130C3
:1009E0002100AE0009302100AF00C9302100B00065
:1009F000022DC9302100AE00D1302100AF00FF3000
:100A00002100B00008002000D7007708D600760843
:100A1000D8007230580203183D2D5808D900133001
:100A200020005902031C172DED30D9070F2D20008F
:100A3000591C2B2DE730F3000330F4000030F50093
:100A40000030F6005608F7005708CE252000D700E2
:100A50007708D600C92DC430F3000930F400703097
:100A6000F500FE30F60020005608F7005708CE25A6
:100A70002000D7007708D600C92D0430F7002000E9
:100A800058088731352785312000D900DA01590807
:100A9000CC3ED8008F30DB005A0803185A0FDB0712
:100AA0000330D8070318DB0A5808F6005B08F70084
:100AB00080308731062785312000D900D801DA013E
:100AC000E730DB000330DC005908031D702D703067
:100AD000D800FE30DA00C430DB000930DC00B82D6D
:100AE00020005908013A031D7D2D9C30D800FF30AD
:100AF000DA006430DB00DC01B82D20005908043A2C
:100B0000031D862D6430DB00DC01B82D2000590860
:100B1000053A031D902DF430DB000130DC00B82DC8
:100B200020005908063A031D9E2DE030D800FC3005
:100B3000DA002030DB000330DC00B82D200059083B
:100B4000073A031DA72D0830DB00DC01B82D20007B
:100B50005908083A031DB02D3C30DB00DC01B82DEC
:100B600020005908093A031DB82D0630DB00DC01CE
:100B700020005B08F3005C08F4005808F5005A08F0
:100B8000F6005608F7005708CE252000D700770852
:100B9000D60020005608F700570808002000D000B3
:100BA0007708CF007608D2007508D1007408D40009
:100BB0007308D3005408803ED5005008803E55028B
:100BC000031DE42D4F0853020318EB2D200051089C
:100BD000F7005208012E20005008803ED500520830
:100BE000803E5502031DF62D51084F020318FD2DBE
:100BF00020005308F7005408012E20004F08F7008A
:100C0000500808008230F6008630F70080308731C7
:100C1000182786312100A1007708A0008430A200A7
:100C20008630A30021002008A4002108A500FF3081
:100C3000A007031CA1032408250403197F2E0430F8
:100C40002207A400A501A50D2308A5072408F60086
:100C50002508F70080308731182786312100A7004A
:100C60007708A6002208F6002308F70080308731B5
:100C7000182786312100A900A5007708A800A40044
:100C800002302207A400A501A50D2308A50724080A
:100C9000F6002508F70080308731182786312100BB
:100CA000A500AB007708A400AA0021002608AA002E
:100CB0002708AB00FF30A607031CA7032A082B0454
:100CC0000319792E2808F6002908F70080308731AB
:100CD000062786312100AA00240884002508850003
:100CE0002A088000A80A0319A90AA40A0319A50A58
:100CF000552E06302100A2070318A30A122E8831B0
:100D0000002808000B34003403340034B1340034BC
:100D1000013400345E3407346A3400340234003461
:100D2000603407346C3400340234003462340734E5
:100D30006E3400340234003464340734AC3400348C
:100D40000234003466340734B234003401340034E1
:100D500067340734B3340034013400346834073462
:100D6000B43400340134003469340734B534003409
:100D7000013400346A340734B634003401340034AA
:100D80006B340734B7340034013400340034003499
:100D9000D534FD34C134FE345934FF34CF34FF34FC
:100DA0003034003486340034D33400341A340134FF
:100DB0005C3401349C340134DA34013416340234A6
:100DC000513402348C340234C734023402340334D4
:100DD0003F3403347D340334BD34033401340434EC
:100DE0004834043494340434E53404343F34053452
:100DF000A4340534173406349E340634443407349E
:100E00001E3408345D340934AB340B34003A031912
:100E10000D2F803A0319132F0034760884007708C9
:100E200085000008080077088A007608820008001C
:100E3000003A0319202F803A0319282FF7010034B4
:100E400076088400770885001200F7000008080083
:100E500087311327F500F60FF703F70A87311327B9
:100E6000F4007508F700740808002000E500770812
:100E7000E600E7010830E8002000651C412F660805
:100E8000E70720006508E9000310690CE50003107E
:100E9000660DE900E6006808E9006903E8006808F3
:100EA000031D3C2F670808000334B7340D34253484
:100EB000B1346134413437340134213400340034E6
:100EC000003400343C3400343C340034003400340A
:080ED00000340034003400344A
:101000002000C001C101FF30C2007F30C300FF30AB
:10101000C4007F30C5006A30210099000E308C007A
:1010200022008C0121008D0122008D0121008E0102
:10103000063023008C0021001E169E1723008E010F
:10104000053020009C00FA309B0021009114723082
:10105000280097007F30A5272000A7007708A90067
:10106000A800280C0318362828001711031C3A285A
:1010700028001715FA302800960037309E00FA3005
:101080009D00C03020008B00093021009D00200011
:10109000931D5D28803142208831280017195B2874
:1010A000FF302100B10003302100AE005930210093
:1010B000B0002100AF00200093112000931C152DDB
:1010C0002000C00A0319C10A401C72284208F70018
:1010D0004308E4252000C3007708C2000530210042
:1010E0009D007E2820004408F7004508E4252000E4
:1010F000C5007708C400093021009D002000400889
:101100000F39031D132D4208F7004308182520004E
:10111000C7007708C6007430A5272000C9007708EB
:10112000C8004608CA004708CB0048084A07200004
:10113000EA0020004B082000EB00200049080318BB
:10114000490A0319A5282000EB0720004408F700EE
:10115000450818252000C7007708C6007530A52768
:101160002000C9007708C8004608CA004708CB001D
:1011700048084A072000EC0020004B082000ED0042
:10118000200049080318490A0319C8282000ED0760
:1011900020004308C600C70100304702031DD228C3
:1011A000F83046022000C801031C481448080030EB
:1011B00003190130C9004908031D212900304702E5
:1011C000031DE428093046022000C801C80D480864
:1011D000003003190130C6004608031D21297D3067
:1011E000A5272000C8007708C600480403191E2957
:1011F0004508C600C80100304802031D0129F83027
:1012000046022000C901031C491449080030031993
:101210000130CA004A08031D212900304802031D7D
:101220001329093046022000C901C90D49080030C0
:1012300003190130C6004608031D21292000C601FC
:10124000242901302000C60020004608C900490CAE
:1012500003182C2922000C10031C302922000C1426
:1012600022000C1C4A2911302100AE00CB30210095
:10127000AF00FF302100B0002100B10022000C12AD
:101280008C123C302100AC00AD013C302000EE005F
:10129000EF01132D7E30A5272000C9007708C60076
:1012A000CA0006304A020318822A210031132000A6
:1012B0004008C6004108C900CA01CB014B08803E66
:1012C000803E031D6D2900304A02031D6D29EA305E
:1012D0004902031D6D2960304602031C872A7E30B7
:1012E000A5272000AC007708AD00AE0006302E0226
:1012F00003187E2A7830A5272000AC007708AD00BF
:10130000AF007930A5272000AC007708AD00AD0A0A
:101310000319AC0A09302F02031C90290830AF00D2
:101320001330F70020002E0887313527893120003F
:10133000B00003102F0DAE003007AE002E0AB00033
:10134000A5272000B1007708B00002302E07B200B8
:10135000A5272000B3007708B20031082C02031D36
:10136000B32930082D02031CE12920003208F600C1
:101370003308F7007730682720002F08083A031950
:10138000CC2903302E07B400A5272000B50077082C
:10139000B4003504031DD3290630F6000030F700F1
:1013A0007E3068277E2A2000AD01AC01AF0A2F08ED
:1013B000B400B5013408F6003508F7007830682726
:1013C000772A7C30A5272000B4007708AF003404CA
:1013D0000319772A2E08A5272000AF007708AE0052
:1013E0002C0EF039B5002D0EB4000F39B504B4063B
:1013F0000310B40DB50D0310B40DB50D2030B600BB
:10140000B701B801B901BA01200031083502031D46
:101410000B2A30083402031C2C2A20003008B402A6
:101420003108031C310FB5023208BB003308BC0081
:101430000030BC1BFF30BE00BD003B08B6073C08B7
:1014400003183C0FB7073D0803183D0FB8073E08C7
:1014500003183E0FB907442A20002E08BB002F08AE
:10146000BC000030BC1BFF30BE00BD003B08B6070F
:101470003C0803183C0FB7073D0803183D0FB80799
:101480003E0803183E0FB9072000BA0A40303A025E
:10149000031C042A360E0F39B600370EB700F03998
:1014A000B604B706380EB800F039B704B806390EDE
:1014B000B900F039B804B906F030B919B90403100D
:1014C000B91B0314B90CB80CB70CB60C0310B91B3C
:1014D0000314B90CB80CB70CB60C3608AE003708BC
:1014E000AF002E08F6002F08F7007730682720009D
:1014F0002D08F6002C08F700793068272000C0017D
:10150000C101872A210031172000C001C1017630B6
:10151000A5272000C9007708C60049040319F72A47
:101520007730A5272000CB007708CA0020006A0882
:101530002000CC0020006B082000CD004A084C029F
:10154000CA004B08031C4B0A4D02CB000314CB1FEF
:101550000310031CB02ACA09CB09CA0A0319CB0A13
:1015600003142000C91F0310031CD92AC609C90986
:10157000C60A0319C90A4908803ECE004B08803EBE
:101580004E02031DC52A4A0846022000CC01031C56
:101590004C144C08003003190130CD00CC004C0C29
:1015A0000318D42A22000C10031CD82A22000C1481
:1015B000F72A20004B08803ECE004908803E4E02AC
:1015C000031DE42A46084A022000CC01031C4C14E7
:1015D0004C08003003190130C600CC004C0C031835
:1015E000F32A22000C10031CF72A22000C14773077
:1015F000A5272000A7007708A9007330A5272000A1
:10160000A8007708AB007D30A5272000AA00770846
:10161000AC00AD0020006E086F040319132BFF30DF
:10162000EE07031CEF0321002C082D0403191C2BCB
:10163000FF30AC07031CAD032000AC0122000C1EE0
:10164000232B2000AC0A20002C08003003190130A5
:10165000AA00AC002C0C03182F2B2100B113031C83
:10166000332B2100B1172000AC0122008C1E3A2B35
:101670002000AC0A20002C08003003190130AA0019
:10168000AC002C0C0318462B2100B111031C4A2B73
:101690002100B11522000C1E792B20002708803E66
:1016A000AE0020006B08803E20002E02031D5C2B44
:1016B00020006A08200029020318A82B20002D080A
:1016C0000319792B2B082902AC002808031C280ACF
:1016D0002702AA0020006D08803E2000AE002A08E4
:1016E000803E2E02031D772B2C0820006C02031C69
:1016F000A82B22008C1E062C20006B08803E2000A8
:10170000AE002708803E2E02031D892B29082000E9
:101710006A020318A82B20002D080319062C2B0899
:101720002907AC002708AA0028080318280FAA07D1
:101730002A08803EAE0020006D08803E20002E0268
:10174000031DA62B20006C0820002C020318062C79
:101750007A30A5272000AA007708AC002A0EF039BD
:101760002000EF0020002C0E2000EE000F39EF04C7
:10177000EE060310EE0DEF0D0310EE0DEF0D6E0EE5
:101780000F392000AC0020006F0E2000AA00F039B5
:10179000AC04AA062C082000EE0220002A08031C34
:1017A0002A0A0319D52B2000EF027B30A527200041
:1017B000AA007708AC002A0EF0392100AD00200005
:1017C0002C0E2100AC000F39AD04AC060310AC0D9B
:1017D000AD0D0310AC0DAD0D2C0E0F392000AC007B
:1017E00021002D0E2000AA00F039AC04AA062C0816
:1017F0002100AC0220002A08031C2A0A0319022C2B
:101800002100AD0222000C128C12C02C22000C1AF6
:10181000C02C8C1AC02C7230A5272000AA00770893
:10182000AC000310A81B0314A80CAB0C0310A81BDE
:101830000314A80CAB0C2C082907AE002708AF0036
:101840002A0803182A0FAF072F08803EB000200097
:101850006B08803E20003002031D322C20006A08F5
:1018600020002E0203186F2C20002D0803194F2C86
:101870002B082902AE002808031C280A2702AF0003
:1018800020006D08803E2000B0002F08803E30020E
:10189000031D4D2C2E0820006C02031C6F2C200011
:1018A0006E086F0403196C2C2000AE012100B11FDB
:1018B0005B2C2000AE0A20006E0801392000AF002A
:1018C000B000AE062E0C0318672C2100B113031CC8
:1018D0006B2C2100B117C02C22000C16C02C20004C
:1018E0002C082902AC002A08031C2A0A2702AA0095
:1018F00020006B08803E2000B1002A08803E3102A3
:10190000031D852C2C0820006A020318C02C20001F
:101910002D080319A12C2B08A90728080318280F44
:10192000A7072708803EB10020006D08803E2000F8
:101930003102031D9F2C20006C0820002902031C8B
:10194000C02C21002C082D040319BE2C2000A90155
:101950002100B11DAD2C2000A90A21002C0801395D
:101960002000A700AB00A906290C0318B92C210000
:10197000B111031CBD2C2100B115C02C22008C1606
:101980002000991F132D22000C1CD32C23001D1F97
:10199000D32C61302100AE0011302100AF00FF30A8
:1019A0002100B000FC2C2000C60123001E1FDA2CF1
:1019B0002000C60A20004608003003190130CA0082
:1019C000C600460C0318E62C2100B110031CEA2CBB
:1019D0002100B11423001E1FF52C0130F600200059
:1019E0006C08F7006D082226FC2C0130F600200060
:1019F0006A08F7006B0822262000C60123001D1F7D
:101A0000032D2000C60A20004608003003190130CB
:101A1000CA00C600460C03180F2D23001D13031C1B
:101A2000132D23001D172000931064004728080081
:101A30002000A0007708A1002030A200A301A4018B
:101A4000A601210E0F39A500200EA700F039A5042C
:101A5000A7060310A70CA50C3F30A505A701250874
:101A6000A9000310200CA500A7010310A70CA50CCA
:101A70000310A70CA50C1F302505A100A00121080B
:101A8000A500250AA1000230F7002108873135277B
:101A90008D312000A000A7012008C63EA00086309E
:101AA000A10027080318270FA1070230F700250817
:101AB000873135278D312000A700A8012708C63EB1
:101AC000A7008630A50028080318280FA507A8013D
:101AD000200029082802031C902D2708F60025085D
:101AE000F7008030873118278D312000AB00770850
:101AF000AA00AC002B08AD000030AD1BFF30AE00DB
:101B0000AF002C08A2072D0803182D0FA3072F08DC
:101B100003182F0FA4072E0803182E0FA607B32DA6
:101B200020002008F6002108F700803087311827B0
:101B30008D312000AB007708AA00AC002B08AD0067
:101B40000030AD1BFF30AE00AF002C08A2072D08FF
:101B500003182D0FA3072F0803182F0FA4072E0813
:101B600003182E0FA6072000A80A40302802031CE5
:101B7000682D220E0F39A100230EA000F039A10418
:101B8000A006240EA500F039A004A506260EA70085
:101B9000F039A504A706F030A719A7040310A71B66
:101BA0000314A70CA50CA00CA10C0310A71B031475
:101BB000A70CA50CA00CA10C2108A2002008A300D2
:101BC0002208F700230808002000A0007708A100E1
:101BD00021009D1421009D18EA2D1D102000210ECA
:101BE0000F39A200200EA300F039A204A3060310AF
:101BF000A30CA20C0310A30CA20C2208A102230820
:101C0000031C230FA00221001C082000A200A30136
:101C10002208A400A60121001B082000A200A301A5
:101C20002208A6042308A4042608A2002408A3006E
:101C30002208A10723080318230FA0072108F70093
:101C4000200808002000A9007708A8007608AB004B
:101C50000314A91F0310031C362E2100311220008B
:101C6000A809A909A80A0319A90A382E21003116C2
:101C700020002B08013A031D412E2100B11231151D
:101C8000442E2100B116311520002908803E7D3EEA
:101C9000031D4C2EE8302802031C5C2E200028086F
:101CA000AA002908AC002A08F7002C08FF2620000B
:101CB000A9007708A800AB0120002908803E803EDB
:101CC000031D642E64302802031C982E200028086F
:101CD000AA002908AC00AD0120002C08803E803EFF
:101CE000031D742E64302A02031C7D2E9C302000BC
:101CF000AA07031CAC03AD0A6C2E20002A08A8001A
:101D00002C08A9000F30AD052D08543EAD008730DA
:101D10000318013EAA002D08F6002A08F7008030BB
:101D2000873106278E312000AC002100AE009B2EAB
:101D3000FF302100AE0020002908803E803E031DB8
:101D4000A32E0A3028020318B02E20002B08031DF2
:101D5000B02E21002E082000AA00FF3A0319E62E1B
:101D600020002808AA002908AC00AD0120002C089A
:101D7000803E803E031DBE2E0A302A02031CC72E61
:101D8000F6302000AA07031CAC03AD0AB62E2000D3
:101D90002A08A8002C08A9002D08543EAD00873061
:101DA0000318013EAA002D08F6002A08F70080302B
:101DB000873106278E312000AC002100AF002000C3
:101DC0002B080319E92E21002F10E92EFF302100E6
:101DD000AF0020002808AB00543EA800873003184D
:101DE000013EA9002808F6002908F7008030873155
:101DF00006278E312000AB002100B0000800200033
:101E0000A0007708A1000310200CA200210CA30061
:101E10000310200CA400210CA6000310A40CA60C97
:101E20002608A30724080318240FA207230E0F393E
:101E3000A600220EA400F039A604A4062608A307D3
:101E400024080318240FA2072208A600A4012608CC
:101E5000A30724080318240FA2070310A20CA30C45
:101E60000310A20CA30C0310A20CA30C0310230D4F
:101E7000A600220DA4000310A60DA40D0310A60DAC
:101E8000A40D0310230DA500220DA7002508A60709
:101E900027080318270FA4072608A1022408031CFB
:101EA000240FA0020630A1070318A00A210E0F3943
:101EB000A600200EA400F039A604A4062608A30755
:101EC00024080318240FA2072308F700220808009B
:101ED0002000A7007708A9007608A8002708A527F2
:101EE0002000AB007708AA002806031D7B2F2B08D3
:101EF00029060319A42F03102000270DAA00200093
:101F00002A082300910020002808230093001513BD
:101F10009513151520008B13553023009600AA3019
:101F20009600951420008B17230015112300951897
:101F3000962F2000121220002908A800A9012A08C3
:101F4000A700AA0A271C7F2F08002000A000A101DB
:101F5000A2010310200DA3002000230823009100FC
:101F600015139513151413082000A000A4012008D0
:101F7000A600A5012208A000A40120082504A100B4
:101F800024082604A2002308A000A30A201CAC2FCA
:101F90002108F70022080800D134A134FF340434AA
:101FA000D134A1340D340534C934CD34FF34013477
:101FB000C934CD340D34013461341134FF34063466
:101FC00061341934FF3400346134C934FF340734C8
:101FD0008534D134FF340234CD348534FF340834B1
:101FE000D1348534FF340834DD341934FF340334FC
:101FF0001934C1340D340334DD34D534FF3409349D
:020000040001F9
:02000E00D40F0D
:02001000FF3AB5
:00000001FF
